:020000040800F2
:1000000000100020BBAC0008B9AC000803AE00082B
:10001000B9AC0008B9AC0008B9AC0008B9AC00082C
:10002000B9AC0008B9AC000808BF0008B9AC0008BA
:10003000B9AC000850BF0008B9AC0008B9AC000862
:10004000B9AC0008B9AC0008B9AC0008B9AC0008FC
:10005000B9AC0008B9AC0008B9AC0008B9AC0008EC
:10006000B9AC0008B9AC0008B9AC0008B9AC0008DC
:10007000B9AC0008B9AC0008B9AC0008B9AC0008CC
:10008000B9AC0008B9AC0008B9AC0008B9AC0008BC
:10009000B9AC0008B9AC0008B9AC0008B9AC0008AC
:1000A000B9AC0008B9AC0008B9AC0008B9AC00089C
:1000B000B9AC00087196000845A000080BBE000806
:1000C00007BE00083D98000817BE00080FBE0008D4
:1000D0001DA0000813BE0008A5A0000885A0000808
:1000E000B9AC0008B9AC0008B9AC0008B9AC00085C
:1000F000B9AC0008B9AC0008B9AC0008B9AC00084C
:10010000B9AC0008B9AC0008B9AC0008B9AC00083B
:10011000B9AC0008B9AC0008B9AC0008B9AC00082B
:10012000B9AC0008B9AC0008B9AC0008B9AC00081B
:10013000B9AC0008B9AC0008B9AC0008B9AC00080B
:10014000B9AC0008B9AC0008B9AC0008B9AC0008FB
:100150003D840008B9AC0008F5BB0008FBBB0008F3
:10016000B9AC0008B9AC0008B9AC0008B9AC0008DB
:1001700070B506468AB032480BF061FB3148324B0D
:1001800000210360314B324C436004F067FB2AA32B
:10019000D3E90023CDE900234FF0FF334FF0FF32C6
:1001A00020600BF091FB02224FF0FF3120680BF032
:1001B0008DFB00239422CDE9073309933C23CDE93D
:1001C00003320593962303A92068069304F04AFCA2
:1001D00002F062FC2546014620680BF08EFB206889
:1001E0000BF0F8FBB6F9001055F8080B0BF09AFB72
:1001F0007668D6B9284602F049FFA37B66F3000370
:10020000A373202310222384124B83F8202383F826
:10021000212383F8252383F8242383F8222383F8DA
:100220001F2383F823230AB070BD3068A060B28812
:10023000B379AA80AB71E4E70855005100000000D3
:10024000690345ECBC1A0020B13D0008B01A00203B
:100250008C1A002000E100E010B5054C237833B97A
:10026000044B13B1044800E000BF0123237010BD0C
:100270008812002000000000C011010808B5034BDF
:100280001BB10349034800E000BF08BD00000000A7
:100290008C120020C011010810B5274C01F0F0FFAE
:1002A00002F02AF9236F23F0070343F003032367C7
:1002B0000AF03DFF214B00209B6ADB015EBF4FF43B
:1002C00080321F4B9A62D4F8203123F0070343F0A9
:1002D0000203C4F82031D4F8283123F0070343F097
:1002E0000203C4F82831D4F8403123F0030343F06B
:1002F0000203C4F84031D4F8603123F0030343F023
:100300000203C4F86031D4F8403223F0030343F011
:100310000203C4F84032D4F8003223F0070343F05C
:100320000203C4F80032D4F8083223F0070343F084
:100330000203C4F8083210BD008000500040005A8B
:100340000060005A064B0748DA1C121AC11E22F040
:100350000302994288BF002203490BF082BD00BF0F
:100360007010002000100020D4110108064B07482F
:10037000DA1C121AC11E22F00302994288BF002221
:1003800000210BF095BD00BFAC23002070100020B1
:100390004FF480414FF0FF30114B124A10B59A6074
:1003A000D3F8882042F47002C3F888200E4A916680
:1003B0000E4901F5005210660D4850660220C3F840
:1003C000D000BFF34F8FBFF36F8F01244FF4403342
:1003D0000848C0F88041D36004600B6110BD00BFC5
:1003E00000ED00E000000008009000500080004494
:1003F000F7FF370000E100E0014B1868704700BFCD
:1004000004100020084B1B6F03F00703022B04D0DD
:10041000032B05D0012B05D0FEE7044B186870476D
:10042000034BFBE703487047008000500410002096
:1004300008100020002D310108B5FFF7E3FF054B40
:100440001B6FC3F303330133B0FBF3F0024B1860AF
:1004500008BD00BF00800050001000200048704719
:1004600000B4C404014B1868704700BF0810002096
:10047000054B1860054B1B6F03F00703032B01D1DD
:10048000FFF7DABF704700BF08100020008000505F
:1004900000487047002D31014FF0B4439868C0F315
:1004A00004400C2822D8DFE800F009212121212175
:1004B000071719211B1D1F000F4870479B6803F089
:1004C0004073B3F1807F13D0B3F1007F12D00B4A99
:1004D000002B08BF1046704709487047094870470D
:1004E000094870470948704709487047002070471D
:1004F0000848704708487047405DC60000093D0045
:100500000024F400C0EA210180BA8C010048E8010F
:10051000005A620280841E0040420F00014B18689E
:10052000704700BF0C10002010B5144BADF5107DC6
:1005300003AC0FCB84E80F002C22002107A80BF09E
:10054000B7FCFF234FF49472002146A88DF81D30AC
:100550000BF0AEFC6822002112A80BF0A9FC682267
:1005600000212CA80BF0A4FC00942CAB12AA46A9E5
:1005700007A800F0E7F80DF5107D10BDD8BE000803
:100580000122044B1A700023034A1370034A1370AC
:10059000704700BF7D2300207C2300207E230020A5
:1005A000002238B5124B134C1A700122124B1A70EC
:1005B00023689A78DAB1DA78CAB11A78510706D581
:1005C000986A0AF00AFC10B10C4800F01BFA236884
:1005D0001A7892070BD55D680AF0ECFB854206D9C4
:1005E00023680648596ABDE8384000F0C1B938BDF3
:1005F0007D230020AC1200207C2300200080010815
:1006000007B5024601200B4606490870064907480F
:100610000968009106490068096800F035FC03B0DC
:100620005DF804FB7E230020B0120020B4120020ED
:10063000AC120020044A05490548202312680968C5
:10064000006800F0E7BB00BFA4120020A812002041
:10065000B4120020094B1A68D37892782AB1002B83
:1006600041F20C0018BF0020704741F20C0240F22A
:100670000570002B08BF1046704700BFAC12002069
:1006800008B5FFF709FE02F055FB02F03DFB02F052
:10069000FDF9BDE8084001480AF0D2BDB8120020BB
:1006A00010B5254B254C18681B7992B08DF80C308D
:1006B00023880290ADF80D30A37868468DF80F308E
:1006C0000AF0CCFD41F60833ADF810309DF8063045
:1006D0000098C3F300038DF81230BDF80430CDF854
:1006E0001300ADF81730164B1A889B78ADF8282008
:1006F0008DF82A3000238DF82B3002F057FB02F0E2
:100700005BFB2046032102F05DFB02F063FB02F07D
:1007100047FB112102A80AF0B5FD03210AA80AF03F
:10072000B8FD01200AF0BCFD002840F2017008BFAE
:10073000002012B010BD00BFE8BE0008EEBE0008E9
:10074000F2BE000870B5134C134E20601348144DD0
:10075000016014490A60144A1360049A134B1A602A
:1007600033780BB10AF078FD2B78002BF8D0104BC2
:100770001B784BB123689A784AB1DB7840F2057058
:10078000002B18BF002070BD40F20370FBE740F261
:100790000570F8E7AC1200207D230020B412002081
:1007A0007C230020A8120020A4120020B0120020F8
:1007B0007E2300201FB500F1006303F5C0330393CF
:1007C000104B144698421BD8039A0F4B9A4217D2EB
:1007D000039A9B1AA34213D358B94FF000639B6A44
:1007E0000A4A5869904204D91869019100F036FA12
:1007F00001992246039804B0BDE810400AF08BBA74
:1008000004B010BDFF7FFEF700E01708008001086C
:100810007FB56FF0006200F17841914203461AD231
:100820006D460E4A02F110062C46106851680832D7
:1008300003C4B2422546F7D15A1E0DF10F010F3302
:1008400011F8010912F8014F844204D19A42F7D1FC
:10085000012004B070BD0020FBE700BFF5BE00081A
:100860002DE9F0410368044603F16043B3F5802F9E
:10087000A0B034D84FF000639B6A42681E6996426C
:100880002DD8394B9A422AD8456B06F14002AA422C
:1008900068D89D4266D82846FFF7BAFF002861D085
:1008A00028460AF06BFA80B16B6973B1022B0FD145
:1008B000AB69C4F1040119444FF0FF32204600F047
:1008C0001BFE2A4BC31A5842584120B0BDE8F081A4
:1008D00040F2046328460493FFF79AFF08B900200A
:1008E000F3E728460AF04AFA0028F8D04FF00067EC
:1008F000D7F834804046FFF78BFF0028EFD0503EFA
:10090000B045ECD8284605A90AF03FFA0028E6D001
:10091000BA6A059B12699A42E1D89C42DFD8124A12
:100920009342DCD806A800F0A9FE059A2146121BC6
:1009300006A80AF0B6FB06A80AF0B5FB059C00F075
:10094000ADFE039000F0C8FE21460090039B04F129
:10095000200206A800F012FE04900498B0FA80F07D
:100960004009B2E70120B0E700001808E320BBDE31
:1009700070B54FF0FF3290B005460C4600F0BCFD5C
:100980001C4B984232D14FF480621B4B00219A6677
:1009900001A81C220BF08CFA184B29466846043C2F
:1009A00000930AF007FC214668460AF003FC6846FB
:1009B0000AF009FC0AF0A6F90646B8B940F202208E
:1009C0000AF0A8FA1C22314609A80BF071FA0C4B68
:1009D000294608A808930AF0EDFB08A821460AF06A
:1009E000E9FB08A80AF0EFFB0AF08CF9002010B030
:1009F00070BD00BFE320BBDE009000500100054346
:100A0000010006434FF4806230B50446154B91B0A7
:100A10009A6600211C2201A80BF04AFA124B2146CB
:100A2000684600930AF0C6FB68460AF0CCFB0AF061
:100A300069F9054698B940F202200AF06BFA1C22C7
:100A4000294609A80BF034FA084B08A82146089358
:100A50000AF0B0FB08A80AF0B6FB0AF053F9002030
:100A600011B030BD0090005000000243000003436D
:100A70004FF4806210B50F4B8CB004469A6600218B
:100A80001C2205A80BF014FA0B4B019404930123CC
:100A900002930A4B01A904A803930AF081FB04A85E
:100AA0000AF091FB0AF02EF9B0FA80F040090CB080
:100AB00010BD00BF0090005000000843040000205B
:100AC0000048704700800108044B1846016881F314
:100AD000088881F3098840688746FEE700200108FE
:100AE000194B10B5D3F88420110606D44FF40062D8
:100AF0001A67D3F88420D206FBD40AF07EF90AF0F4
:100B0000F7F90AF0EDF80AF0EDF818B14FF40170BA
:100B100000F090F8FFF708FD04460AF0E5F81CB174
:100B200040F203739C4203D140F2012000F082F8AE
:100B3000A4F20574012C94BF40F203204FF401701D
:100B400000F078F8002010BD0040005037B50124B7
:100B5000324B8DF806408DF80740D3F894305B0691
:100B600010D50AF0E2F9A0F2022080B2072809D8D5
:100B700004FA00F010F0C90F1EBF00238DF80630F4
:100B80008DF80730264B5B68013308D14FF40270B3
:100B90000AF0C0F900238DF806308DF807309DF873
:100BA00007305BB11E48FFF75BFE8DF806009DF82D
:100BB00006301BB94FF402700AF0ACF99DF806300C
:100BC0004BB34FF480424FF0FF31164B9A6603F15E
:100BD0007443196601F5800159660021124BC3F870
:100BE000D010BFF34F8FBFF36F8F01250F4CC4F8A8
:100BF0008050BFF34F8FBFF36F8F4FF440300C49DD
:100C00000861C4F88051C860054801F140618A66F6
:100C10009860FFF759FF03B030BD00BF004000509F
:100C2000002001080090005000ED00E000E100E02D
:100C300000A0004408B50AF06DF9BFF34F8F0549D5
:100C4000054BCA6802F4E0621343CB60BFF34F8FD9
:100C500000BFFDE700ED00E00400FA054FF480322C
:100C600008B5044B9A6601F0BDFDB0FA80F040096A
:100C700008BD00BF00900050072BF8B506460F4690
:100C800014461D4601D90020F8BD0121202001F0A5
:100C9000B3F80121212001F0AFF88CB144EA06033A
:100CA0009B07F0D14FF48032064B31469A662846B6
:100CB00023463A4601F0BEFDB0FA80F04009E3E772
:100CC0000120E1E70090005030B500220C24064BD3
:100CD00004FB02F1CD58854201D1581830BD0132D4
:100CE0000C2AF5D10020F9E7A0BF00087FB500234A
:100CF000CDE90033082315460DEB030204460AF044
:100D00004AF941F203039842064626D194F843304B
:100D100063B10822E06C0DEB02010AF0C2F908236E
:100D20000DEB03021146A06C0AF0AAF9039A029B8C
:100D30006A6094F843202B605AB9094A934208D05C
:100D4000084A934205D00822E06C0DEB02010AF03C
:100D5000A8F96B68236500236365304604B070BD55
:100D6000F70A0AF7FC0404FC2DE9F7430446586827
:100D70000E4617469846002841D08B0742D14FF0C7
:100D800000639B6A206E1B6902EB000C1D1D65450C
:100D90001CD81C33984219D28542294638BF0146D7
:100DA0009C4594BFC1EB0C02C1EB0302081AC5F1CC
:100DB000680506EB000968182044494601920BF0CB
:100DC00050F8FF214846019A0BF072F8226E0F4B43
:100DD0009A420AD80E49B818884206D99B1AF25886
:100DE000C4F880204FF0FF32F2503A46D8E900357F
:100DF000206E3146A8470020226E3A44226603B096
:100E0000BDE8F08341F20200F9E700BF0480010869
:100E1000078001082DE9F04100254FF0FF37044617
:100E20008846164603F0200380F842301822FF213E
:100E3000C0E91855A0F8405080F84350A0F844503D
:100E400080F84650C0F8887068300BF031F888227E
:100E50002946C4E91286C4F88070C4F8847004F18D
:100E600090000BF025F8074BC4F82071C4E9463513
:100E700084F8245116B1304600F000FC0020BDE893
:100E8000F08100BF000101012DE9F04FA5B09846A7
:100E9000CDE91123002304460E462E9D1393139A89
:100EA000424501D30020D1E094F84630132BF7D807
:100EB000DFE813F06700B400AE00520039002D00E7
:100EC000C4013900BC01390073013900BC01AB0217
:100ED0001B03140012015102510219034FF00009C3
:100EE000636D0F2B00F298800127102314AA20466F
:100EF000CDF80490009711A90AF04DF841F20303D0
:100F00000890089A9A4200F0D980089B45E04FF07B
:100F10000109D4E91432934200F2E88084F8469043
:100F200041F2030339E04FF00109D4E91417B94243
:100F300072D9C91BDDE91272BF1A94F84020032947
:100F4000174440F28381032F00F28381204611A9C8
:100F50000AF000F8002320E00127636D072BDFD89B
:100F6000082314AA2046CDE9007711A90AF013F846
:100F700041F203030B900B9A9A4200F023810B9BE2
:100F80000BE014AA204611A9FFF7B0FE41F20302BC
:100F90000590059B934208D0059B049341F20303FF
:100FA000049A9A423FF47BAF4FE0159A1499226558
:100FB00000226265A34A914240F01181022284F826
:100FC0004620EAE7012314AA00932046082301974C
:100FD00011A909F0E0FF41F203030690069A9A4234
:100FE00001D0069BD9E7149B03F07F43B3F1407F08
:100FF00005D0132384F8463041F20903CDE7159B51
:10100000D90706D594F8423043F0010384F8423002
:101010000027636D072BD5D901230CE1204614AAC4
:1010200011A9FFF763FE41F203030790079F9F4258
:101030000FD0079F41F203030497049A9A423FF4AA
:101040002EAF049B0BB10023F370049825B0BDE8CC
:10105000F08F1498FFF738FE28B9132341F20807E0
:1010600084F84630E6E7437994F824219A4205D97A
:10107000132341F20E0784F84630DBE70268724919
:101080008A4205D00289D20748BF013384F824314F
:1010900094F84230D9070DD5028994F8433092076D
:1010A00006D53BB1132341F2010784F84630C1E76E
:1010B000002BF7D0037984F84630BBE7D4F848A07A
:1010C00000F028FB80230221CDE9000315AA3B464E
:1010D000504600F029FA03E7226D0123A2650022A1
:1010E00084F84330E26584F84630D8E614AA2046F6
:1010F000CDE9009911A909F04EFF41F203030990CF
:10110000099A9A4201D0099B47E714AF06F10803F8
:101110000DF1680C3A4603CA6245186059601746DB
:1011200003F10803F6D110681860337843F0010327
:101130003370EEE6337843F004033370179BB362E9
:1011400073785F0726D5EB238DF8503017238DF881
:101150005130A6238DF852305E2300208DF8533095
:10116000236D6066C4F8843094F8453043F0020380
:1011700084F84530EF686FB104222B6814A9B84792
:101180000822606E2B68EF6816A91044B847636E9A
:10119000103363660B2384F84630636D072B3FF6EC
:1011A000BFAE012316AACDE900332046082311A9BA
:1011B00009F0F1FE41F203030A900A9A9A42B9D06B
:1011C0000A9BEAE6337843F002033370149B7360A2
:1011D000236D083B7362159BB3F1006F05D0132399
:1011E00084F8463041F20103D7E6042384F8463000
:1011F00094F8453043F0010384F8453000236366DA
:10120000ABE6042314AA2046CDE9007711A909F022
:10121000C2FE41F203030C900C9A9A4201D00C9B3F
:10122000BBE6236D042B02D9149B23660127636D53
:10123000032BE6D9092384F8463071E60023636660
:10124000072350E7EB17A603F90707F98F42FFF4CE
:101250007DAE402928BF40218F4228BF0F46032F73
:1012600088BF27F003073B4614AA2046CDE9009922
:1012700011A909F090FE41F203030D900D9A9A42D4
:1012800001D00D9B89E694F846A0BAF1070F04D16E
:10129000D5F808B0BBF1000F1BD1042FC7F1040B28
:1012A00088BF4FF0000B14AB5A46FF21D8190AF043
:1012B000FFFDBAF1090FBB4414D12B465A46204614
:1012C00014A9FFF751FD0D900D9B002B3FF42DAE9F
:1012D000D7E73A462B68606E14A9D847626E3A4445
:1012E000626622E6BAF1040F21D1737898077FF580
:1012F0001CAEEB68002B3FF418AE626E042A0BD8CC
:101300000BEB0203062B07D915AB9B1A1A68C4F81E
:1013100084204FF0FF321A605A462B68606EEF68E7
:1013200014A9B847626E0BEB02076766FDE5BAF1D8
:101330000B0F7FF4FAAD737859077FF5F6ADD5F84A
:101340000CA0BAF1000F3FF4F0AD5A462B68606E66
:1013500014A9D047E6E74FF000618A6A496B126929
:10136000503A91423FF63EAF112B0FD194F818310D
:10137000002B7FF451AE41F206030E930E9A9A426F
:1013800002D1132384F846300E9B06E694F84430CD
:10139000002B7FF441AECDE9003314AA4023204650
:1013A00011A909F0F8FD41F203030E900E9A9A423A
:1013B000EAD1E06C09F077FE94F81831A3B104F19A
:1013C000B403E06C00931CAA04F1940314A900F088
:1013D000D5F80E900E9B9BB10023F370132384F875
:1013E000463041F20603D8E5E76C00F057F9039068
:1013F00000F072F9039B00901CAA384614A9E6E796
:101400000123F37084F8443006E6002314AACDE9E2
:1014100000332046042311A909F0BDFD41F2030366
:101420000F900F9A9A4202D00F9B04930DE6D4F8C6
:1014300088202F4B9A4205D0132384F8463041F27E
:101440000503F2E70123F37094F84530DA0707D576
:10145000EF682FB104222B68104604F18401B847CD
:1014600094F845309B0707D5EF682FB104222B680D
:10147000104604F18401B847236E6BB36F685FB305
:101480004FF0FF3304F18001042210A81093039160
:101490000AF0D7FC20B104222B6803991548B847FD
:1014A00004F168090422494610A80AF0CAFC98B160
:1014B0004FF000639B6A1422D3F8108004F16C0192
:1014C00008F10800D5E90037B847D5E9003704220C
:1014D000494608EB0200B8470123B3700E2384F895
:1014E00046300023A1E70023F37041F20700ADE589
:1014F000E320BBDE0480010830B50824094B002539
:101500005C66012403F5FE235C6001449D601A6162
:10151000DC60884201D1586A30BD10F8012B1A6294
:10152000F7E700BF00900050F7B516464FF4806211
:101530001D46114B04469A6620300F46019009F073
:1015400060FEDDE90812019809F05FFE002384F8CF
:10155000587063643368C4F859307368C4F85D30F8
:10156000B368C4F861302B0C6DBA84F86530A4F808
:10157000665003B0F0BD00BF009000502DE9F0436D
:1015800015464FF480621C46364B99B0DDF88090CA
:101590000E4607469A66002861D000295FD0002DCC
:1015A0005DD0002C58D0304B304AB9F1000F14BF39
:1015B000984690461C22002111A80AF079FC2C4B79
:1015C000414610A8109309F0F5FD202110A809F05C
:1015D000F1FD0122274B019402920393CDF8109064
:1015E0000592069354B1B9F1000F07D001A910A8D4
:1015F00009F0CCFD04A910A809F0C8FD0797012740
:101600001C4C07A910A80897099409F0BFFD0AA966
:1016100010A80A960B970C940D950E970F9409F04D
:10162000B5FD0DA910A809F0B1FD10A809F0CBFD7A
:10163000114B00934FF098435A6CD202FCD55B6D6E
:1016400040F2046003F470230093009B002B08BF5A
:10165000002019B0BDE8F083DFF81080AAE740F25F
:101660000160F6E7009000501F2400801F24FC84D6
:101670000000010620000020785634124FF48062EA
:1016800010B50446044B9A6609F010FD2046BDE8EB
:101690001040002109F00EBD009000504FF4806210
:1016A00000B50B4B91B09A666946002340224FF477
:1016B000807001F02FF9B0F5A02F07D0B0F5302FD2
:1016C000044818BF002011B05DF804FB0148FAE798
:1016D000009000504CE317084FF4806200B50B4BAC
:1016E00091B09A666946002340224FF4807001F061
:1016F00011F9B0F5A02F07D0B0F5302F044818BF6E
:10170000002011B05DF804FB0148FAE7009000509A
:101710006CE317080048704786E217082DE9F34785
:1017200099460A9B0C46196805463F29164642D839
:101730005A68002A41D0224A002E14BFB046904673
:1017400001F03F07091928BF5A68196024BF013208
:101750005A60AFB1C7F1400AA24521D82946524686
:1017600009EB07000AF07DFB0123414600934A463E
:101770003346002000F086F8B046403C55443C44D7
:101780003F2C0CD9A3092A4600934146334600203A
:1017900000F078F824F03F031D4404F03F040027D4
:1017A0002CB12246294609EB07000AF05AFB00201B
:1017B00002B0BDE8F0879046C2E7DFF80480BFE7DB
:1017C00030C0000830B40546084611461A46DDE927
:1017D000023425B931B1029430BCFFF79FBF0248F3
:1017E00030BC70470846FBE780AFFFFF2DE9F041B2
:1017F0001746146886B01E46E3008DF80F30630963
:1018000052688DF80E30630B8DF80D30630D8DF836
:101810000C30D30003EB54738DF80B3004F03F040D
:101820005309372C8DF80A304FEA52334FEA52529F
:1018300005468DF80820884694BFC4F13802C4F1EB
:101840007802CDE900178DF809300D4903460020D4
:10185000FFF7B8FF082143462A4600970DEB010029
:10186000FFF75CFF284605F1200350F8042B98424F
:1018700046F8042BF9D1002006B0BDE8F08100BF86
:1018800050C00008F0B517464FF480621D46254B46
:1018900093B00E469A660446202200210AA80AF058
:1018A00007FB01204FF0005201970290039204962B
:1018B00005900692079508900992002C2FD1189C4C
:1018C000194BA40121460AA80A9309F073FC039955
:1018D0000AA80C430394069B04A943F02003069333
:1018E000099B43F02003099309F050FC01A90AA8C1
:1018F00009F04CFC07A90AA809F052FC0AA809F053
:1019000062FC4FF098435A6CD202FCD55B6D13F425
:10191000702F0CBF00206FF06F0013B0F0BD6FF0A0
:101920007100FAE70090005000040103044BD3F863
:101930008420D206FBD4D3F88400C0F38110704712
:101940000040005038B5104B0546D3F880300C46A7
:1019500003F00303022B0BD0032B0DD0012B0FD16F
:10196000FEF750FD0E2305B1286004B1236038BD99
:10197000FEF792FD0723F6E7FEF73EFD0623F2E7AA
:1019800000231846EFE700BF0080005038B5174B22
:101990000546D3F820310C4603F00703013B052B25
:1019A00020D8DFE803F0030B130F171BFEF724FD0D
:1019B000052305B1286004B1236038BDFEF752FD50
:1019C0000323F6E7FEF768FD0723F2E7FEF760FD65
:1019D0000223EEE7FEF710FD0623EAE7FEF742FDDD
:1019E0000423E6E700231846E3E700BF0080005029
:1019F00038B5174B0546D3F828310C4603F00703DA
:101A0000013B052B20D8DFE803F003131B0F0B1756
:101A1000FEF7F2FC052305B1286004B1236038BD50
:101A2000FEF7EAFC0623F6E7FEF736FD0723F2E7AA
:101A3000FEF718FD0323EEE7FEF714FD0423EAE7A3
:101A4000FEF726FD0223E6E700231846E3E700BF82
:101A50000080005073B50D460021114B0191D3F861
:101A60008041064604F00304022C13D0032C0CD052
:101A7000012C13D101A8FFF789FF10240EB1019B9F
:101A8000336005B12C6002B070BDFEF705FD072480
:101A90000190F3E7FEF7FCFC0190EFE70C46EDE761
:101AA00000800050002337B50193154B0546D3F84D
:101AB00020320C4603F00703013B032B1ED8DFE85E
:101AC00003F0020E1318002101A8FFF791FF122363
:101AD0000DB1019A2A6004B1236003B030BDFEF756
:101AE000DBFC07230190F3E709F0F4F80A230190E7
:101AF000EEE7FEF713FD09230190E9E70023E7E78E
:101B00000080005038B5104B0546D3F840310C46E4
:101B100003F00303022B0BD0032B0DD0012B0FD1AD
:101B200009F0D8F80A2305B1286004B1236038BD54
:101B3000FEF7F4FC0923F6E709F0CFF80C23F2E7EF
:101B400000231846EFE700BF00800050002337B5A0
:101B50000193164B0546D3F860320C4603F0070399
:101B6000013B032B1FD8DFE803F0020E19140021FC
:101B700001A8FFF70BFF10230DB1019A2A6004B1F1
:101B8000236003B030BD002101A8FFF7BBFF112384
:101B9000F2E7FEF781FC07230190EDE7FEF778FC02
:101BA00002230190E8E70023E6E700BF0080005031
:101BB000002337B50193164B0546D3F894320C46F3
:101BC00003F00703013B032B1FD8DFE803F0020EED
:101BD0001914002101A8FFF7D9FE10230DB1019AB5
:101BE0002A6004B1236003B030BD002101A8FFF7D3
:101BF00089FF1123F2E7FEF74FFC07230190EDE781
:101C0000FEF746FC02230190E8E70023E6E700BF69
:101C10000080005038B5134B0546D3F800320C460F
:101C200003F00703013B032B18D8DFE803F0020A97
:101C30000E1209F04FF80A2305B1286004B12360A1
:101C400038BDFEF76BFC0923F6E709F046F80C23D4
:101C5000F2E7FEF7F1FB0F23800AEDE700231846B9
:101C6000EAE700BF0080005038B5134B0546D3F8B3
:101C700008320C4603F00703013B032B18D8DFE8BA
:101C800003F0020A0E1209F025F80A2305B12860B4
:101C900004B1236038BDFEF741FC0923F6E709F0E3
:101CA0001CF80C23F2E7FEF7C7FB0F23800AEDE7D1
:101CB00000231846EAE700BF0080005038B5104BFB
:101CC0000546D3F840320C4603F00303022B0BD039
:101CD000032B0DD0012B0FD108F0FCFF0A2305B117
:101CE000286004B1236038BDFEF718FC0923F6E72D
:101CF00008F0F3FF0C23F2E700231846EFE700BFDC
:101D00000080005038B5104B0546D3F860310C46C2
:101D100003F00303022B0BD0032B0DD0012B0FD1AB
:101D200008F0D8FF0A2305B1286004B1236038BD4C
:101D3000FEF7F4FB0923F6E708F0CFFF0C23F2E7E8
:101D400000231846EFE700BF00800050B0F5207F69
:101D50001FD009D8B0F5007F15D003D868B1B0F511
:101D6000C07F0AD000200CE0B0F5607FFAD10B4BA9
:101D7000D3F88000C0F3011003E0084B186FC0F3E4
:101D8000033001307047054BD3F89000C0F3046076
:101D9000F7E7024B186FC0F38020F2E70080005095
:101DA00002464FF48030104B10B598660020FFF7C4
:101DB000CDFF504341F671320C4BDC69DA635A684F
:101DC00004F4803422F4401259B9094988428CBF86
:101DD0004FF480100020104358600CB10022DA63E9
:101DE00010BD0449F2E700BF00900050000003500E
:101DF000005A6202002D3101430905D0012B0DD09C
:101E0000022B094B18BF002300F01F0041B103F55E
:101E10008053012202FA00F018607047034BF3E789
:101E200003F50053F5E700BF688000506480005060
:101E30001FB5002180280446CDE9001100F0A580DF
:101E400035D85E2846D85E2844D8DFE800F0A243A3
:101E50004343434343434343434343434343434352
:101E60004343434343434343434343434343A2AA7C
:101E7000A2AAB9B9B9B9B9AAC34DD9714DAAAAAA2A
:101E80004343434343434343AAAAAA79E3AA4343B0
:101E90004343434343434343434343B9A2A2A2DEE4
:101EA0004D4DE8885EBE434343434399A200B0F5DD
:101EB000B06F00F08F802DD8B0F5207F71D00CD896
:101EC000B0F5C07F65D0B0F5007F65D0B0F5807FFC
:101ED00000F08580009804B010BDB0F5607F6AD036
:101EE0000DD8B0F5407FF5D1FEF7A6FA02464FF4C3
:101EF0002070FFF72BFFB2FBF0F0400847E0B0F591
:101F0000806F5DD0B0F5A06FE4D100216846FFF787
:101F1000C9FDDFE7B0F5106F77D016D8B0F5E06FE8
:101F200078D00AD8B0F5C06F6AD0B0F5D06FD1D1F3
:101F300000216846FFF76EFECCE7B0F5F06FC9D11F
:101F400000216846FFF7DEFEC4E7B0F5406F3CD0E5
:101F500013D8B0F5206F62D0B0F5286FBAD1002148
:101F6000314B0391D3F8703203F00303012B02D1FC
:101F700003A8FFF7C7FD039B3BE0B0F5486FA9D16D
:101F800000216846FFF714FEA4E7FEF73BFA009035
:101F9000A0E7FEF751FAFAE7FEF734FA02462046C8
:101FA00004E0FEF749FA02464FF42070FFF7CEFE38
:101FB000B2FBF0F0EBE701A8FFF7C4FC019AEEE7F3
:101FC00000216846FFF7E2FC84E700216846FFF73E
:101FD0000FFD7FE700216846FFF73CFD7AE74FF0F1
:101FE000E02302911B695B0705D5FEF725FA0290F5
:101FF000029B00936EE703A902A8FFF783FDF7E7B2
:1020000000216846FFF77EFD64E700216846FFF780
:102010002BFE5FE700216846FFF750FE5AE70021DC
:102020006846FFF793FD55E70080005008B5802013
:10203000FFF7FEFE034B98429EBF4FF48032024BE7
:102040001A6708BD005A620200A000501FB50023A5
:10205000B0F5807F019300F0C38064D85D2855D827
:102060004C2807D82D2847D823282BD8019805B00D
:102070005DF804FB4D381028F8D801A353F820F080
:10208000D72100086D2000086D2000086D20000891
:10209000892100086D2000086D2000085D220008DD
:1020A000A72100084D210008532200086D200008D8
:1020B0006D2000086D2000086D2000086D200008CC
:1020C0006722000824380928D0D801A353F820F04B
:1020D000D7210008D7210008D7210008D721000800
:1020E000D72100086D200008CD2100086D200008D0
:1020F000692100080D2200083D2800F082803E285A
:10210000B4D1002001A9FFF7D9FDAFE78028ADD1F8
:102110005A4B1B6F03F00703013B032BA6D8DFE8E4
:1021200003F05350878FB0F5F06F6AD021D8B0F527
:10213000B06F4BD00FD8B0F5607F00F0858095D39D
:10214000B0F5806F47D0B0F5A06F8FD1002001A906
:10215000FFF7A8FC8AE7B0F5D06F57D0B0F5E06F75
:10216000CFD0B0F5C06F81D1002001A9FFF7CAFC24
:102170007CE7B0F5206F71D00BD8B0F5086F4AD06E
:10218000B0F5106F7FF472AF002001A9FFF76CFD6E
:102190006CE7B0F5406F5CD0B0F5486F63D0B0F538
:1021A000286F7FF463AF0021344B0391D3F8703272
:1021B00003F00303012B5BD0022B14BF0B46152346
:1021C00000E00523019351E70223FBE7002001A96A
:1021D000FFF740FC4AE7002001A9FFF7D7FB45E7DE
:1021E00002934FF0E0231B695B0705D5FEF724F946
:1021F0000D230393039BE5E703A902A8FFF782FCE5
:10220000F8E7002001A9FFF77DFD2FE7002001A9D5
:10221000FFF700FD2AE7194BD3F8003103F0030361
:10222000022B07D0032B09D0012B0BD1FEF71AF993
:102230000323C7E7FEF772F90923C3E708F048FD57
:102240000823BFE70123BDE7184601A9FFF77AFB82
:102250000CE7002001A9FFF7CBFB07E7002001A94D
:10226000FFF774FC02E7002001A9FFF7A1FCFDE6DF
:1022700003A8FFF747FC1123A4E700BF008000502C
:102280004FF48012034B5A664FF48032024B9A622D
:10229000704700BF009000500050005A38B5044607
:1022A0008020FFF7D3FE032800F083804FF48012D4
:1022B000504B4FF0A0615A6645F60E034E4AC2F8E5
:1022C00080304E4B99624FF4803103F58053996210
:1022D000916D11F48031FBD1D4E900031B0543EA71
:1022E0000063E07B0343207B43EA0043607B43EAD7
:1022F0000033A07B43EA801313619069D4E904534F
:102300001B0643EA856300F000400343A07EE57EA0
:102310000343207E43EA0043607E43EA0023936147
:10232000E069136A00280CBF0022082223F00F0383
:1023300043EA000343EA850343EA02032E4A304D91
:10234000136237D194F82430916A94F82000DB00AE
:102350000D4043EA401394F821102B4343EA011344
:1023600043F480339362274B916D33EA0101FBD133
:102370004FF08071214881621369A56823F47003CE
:1023800043EA055313614FF00043836194F8223010
:102390000BB91D4B996294F823301BB94FF480326E
:1023A000194B9A6294F825301BB1134B174AC3F8A6
:1023B000802038BD022808D11161154891614FF481
:1023C00008524FF47F4108F08EFE0B4994F82230FA
:1023D0008A6A94F820001B06154043EA401394F8DB
:1023E00024202B4343EAC20394F8232043EA024308
:1023F0008B62D7E7009000500040005A0050005A0E
:10240000C7FFFEFE030001000060005AF1A7FFFFB6
:102410003440005A014B93F9000070475E100020D1
:10242000B0F5207F10B50C4657D008D8B0F5007F26
:1024300048D003D830B3B0F5C07F23D010BDB0F57D
:10244000607FFBD129492A48D1F8FC2012F0807224
:102450001EBFD1F8FC3023F08073C1F8FC30D0F8F7
:102460008030611E23F0300444EA0114C0F880403B
:10247000002AE3D01D4AD2F8FC3043F08073C2F842
:10248000FC30DBE708F040FE08F04CFE4FF48031F2
:10249000184B174A1967136F611E23F4704444EAFE
:1024A00001341467FDF7C8FF0446FFF73FFAC0F197
:1024B0000201204608F030FE00F02EF8BDE8104082
:1024C000FFF7B4BD0A4A0139D2F8903023F0F8542E
:1024D00044EA0164C2F89040B0E7054B013C196F33
:1024E00021F4806141EA84241C67A7E700ED00E045
:1024F000008000500090005008B50121022000F03B
:1025000025F808F001FE08F00DFE4FF48032014B73
:102510001A6708BD0090005008B54FF4C070FFF76F
:1025200087FCBDE80840044988428CBF0221012194
:102530004FF42070FFF774BF80F0FA02024A536B29
:102540000342FCD1704700BF00400950F8B5044673
:102550001C4BD3F88420D106FBD4D3F88430C3F3CA
:1025600081139C422CD0FDF74DFF012C064602D171
:10257000214608F0D1FD08F0EFFD4FF00072124B3C
:1025800007465A66204608F0F7FD4FF480630D4D6C
:10259000621E93402B676B6E9A0103D4D5F884308A
:1025A0009B060AD5384608F0DBFD022C08D13046E0
:1025B000BDE8F840002108F0AFBDD5F88430EAE767
:1025C000F8BD00BF004000500060005007B518B9CA
:1025D0000191FDF717FF0199064B1B7843B1064B9C
:1025E000984205D8012003B05DF804EBFFF7AEBFB9
:1025F0000220F8E77F230020005A62024FF00042D9
:10260000154B10B55A664AF6CD3314494C6C0B6421
:1026100004F0010488B90120FFF790FF4B68DB0745
:1026200004D50F4B58600B6BD807FCD514B10B4B7E
:102630000C4A1A6409F05FF910BD0B6B1A07FCD441
:102640002022074B9A620122A3F580535A60034A65
:10265000936A9B06FCD5E9E70090005000400950C2
:10266000006009503254FFFF4FF0004238B5164B5E
:1026700001465A664AF6CD33144C154A656C2364FC
:1026800043780B205B0043F00103D363FFF756FF51
:1026900063688A7823F4F87343EA02136360CA78A4
:1026A0004B7943EA0223A3600A798B7943EA022338
:1026B00023610878FFF7A2FFEB0744BF054B2364B3
:1026C00009F019F9012038BD009000500040095070
:1026D000004000503254FFFF4FF00042124B70B5E3
:1026E0005D6E03F580535A664AF6CD3304460F49B2
:1026F00080204E6C0B64FFF721FF0B6A23F00F0361
:102700000F2C94BF234343F00F030B62F30744BF26
:10271000074B0B64002DA2BF4FF00042054B5A66D9
:1027200009F0E9F870BD00BF00800050004009507A
:102730003254FFFF00A000504FF00042104B70B524
:102740005D6E03F580535A664AF6CD3304460D4953
:1027500080204E6C0B64FFF7F1FE0B6A23F4F853F4
:1027600043EA04230B62F30744BF074B0B64002DBD
:10277000A2BF4FF00042054B5A6609F0BCF870BD8D
:1027800000800050004009503254FFFF00A000506C
:10279000F0B5114A114C124E00F00105E3695F07D4
:1027A00013D40DB9334213D103EA00078F4207D186
:1027B0000B4A1A40002A14BF6FF001000020F0BD40
:1027C000013AEBD16FF00200F9E74FF0FF30F6E786
:1027D0006FF00100F3E700BF8096980000000350FF
:1027E000020001004FF4803238B50E4B0E4C9A6651
:1027F000E56941F6713315400122E3630B4B00217B
:10280000DA600223606121202361FFF7C1FF10B964
:102810002120FFF7BDFF0122054BDA600DB1002337
:10282000E36338BD009000500000035000100350D7
:10283000002003502DE9F04F06464FF430250120CB
:10284000B400DFF8C0C004F1A04404F58824CCF83B
:1028500004006560302500244FF48037DFF8A8E0DD
:10286000DFF8A89005FB06E5EC652C662C67234C89
:10287000DFF89CA0A76641F6713704F51C34D4F844
:102880001C80E763E76800FA06F60743E7604BB988
:10289000E26818F4803F22F00102E26000D0E363B6
:1028A000184628E001F5005000EA0900401A984255
:1028B00028BF18466161D4F81CB087081BF0040FCC
:1028C00017D1013F3F0147F060576F66AA66C5F810
:1028D0006CA0CCF82460DEF834703E42FBD0084F88
:1028E00001447E630427CCF82860024427611B1A48
:1028F000CDE74FF0FF30BDE8F08F00BF00900050F3
:1029000000200450001004500000045000E0FFFFBD
:1029100018000350F0B507460F4D10488DB0002B3E
:1029200008BF05460E46144600211C2205A809F0E2
:10293000BFFA012304A801A93D4344F000540196C5
:1029400004950293039408F02BFC08F03CFC08F07B
:1029500014FC0DB0F0BD00BF01000AFF010008FF2C
:102960004FF48032064B5A6603F5E6239B69C3F3A6
:102970008512827003F03F021B0B42700370704798
:102980000090005038B50446054D08F0C7FF0FCC45
:102990000FC594E8030085E80300002038BD00BFA0
:1029A000C012002047F6FF739A42F0B567D00229A3
:1029B00067D8354DCF0015F8313005EBC100012B3C
:1029C000847813D10025C3781B1B9D4202D3E018E5
:1029D000C0B2F0BD591B4668A3EB510136F9116036
:1029E0009642D4BF0D4601F1FF33EEE74068002860
:1029F000EFD0B0F90030934204DBB0F902309342DB
:102A0000B8BF134682883D44FF2A19BFC8214FF042
:102A1000280CB0F90610B0F908C0A1EB03020CBFF6
:102A20000126002692FBFCF26D78324412B29542E8
:102A300001DD002A01DA6A1E12B24FF47A7700EB48
:102A4000C206F188B668013213FB016112B221EAB5
:102A5000E17101F5FA719542B1FBF7F104DD00EB8C
:102A6000C206B6888E42EAD200EBC20232F8040CEB
:102A7000884228BF0846A04238BF2046A8E7FF206A
:102A8000A7E70020A5E700BFC01200200148FFF71C
:102A900079BF00BF90C00008004870475010002068
:102AA0004FF48062014B00209A66704700900050FE
:102AB0004FF48062014B00209A66704700A00050DE
:102AC0002DE9F04104681E4624F04003802B0546A2
:102AD0008846174692B002D0B4F5807F43D11C22BD
:102AE00000210BA809F0E4F9224A234B0121B8F197
:102AF000010F18BF13460A932B1D0193E4081F4BC7
:102B000044F0005402910AA8039404970591069397
:102B10000796089101A9099308F038FB04A90AA8AF
:102B200008F034FB07A90AA808F03AFB29680AA8AC
:102B3000C90808F03FFB10210AA808F03BFBFFF78B
:102B4000AFFF98B90AA808F03EFB4FF098435A6CC3
:102B5000D202FCD55C6DFFF7ABFF04F47024204675
:102B600012B0BDE8F0816FF07100F9E74FF0FF306F
:102B7000F6E700BF0001010400010004100000207E
:102B80002DE9F04F9BB00746894698461646DDF87A
:102B900094B072B115683B6823F04002802A03D0DC
:102BA000B3F5807F40F0A6800BEB0903002400936F
:102BB0000DE01546EFE795B1249A1BF80430525DFD
:102BC00001355340269A05F00F05135501344C4545
:102BD000F1D3002E00F091800020356067E0A9EB72
:102BE000040ABAF10F0F57D91C22294613A809F07D
:102BF0005FF9434B3A6812933B1D03930123D208BC
:102C000042F00052049305923E4A2699CDF818806E
:102C10002AF00F0A07930892CDF824800A930B92AA
:102C20000BEB04020C9221444AF000520D9312A8BF
:102C30000E920F9103A91093119208F0A7FA06A91A
:102C400012A808F0A3FA0CA912A808F09FFA0FA97D
:102C500012A808F0A5FA09A912A808F0A1FA396883
:102C600012A8C90808F0A6FA514612A808F0A2FA5C
:102C7000FFF716FFC8B912A808F0A5FA4FF098435D
:102C80005A6CD202FCD55B6D544403F4702301935B
:102C9000FFF70EFF019B5BBB269B0BEB040A1C445A
:102CA000009B9A4506D14C4691E74FF0FF301BB090
:102CB000BDE8F08F8DB9424601213846249BFFF7CD
:102CC000FFFE0028F3D108F1100212F8013D013394
:102CD000DBB213700BB99045F7D1249A1AF8013B77
:102CE000525D0135534004F8013B05F00F05D7E76D
:102CF0001846DCE76FF01F00D9E73046D7E700BF82
:102D0000030300041000002007B5094B18689A88D7
:102D10009B7900906846ADF804208DF80630FFF7E7
:102D2000A3FC0C20FFF7D8FC002003B05DF804FBE7
:102D30000CC1000830B58BB06C46154D0FCD0FC4DB
:102D40000FCD0FC495E8030084E80300114BD3F8BE
:102D50004C21120314D4D3F85041E4B28DF8194039
:102D6000FFF758FB204480F308008DF818000A484C
:102D7000FDF77EFB6846FFF791FA00200BB030BDEF
:102D8000064B1C884FF6FF739C4208BF8C24E5E776
:102D900014C100080080E00FC01753020001E00FCB
:102DA000014808F0AFBA00BFD8120020014808F06F
:102DB0007EBA00BFD8120020014800F053B800BF0F
:102DC000D81200200A460146014800F07BB800BF37
:102DD000D8120020014800F0B5B800BFD81200207A
:102DE0001FB50A79064B02920A6808310192022245
:102DF00000920CCB08F056FB05B05DF804FB00BF59
:102E00004CC1000830B50B7985B00333029301F152
:102E10004403019302230C460546114A00931431E2
:102E20000CCA08F03FFB238A04F12C010293E368EB
:102E300028460193237A009394E80C0008F032FBB3
:102E40000546237AA4F845002279216884F84430A5
:102E500004F1470009F005F8284605B030BD00BF71
:102E600044C1000838B50546124B134CD4E90201A1
:102E700083E8030019462846FFF7B2FFD4E90401AE
:102E800010220E4B83E80300194628461A72FFF7FA
:102E9000B9FFD4E906010222094B20341A7283E8F3
:102EA0000300DC60194628461A82BDE8384008F065
:102EB00007BA00BFDC13002060C1000838130020EF
:102EC00090130020F8B504460D4B0E4D0F46D5E982
:102ED000090183E80300194620461646FFF780FFE4
:102EE000D5E90B010222084B1A7283E80300DF6068
:102EF000194620461E82BDE8F840FFF783BF00BF99
:102F0000BC13002060C10008E012002010B50C4680
:102F100030B907F0ECFE034B186023600423A38054
:102F2000002010BDFC13002010B50C4630B907F08E
:102F3000DCFE034B186023600423A380002010BD37
:102F4000001400202DE9F74306466D464FF00809AE
:102F5000404C414B414F94E8030083E8030019467D
:102F60003046FFF73DFFD4E9020187E80300284619
:102F70003B4987F8089008F09EF995E8030007F1AF
:102F80000C0383E8030039463046FFF73BFFD4E9E2
:102F900004010C234FF00208324F87E80300284653
:102FA00031493B7208F087F995E8030007F10C03FB
:102FB00083E8030039463046FFF724FFD4E90601D1
:102FC0002A4B2B4A83E803001946304683F80880D1
:102FD000DA60A3F81090FFF715FFD4E90801254B3C
:102FE000254A264FDA60012283E80300194630465D
:102FF0001A8283F80880FFF705FFD4E90A0187E801
:10300000030028461E4987F8088008F054F995E81F
:10301000030007F10C0383E803003946194F3046DB
:10302000FFF7F0FED4E90C0187E8030028461649B3
:1030300087F8088008F03FF995E8030007F10C03D2
:1030400083E803003946304603B0BDE8F043FFF79C
:10305000D9BE00BF0CC20008141600200C150020B9
:103060004DB300086415002035B300085C1400203F
:1030700044C20008BC1500204CC20008B414002053
:10308000292F0008041400200D2F0008074B9A6C0C
:10309000DB6C110A0270120C82701A0AC2701A0CD0
:1030A0001B0E417002714371704700BF0080E00F3A
:1030B0007FB500230130CDE9043380B2054BCDE963
:1030C0000101694604200093039208F00CFA07B04E
:1030D0005DF804FB802300201B22014B1A807047FF
:1030E0005C230020F7B50346CDE9001207460E46E3
:1030F00015464FF48040094A094908F016F90022A4
:10310000012311460420074C2370677066802571E7
:1031100003B0BDE8F040FFF7CBBF00BFEDC3000830
:103120004DC2000880230020034610B5094A04461A
:1031300009494FF4804008F0F8F80322074B0220B9
:103140001A700022A3F801401146BDE81040FFF7B5
:10315000AFBF00BFD6C3000881C200088023002093
:1031600030B50C4685B004A901E90C0005460346BC
:103170000A4A4FF480400A49009408F0D6F8052224
:103180000320084B02991A709DF80C205D705C803A
:1031900005B0BDE83040FFF78BBF00BFBBC30008E0
:1031A0008DC200088023002037B5034605460C4633
:1031B00000914FF48040094A094908F0B6F8072207
:1031C000084B04201A7000221146A3F80150A3F8FE
:1031D000034003B0BDE83040FFF76ABFA0C300085A
:1031E000B1C200088023002038B5094A05460C46C4
:1031F0000B464FF48040074908F097F80B22064B26
:1032000029461A7000202246BDE83840FFF750BF1B
:1032100090C30008D6C200088023002008B54FF4F0
:103220008040074A074908F080F81322064B1A70BD
:103230000022BDE8084011461046FFF739BF00BF25
:103240007FC30008E5C200088023002073B5034651
:10325000144605460E4600924FF48040084A09493C
:1032600008F063F80922084B31461A70A21C5A7004
:10327000032022465D8002B0BDE87040FFF718BF12
:1032800069C30008EBC20008802300202DE9F34148
:103290001C469046CDE9001307460E4603460A4AEF
:1032A0004FF48040094908F040F811232246414676
:1032B0000520074D2B70231D6B706F80AE8002B010
:1032C000BDE8F041FFF7F4BE4EC3000809C3000893
:1032D0008023002070B50D4603780C4A04460C4943
:1032E0004FF4804008F021F800230A4E691E204662
:1032F00089B2738000F040F8024628B171882078C6
:10330000BDE87040FFF7EEBE70BD00BF46C30008C9
:1033100033C300085C230020024610B500B3114BF4
:103320001968888890421BD398880024904281BFF6
:1033300001200968988099609868998828B904B133
:1033400098604FF6FF729A8009E08A4204D00131FA
:103350000124006889B2F1E70CB19A80986010BD31
:103360000020FCE7341600204FF6FF72014B186076
:103370009A807047341600202DE9F04704780546FE
:10338000122C0E4688B017D8012C18D9A31E102B6A
:1033900015D8DFE813F0160014002F0014005A00AF
:1033A00014000E0114009F001400140014001400F7
:1033B000140051011400CC00522C00F0DE800624D1
:1033C0003FE0022940F0B681B0F80130B34A4FF433
:1033D0008040B34907F0A9FFB5F80140B4F5007F7C
:1033E00028BF4FF400742046FFF79EFEAD4B1C80B3
:1033F000002426E0042924D1B0F80330AA4A00931F
:10340000B0F80130A9494FF4804007F08EFFB5F8BD
:10341000017006ADBEB22946304607F0C1FF044632
:1034200018B1A04B5F800A240BE09DF81C30314698
:10343000022B08BF012095E80C0018BF0220FFF7FF
:103440008FFE204608B0BDE8F08702278E1FB6B277
:103450000196B0F80330964A0093B0F801309549D0
:103460004FF4804007F061FF05F10508EB1D019660
:1034700000938DF81470CDF810804246059BB5F886
:103480000310B5F8010007F098FF4FF6FF76B04241
:10349000044606D1AA786B7843EA0223814A538016
:1034A000C1E70023CDE90033CDF818808DF81C70FA
:1034B00008AB0130314613E90C0080B207F07DFF04
:1034C0000146B0421CBF00F1FF3189B22046FFF730
:1034D0006BFE8DE7022940F02D81B0F80130764A6D
:1034E0004FF48040754907F020FF3146B5F80100E0
:1034F00007F0B5FF6B4E044628B16B78AA7843EA13
:10350000022373809DE733880146013BADF81030FC
:10351000B5F8010004AB06AA07F0B3FF0446002883
:10352000EBD1BDF810100698FFF75EFE89E78E1EFE
:10353000B6B20096B0F80130614A4FF4804061495C
:1035400007F0F3FE0821B5F8010007F088FF0446F4
:1035500030B1AA786B7843EA0223524A538070E76D
:1035600001463346B5F80100EA1C07F05FFF044648
:103570000028EED1FFF752FE63E78E1EB6B200962A
:10358000B0F80130504A4FF480404E4907F0CDFE6C
:103590000421B5F8010007F062FF044600287FF41B
:1035A00027AF01463346B5F80100EA1C07F03EFF9D
:1035B00047E70E1FB6B2022E02D0102E40F0BA809E
:1035C0000024B5F803304FF480400093B5F8013083
:1035D0003E4A364907F0A9FECDE900446B1D06932B
:1035E0008DF81C6008AB13E90C00B5F80310B5F8B2
:1035F000010007F0E2FE4FF6FF7398420646294F9E
:1036000005D16B78AA7843EA02237B800BE73B88DD
:103610002146043BADF80E3004AA0DF10E0307F06D
:1036200030FF044608B17E800BE73046BDF80E201F
:103630000499FFF70BFE04E70E1FB6B2022E01D06D
:10364000102E77D10024B5F803304FF4804000935A
:10365000B5F801301E4A154907F067FECDE9004470
:1036600005F1050AF6B28DF81460CDF810A05246A7
:10367000059BB5F80310B5F8010007F09EFE4FF664
:10368000FF7948450746DFF81C8023D16B78AA787C
:1036900043EA0223A8F80230C5E600BFB9C4000817
:1036A00081C200085C230020A6C40008FEC30008F5
:1036B00093C400081CC400088BC4000845C400085B
:1036C00082C40008EBC2000879C400086BC400087B
:1036D00058C40008CDE90044CDF818A006AC8DF818
:1036E0001C60013094E80C00494680B207F065FE8A
:1036F0000546B8F800304845A3F1060318BF00F1AD
:10370000FF352246ADF80E304FF0000138460DF17E
:103710000E0318BFADB207F0B4FE044610B1A8F80E
:1037200002708EE629463846BDF80E30069AFFF73D
:10373000ADFD86E6042484E60022014B1A60704742
:103740004418002003291FB51CD90288131D994273
:1037500018D304D84388042B03D0062B06D00120AD
:1037600011E011460430FFF7B5FDF8E70022CDE97E
:103770000222064A6946009202221846019207F088
:10378000B2FEECE7002005B05DF804FB5F100020FE
:1037900037B500220DF10700114600F05FF89DF8E3
:1037A00007300C4C0BB10023236021680A4DC1F592
:1037B000017292B229440DF1070000F04FF8216820
:1037C000014428462160FFF7BDFF08B100232360B4
:1037D00003B030BD441800204016002010B5044648
:1037E0004FF4807300210E4A0E4807F00FFF4FF48C
:1037F000807300210C4A0D4807F008FF2046FCF7B3
:10380000B7FC07F0C4FE00F035FD07F0F3FF8307B7
:1038100005D500F0F9FBBDE8104000F049BA10BD35
:103820007819002060190020601800204818002036
:1038300008B513460A460146024807F0A6FFC0B283
:1038400008BD00BF6019002008B5034807F0E7FE77
:10385000003818BF012008BD6019002073B50E465E
:103860000446019207F078FC214605463246019B4A
:10387000044807F08AFF0446284607F071FC2046FA
:1038800002B070BD4818002008B5034807F0C7FE15
:10389000003818BF012008BD4818002073B50E4637
:1038A0000446019207F058FC214605463246019B2A
:1038B000044807F035FF0446284607F051FC20462F
:1038C00002B070BD6019002010B50C4601460448D6
:1038D00007F085FFA04234BF0020012010BD00BFCB
:1038E0004818002073B50E46114605460192FFF7B1
:1038F000EBFF044628B132462946019B024807F0F7
:103900000FFF204602B070BD4818002010B5034CD0
:10391000A07900F007FE0023236010BD781A002074
:103920001FB50B4C0B4AA37A0B490393637A4FF4F0
:1039300080500293237A0193E3790093A37907F0EF
:10394000F4FCA01D00F072FD0023236004B010BD44
:10395000781A00207DC60008C8C400081FB5104CA6
:10396000104AB4F80D304FF480500293B4F8093087
:103970000D490193A3790093B4F8073007F0D5FC03
:10398000B4F80710A07900F083FDB4F80D10B4F876
:10399000090000F091FD0023236004B010BD00BFBA
:1039A000781A00204FC60008F1C40008014B998026
:1039B00018607047781A00200022014B1A60704787
:1039C000781A0020034A13681BB19288824200D102
:1039D00018477047781A0020014B18701846704736
:1039E00087230020162838B503464FF0020514BF80
:1039F000034613230B4C0C4A4FF480500B49637061
:103A0000257007F092FC2946204600F06DFD00F07D
:103A1000C9FE074B074A05301A60627898809A7190
:103A200038BD00BF8723002017C6000828C500083E
:103A3000781A00200D39000830B5044603787B4A17
:103A40004FF480507A4985B007F06FFC23780C2B37
:103A50000AD80C2B0BD8DFE803F05A3F790A0A0A80
:103A60000A0A890A0A0A1600142B00F0A8802046C8
:103A700000F024F9002867D1072223786D4802213D
:103A80000270437023E0A3884FF480500193638851
:103A9000694A00936378694907F047FC4FF0FF32A9
:103AA000644C0C23A2700222E27000222370627127
:103AB000012340F2FF2263702371604900924FF4AA
:103AC00080505F4A019307F030FC0621204605B084
:103AD000BDE8304000F008BDE3885A4A5A494FF427
:103AE000805007F022FCE179A379584A43EA012388
:103AF00093801346564943F8061BD4F80110C2F8C8
:103B00000610B4F805209A80E2799A711CE0638966
:103B1000504A4D494FF4805007F007FCE27AA37AEF
:103B20004A4943EA02238B800B464B4A43F8062B53
:103B3000D4F80120C1F80620D4F805205A60B4F862
:103B400009201A81E27A9A7205B030BD6378434A3F
:103B50004FF48050424907F0E8FB00F023FE3B4B56
:103B6000404A05301A6098806278CEE7D4F8053074
:103B7000D4F801203C49CDE900234FF480503B4A62
:103B800007F0D3FB00F014FAD4F80130294C0340BD
:103B900003F0FF0320F0FF0018430925234600220D
:103BA00003F8015BC4F801002F495A60CDE9000217
:103BB0004FF480502E4A07F0B8FB294686E7B4F848
:103BC00007302C4A0293B4F805304FF4805001932B
:103BD000B4F8033028490093B4F8013007F0A5FB8E
:103BE000B4F80310B4F8010000F074FC1523114C74
:103BF0006FF0270223700723E2702371E2712372B2
:103C000000216FF004004FF4FB62FB236070A17091
:103C10006071A1714FF48050CDE9013216490092D4
:103C2000164A07F082FB092150E700BF0EC60008C4
:103C30003EC500088723002003C600084FC50008C2
:103C4000A5C6000897C6000880C50008781A00209D
:103C50002139000869C600085D39000842C600081D
:103C600028C500080D39000890C5000837C60008AF
:103C700028C60008F9C50008A9C50008EBC500085A
:103C800010B5084B4FF480509C79074A23460749EA
:103C900007F04BFB204600F017FCBDE81040FFF793
:103CA0008BBE00BF781A002012C70008B4C60008F7
:103CB0000122014B1A70704793230020244B73B5E7
:103CC0001E7804462EB10378162B05D0182B27D06A
:103CD0000026304602B070BD83781E4A00934378B8
:103CE0001D494FF4805007F020FB6378A47817201B
:103CF0001C4004F00304022C18BF0124FFF76CFEE3
:103D000005464470847023464FF48050134A12498C
:103D1000009407F00AFB0221284607F035FCD8E79B
:103D2000B0F803300E4A019383780E49009343782C
:103D30004FF4805007F0F9FAB4F803100A48FFF77F
:103D400035FED4F80120094BC3F80620C1E700BFB7
:103D5000932300203DC70008C4C6000832C70008EE
:103D600025C70008E4C60008813C0008781A002036
:103D700013B50D4B01281B880C4CADF80030ADF885
:103D8000043002BF02238DF8003004236946206806
:103D900008BF8DF8043007F07FFD206801A907F007
:103DA00091FD02B010BD00BF44C700088C1A00206E
:103DB00070B5334C11464FF4867086B01E461546DA
:103DC00007F0B6FA236933B929464FF4837007F038
:103DD000AFFA06B070BDA5F10802324321D101AAA5
:103DE0000321206807F0D4FD636860615B7A04F109
:103DF000180123769DF804300220DA1F5342534104
:103E0000627E63F30002039B6276E361BDF80630D5
:103E100063832369984701220021206807F0BEFDD3
:103E2000D7E705F17F42324305D10021012006B0DA
:103E3000BDE87040184715F4A04209D04FF48071D6
:103E40004FF4817007F074FA002103202369EEE734
:103E500005F4A0631A4308D001214FF4817007F0E4
:103E600067FA0021FF202369E1E705F0A042134330
:103E700019BF012140F2011029464FF48370EEE78B
:103E80008C1A00200A46014602484FF4007300686D
:103E900007F07ABD8C1A0020F0B50446164D174A7B
:103EA0006B68807A5B7A85B0D75C0E46FFF760FF5F
:103EB000237AB9B2022B0CD1002328681A4600F0ED
:103EC000FBFCA8B10021FF20334605B0BDE8F0405F
:103ED0001847002220688DF80C3002900092286864
:103EE00002ABADF80D208DF80F2000F0F3FCE8E7F1
:103EF0002E6105B0F0BD00BF8C1A002046C7000837
:103F00002DE9F04104461D4D1D4A6B680E465B7A53
:103F100086B0D15C807A0191FFF72AFF237A4FF0B7
:103F20000108022B02BF0023029301238DF80C30FD
:103F3000636818BF226803F164030493637A4FF047
:103F4000000418BF029201998DF8143002AA23468A
:103F500028688DF815808DF8164000F0E1FC0746C2
:103F600042462146286807F019FD2FB12146FF205F
:103F7000B04706B0BDE8F0812E61FAE78C1A002048
:103F800046C7000808B500214FF4857007F0D0F946
:103F90000022044B03211A6118680122BDE8084081
:103FA00007F03FBC8C1A002000487047941A00208C
:103FB000014B188C704700BF8C1A00207FB502237C
:103FC0008DF80A30064B5A8B59690332ADF8082038
:103FD000186801AA07F0E0FC019807B05DF804FB3F
:103FE0008C1A0020002313B5064C0093437AD0E9C5
:103FF00000216060206807F00EFD00F00DF802B0AF
:1040000010BD00BF8C1A0020024A138C43F4807349
:10401000138470478C1A002038B50D4C238CDB05B7
:104020000CD563680B4D1B7A2A789A4206D0012B77
:1040300005D0022B07D063681B7A2B7038BD20682F
:1040400000F054FFF7E7206800F056FFF3E700BFE9
:104050008C1A00209423002010B50024064B1C600D
:10406000064B1C7007F0BEFAB0FA80F3044A5B09F5
:104070001370044B1C7010BDCC1E00209623002032
:10408000972300209523002010B5074B1C782CB9EE
:10409000064B1B7833B107F0ADFA044600F066F822
:1040A000204610BD8124F9E79623002097230020A5
:1040B00038B50A460F4903460978C1B10E49087858
:1040C00050B90E4C24783CB90D4C20681518B5F544
:1040D000806F02D98220087038BD1946094B1844F8
:1040E00007F0BFFE2560BDE8384000F00DB8812024
:1040F000F2E700BF9723002096230020952300209D
:10410000CC1E0020CC1A002038B5134B134D1A7862
:104110002968022A0ED0032901D8002038BD104A90
:104120001068104A904203D084200F4B1870F5E7B6
:1041300002221A700A48FCF763FA04462A68074903
:10414000074807F02CFA002CE7D041F207039C4205
:10415000E3D08520E9E700BF97230020CC1E002094
:10416000CC1A0020EB17A603962300200022014B57
:104170001A707047972300201FB5124C1148637ABC
:104180000133DBB2272B88BF25236372FFF72AFF99
:104190000023CDE90233E368627C01930123617D52
:1041A000D207094801F102018DF80C3048BF8DF8A3
:1041B0000E30FFF767FE054901A8FFF76DFE04B05A
:1041C00010BD00BFD01E0020E41E0020D141000819
:1041D000022810B51BD002D8012805D0FEE703281D
:1041E00043D0FF2841D0F9E7214C637C990707D5DC
:1041F000FFF7C8FEFFF7C0FF637C6FF341036374F2
:10420000637CDA0730D4BDE81040FFF7B5BF4B78C8
:10421000DB072AD54C68217801F00F03032B11D05E
:10422000052B22D1C90904F1080007F0E5FAD8B13D
:10423000FFF7A8FEFFF7C2FE01462046BDE810408A
:1042400000F0B6BAC90904F1080007F0D5FA58B170
:10425000074C94F83D1004F13C000231FFF712FEC8
:10426000637C43F00203637410BDFFF78BFECAE763
:10427000D01E002010B5094C00215C2204F108007A
:1042800007F016FE42F210730549E360054BC4E9DE
:10429000001342F20153238110BD00BFD01E002045
:1042A000D6BE898E5555550038B50446FFF76AFECF
:1042B000002C3FD0204C257C627CB5FA85F35B094D
:1042C00063F300026274FFF76FFE837905F00F0558
:1042D000C3F3000345EA8315237D23F04F031D43F9
:1042E000637D25750BB9062363750368C4F8163022
:1042F0008288124B9A80FFF757FE837994F83C200E
:10430000C3F300039B0143F0040322F04F02134365
:1043100084F83C3094F83D3013B9062384F83D30DE
:104320000368C4F83E308288054B9A80BDE8384067
:10433000FFF722BF38BD00BFD01E0020E61E0020C0
:104340000E1F002020290A4608B509D8054B063162
:104350005975014603F11C0007F083FD002008BDDC
:104360001220FCE7D01E002020290A4608B50AD8F2
:10437000064B063183F83D10014603F1440007F077
:1043800070FD002008BD1220FCE700BFD01E0020F9
:104390000A20D0B50B4CE38C584306F061F8064672
:1043A000A08C0F4606F05CF80022074B06F0C2F81E
:1043B00002460B463046394606F0E6F906F0CCFADE
:1043C0002083D0BD341F00200000F43F1FB5154CE2
:1043D00040F60100218906F0ABFFA37E5A061FD4E8
:1043E00023F0070343F001032089A376FFF7EAFADD
:1043F000A37A04F10C00234493F82A306375FFF785
:10440000F1FDD4E90032A3EB520103EB5203029316
:104410004FF48033019101A803490393FFF770FD26
:1044200004B010BD341F0020B1450008002213461F
:1044300030B58BB0D910415C03F007042141CC07A3
:1044400042BF02F12801694401F8283C03F101034D
:1044500048BF0132252BEDD100230C4CD910415C13
:1044600003F007052941C9075FBFB3FBF2F102FB67
:104470001131283169444CBFD9B211F8281C0133DD
:10448000252B04F8011BE9D10BB030BD5E1F0020C5
:1044900010B540F2E244074A6043136800F58070AB
:1044A00004FB0131536801EB500118441160506066
:1044B00010BD00BF341F0020024B9884D984FFF741
:1044C00067BF00BF341F0020014B1875704700BF45
:1044D000341F0020C908884228BF0846014B1885B0
:1044E000704700BF341F0020044B5A6D22B9586535
:1044F000A3F858100120704700207047341F002097
:1045000010B504460346054A4FF40060044906F01E
:104510000CFF2046BDE81040FFF764BABAC7000898
:104520006EC7000810B504460346084A4FF4006001
:10453000074906F0FAFE074A2046BDE81040937E80
:1045400043F04003937607F01DB800BFABC70008E7
:104550006EC70008341F002010B5144CA37E5B0604
:1045600023D4FFF70FFD40F2E243A18C226803FB46
:104570000122A37A226094F84F2013442522B3FB32
:10458000F2F002FB10332289A372013222810A2247
:10459000636802FB01336360238B5A1E228323B9B5
:1045A000BDE810400820FFF7BDBF10BD341F00203C
:1045B00002282DE9F74380460E460BD003D8012888
:1045C00000F0DC80FEE7032800F0DE80FF2800F02A
:1045D000DB80F7E74F78714C17F0010763D14FF09C
:1045E000FF3140F6030006F0A3FE3D46A37E6C4F6C
:1045F00013F0200F12D0616D6FF34513A3760029DD
:1046000000F09E803B7894F8582043F003033B7001
:104610007A70B81C07F025FC00236365FFF714F9D6
:10462000A37E60F34103C3F30012C3F3C001920001
:1046300042EAC102A37642EA00133A7803F01C036F
:1046400022F01C0213433B7040F60200398806F04A
:104650006FFE797852480231C9B2FFF713FCA37E8E
:104660007668D90709D56FF30003A376002363604A
:10467000FFF7A4FC2060FFF78BFE002D00F08B807D
:10468000337803F00303022B05D0032B6FD0012BEB
:1046900040F08180002528467278B11C03B0BDE847
:1046A000F043FFF71FB9D1F8049040F60300B9F8C2
:1046B000001006F03DFE99F80030A27EC3F300130F
:1046C00063F3820299F80030A276C3F3C001C2F30B
:1046D000001291422FD103F00303022B29D0032BA8
:1046E00008D0012B27D1002099F8011031B3FFF732
:1046F000EBF807463D46A27E99F80010C2F3C003CE
:10470000C1F38001994208D083F00103DB0043F03C
:10471000200322F028021343A376002F3FF466AF54
:10472000A37EC3F3001282F0010262F30413A376A6
:104730005CE73846D8E700252F46DCE70D46DAE788
:1047400094F82820B91C0DF10700FFF771F858B153
:104750009DF80730002B08BF4FF001083B787870B8
:1047600068F301033B7059E74FF00108F6E77178F1
:10477000B01C03B0BDE8F043FFF75EB9074B9B7E6A
:104780009A0708D45B0706D4FFF7E6FE03B0BDE83E
:10479000F043FFF71BBE03B0BDE8F083341F0020D9
:1047A000901F0020014B1889704700BF341F002064
:1047B000F7B5274D04460E465C220021284607F037
:1047C00077FB2023AB7605232B83627E237E012794
:1047D00043EA0223AB84627F237F04F11E0043EA95
:1047E0000223EB8494F82330C3F3040385F84F309D
:1047F00094F82330C3F3421385F850301B232B85E4
:10480000FFF714FED4F80E30E27CEB60A37C2E6040
:1048100043EA0223227D2F7543EA02432B6195F878
:104820004F30607DAB72E18A3944FFF731FEFFF70C
:10483000CDFDEB8C074A084900934FF40060AB8C28
:1048400006F073FD204606F09BFE384603B0F0BD2F
:10485000341F00209EC7000881C70008F8B50D4628
:1048600010B900242046F8BD0E4F3E68002EF8D146
:1048700000F088F804460028F3D0386000F0CEF845
:10488000204606F0E3FF38B130463E6000F0C6F83F
:10489000204606F0D6FFE4E7002DE3D02046A847E7
:1048A000E0E700BF90200020024B1868003818BFD6
:1048B000012070479020002010B507F082F90446CF
:1048C00018B9034B01215B689847204610BD00BF13
:1048D0001C100020F7B5114D04460F466E680121EB
:1048E0000020CDE90032B047DDE900320646394606
:1048F000204607F06FF9044618B901202B68984745
:1049000004463EB100F0FEFA00B91CB100216B680C
:1049100008469847204603B0F0BD00BF1C10002099
:10492000F7B5104D04460F466B6801210020019237
:10493000984739460646019A204606F0C9FF0446C4
:1049400018B901202B68984704463EB100F0DAFA06
:1049500000B91CB100216B6808469847204603B097
:10496000F0BD00BF1C100020431E033306D8044BCB
:10497000984228BF1846642838BF6420704700BF9B
:1049800040420F00F8B5054606F0E6FB07460E4B21
:104990001E6826B9384606F0E3FB344610E0B468DA
:1049A00084B1237C9C46DB070CD44CF0010C95E8C9
:1049B0000F0084F810C084E80F00384606F0D0FBE2
:1049C0002046F8BD3668E4E71010002038B50546EB
:1049D0000C46E1B10B6843B11B68013317D0CB68BB
:1049E0001BB18B68003B18BF01231846D722412119
:1049F00000F066FA204602F069FC0023054A85F8BB
:104A000018311360044AC5E92F43136038BD0023F1
:104A1000EBE700BF982000209C20002010B5044642
:104A200018B9054B054A136010BD00F01BFCD4F803
:104A3000C830002BF6D1F4E72BB800081410002082
:104A400010B50C4600F024FC1CB100F099FC0128C4
:104A5000FBD1BDE81040024B002103205B681847E2
:104A60001C10002008B502460868FFF77DFF0860AB
:104A70004868FFF779FF48608868FFF775FF88602E
:104A8000C868FFF771FF0B69C860581C03D00B485A
:104A9000834228BF03460B614B69581C03D007486B
:104AA000834228BF034688694B61FFF75DFFBDE87D
:104AB00008408861104601F05BBB00BF40420F0018
:104AC0002DE9F84FD0F8C03080460E4613B1838BE5
:104AD0008B4274D0D8F8BCB0BBF1000F41D0DBF8EA
:104AE0000830002B3DD0DBF80C20D2B3D8F8D0A092
:104AF000BAF1000F38D04FF000094D464F4601E0A3
:104B0000DBF8083005EBC50403EB8404E3890135C9
:104B1000B34215D8238AB34212D3B4F91220B8F99C
:104B20002830934252DD404698F80C11FDF73AFFC9
:104B300098F8173081468342274604D9DBF80C20C9
:104B40009542DDD337B300233A4640461946D04755
:104B50000020A8F81C60C8F8C07088F81591BDE85E
:104B6000F88F0320BDE8F88FD14647F6FF7554460D
:104B7000514604EBC40703EB8707FB89B34218D8FF
:104B80003B8AB34215D3B7F91220AA4204D14FF0A1
:104B9000FF09DDE70120E2E7404698F80C11FDF738
:104BA00001FF98F8173081468342D1D93946DBF8A6
:104BB0000C200134A24205D9DBF80830D9E70020E7
:104BC000BDE8F88F0029E5D00F46C1E72746BAE7D0
:104BD0002DE9F04182B09DF820C0D0F8D080044685
:104BE0000D4616461F468DF807C0B8F1000F2ED0AF
:104BF00000220DF107031146C047D4F8BC20194B21
:104C000020461A60184BD4F8C0201A60174B1D605C
:104C100000F070FE05461EB9284602B0BDE8F081DE
:104C2000B0FA80F040F265323321400900F048F9D3
:104C30003946204601F0ACF905460D4B20461B686D
:104C4000D4F8C0109847284602B0BDE8F081C17D75
:104C500090F815316246994228BF194600F0D0FD00
:104C6000CBE700BF982000209C200020942000204B
:104C7000141000202DE9F04385B005460F46144678
:104C80001E4601F003FC01F021FC00283BD1DFF8B7
:104C90002481D8F800301BB1D5F8BC2093421FD036
:104CA00000F06EFB012838D1D8F800308BB31A68B9
:104CB0007AB3D5F8BC1009688A4246D0D5F8C0301E
:104CC0001A68284606F071FF38B901243346224697
:104CD000394628460096FFF77BFF05B0BDE8F08314
:104CE000304B1B68002BDBD0D5F8C0209342D7D1C6
:104CF0002D4B1B689F4222D000F042FB0128E5D0DB
:104D00004FF001090BE00022264B1A6001F0D6FBA0
:104D1000BDE7D5F8BC301968D0E74FF00009012095
:104D200000F0B6FA00F02CFB0128FBD11F4B00214C
:104D300003205B689847B9F1000FB5D0C6E706B10C
:104D400074B9002005B0BDE8F083164A1268D2B1EC
:104D50001168D5F8C02012689142B6D05968B0E702
:104D60000122D5F8D0408DF80F2084B100222846CA
:104D700011460DF10F03A0470D4B28461B68D5F8CF
:104D8000C0109847DDE7D5F8C0201268E6E7E97D56
:104D900095F815312846994228BF194600F030FD94
:104DA000EAE700BF9C200020942000201C10002077
:104DB0001410002098200020F8B50E46054606F095
:104DC000CBF9314607462846FFF77AFE044600B382
:104DD000284606F00CFF30B16B7C13F0020307D1BC
:104DE000104A82F8F430384606F0BAF92046F8BD89
:104DF000AB6B13F48063F3D0B5F80631B34217BF41
:104E0000B5F8083101239B1BB3FA83F318BF5B0984
:104E1000E6E70346024631462846FFF72BFF0446E5
:104E2000D6E700BF003E00B0F8B5124B06461B683F
:104E30000D4603B1984729463046FFF7C7FD0022CB
:104E40004FF6FF734FF0240CEF68D0B2874206D8BC
:104E50001C4621463046FFF7AFFF2046F8BDA96843
:104E60000CFB0011CC899C4202D2002CF1D02346CD
:104E70000132EAE7BC2200204FF4007307B50A496B
:104E80000DF10602ADF8063006F080FDBDF80630E3
:104E9000B3F5007F05D1022808BF002003B05DF8FC
:104EA00004FB0120FAE700BFA0200020024B19609C
:104EB000024B1860FEE700BF18100020A42200205B
:104EC00008B550B90548064B01601A60054B1A68D1
:104ED000054B1A601868FFF7E9FF08BD181000209D
:104EE000A022002090200020A4220020014906F0EA
:104EF00062BD00BF2D660008014906F05CBD00BF21
:104F000001660008014B1878704700BF9823002005
:104F1000024BD868C0F30360704700BF000002B8BE
:104F2000431C07D06FF0FF02034B10405A62A3F5F9
:104F300080535862704700BF00E000B808B5094AC6
:104F4000FFF7E6FF0B2806D00C2809D0092814BF6C
:104F50000020022008BD506C10F48030F0D1F9E739
:104F60000220F7E7000002B810B504234FF03A41E1
:104F700001240A4AD1F81801C2F81831C2F81431D4
:104F80004C634FF400511163410742BFC2F8143122
:104F9000A2F58052C2F8183110BD00BF002000BA3F
:104FA00073B50C46244D254E51B90A46072105F02C
:104FB000ABF8234B6C665C602023736602B070BD57
:104FC0000722114605F0A0F80723F3602379012199
:104FD00085F86430637901A8019306F01EFF019BF8
:104FE000C2B2D34000F00F0040EA031085F865001C
:104FF000A27985F86620E27985F867202268AA669A
:1050000001932BB102EB430132F8023B8A420CD1EF
:1050100021794A1E13440B4A1362C2F8CC10202295
:10502000094B5A6605F090F8C8E732F8020B834244
:1050300028BF0346EAE700BF003F00B0006000B8A9
:10504000643F00B0004000B8005000B8D0F8C43051
:1050500013B11A68032A10D8094BDB6BC3F3C202E1
:1050600013F0380F03F0070018BF504313F4E07F2C
:10507000C3F3821203D050437047986A400E7047C2
:10508000008001B800F01803182B074B03D1002251
:10509000C3F88C207047010701D50122F8E7C2064A
:1050A000F5D540F20112F3E7003F00B0414B2DE986
:1050B000F3411D6840F2022317460B4000F0010245
:1050C000134306460C4648D0880709D53A4BD3F817
:1050D000083F03F0C003402B02BF0221374B996009
:1050E0004FF000087AB30022002301200021CDE90F
:1050F000008803F04FFE4FF0FF31284603F008F917
:105100004146E8830120FFF79BFCA96B05F1D40021
:1051100003F070F92A490868FFF702FF4FF0FF33E8
:105120000B60284B1A68511C06D06FF07E40264950
:10513000C863A1F58051CA634FF0FF321A602B7C1F
:1051400043F008032B74A20507D50121284606F079
:1051500008FC24F4007406430C43D5E94C23324088
:10516000234052EA030103D01849284609688847BA
:10517000FB070FD51649174A08680021136811600C
:105180000121154A117003B19847144B00210220E8
:105190005B68984717F00E0F08D04FF4F3723B216D
:1051A000002002B0BDE8F041FFF78ABE02B0BDE8C2
:1051B000F08100BF90200020003000B0001002B845
:1051C000281000202C10002000E000B8241000203F
:1051D000B8220020B42200209B2300201C100020B5
:1051E000F7B5D0E94CC70446DDE908658CEA06004E
:1051F00087EA05011040194080EA0C007940C4E9B3
:105200004C0123F4004105EA0103002522F00100CE
:1052100043F4007306EA000243F00203CDE90055AF
:1052200003F0B8FD237C9A0717D5D4F834319B05D9
:1052300013D54FF48031204606F093FB237C65F3B1
:1052400041032374D4E94C2302400B4052EA03018A
:1052500003D00349204609688847002003B0F0BD09
:105260002410002038B10368044A002B08BF1346FD
:10527000034A13607047014BFAE700BF3DBA0008CC
:1052800024100020014B0020D9677047003F00B078
:1052900003282DE9F7435BD82F4B13F800802F4BE1
:1052A0001E5C2F4B13F8009005F056FF074603F0E5
:1052B00063FF054640B100230022CDE90033012001
:1052C0000023002103F066FD03F05EFF48B10023D8
:1052D0000022CDE90033002000234FF4004103F009
:1052E00059FD002E32D01F4BDC6C04F008041E4B1D
:1052F0003146DC64404604F077F94A463146404680
:1053000004F0F2F9194BDC64D5B1194B1868816BC4
:10531000D43003F06FF817490868FFF701FE4FF02B
:10532000FF330B60144B1A68511C06D06FF07E409F
:105330001249C863A1F58051CA634FF0FF321A6069
:10534000384603B0BDE8F04305F00ABF3446CEE767
:1053500003B0BDE8F08300BF74C8000878C8000837
:105360007CC80008004000B8006000B8005000B8D9
:1053700090200020281000202C10002000E000B811
:1053800008B5FFF7C5FD0138C0B20B2802D8054BA0
:10539000185C08BD044B5B6913F0060F0CBF0120BD
:1053A0000420F6E780C8000800C001B831F00F0201
:1053B00010B50BD1FFF7E4FF012809D1054CA36F0D
:1053C00023F00F0001431046A16710BD0120FCE748
:1053D0000220FAE7003F00B008B50D4B5A6C12F0FE
:1053E000A00F13D19B6C5B0701D5012008BD094BB1
:1053F000D3F8083F23F07F4323F0FF03002BF4D0C2
:10540000FFF786FD092801D00C28EED10020EDE73A
:10541000000002B8003000B0074A084B30B102214A
:10542000C2F864120422C3F8642270470421C2F84F
:1054300064120222F7E700BF006001B8005001B813
:10544000024638B588B91C4B1B687BBB0125C1F1EE
:105450001C04C4F12B03002BB8BF5B42232B29DCB7
:10546000ADB1164B1970002038BDFFF789FF012838
:105470001ED1124B93F90040C4F11C03D2F8C44072
:105480000CB194F926401C1B0025641AE1E7D17485
:1054900005F062FE0A4AE402136A04F4FF2423F4CE
:1054A000FF231C43146205F05BFEDCE70320DBE70F
:1054B0000220D9E70120D7E7902000209A2300207E
:1054C00000C000B8094B08461A6D91020BD4D3F8FE
:1054D0004021D20708D4D3F8803013F4706F14BF82
:1054E0000120002070470120704700BF004001B834
:1054F000F8B515460C46826B670782EA050303EA96
:10550000010383EA02038363354A01F00B0323EAB4
:105510000501D16403EA0503A2F580520646D3646F
:1055200010D50121FFF7CEFF60B103F0FDFF4FF46E
:10553000007315F0040F14BF2A4A2B4A1365042286
:105540002A4B5A64E00606D515F0100F14BF00224E
:105550001B22274B5A65210618D52A0611D54FF470
:105560000012204BDA6405F0F7FD0E2107460320F8
:1055700002F094FE40F201221D4B3846DA6205F03B
:10558000EFFD294606F1D40002F034FFE30503D510
:10559000EF051CD502F052FEA00503D5A90519D5CB
:1055A00002F058FE14F48C640FD06A0502D5737CA7
:1055B0009B0712D5D6F8C410304606F040FA802278
:1055C0000C4BC3F888000C4B1A610020F8BD02F0A8
:1055D0002FFEE1E702F038FEE4E70120F6E700BF26
:1055E000006000B8005001B8006001B8002002B8A7
:1055F000004000B8003F00B0000002B8014BD86C7A
:1056000002F05EBE004001B8014BD86C06F0C7BB8B
:10561000004001B8837C5A1F012A01D9082B05D10B
:105620004B7B2BB1012B05D0022B05D006F038BAED
:1056300002487047024870470248704720A107009F
:1056400048E8010040420F0070B50E4605F084FDA9
:105650000546FFF773FC044620B1284605F080FD9F
:10566000204670BD03F060FF104B3278D3F8083F3E
:10567000022A23F0F00315D0042A0CBF02220022D4
:1056800043EA02137278022A0ED0042A0CBF0222C7
:10569000002243EA8213054AC2F8083F0422044B61
:1056A0005A64DAE70122EBE70122F2E7003000B0AA
:1056B000002002B838B50D4605F04EFD04461E4ADE
:1056C000FFF726FC062826D804282BD8032829D043
:1056D00003F02AFF194B2A78D3F8083F022A23F057
:1056E0000F0324D0042A0CBF0222002213436A783D
:1056F000022A1ED0042A0CBF0222002243EA82039F
:105700000E4A2046C2F8083F04220D4B5A6405F0A9
:1057100027FD00200AE00728DAD1D2F86831002BF3
:10572000CED1D5E7204605F01BFD022038BD012271
:10573000DCE70122E2E700BF000002B8003000B061
:10574000002002B8F8B50D780446022D0E4690F8F8
:105750000C710AD1002001F055FE002844D101202F
:1057600001F050FE002818BF0125284601F04AFE2E
:1057700000283BD084F80C51B3882846A4F8103197
:105780007388A4F80E31B38804F58676A364FF23EA
:10579000237606F079FAE075304601F0C9FD05463A
:1057A00028BB304601F024FE054600BBD4F8C030CB
:1057B00053B194F80C11B94206D02046B3F9122027
:1057C000FDF7F0F884F81501204601F091FE0A4932
:1057D000A4F810010123094AD1F8FC1004F1D40007
:1057E00003F0A4F82846F8BD0025BEE701250323F1
:1057F00084F80C31F6E700BF004F00B0AC3F00B0BA
:1058000070B5054690F80C010C4603281DD0FF2901
:105810001DD01AB14FF0FF320E4B1A6006F034FA69
:10582000064695F80C0101F055FE844228BF044657
:10583000E4B2B44238BF3446E0B2287601F06EFFDD
:10584000A0F1FF035842584170BD0220FCE701203F
:10585000FAE700BF3010002038B590F80C3104464C
:10586000032B3FD0D0F8C050C175C5B3D0F8D030AD
:10587000DBB990F815318B421DD300222046FFF78B
:10588000BFFF054678B9184B1B78012B0BD8204673
:1058900001F02EFE15490123154AD1F8FC1004F140
:1058A000D40003F043F8284638BDB0F92820B5F9F4
:1058B00012309A42E1DD0022204694F81511FFF7DC
:1058C0009FFF05460028EED1C4F8C000204605F031
:1058D000CBFF01462046BDE83840FFF76DBAFF23F5
:1058E0000376E0E70225DEE758100020004F00B005
:1058F000AC3F00B02DE9F041036C0446012B8EB0A3
:1059000000F08E806C4906F009FAD4F8C0700546A4
:10591000A68BC4F8C4005FB13B684BB15B683BB178
:105920001A68032A04D99B6A4FEA5368424613E077
:1059300005F012FCD4F8C0500146C4F8C0702046EF
:10594000FFF784FB8046C4F8C050084605F008FC09
:10595000D4F8C4505FFA88F2BB898DF81E80F31A20
:105960009BB2D7E90161ADF81C3001FB0366534BD4
:1059700006961B689D420BD029462046019206F0F0
:105980005EF880214E4B019AC3F888004D4B196197
:105990003146204608AB0D9502F090FD00284AD113
:1059A000494A4A49FFF7B4FA431EDBB20B2B3DD8F4
:1059B000D35C012BF6D1434A4549536CD801FCD442
:1059C0000B6CDB07F9D408A905A802F0CDFE00286E
:1059D00031D1A28B3F4B5A64237C60F34103237483
:1059E00000F060FFD4F8C0305A69431E1568DBB27E
:1059F000FD2B039523D85368012804933DD1054618
:105A0000D91C2AD8024603A9204600F00BFF3DB955
:105A1000D4F834319B0536D4237C43F0020323743D
:105A200020460EB0BDE8F04100F0B8BE4B6913F05F
:105A3000060FC0D0B6E702200EB0BDE8F081EF1C23
:105A400014D9254B01351B6818BF0125DE1C2ED942
:105A5000FF2853682DD00493D9E71F4A01335368B8
:105A600008BF0025DA1C1FD80493CBE70125536833
:105A7000FF280493C4D00020C4E7024603A92046AF
:105A800000F0D0FECCE74FF48031204605F069FFEE
:105A9000D4E94C2302400B4052EA0301C0D00F4925
:105AA000204609688847BBE7FF28B0D1E3E70393A6
:105AB000DDE701200493A3E7FC4F00B0AC220020F7
:105AC000003F00B0000002B880C8000800C001B864
:105AD00000C002B8008001B8381000202410002057
