S02B000054422D626F6F746C6F616465722D73746F726167652D696E7465726E616C2D73696E676C652D3531F8
S113000000800020A10000009D0000000B01000002
S11300109D0000009D0000009D0000009D00000068
S11300209D0000009D0000000C3200009D000000B7
S11300309D0000004C3200009D0000009D00000067
S113004010B5054C237833B9044B13B1044800E0D0
S113005000BF0123237010BD080100200000000030
S11300609834000008B5034B1BB10349034800E072
S113007000BF08BD000000000C01002098340000FF
S1130080044B054A9A60D3F8882042F47002C3F8FE
S11300908820704700ED00E000000000FEE700004B
S11300A008B5FFF7EDFF00F095F80E4B0E48DA1C8B
S11300B0121AC11E22F00302994288BF00220B4982
S11300C003F083F80A4B0B48DA1C121AC11E22F003
S11300D00302994288BF0022002103F083F800F054
S11300E019F800BF08010020000100209C34000022
S11300F028010020080100200020704770470120DB
S1130100704700F07DBD00F0E7BD4FF4017001F0D1
S113011079BF00002A4B13B51B68C3F30743012BB7
S11301200DD1284B04205A6E4FF4802326494B6688
S113013001F51041086251035CBF244A53664FF035
S113014040234FF400621A67D3F88420D206FBD40C
S1130150FFF7D7FF01F025FF08B901F010FF01F008
S11301608EFC044658B901F01CFF08B101F013FFDE
S113017040F2012001F046FF4FF4017018E001F055
S113018010FF08B901F001FF01F022FF012802D994
S113019001F001FFFEE701F025FF0D4B0193019BE8
S11301A0002B0ADC40F205439C42E5D140F20320D7
S11301B001F028FF002002B010BD019B013BEDE7D8
S11301C00080E00F008000400090004000A000404C
S11301D000350C0013B501244FF040238DF8064080
S11301E08DF80740D3F894305B0610D501F01EFF5C
S11301F0A0F2022080B2072809D804FA00F010F017
S1130200C90F1EBF00238DF806308DF807304FF458
S1130210C0435B68013308D14FF4027001F0CDFE96
S113022000238DF806308DF807309DF8073063B150
S11302304FF4C04001F092FD8DF806009DF80630A1
S11302401BB94FF4027001F0B8FE9DF806308BB173
S113025001F0A7FE08B101F09EFE4FF4C043064A28
S113026093601846016881F3088881F3098840681F
S11302708746FEE702B010BD00ED00E000207047A5
S113028030B50824094B00255C66012403F5FE23E0
S11302905C6001449D601A61DC60884201D1586A47
S11302A030BD10F8012B1A62F7E700BF0090004040
S11302B0F8B516464FF400521D46114B04469A6693
S11302C00222C3F860220F4601F048FADDE9061263
S11302D0204601F047FA002384F8387063623368DB
S11302E0C4F839307368C4F83D30B368C4F8413099
S11302F02B0C6DBA84F84530A4F84650F8BD00BF05
S11303000090004030B50D4685B0194600F1280331
S1130310CDE90152009300F1240200F1380301F009
S113032071FA05B030BD00002DE9F041B0B01446BB
S11303300646369D00286AD0002968D0002A66D077
S1130340002B64D0002D62D006224FF40050069298
S1130350304A20AF90660320C2F860020022BE46F5
S113036009920C920F920A4601F12008F446106893
S113037051680832ACE803004245E646F6D122460D
S11303800DF1A00C04F1200E644610685168083287
S113039003C47245A446F7D10DF1400C1A466446D5
S11303A003F1200E234610685168083203C37245D6
S11303B01C46F7D12B4618AC2035224618685968DC
S11303C0083303C2AB421446F7D14023CDE90A7384
S11303D0089320230AAA0E9303AB07CACDF81CC0C6
S11303E00D9683E8070007AB93E807008DE8070044
S11303F00DAB0ECB084800F0D9FF0690069B40F2E7
S11304000460002B08BF002030B0BDE8F08140F24A
S11304100160F9E700900040183400004FF40052E6
S1130420074B10B59A6602220446C3F8602200F016
S1130430C3F82046BDE81040002100F0C1B800BF59
S11304400090004000F0C1B8014600F0CBB80000B5
S11304502DE9F34799460A9B0C46196805463F293E
S1130460164642D85A68002A41D0224A002E14BFA8
S1130470B046904601F03F07091928BF5A68196031
S113048024BF01325A60AFB1C7F1400AA24521D856
S11304902946524609EB070002F097FE0123414624
S11304A000934A463346002000F0A4F8B046403C8E
S11304B055443C443F2C0CD9A3092A460093414699
S11304C03346002000F096F824F03F031D4404F066
S11304D03F0400272CB12246294609EB070002F00D
S11304E074FE002002B0BDE8F0879046C2E7DFF852
S11304F00480BFE78C32000030B40546084611463C
S11305001A46DDE9023425B931B1029430BCFFF753
S11305109FBF024830BC70470846FBE780AFFFFF2F
S11305202DE9F0411746146886B01E46E3008DF8A5
S11305300F30630952688DF80E30630B8DF80D305F
S1130540630D8DF80C30D30003EB54738DF80B302E
S113055004F03F045309372C8DF80A304FEA523324
S11305604FEA525205468DF80820884694BFC4F1DC
S11305703802C4F17802CDE900178DF809300D492D
S113058003460020FFF7B8FF082143462A46009798
S11305900DEB0100FFF75CFF284605F1200350F83E
S11305A0042B984246F8042BF9D1002006B0BDE88C
S11305B0F08100BFAC3200006822002102F012BEBC
S11305C00023C0E900331846704707B500F128033B
S11305D00190009300F108030020FFF78DFF03B0A2
S11305E05DF804FB02460B4600F128010830FFF7D2
S11305F097BF0000F0B51D4693B0002837D1189B73
S113060006909B01CDE904230AAB0A461E4601F17C
S113061020071C4610685168083203C4BA422346B6
S1130620F7D100230796099301F07AF90446D8B963
S11306302023089304AB93E807008DE8070007AB79
S113064004200ECB01F022F8074601F07FF987B9A8
S11306502B46324612AE154603CDB542186059609A
S11306602A4603F10803F6D1204613B0F0BD024C2C
S1130670FAE7024CF8E700BF80AFFFFF80ADFFFF51
S1130680420910B510D0012A10D00B4B0B4C022A92
S113069018BF234600F01F0051B103F58053012217
S11306A002FA00F0186010BD1346F3E7044BF1E7BB
S11306B003F50053F3E700BF688000406082004008
S11306C064800040F0B5114A114C124E00F001054F
S11306D0E3695F0713D40DB9334213D103EA00076A
S11306E08F4207D10B4A1A40002A14BF6FF0010051
S11306F00020F0BD013AEBD16FF00200F9E74FF0B2
S1130700FF30F6E76FF00100F3E700BF8096980032
S1130710000003400200010070B5134C6061E369FE
S11307205B071ED40E4656F8043B8D18A361AE42F7
S11307300BD10423002121202361FFF7C3FF58B903
S1130740BDE870402120FFF7BDBF08210846FFF730
S1130750B9FF10B10423236170BD56F8043BA361B3
S1130760E5E74FF0FF30F7E7000003404FF40032B5
S113077038B50F4B0F4C9A6641F671330122E56987
S1130780E3630D4B0021DA600223606121202361C1
S113079005F48035FFF796FF10B92120FFF792FF8B
S11307A00122064BDA600DB10023E36338BD00BFBC
S11307B0009000400000034000100340002003406C
S11307C02DE9F84315464FF40032184B89469A66D2
S11307D041F6713203F51C33DF69DA630122064600
S11307E003F58053DFF84C8007F48037DA6055B99D
S11307F0284601220E4BDA601FB10022A3F50053F4
S1130800DA63BDE8F88306F5005404EA0804A41B7F
S1130810AC4228BF2C46494622463046FFF77CFFAF
S11308200028E6D12644A1442D1BE0E700900040B7
S11308300020034000E0FFFF2DE9F04F06464FF48F
S1130840402501202C4CDFF8BCC04FF40037CCF815
S1130850040044F8265030250024DFF8ACE0DFF82B
S1130860AC9005FB06E5EC652C662C67234CDFF8A1
S1130870A0A0A76641F6713704F51C34D4F81C8097
S1130880E763E76800FA06F60743E7604BB9E268F6
S113089018F4803F22F00102E26000D0E3631846BE
S11308A028E001F5005000EA0900401A984228BFE8
S11308B018466161D4F81CB087081BF0040F17D1E7
S11308C0013F3F0147F060576F66AA66C5F86CA008
S11308D0CCF82460DEF834703E42FBD0084F01446B
S11308E07E630427CCF82860024427611B1ACDE7F5
S11308F04FF0FF30BDE8F08F00400440009000400E
S113090000200440001004400000044000E0FFFF09
S113091018000340C369032B9FBF00EB830201331C
S1130920D160C361704700002DE9F043C469042C11
S11309306BD8374B374A5D6E4FF480333649536674
S1130940364E374AED03C1F80026C1F804665CBF91
S1130950A1F5E4214B66334B334D1360034653F842
S11309600C1B5160C0F1204203EB840102F5984254
S11309708B4202EB030620D126460027436803BBC3
S113098039463046264A41EA046191601368516849
S113099092684B4053400022904231D145F82030B8
S11309A0BFF34F8F2149224BCA6802F4E06213431C
S11309B0CB60BFF34F8F00BFFDE753F8047B376074
S11309C0D6E70022D3F8009005EB860ED3F808C0D2
S11309D0F046CCF3990C944507EB020106EB0200B8
S11309E00EF1040E06D85A68012ACBD00F460646EB
S11309F05B68C4E759F822100132C8F80010E5E733
S1130A0055F8221001324B40C6E7BDE8F08300BF21
S1130A10008000400090004000C00740004E00A04D
S1130A20004C00A0DEC0ECE50C4C00A000ED00E0A2
S1130A300400FA05144B15495A6E4FF48033D2035F
S1130A4058BF134A10B54B6601F5E621D1F80416D8
S1130A5058BF53660A680F4B9A4213D10B6905338A
S1130A60B3F5007F0ED2002214469A4205D351F802
S1130A702300031B5842584110BD51F82200013293
S1130A804440F2E70020F7E7008000400090004077
S1130A9000A00040DEC0ECE538B50F4B0F495A6E9C
S1130AA04FF48033D20358BF0D4A4B6601F5E6215B
S1130AB0D1F80456044658BF536630B1FFF7BAFF65
S1130AC030B100206B68236038BD4FF4E020FBE7B1
S1130AD04FF47E00F8E700BF008000400090004023
S1130AE000A000400B4B0C495A6E4FF48033D203E4
S1130AF058BF0A4A10B54B6601F5E621D1F8044601
S1130B0058BF5366FFF796FF10B1A068C0F3C050FA
S1130B1010BD00BF008000400090004000A00040D5
S1130B200B4B0C495A6E4FF48033D20358BF0A4A18
S1130B3010B54B6601F5E621D1F8044658BF53665B
S1130B40FFF7D0FF08B1E06810BD4FF47E00FBE76B
S1130B50008000400090004000A00040F8B5234B06
S1130B6023495A6E4FF48033D2034B6658BF214A4F
S1130B7001F5E621D1F8045658BF5366846805F19F
S1130B801406FFF7AFFF48B32A6956F82230DB4357
S1130B9046F82230A86810F470201DD0A86800F42C
S1130BA07020F8BD0021D4F800C0A668C6F39906E9
S1130BB0B1420DD0934203D19CB19342F2D3F0E7FA
S1130BC0013305EB83073F694CF821700131EFE7EE
S1130BD0646824F00104EFE70346EDE74FF47E0078
S1130BE0DFE7934238BF4FF4E020DAE700800040AB
S1130BF00090004000A0004000487047F43200001C
S1130C004FF40032014B00209A6670470090004078
S1130C10024BD86900F00100704700BF0000034098
S1130C20B2F5002F10B51346044608460BD8B4F5A8
S1130C30002F08D82344B3F5002F04D8214602F02E
S1130C40C4FA002010BD40F20240FBE7B2F5002FC9
S1130C5010B506D8B0F5002F03D88318B3F5002FCC
S1130C600ED940F2024010BDC45801340AD10433F5
S1130C709A42F9D800F048FF0028F2D00020F2E7A9
S1130C800023F5E740F20340EDE74FF0FF307047F3
S1130C9038B541EA0003C3F30C030446CBB9B1F5FC
S1130CA0002F0FD8B0F5002F0CD80D18B5F5002F74
S1130CB008D8204604F5005400F0F0FEAC4204D0FD
S1130CC00028F6D140F2024038BD0028FAD00020B6
S1130CD0FAE740F20440F7E74FF40032014B0020FA
S1130CE09A66704700A0004013B51AB1002400941E
S1130CF000F046F902B010BD30B501B10139084C1D
S1130D00E568ED03FCD443EA0121120741EA00033C
S1130D1002F08052134343F00043636030BD00BFD0
S1130D200020024CF0B58DB005AC84E807001C46E9
S1130D30A1420D4628BF2546129B0DB304B31146AC
S1130D402846002603F51813CDE90A468DE803006A
S1130D5003F241135F02C5EB4323099302950CAAE6
S1130D60059B12E90700069500F0AAFCA54207D2EC
S1130D703146621B381B0DB0BDE8F04000F09EBC4C
S1130D800DB0F0BD30B591B001AC84E807000A465F
S1130D901C46039B0146D8004ABF0332620022F07E
S1130DA0030204A8FFF7A0FF04A800F0FFF81499B9
S1130DB0224601F5181101F241114D0208A8C4EBB5
S1130DC041210023FFF790FF05F50071002322461F
S1130DD0091B0CA8FFF788FF0CA800F0E7F808A986
S1130DE004A800F0BDF811B030BD10B58CB005AC4E
S1130DF084E807000E9ADDE9060102F5181202F5EF
S1130E00A0725202CDE9092300228DE803000B925F
S1130E1002930CAA059B12E9070000F051FC0CB0E8
S1130E2010BD00000122054B9A60DA68D203FCD49D
S1130E30D86820F00F000004000C70470020024C1A
S1130E402DE9F04B4FF000089946074616464546F3
S1130E508AB003AC84E8070002F0805B07AC049A14
S1130E60424502D80AB0BDE8F08B139B13B9AA1E01
S1130E70012A0AD9129BCDE90779099600955BB13D
S1130E8094E807004B46FFF74DFFBBF1000F00D17C
S1130E904F440135C844E2E74B4694E80700FFF7A6
S1130EA0A4FFF2E782B01FB507930A9B04AC8B4200
S1130EB028BF0B4604E907001048D100079948BF32
S1130EC003330160099948BF23F0030323F07043FF
S1130ED001F0E041194341F000518160002102F02A
S1130EE0E042019C134343F00053C16004618361F9
S1130EF0416304B0BDE8104002B070470000024CEA
S1130F003F22034B1A631022DA6103229A6370476B
S1130F100000024C024AD36B9B07FCD4704700BF0D
S1130F200000024C034B986A10F0240018BF042000
S1130F30704700BF0000024C08B5FFF7F3FF064BF3
S1130F40DB6B23F47F4323F0EF0303431EBF012233
S1130F50024BC3F8FC2F08BD0000024C00F0FF3F19
S1130F60032208B5054B186019615A63FFF7C8FFDF
S1130F70FFF7D0FFBDE80840FFF7DEBF0000024CDA
S1130F8010B522F0704200F11004C0E90014826030
S1130F9041B1826803F0704313438360029BC360D2
S1130FA0204610BD836843F08043F6E70123436085
S1130FB0C36843F02003C360836843F00053836035
S1130FC07047C368DB0658BFC368C36803F00F03E8
S1130FD0012B02D0033B012B08D8C36801F01F0189
S1130FE043EA0123C36083681944816070470000A9
S1130FF042680346182A10B50AD0202A1DD0102AA8
S11310002BD1174AD2F80424D4010AD4012013E0C6
S1131010134AD2F804249001F8D50A6842F0080271
S11310200A6010481A6882424FF000000ED10A6824
S113103042F040020A60586010BD094AD2F8042404
S11310405201E3D50A6842F00402E9E7064CA242E1
S1131050F2D10A6842F08002ECE70720ECE700BF17
S11310600000024C24010020250100200B4607B596
S11310700749D1F80414C90708D500210092024693
S1131080084600F025F903B05DF804FB0120FAE7F7
S11310900000024C0B4607B50749D1F80414C907F0
S11310A008D5009201210246002000F011F903B096
S11310B05DF804FB0120FAE70000024C1FB50A4C5E
S11310C0D4F8044464070CD5CDE900120021069C31
S11310D00222CDE902340346084600F025F904B0A3
S11310E010BD0120FBE700BF0000024C37B54D687E
S11310F0044645B18C680093096842EA04032A4611
S1131100FFF73EFF0446204603B030BD2DE9F04F03
S11311102DED028BD1B008EE103ADDE95E7ADDE9FF
S113112060980023019104210546CDE9031307CA01
S113113001AC05AB83E80700629E0294002D40F0E9
S1131140C48021461846FFF753FF0546002840F0A7
S1131150B6805D9A08AB07CADAF8044083E8070052
S1131160D9F8043049421C44D8F8043064425B4244
S11311700093BB6804F00F04DA0048BF7B6801F0F9
S11311800F0B42BF033323F003037B60B368DB0020
S113119041BF7368033323F0030373600023DAF859
S11311A00400D9F80420CDE9133381182144CDE992
S11311B00C1379680B93494201F00F01CDE90E310C
S11311C071681093494201F00F01CDE91131CDE965
S11311D0153317935D9B5B6853B9D8F804301343F8
S11311E0034305D110218B46CDE9091314AA0892B3
S11311F011234FF0005202A930A8FFF777FF40F601
S113120011034FF0005205A9FFF770FF42F61103D6
S11312104FF000525C99FFF769FF44F611034FF059
S1131220005218EE101AFFF761FF412300225146C5
S1131230FFF75CFF23024FF00052494643F041039D
S1131240FFF754FF4FEA0B234FF0005243F0010322
S113125008A9FFF74BFF009B4FF000521B0203F459
S11312607063414643F00103FFF740FF1038FFF776
S11312709DFE00230BA91A4618A8FFF737FF002389
S113128039461A46FFF732FF00230EA91A46FFF724
S11312902DFF002331461A46FFF728FF002311A92A
S11312A01A46FFF723FF002363991A46FFF71EFF30
S11312B01038FFF77BFE18A930A8FFF751FE284627
S11312C051B0BDEC028BBDE8F08F0725F7E70000B5
S11312D0F0B51C465B6816468DB01A070546129F8A
S11312E01BD1D3B17A68934217D10D4B0D4A53F8F1
S11312F021C009AB07CA83E8070032462846CDE976
S11313000633CDE90433CDE90273CDE900344CF45E
S11313108071FFF7FBFE0DB0F0BD0720FBE700BFB7
S113132050330000203300002DE9F0438DB0044613
S1131330DDE914CEDDE91678DCF804001E46030767
S113134029D140B3DEF80430984224D17B68102BB5
S113135021D1D8F80430102B1DD1104B53F8215053
S11313600F4B53F822900F4A09AB07CA83E80700D2
S113137045EA090132462046CDE90638CDE9043371
S1131380CDE902E3CDE9007C41F03001FFF7BEFE78
S11313900DB0BDE8F0830720FAE700BF503300002A
S11313A02C330000203300000069704770B586B00C
S11313B003AE054686E80E00FFF7F6FF4428044610
S11313C039D86A6800EB80039A4203D0062343436A
S11313D09A4232D10B9BB3EB440F2ED10E9A934217
S11313E02BD1012221463120EB68FFF785FC95E8DB
S11313F007000123CDE900332346FFF721FD08232D
S11314000AAA009307CA2346FFF7BCFC0C230093E7
S113141096E807002346FFF785FC0A230DAA0093EC
S113142007CA2346FFF7AEFCFFF7FCFC002818BFF1
S1131430032006B070BD0120FBE70720F9E7000098
S11314400138C0B206289ABF014B185C00207047CF
S11314502C3400000138C0B206289ABF014B185C36
S113146000207047333400000138C0B206289ABF08
S1131470014B185C002070473A3400002DE9F04F0E
S11314808046BBB003A81E4680E80E0008F1FF3377
S113149017468A469DF81091062B00F2F280DFE889
S11314A003F0041F262D343B4200774BD3F80C3451
S11314B0D80703D401203BB0BDE8F08F0123079384
S11314C00023B9F1010FCDE9083333D0B9F1020F8C
S11314D000F098804046FFF7C7FF6324054637E0D5
S11314E0694BD3F80C349907E4D50223E7E7664B3C
S11314F0D3F80C345A07DDD50423E0E7624BD3F864
S11315000C341B07D6D50823D9E75F4BD3F80C342A
S1131510DD06CFD51023D2E75B4BD3F80C349C0601
S1131520C8D52023CBE7584BD3F80C345806C1D583
S11315304023C4E7544BD3F80C34D903BAD5079BE2
S1131540404643F4C0630793FFF77AFF032405463C
S113155013230422009307A94FF0005312A8FFF7A6
S11315600FFD5146009446F000533A46FFF708FD3C
S11315704FF0000B04465E46DDF814A1469B9B45E4
S113158064D1B9F1030F0AD14046FFF76DFF8742DA
S113159077D14046FFF75EFF0138304271D1002E0B
S11315A067D1032332462046009308A93346FFF748
S11315B0E7FC04260446A4F110000290FFF7F6FCB1
S11315C031460298FFF7FDFC489AAA4228BF2A46F2
S11315D01446002A53D00023479900930AA8499B34
S11315E0FFF7CEFC2A1B04D0002319460093FFF713
S11315F0C7FC1038FFF7DAFC12A80AA9FFF7B0FC01
S1131600002058E7204BD3F80C2492037FF552AF07
S1131610D3F80C34DB037FF54DAF97B17C423946E8
S1131620374604F00304079B404643F4E063079302
S1131630FFF706FF24023E4605460F4644F0A30486
S113164086E704210DF1200A0C46ECE7DAF80420C1
S113165016444AB1032300932046DAF80830DAF836
S11316600010FFF78DFC04460BF1010B0AF10C0A84
S113167084E716F0030618BFC6F104069BE70AA820
S1131680B0E7072017E700BF0000024C70B58AB02E
S113169007AC84E80E0003AD064694E8070085E82D
S11316A00B00012302930EAB0193032300933046F6
S11316B094E80E00FFF7E2FE0AB070BD01F092BD9F
S11316C082B02DE9F0418AB005AE12F0804586E87B
S11316D00700149C119333D1139B8C4228BF0C46F2
S11316E013F080538846129A02D1944228BF1446BC
S11316F034B30F2C13D9DDE912018DE803000294F1
S1131700119B96E80700FFF7CDFBFFF7F9FBFFF706
S113171001FC0AB0BDE8F04102B0FFF70DBC059E24
S1131720119F93B1A8EB0502042A3B6828BF042249
S1131730701909A90435099301F047FDAC42F1D8A9
S11317400AB0BDE8F04102B070472246394630463F
S11317500AB0BDE8F04102B001F037BD24220021F7
S113176001F040BD70B515460E4624220021044602
S113177001F038FD25F04003802B02D0B5F5807FC1
S113178008D12046314640F8045BEA0801F01DFD0B
S1131790002070BD6FF01F00FBE730B50129016820
S11317A008BF012421F0400518BF0224802D8BB00E
S11317B002D0B1F5807F22D1C90802910021CDE980
S11317C0031210220430CDE90521CDE9073201903E
S11317D0099100F0A5F868B9012C07AA04A901A889
S11317E00AD1FFF743FC044600F0B0F8204318BFC9
S11317F06FF024000BB030BDFFF74CFCF3E76FF043
S11318007100F7E72DE9F04F82460F4698461646D9
S113181091B012B31568DAF8003023F04002802A40
S113182002D0B3F5807F73D1DB0800240593102325
S1131830CDE908341B9BCDE906480AF104023B4478
S1131840049202930DF11C0BBC4208D3002E65D008
S11318500020356011B0BDE8F08F1546DBE75DB1BF
S11318601B9B1A9A1B5D525D013553401C9A05F06F
S11318700F0513550134E7E7A7EB0409B9F10F0F7E
S11318801ED91B9B29F00F092344CDE90A391C9B5F
S11318900C952344CDE90D390F9500F041F800284B
S11318A0D8D15B460DAA0AA9CDF800B004A8FFF769
S11318B005FC039000F04AF8039B03432BD14C44EE
S11318C01B9B03EB04091C9B1C44029B4B4501D14D
S11318D03C46B9E78DB94246012150461A9BFFF7B1
S11318E05CFF0028B6D108F1100212F8013D013363
S11318F0DBB213700BB99045F7D11A9A19F8013B72
S1131900525D0135534004F8013B05F00F05DCE757
S11319106FF071009EE76FF024009BE7304699E773
S1131920094B00209A6E42F400529A66D3F8602262
S113193042F00102C3F86022D3F8602242F00202AE
S1131940C3F86022704700BF00800040094B0020AC
S11319509A6E22F400529A66D3F8602222F00102B1
S1131960C3F86022D3F8602222F00202C3F8602296
S1131970704700BF0080004000207047002070477F
S113198000207047002070470020704700207047F7
S11319900120704700239B6A186970470023986AE6
S11319A070474FF4004070470120704741F2060031
S11319B07047000010B5ADF50A7D4FF402720020A7
S11319C008A901F039FA40F20124002108A801F025
S11319D078F9A042F9D040F20323984227D19DF828
S11319E0203059070CD49DF820309A0730D4DB07F7
S11319F01DD50B99869801F093FAC0B1002018E028
S1131A00129800F01DFA0028EDD0FFF789F8194B61
S1131A100446984210D11C22002101A801F0E2FBE7
S1131A2068460094FFF79AF8B0F5403F04D140F2BD
S1131A3005400DF50A7D10BD869801F02DFA0028A9
S1131A40D1D0FFF7AEFF00F00DFA0028CBD1EEE7BE
S1131A500022926A099992689142C8D9869801F045
S1131A6039FA0028E3D0FFF79CFF119900F0BEF982
S1131A70DDE700BF000003434FF488207047FFF701
S1131A8099BF0000004870474CE3070000487047C6
S1131A906CE307000048704786E207004FF4003209
S1131AA008B5044B9A66FEF761FEB0FA80F040096F
S1131AB008BD00BF00900040072BF8B506460F464E
S1131AC014461D4601D90020F8BD01212020FEF74F
S1131AD0D7FD01212120FEF7D3FD8CB144EA060392
S1131AE09B07F0D14FF40032064B31469A662846E4
S1131AF023463A46FEF7A0FEB0FA80F04009E3E739
S1131B000120E1E700900040134610B562B10343A1
S1131B109B070BD14FF40034054B9C66FEF750FE37
S1131B20B0FA80F0400910BD0120FCE70020FAE77C
S1131B3000900040C0F30C032DE9F04105460F4628
S1131B4016460BB9FFF7AAFF05F5005424F4FF5419
S1131B5024F01F0405EB0608A04507D83246394691
S1131B602846BDE8F0410223FFF7A6BF2046FFF751
S1131B7095FF04F50054EFE737B504461546019187
S1131B80FFF70CFF0369A3420BD8426963199A4219
S1131B9007D32A462046019903B0BDE83040FFF739
S1131BA0C9BF03B030BD2DE9F0411546074688464C
S1131BB0FFF7F4FE0646FFF7F4FEC4196319B3F504
S1131BC0002F0FD83FB9FFF7ECFE7369834202D9A7
S1131BD03069FFF763FF2A4641462046BDE8F041DD
S1131BE0FFF7A8BFBDE8F0817FB50346D0B16D46CD
S1131BF00D4A02F110062C4610685168083203C4DD
S1131C00B2422546F7D15A1E0DF10F010F3311F8D8
S1131C10010912F8014F844204D19A42F7D10120FC
S1131C2004B070BD0020FBE741340000036913F0E9
S1131C30FE0F0CBF01200020704738B504460D4646
S1131C40FFF7D2FF48B16369012B09D12046FFF7A2
S1131C50EDFF08B1A3692B6038BD01202C60FBE7C0
S1131C600020F9E740F204632DE9F041A4B0446B8D
S1131C7005460893FFF792FE06462046FFF7B4FF99
S1131C8018B9002024B0BDE8F0812046FFF7CEFF4C
S1131C900028F6D0FFF77AFE002849D14FF000085B
S1131CA0D8F834703846FFF79FFF0028E9D033692D
S1131CB0403B9F42E5D820460DF11F018DF81F805F
S1131CC0FEF71DFA0028DCD0204609A9FFF7B5FF6E
S1131CD00028D6D0099B32699A42D2D8AB42D0D3DD
S1131CE0B3F5002FCDD80AA8FEF798FB099A294628
S1131CF0521B0AA8FEF7A6FB0AA8FEF7A5FB099A41
S1131D0020320392FFF740FE0999039AC8B19DF867
S1131D101F30A3B1A36B03F12400009004330AA87D
S1131D20FEF702FB08900898B0FA80F04009A9E792
S1131D300121206AFEF7E0F90028AFD1A1E7BB6BCF
S1131D40E9E7CDE90421FFF79DFE0390FFF79EFE2E
S1131D50DDE9033205990090E1E70000F8B5D0E928
S1131D60006706F160460446456BFFF717FEB6F5BB
S1131D70004F01D90020F8BD0369BB42FAD8B7F57A
S1131D80002FF7D84033AB4202D8B5F5002F05D960
S1131D90FEF774FA80F00100C0B2ECE7FEF76EFAC9
S1131DA020B12046BDE8F840FFF75CBF2846FFF7A6
S1131DB01BFFB8B12846FFF739FF0028DAD06B695A
S1131DC0002BD8D0022BECD1AB69C4F10401194427
S1131DD04FF0FF322046FEF753FA034BC31A584222
S1131DE05841C8E70120C6E7E320BBDE30B54FF019
S1131DF0FF3289B005460C46FEF742FA0E4B984274
S1131E0017D1FEF77BF940F2022000F0D6F81C222D
S1131E10002101A801F0E6F9084B29466846009321
S1131E20FEF778FD68462146FEF774FD6846FEF726
S1131E307BFD002009B030BDE320BBDE010006437A
S1131E404FF0FF3313B5044601A80193FEF724FEB7
S1131E5030B9019BA3422CBF0020012002B010BD69
S1131E600020FBE710B5044688B040F2022000F0E1
S1131E70A4F81C22002101A801F0B4F9054B214665
S1131E8068460093FEF746FD6846FEF74DFD0020C8
S1131E9008B010BD00000343B1F5027F10B504463D
S1131EA00FD34FF40272002101F09CF904F5C872BB
S1131EB004F5A47104F12C000023BDE8104000F0E7
S1131EC0F8B940F2052010BD13B50446009101464F
S1131ED02C3000F02FFAC4F8040218B141F20703C1
S1131EE0984209D1A3784BB140F2032040F2022377
S1131EF0E278002A08BF184602B010BD40F2012063
S1131F00FAE72DE9F04387B00DF1080904460E46BF
S1131F1017460021102248461D46DDF8388001F09E
S1131F2061F900211C22C8F80010284601F05AF972
S1131F3032463B462146CDF8009004F12C0000F0D7
S1131F40F9F923789A0744BF6268C8F80020DB07D0
S1131F5009D504F1080304F1240253F8041B934245
S1131F6045F8041BF9D1237840F20640002B18BF32
S1131F70002007B0BDE8F0834FF4027070474FF0C3
S1131F8000534CF23C325A8070474FF000534AF6EB
S1131F90C0325A8070474FF000534FF20F025A80FC
S1131FA070474FF000534AF6C0305B8823F00F03AC
S1131FB09BB21B1A5842584170474FF0005208B563
S1131FC01080FFF7EEFF10B94FF20F03538008BDE6
S1131FD008B5FFF7E6FF20B14FF00053588800F032
S1131FE00F0008BD08B5FFF7DCFF50B14FF00052F9
S1131FF0538803F00F010F2914BF013323F00F039B
S1132000538008BD08B5FFF7D8FFBFF34F8F0549CC
S1132010054BCA6802F4E0621343CB60BFF34F8FF1
S113202000BFFDE700ED00E00400FA0508B5FFF786
S1132030B8FF30B94FF000534FF20F015A888A426B
S113204003D14FF00053188808BD3AB91B8840F2F9
S11320500220012B18BF4FF40070F5E74FF4007015
S1132060F2E770B5D1E90152AA4205D290F84030A6
S11320702B449B1A402B10D9002012E00A6890F8D8
S11320804040D65C90F841200133224402F03F02E4
S1132090013486548B6080F840408B689D42EDD8B3
S11320A0012070BD2DE9F8431D461746D1E90132E0
S11320B09B1A90F84020044613449D420E469DF816
S11320C020909DF8248056D9FFF7CBFF00285CD1DF
S11320D0152341F2020084F84630BDE8F88394F8F1
S11320E04120A25CFA5494F841200133013202F0F9
S11320F03F0284F8412094F84020013A84F84020BB
S113210094F840200AB19D42E9D1D6E901219142D7
S113211001D29D4231D89D42DAD129463846D4F8BD
S11321208820FEF7ADF8C4F88800B9F1000F04D098
S11321302A463946E06CFEF785F9B8F1000F08D05D
S113214094F843308BB12B463A463946A06CFEF7DF
S1132150D9F894F8433043B1E36DA26D2B44934214
S1132160E36524BF002384F84330636D41F2030028
S11321702B446365B1E70023C2E73268525CFA542A
S1132180B26801330132B260BFE70020A5E7000066
S11321907FB50023CDE90033082315460DEB030278
S11321A00446FFF77FFF41F203039842064626D117
S11321B094F8433063B10822E06C0DEB0201FEF7A2
S11321C041F908230DEB03021146A06CFEF79AF8BF
S11321D0039A029B6A6094F843202B605AB9094A17
S11321E0934208D0084A934205D00822E06C0DEBD4
S11321F00201FEF727F96B68236500236365304607
S113220004B070BDF70A0AF7FC0404FC2DE9F34797
S1132210044658680D4690469946002843D08B07DB
S113222044D1FFF7B7FB216E031D08EB010C634596
S11322301DD800F11C07B94219D28B421E4638BF83
S11322400E46BC4594BFC6EB0C02C6EB0702711ADE
S1132250F61A05EB010A06F1680051462044019282
S113226000F0B3FFFF215046019A00F0BBFFFFF7D7
S113227098FB226E031D93420BD308EB0201083036
S1132280814206D39B1AEA58C4F880204FF0FF32EB
S1132290EA504246D9E90036206E2946B04700206C
S11322A0226E4244226602B0BDE8F08741F2020089
S11322B0F9E72DE9F04100264FF0FF3804460F46B8
S11322C0154603F0200380F842301822FF21C0E9AC
S11322D01866A0F8406080F84360A0F8446080F875
S11322E04660C0F88880683000F07CFF8822314660
S11322F0C4E91275C4F88080C4F8848004F19000A5
S113230000F070FF84F81861FFF73CFB20B11FB99F
S113231041F20B00BDE8F081FFF732FB30B1002D34
S1132320F6D0E06CFEF77AF80020F3E7002DF8D140
S11323302846EFE72DE9F04F0027B7B0CDE9092390
S1132340D7F83490029304460E46409D0B97FFF74E
S113235025FB0369403B994500F2E480B8460B9A9B
S1132360029B9A425ED294F84630152BF8D8DFE8E7
S113237013F08C00A5008500D6005B0042003900F4
S11323807702420071024200580242007102760351
S11323904B041600E103E5030104FA024B044FF079
S11323A0000A636D0F2B6ED8012710230CAA204658
S11323B0CDF804A0009709A9FFF774FE41F20303C6
S11323C00690069A9A426BD1D4F848B0FFF762FBA4
S11323D080230221CDE900030DAA3B465846FDF7B0
S11323E067FFDEE70127D4E914329A42C0F0A081E6
S11323F084F84670B3E74FF0010AD4E91473BB4282
S11324000B9940D20A9AFF1A94F84030521A032FBB
S11324101A4440F22982032A00F22982204609A99B
S1132420FFF71FFE0020B4E00127636D072B96D849
S113243008230CAA2046CDE9007709A9FFF732FE4C
S113244041F203030690069A9A4229D1337843F065
S1132450020333700C9B7360236D083B73620D9B06
S11324600593002B5BD1052284F8462094F845207F
S1132470636642F0010284F84520D6E70027636DC5
S1132480072B40F20481012315E007AA204609A97D
S1132490FFF77EFE41F203030690069A9A4201D0AA
S11324A0069876E0089B079A236500236365944B9E
S11324B09A4234D1022384F8463050E707AA2046D2
S11324C009A9FFF765FE41F203030690069A9A42B2
S11324D0E6D194F84420079B22B18A4A93421ED144
S11324E00E23E8E794F84220D7075AD594F84320FE
S11324F0002A56D184498B4200F0BD8020D8834AFB
S113250093420CD011D8824A934200F0AD801ED879
S11325107B4A934203D002F1B642934217D115236A
S113252084F8463041F2010033E07A4A93422BD0DA
S11325300DD802F17E42023A9342F0D0764AECE79B
S113254076498B4217D00BD875498B4215D0152389
S113255007A884F84630FFF70FFA0028E2D116E006
S1132560684A934218D0013A9342F0D96D4A934293
S1132570D5D06D4AD1E710239DE7112384F8463066
S1132580236DC4E91632EAE6152384F8463041F295
S1132590080037B0BDE8F08FFFF7F2F900289FD0AC
S11325A0BDE75D4A934256D037D8584A934250D03B
S11325B02ED802F1D54202F5E01202F6F742934218
S11325C045D0534A93424AD007A8FFF7D5F90028CB
S11325D053D01423079884F84630C4F88C00FFF7CE
S11325E0CDF994F84230804698067FF5B8AEB8F13C
S11325F0000F3FF4B4AED8F80430002B3FF4AFAE74
S1132600204698470690069B002B3FF4A8AE89E726
S1132610464A9342D8D104234DE7424A93421CD000
S113262010D8394A934221D0364A9342CCD1FFF78D
S1132630A7F900287FF473AF94F84330002B3FF4DC
S11326404FAF6CE7384A9342BED1092333E70B23DB
S113265031E706232FE707232DE70D232BE794F813
S11326604330002B7FF45BAF122324E794F843300C
S1132670002B7FF454AF13231DE7152384F8463051
S113268094F84330002B82D041F2040081E7012307
S11326900CAA009320460823019709A9FFF702FD1D
S11326A041F203030690069A9A427FF4F9AE0C9B1A
S11326B003F07F43B3F1407F05D0152341F20900B5
S11326C084F8463065E70D9BD90705930ED594F839
S11326D0423043F0010384F84230FFF751F90028F7
S11326E03FF4CDAE059BDA0504D5C8E6FFF74AF9F9
S11326F00028F2D0152341F20A0084F8463048E756
S1132700EB17A603FC0404FCF70A0AF7F40A0AF41C
S1132710F30B0BF3F70909F7F60808F6FA0606FABD
S1132720F90707F9FD0303FDFE0101FEF50909F5AB
S11327300CAA2046CDE9007709A9FFF7B3FC41F2C2
S113274003030690069A9A427FF4AAAE06F1080A99
S113275053460DF1300C0DF1480E624603CA724522
S113276018605960944603F10803F6D110681860A4
S11327703378504643F001033370FFF715F928B955
S1132780152341F20C0084F8463002E7002150463C
S1132790FFF7FEF800287FF426AEF1E701230EAA26
S11327A0CDE900332046082309A9FFF77BFC41F259
S11327B003030690069A9A427FF472AE337843F08C
S11327C0040333700F9BB36273785B0726D5EB2346
S11327D08DF8303017238DF83130A6238DF8323040
S11327E05E2300208DF83330236D6066C4F8843096
S11327F094F8453043F0020384F84530EF686FB134
S113280004222B680CA9B8470822606E2B68EF6875
S11328100EA91044B847636E103363660C2384F822
S11328204630636D072BB9D999E504230CAA2046D9
S1132830CDE9007709A9FFF735FC41F203030690BF
S1132840069A9A427FF42CAE226D0C9B042A0593BF
S113285001D923660127636D032BE6D90A232AE6EF
S113286000236366082326E697423FF6D7AD402F40
S113287028BF4027974228BF1746032F88BF27F059
S113288003073B460CAA2046CDE900AA09A9FFF795
S113289009FC41F203030690069A9A427FF400AEC3
S11328A094F84630082B04D1D5F808B0BBF1000FDA
S11328B022D1042FC7F1040B88BF4FF0000B039300
S11328C00CAB5A46D819FF2100F08CFC039BBB4487
S11328D00A2B1AD16B683BB1012106F10800FFF7FE
S11328E057F800283FF44CAF2B465A4620460CA913
S11328F0FFF78CFC069080E53A462B68606E0CA9C5
S1132900D847626E3A44626677E5052B20D1737826
S11329109F077FF572ADEB68002B3FF46EAD626EDE
S1132920042A0BD80BEB0203062B07D90DAB9B1A19
S11329301A68C4F884204FF0FF321A60EF685A46D0
S11329402B68606E0CA9B847676E5F44676654E5F0
S11329500C2B7FF452AD737858077FF54EADEF68BA
S1132960002FECD149E594F84230990607D5D4F804
S11329708C00FFF703F8804600283FF4D3AD6B6862
S11329803BB1012106F10800FFF702F800283FF4EB
S1132990F7AE4FF0010A43E0002B5ED0B8F1000F10
S11329A05BD0D8F81030002B57D020469847DDE98B
S11329B00A73FF1A94F840303B4498423FF62EAD18
S11329C0D4E91472BF1A402F28BF40279F4228BF62
S11329D01F460CAA3B462046CDE900AA09A9FFF7E9
S11329E061FB41F203030690069A9A427FF458ADC4
S11329F094F842309A0613D5B8F1000F3FF492AD23
S1132A00D8F808B0BBF1000F3FF48CAD2B463A4622
S1132A1020460CA9D8470690069B002B7FF440ADB6
S1132A20D4E9142194F84230914203F02003B3D343
S1132A30002B3FF428ADB8F1000F3FF424ADD8F8D3
S1132A400C30002B3FF41FAD2946204698470690D2
S1132A50069B002B3FF417AD22E50120A7E70023D6
S1132A600CAACDE900332046042309A9FFF71AFB79
S1132A7041F203030690069A9A427FF411ADD4F80A
S1132A808820634B9A4205D0152341F2050084F84F
S1132A9046307EE5FEF774FF002842D10123F3702F
S1132AA094F845309B0707D0EF682FB104222B68B8
S1132AB0104604F18401B847236E002B34D06B68B0
S1132AC093B34FF0FF3304F18001042205A805936A
S1132AD0029100F06AFB40B1FEF763FF28B1D5E92B
S1132AE00037042202991044B84704F1680704220D
S1132AF0394605A800F059FBB0B1D5F80480FEF7BB
S1132B0049FF2B6804F16C0114220830C047D5F842
S1132B100480FEF73FFF042239462B681044C04767
S1132B2002E0F378002BBBD10123B3700F2384F8A8
S1132B30463077E4012384F84330BCE494F8183138
S1132B40002B7FF40CAC4A461CAB204609A9FEF7C7
S1132B502DFF41F206030690069A9A4203D11523EB
S1132B6084F846309CE441F20303069A9A423FF407
S1132B70F6AB95E494F84430002B7FF484ACCDE9B3
S1132B8000330CAA4023204609A9FFF78BFA41F22F
S1132B9003030690069A9A427FF482ACE06CFDF738
S1132BA053FC94F81831A3B104F1B403009304F175
S1132BB09403E06C14AA0CA9FDF7B6FB0690069BDF
S1132BC0EBB10023F370152341F2060084F846307C
S1132BD0DFE4FEF7D9FE30B1D9F8383003F124022E
S1132BE000920433E5E7E76CFEF74CFF0390FEF731
S1132BF04DFF039B009014AA38460CA9DCE701237F
S1132C00F37084F844303EE441F20700C1E400BFAD
S1132C10E320BBDE31B10A4B5A68824205D8002357
S1132C20C1E9003340F201407047013053F83020CD
S1132C3003EBC00043680A6000204B60704700BF8C
S1132C401033000001221A707047000070B40C4663
S1132C5011460C4A556885420DD9013002EBC00675
S1132C607668E518B5420AD852F830001A4620446E
S1132C7070BCFDF7D5BF40F2014070BC704740F214
S1132C800240FAE71033000030B504460D46A3B005
S1132C90D0F8001202AA8023D0F8F801FFF7D6FF7B
S1132CA080232146009502AA04F12C00FFF742FB81
S1132CB0D4F80032C4F804028033C4F8003223B0DC
S1132CC030BD1FB50023CDE90033CDE90213D0F8A0
S1132CD00432044693B9D0E97F329A420ED269464F
S1132CE0FFF7D2FFD4F8040298B141F2070240F290
S1132CF00123904208BF184604B010BDA3785BB10D
S1132D0040F2022040F20323E278002A18BF18465A
S1132D10F2E740F20120EFE740F20220ECE7000086
S1132D2070B50D46002186B00DF1070302931F4BC9
S1132D3004461646116028461C22CDE903338DF85B
S1132D400710059300F04EFA94F87230142B28D033
S1132D50D4F804322BBBD4E97F21914207D2204618
S1132D6002A9FFF791FF9DF80730002BECD02278E1
S1132D70910744BF61683160D20709D504F10802A4
S1132D8004F1240152F8040B8A4245F8040BF9D1EA
S1132D904BB9237840F20640002B18BF002006B040
S1132DA070BD0023E3E70020F9E700BF452C0000D5
S1132DB070B40C4611460C4A556885420DD9013051
S1132DC002EBC0067668E518B5420AD852F830001E
S1132DD01A46204470BCFDF739BF40F2014070BC74
S1132DE0704740F20240FAE710330000074B5A687C
S1132DF0824207D9013003EBC002516853F8300016
S1132E00FDF746BF40F20140704700BF1033000099
S1132E1010B5044660B14FF480320023C0E90023AA
S1132E20044B1A785B680272C360FDF7E5FE20610B
S1132E3010BD00BF1033000037B50C4605461146DF
S1132E402046FFF729F848B969462846FFF7E2FE0D
S1132E5020B9019BC4F8F851C4F8FC3103B030BD6B
S1132E6038B500F5C87204460D46202300F5A47158
S1132E702C30FFF71EFAD4F804321BB9D4E97F32A0
S1132E809A4203D3A07800B1E07838BD29462046A1
S1132E90FFF7FAFEEFE7000000B5ADF5077D4FF44C
S1132EA0027204A9FFF7C8FF78B904238DF8113022
S1132EB0074BCDE900000290694604A80393FFF78D
S1132EC0CFFF0DF5077D5DF804FB0020F9E700BF97
S1132ED0A71B000030B5ADF5077D0D460446FEF78F
S1132EE05DFD8368AB4203D300200DF5077D30BD43
S1132EF04FF40272204604A9FFF79EFF0028F3D185
S1132F0002238DF81130054BCDE90000029069468B
S1132F1004A80393FFF7A4FFE7E700BFA71B000083
S1132F2000B5ADF5077D4FF4027204A9FFF784FFE5
S1132F3078B901238DF81130074B0090CDE90130A9
S1132F400390694604A8FFF78BFF0DF5077D5DF834
S1132F5004FB0020F9E700BF791B00002DE9F041D4
S1132F609AB0502204460D4606A8002100F03AF912
S1132F701422002101A800F035F901A8FFF748FF49
S1132F80049B012B11D8002320466A1E9D424FEA60
S1132F9082024FF0FF0108BF1A4640F8043B00F0DC
S1132FA021F900201AB0BDE8F081AB4258D3FEF7F6
S1132FB063FD059B0C2206A90646DF68FDF730FE7B
S1132FC00028EFD1DFF8A480069B434515D1089A69
S1132FD006A93046FDF724FE4FF0FF32089906A8F3
S1132FE0FDF74EF9204B984226D0FF212046AA0037
S1132FF000F0F8F840F20550D4E737440C22384684
S113300006A9FDF70DFE0028CCD1069B4345ECD163
S113301006A93846089AFDF703FE059B3046D96891
S1133020FDF736FE0028BDD13046089A06A9FDF703
S11330300DFE0028CBD0B5E7089E09A9103EB608BE
S1133040AE4228BF2E46B7003A46204600F0BDF8EF
S1133050AA1B9200B54238BF0022FF21E0199EE767
S113306040F204509EE700BFE320BBDE39528FE1FB
S11330702DE9F0439BB00C4644220021814609A867
S113308000F0B0F8012350262D4A0021CDE9062393
S113309001A81422089600F0A5F801A8FFF7B8FECD
S11330A0049BA34249D3012B0AD8D9F8003040F23B
S11330B004500133012B98BF00201BB0BDE8F083FE
S11330C0FEF7DAFC102C28BF1024059B4FEA840875
S11330D0DF68424649460744054609A800F075F8EA
S11330E0C4F1100406AB08F10C001844FF21A2003F
S11330F000F078F84C214FF0FF3206A8FDF7C0F835
S1133100C043059B1990D9683846FDF7C1FD0028D6
S1133110D3D13246384606A9FDF798FD0028CCD114
S1133120059B2846D968FDF7B3FD0028C5D1324672
S1133130284606A9FDF78AFDBFE740F20450BCE724
S113314039528FE130B597B014220021054601A809
S113315000F048F801A8FFF75BFE049C012C1ED97F
S1133160214606A8FFF7FAFE18B140F2055398422B
S11331700ED1002306AA52F8041B481C0AD116AA31
S113318002EB8303214643F8405C06A8FFF770FF77
S113319017B030BDA94205D001339C42EBD140F2B7
S11331A00250F5E740F20350F2E70139024410B54A
S11331B0904201D1002005E0037811F8014FA342A9
S11331C001D0181B10BD0130F2E70A44431E91429E
S11331D000D1704710B511F8014B914203F8014F2B
S11331E0F9D110BD02440346934200D1704703F85D
S11331F0011BF9E7F8B500BFF8BC08BC9E46704750
S1133200F8B500BFF8BC08BC9E46704707B0CD5E59
S11332100100000000000C01A83400000060000060
S113322000000800F0000100030100000701000095
S11332305D1D0000991E0000C91E000054340000EA
S1133240031F0000791F00000000000013B779FA83
S1133250C925DDB7ADF3CFE0F1B614B80101000024
S113326000000000A43400004000000000000C0135
S1133270000000000000000000000000000000004A
S11332800000000000000000000000006A09E6677A
S1133290BB67AE853C6EF372A54FF53A510E527F73
S11332A09B05688C1F83D9AB5BE0CD1980000000BF
S11332B0000000000000000000000000000000000A
S11332C000000000000000000000000000000000FA
S11332D000000000000000000000000000000000EA
S11332E000000000000000000000000045465233CA
S11332F03200000001020300280000002800000042
S11333000020000000000800EC320000040000006F
S11333100100000001000000004004000040030020
S11333200000000000000000000000400001000058
S1133330000200000004000000080000001000006B
S11333400020000000400000008000000000010098
S11333500000000001000000FFFFFFFF000000016B
S1133360000000000000000000000000FFFFFFFF5D
S1133370FFFFFFFFFFFFFFFFFFFFFFFF0000000055
S1133380FFFFFFFFFFFFFFFFBCE6FAADA7179E8418
S1133390F3B9CAC2FC6325516B17D1F2E12C424741
S11333A0F8BCE6E563A440F277037D812DEB33A0FE
S11333B0F4A13945D898C2964FE342E2FE1A7F9BA6
S11333C08EE7EB4A7C0F9E162BCE33576B315ECEC5
S11333D0CBB6406837BF51F5FFFFFFFF0000000187
S11333E0000000000000000000000000FFFFFFFFDD
S11333F0FFFFFFFFFFFFFFFC5AC635D8AA3A93E749
S1133400B3EBBD55769886BC651D06B0CC53B0F6BB
S11334103BCE3C3E27D2604B58330000C000000036
S113342000000000000010002000000010141C2008
S113343030402040404040808040101420204040D4
S113344020B814B6F1E0CFF3ADB7DD25C9FA79B7EA
S11334501300000000010000112E0000152C0000D4
S11334604D2C0000B12D0000ED2D00007130000046
S11334705D2F000045310000392E0000C32C0000F0
S1133480212D0000110C0000210C00004D0C000047
S10F3490910C00008B0C000000000000F8
S10B349C65000000410000007E
S90300A15B
