:100000000010002001020000B3010000FB09000005
:10001000B3010000B3010000B3010000B301000010
:10002000B3010000B3010000BCAF0000B301000049
:10003000B301000004B00000B3010000B3010000F0
:10004000B3010000B3010000B3010000B3010000E0
:10005000B3010000B3010000B3010000B3010000D0
:10006000B3010000B3010000B3010000B3010000C0
:10007000B3010000B3010000B3010000B3010000B0
:10008000B3010000B3010000B3010000B3010000A0
:10009000B3010000B3010000B3010000B301000090
:1000A000B3010000B3010000B3010000B301000080
:1000B000B301000075990000B30100002DA30000FA
:1000C000E1A20000DDA20000199B000029A30000AE
:1000D000E5A20000EDA20000E9A2000021870000D7
:1000E0006DA30000B3010000B3010000B3010000E4
:1000F000B3010000B3010000B3010000B301000030
:10010000B3010000B3010000B3010000B30100001F
:10011000B3010000B3010000B3010000B30100000F
:10012000B3010000B3010000B3010000B3010000FF
:10013000B301000010B5054C237833B9044B13B15B
:10014000044800E000BF0123237010BD6C100020A4
:1001500000000000B0DB000008B5034B1BB10349F1
:10016000034800E000BF08BD000000007010002040
:10017000B0DB000008B50421002002F009F80421DA
:10018000062002F005F80721084602F001F80721D1
:10019000082001F0FDFF07211C2001F0F9FF0721D5
:1001A000242001F0F5FF0721252001F0F1FF0020B8
:1001B00008BDFEE7064B0748DA1C121AC11E22F0E2
:1001C0000302994288BF002203490AF0A3BE00BF80
:1001D0006C10002000100020C4DB0000064B074814
:1001E000DA1C121AC11E22F00302994288BF0022B3
:1001F00000210AF0B6BE00BFEC2300206C100020E6
:1002000008B500F009F800F06BFCFFF7D3FFFFF72B
:10021000E5FF00F0F7FB00006FF00100104B114A02
:1002200010B59A60D3F888200F4942F47002C3F8E1
:10023000882001F50052106641F2FF7050660220DE
:10024000C3F8D000BFF34F8FBFF36F8F08244FF474
:1002500040330648C0F88041D36004600B6110BD94
:1002600000ED00E0000000000080004400E100E03C
:10027000014B1868704700BF04100020084B1B6F2B
:1002800003F00703022B04D0032B05D0012B05D06C
:10029000FEE7044B18687047034BFBE703487047C1
:1002A000008000500410002008100020002D3101B3
:1002B00008B5FFF7E3FF054B1B6FC3F301330133B1
:1002C000B0FBF3F0024B186008BD00BF0080005087
:1002D000001000200048704700B4C404014B1868A7
:1002E000704700BF0810002000207047004870478A
:1002F000002D3101174B9868C0F304400C2822D818
:10030000DFE800F0092121212121071719211B1DF8
:100310001F00114870479B6803F04073B3F1807F62
:1003200013D0B3F1007F12D00C4A002B08BF104647
:1003300070470B4870470B4870470B4870470B4895
:1003400070470B487047002070470A4870470A48BA
:10035000704700BF0040015A405DC60000093D00E3
:100360000024F400C0EA210180BA8C010048E801B1
:10037000005A620280841E0040420F004FF4004089
:1003800070474FF47A707047014B1868704700BF90
:100390000C10002000F0C8B800F0D0B810B5144B15
:1003A000ADF5107D03AC0FCB84E80F002C220021AB
:1003B00007A80AF0D6FDFF234FF49472002146A847
:1003C0008DF81D300AF0CDFD6822002112A80AF038
:1003D000C8FD682200212CA80AF0C3FD00942CABB4
:1003E00012AA46A907A800F0FBF80DF5107D10BD74
:1003F0008CAF0000704700000122044B1A700023EC
:10040000034A1370034A1370704700BFA510002001
:10041000A4100020A6100020002238B5134B144C65
:100420001A700122134B1A7023689A78EAB1DA78AD
:10043000DAB11A78510707D5986A00F0C7FA18B1EF
:100440004FF4C03000F06CFA23681A7892070CD58C
:100450005D6800F095FA854207D923684FF4C030F3
:10046000596ABDE8384000F019BA38BDA51000201F
:1004700090100020A410002000F082BA4FF49033B6
:1004800010B55C6B00239B6A1A69A24201D300205D
:1004900010BD5B69A342FAD9204600F039F9002863
:1004A000F5D0206AF4E7000007B5024601200B46AC
:1004B000064908700649074809680091064900681E
:1004C000096800F0C1FD03B05DF804FBA610002030
:1004D000941000209810002090100020044A054934
:1004E0000548202312680968006800F071BD00BF4C
:1004F000881000208C10002098100020094B1A68EA
:10050000D37892782AB1002B41F20C0018BF00205A
:10051000704741F20C0240F20570002B08BF1046F4
:10052000704700BF9010002008B5FFF723FEBDE81C
:100530000840014802F0DEB99C10002010B5254BA0
:10054000254C18681B7992B08DF80C3023880290E6
:10055000ADF80D30A37868468DF80F3002F0DEF963
:1005600041F60833ADF810309DF806300098C3F31B
:1005700000038DF81230BDF80430CDF81300ADF84B
:100580001730164B1A889B78ADF828208DF82A3042
:1005900000238DF82B3002F0EBF902F0EFF9204642
:1005A000032102F0F1F902F0F7F902F0AFF911219D
:1005B00002A802F0C7F903210AA802F0CAF9012033
:1005C00002F0CEF9002840F2017008BF002012B0FE
:1005D00010BD00BF9CAF0000A2AF0000A6AF00009E
:1005E00070B5134C134E20601348144D016014492C
:1005F0000A60144A1360049A134B1A6033780BB1E3
:1006000002F08AF92B78002BF8D0104B1B784BB1F5
:1006100023689A784AB1DB7840F20570002B18BF46
:10062000002070BD40F20370FBE740F20570F8E770
:1006300090100020A510002098100020A410002089
:100640008C1000208810002094100020A61000209C
:100650004FF098435A6CD202FCD5586D00F47020CC
:100660007047C0F30C032DE9F04105460F461646CE
:100670000BB900F062FB05F5005424F4FF5424F09C
:100680001F0405EB0608A04507D832463946284620
:10069000BDE8F041022300F057BB204600F04DFBBF
:1006A00004F50054EFE770B40025AD6A03462E69E7
:1006B000864206D86C6913449C4202D370BCFFF793
:1006C000D0BF70BC70471FB510F5C03F00F5C033F8
:1006D000144603931AD2039BB3F57E2F16D2039BC5
:1006E000C3F57E23934211D348B9836A5A69B2F5A0
:1006F000C03F04D91869019100F01FFB01992246FF
:10070000039804B0BDE81040FFF7ABBF04B010BDC4
:10071000F0B5421ED11C034685B019D86E460D4C6B
:1007200004F11007354620686168083403C5BC42EF
:100730002E46F7D10DF10F010F3311F8010912F810
:10074000014F844204D19A42F7D1012005B0F0BD97
:100750000020FBE7A9AF0000036913F0FE0F0CBFF8
:1007600001200020704738B504460D46FFF7D0FF42
:1007700048B16369012B09D12046FFF7EDFF08B1AD
:10078000A3692B6038BD01202C60FBE70020F9E74E
:100790002DE9F0410368044603F16043B3F5C03F1F
:1007A0004FF00000A0B029D8826A636816699E42A3
:1007B00024D8B3F5801F21D8656B06F14003AB4206
:1007C00068D8B5F5801F65D82846FFF7A1FF002837
:1007D00060D02846FFF7C0FF80B16B6973B1022B70
:1007E0000FD1AB69C4F1040119444FF0FF32204628
:1007F00001F04EF8284BC31A5842584120B0BDE8CA
:10080000F08140F2046328460493FFF781FF08B9A2
:100810000020F3E72846FFF79FFF0028F8D00027C5
:10082000D7F834804046FFF773FF0028F0D0503EE1
:10083000B045EDD8284605A9FFF795FF0028E7D079
:10084000BA6A059B12699A42E2D89C42E0D8B3F595
:10085000801FDDD806A801F0DDF8059A2146121B9D
:1008600006A801F0E1F806A801F0E0F8059C01F007
:10087000E1F8039001F0F6F821460090039B04F1A3
:10088000200206A801F04CF804900498B0FA80F019
:100890004009B3E70120B1E7E320BBDE70B54FF0BC
:1008A000FF3290B005460C4600F0F2FF194B98421B
:1008B0002DD11C22002101A80AF053FB164B29461A
:1008C0006846009301F073FE2146684601F06FFE12
:1008D000684601F075FEFFF7BBFE0646B8B940F268
:1008E000022000F0F6F91C22314609A80AF039FB73
:1008F0000A4B294608A8089301F059FE08A821468A
:1009000001F055FE08A801F05BFEFFF7A1FE0020F4
:1009100010B070BDE320BBDE0100054301000643BB
:1009200030B5044691B01C22002101A80AF019FB41
:10093000114B21466846009301F039FE684601F0EC
:100940003FFEFFF785FE054698B940F2022000F011
:10095000C0F91C22294609A80AF003FB074B08A886
:100960002146089301F023FE08A801F029FEFFF7B5
:100970006FFE002011B030BD0000024300000343B1
:1009800000239B6A9868704710B58CB01C220446FF
:10099000002105A80AF0E5FA0A4B0194049301230B
:1009A0000293094B01A904A8039301F0F6FD04A8E2
:1009B00001F006FEFFF74CFEB0FA80F040090CB0E3
:1009C00010BD00BF00000843040000204FF0FF33BB
:1009D00013B5044601A80193FFF7D6FF20B1019B90
:1009E000A3422CBF0020012002B010BD4FF4C03044
:1009F000704700207047002070474FF4017000F0EE
:100A000073B9000013B501A801F01EFE9DF8053072
:100A1000012B27D12B4A936DDB0313D4536B23F4A3
:100A2000FF0323F4FE4343F4BC1343F4A063536376
:100A3000136B23F4704343F440431363136B43F489
:100A4000E06313639DF8043063B94FF000531B68F3
:100A50001D4B1B681D4B1B681D4B1B681D4B1B68EA
:100A60001D4B1B681D4AD2F8803043F00303C2F8C7
:100A70008030FFF7BEFF00F01AF9FFF78BFCFFF79D
:100A80008BFC18B14FF4017000F02EF9FFF786FCD3
:100A90000446FFF7AFFC1CB140F203739C4203D144
:100AA00040F2012000F020F9A4F20574012C94BF5B
:100AB00040F203204FF4017000F016F9002002B05C
:100AC00010BD00BF00C0005000400020008000208A
:100AD00000C00020000001200040012000800050E4
:100AE00013B50124334B8DF806408DF80740D3F839
:100AF00094305B0610D500F00BF9A0F2022080B212
:100B0000072809D804FA00F010F0C90F1EBF00230F
:100B10008DF806308DF807304FF490335B68013361
:100B200008D14FF4027000F0D4F800238DF806309D
:100B30008DF807309DF8073063B14FF49030FFF720
:100B400027FE8DF806009DF806301BB94FF40270A1
:100B500000F0BFF89DF806304BB36FF00102164B62
:100B60001A6643F6FF725A660023144AC2F8D03060
:100B7000BFF34F8FBFF36F8F08241148C0F8804038
:100B8000BFF34F8FBFF36F8F4FF440310D4B19619F
:100B9000C0F88041D9604FF49033936018460168E3
:100BA00081F3088881F3098840688746FEE702B030
:100BB00010BD00BF004000500090004400ED00E078
:100BC00000E100E000A00044B1F50D7F10B504463F
:100BD0000FD34FF40D7200210AF0C3F904F5DE7251
:100BE00004F5AA7104F12C000023BDE8104000F0C8
:100BF000EFB940F2052010BD13B50446009101463F
:100C00002C3000F021FAC4F8300218B141F2070389
:100C1000984209D1A3784BB140F2032040F202235D
:100C2000E278002A08BF184602B010BD40F2012049
:100C3000FAE72DE9F04387B00DF1080904460E46A6
:100C400017460021102248461D46DDF838800AF07C
:100C500088F900211C22C8F8001028460AF081F902
:100C600032463B462146CDF8009004F12C0000F0BE
:100C7000EBF923789A0744BF6268C8F80020DB07C5
:100C800009D504F1080304F1240253F8041B93422C
:100C900045F8041BF9D1237840F20640002B18BF19
:100CA000002007B0BDE8F0834FF40D7070474FF09F
:100CB00000534CF23C325A8070474FF000534AF6D2
:100CC000C0305B8823F00F039BB21B1A5842584177
:100CD00070474FF0005208B51080FFF7EEFF10B9D3
:100CE0004FF20F03538008BD08B5FFF7F2FFBFF3C3
:100CF0004F8F0549054BCA6802F4E0621343CB608D
:100D0000BFF34F8F00BFFDE700ED00E00400FA05E0
:100D10004FF000534FF20F015A888A4201D11888D0
:100D200070473AB91B8840F20220012B18BF4FF4DC
:100D3000007070474FF40070704708B501F08CFBED
:100D4000B0FA80F0400908BD072B10B504461846DC
:100D50000FD862B142EA04039B070AD113460A4640
:100D6000214601F09DFBB0FA80F0400910BD012042
:100D7000FCE70020FAE7002070470020704770B5BC
:100D8000D1E90152AA4205D290F840302B449B1A77
:100D9000402B10D9002012E00A6890F84040D65C41
:100DA00090F841200133224402F03F02013486547E
:100DB0008B6080F840408B689D42EDD8012070BD6B
:100DC0002DE9F8431D461746D1E901329B1A90F8E8
:100DD0004020044613449D420E469DF820909DF805
:100DE000248056D9FFF7CBFF00285CD1142341F2B1
:100DF000020084F84630BDE8F88394F84120A25CF4
:100E0000FA5494F841200133013202F03F0284F891
:100E1000412094F84020013A84F8402094F8402082
:100E20000AB19D42E9D1D6E90121914201D29D4208
:100E300031D89D42DAD129463846D4F8882000F0CE
:100E400027FDC4F88800B9F1000F04D02A463946BE
:100E5000E06C00F0E9FDB8F1000F08D094F84330E1
:100E60008BB12B463A463946A06C00F048FD94F809
:100E7000433043B1E36DA26D2B449342E36524BF3D
:100E8000002384F84330636D41F203002B44636513
:100E9000B1E70023C2E73268525CFA54B26801330A
:100EA0000132B260BFE70020A5E700007FB5002354
:100EB000CDE90033082315460DEB03020446FFF786
:100EC0007FFF41F203039842064626D194F843304F
:100ED00063B10822E06C0DEB020100F0A5FD0823D0
:100EE0000DEB03021146A06C00F009FD039A029B72
:100EF0006A6094F843202B605AB9094A934208D09B
:100F0000084A934205D00822E06C0DEB020100F084
:100F10008BFD6B68236500236365304604B070BDAC
:100F2000F70A0AF7FC0404FC2DE9F7430446586865
:100F30000E4617469846002840D011F0030340D1D2
:100F40009B6A206E1B6902EB000C1D1D65451CD8B9
:100F50001C33984219D28542294638BF01469C4528
:100F600094BFC1EB0C02C1EB0302081AC5F168057E
:100F700006EB0009681820444946019209F0CAFFAF
:100F8000FF214846019A09F0ECFF226E0E4B9A426F
:100F90000AD80E49B818884206D99B1AF258C4F8E4
:100FA00080204FF0FF32F2503A46D8E90035206EEB
:100FB0003146A8470020226E3A44226603B0BDE8BD
:100FC000F08341F20200F9E704800100078001008C
:100FD0002DE9F04100254FF0FF37044688461646BC
:100FE00003F0200380F842301822FF21C0E9185591
:100FF000A0F8405080F84350A0F8445080F8465084
:10100000C0F88870683009F0ACFF88222946C4E92E
:101010001286C4F88070C4F8847004F1900009F05E
:10102000A0FF40F20113A4F824310123C4E947577B
:1010300084F8185184F8263116B1304600F0EAFCE5
:101040000020BDE8F08100002DE9F04FA7B0CDE908
:1010500013230293002304460E46309DDFF8B49319
:101060001593159A029B9A4201D30020C7E094F889
:101070004630142BF6D8DFE813F06700AE00A80066
:10108000520039002E005002390048023900020295
:10109000390048029703040415008C013E033E0307
:1010A000D00204044FF00008636D0F2B00F2918012
:1010B0000127102316AA2046CDF80480009713A913
:1010C000FFF77EFE41F203030990099A9A4200F06D
:1010D0005281099B44E00127D4E91432934200F283
:1010E0005E8184F8467041F2030339E04FF0010855
:1010F000D4E91437BB426CD9DB1BDDE91472BF1A8B
:1011000094F84020032B174440F20B82032F00F287
:101110000B82204613A9FFF732FE002320E00127AF
:10112000636D072BDFD8082316AA2046CDE9007788
:1011300013A9FFF745FE41F203030C900C9A9A4263
:1011400000F0B2810C9B0BE016AA204613A9FFF712
:10115000ADFE41F203020690069B934202D0069B2D
:10116000059345E0179A16992265002262659E4A0A
:10117000914240F0A481022284F84620F0E7012346
:1011800016AA009320460823019713A9FFF718FE1B
:1011900041F203030790079A9A4201D0079BDFE7C9
:1011A000169B03F07F43B3F1407F05D0142384F8EE
:1011B000463041F20903D3E7179BD80706D594F8C8
:1011C000423043F0010384F842300027636D072B5F
:1011D000D5D901239EE1204616AA13A9FFF766FE82
:1011E00041F203030890089F9F420BD0089F059788
:1011F00041F20303059A9A423FF433AF059827B0B2
:10120000BDE8F08F94F84420169B2AB1774A9342A8
:1012100040F087800D2336E094F84220D10741D575
:1012200094F84320002A3DD171498B4233D022D813
:10123000704A934275D014D86F4A934200F0888068
:1012400004D8694A93426CD04B456AD0142316A83F
:1012500084F84630FFF78FFD002865D141F208077A
:10126000C5E7664A934279D0F0D8654A934258D090
:10127000644A9342E9E75D4A9342CBD006D8624A7A
:101280009342E3D10F2384F84630B0E75F4A93429C
:1012900047D05F4AEDE7102384F84630236DC4E958
:1012A0001632A4E7574A93424AD02BD8514A934268
:1012B00044D022D84B453FD04F4A934244D016A841
:1012C000FFF759FD00284BD01323169884F84630B9
:1012D000C4F88C00FFF751FD94F842309A0686D589
:1012E000002884D04368002B81D02046984708907E
:1012F000089B002B3FF47BAF16E0414A9342DED1BE
:101300000323C0E7414A93421CD010D83B4A934282
:1013100020D0364A9342D2D194F84330002B3FF488
:1013200079AF142384F8463041F201075FE7384A69
:101330009342C4D10823A6E70A23A4E70523A2E722
:101340000623A0E70C239EE794F84330002BE8D156
:10135000112398E794F84330002BE2D1122392E74F
:10136000142384F8463094F84330002B3FF476AFD2
:1013700041F204073BE7D4F848A000F08BFB802340
:101380000221CDE9000317AA3B46504600F094FA2B
:101390008AE6012384F8433084F8463061E616AAD1
:1013A0002046CDE9007713A9FFF70AFD41F20303B8
:1013B0000A900A9A9A4201D00A9BD1E60DF1580C84
:1013C00006F108030DF1700E624603CA72451860FB
:1013D0005960944603F10803F6D110681860337819
:1013E00043F00103337077E6EB17A603FC0404FC1B
:1013F000F90707F9F40A0AF4F30B0BF3F70A0AF7F3
:10140000F50909F5F60808F6FA0606FAFD0303FDE4
:10141000FE0101FEEB17A65E337843F00403337040
:10142000199BB36273785B0726D5EB238DF8583090
:1014300017238DF85930A6238DF85A305E230020EB
:101440008DF85B30236D6066C4F8843094F84530C5
:1014500043F0020384F84530EF686FB104222B6833
:1014600016A9B8470822606E2B68EF6818A91044C7
:10147000B847636E103363660B2384F84630636DA0
:10148000072B3FF630AE012318AACDE900332046E2
:10149000082313A9FFF794FC41F203030B900B9A66
:1014A0009A42B9D00B9B5BE63378179A43F002035C
:1014B0003370169B7360236D083B73622AB114234B
:1014C00084F8463041F201034AE6042384F84630AA
:1014D00094F84530626643F0010384F845301FE616
:1014E000042316AA2046CDE9007713A9FFF768FC6C
:1014F00041F203030D900D9A9A4201D00D9B2FE605
:10150000236D042B02D9169B23660127636D032BE1
:10151000E6D9092384F84630E5E50023636607230E
:101520003AE79F42FFF4F5AD402B28BF40239F428E
:1015300028BF1F46032F88BF27F003073B4616AA84
:101540002046CDE9008813A9FFF73AFC41F20303D6
:101550000E900E9A9A4201D00E9B01E694F846B086
:10156000BBF1070F04D1D5F808A0BAF1000F1BD1C9
:10157000042FC7F1040A88BF4FF0000A16AB524689
:10158000FF21D81909F0EDFCBBF1090FBA4414D1C1
:101590002B465246204616A9FFF7C6FC0E900E9B1E
:1015A000002B3FF4A5ADD7E73A462B68606E16A92D
:1015B000D047626E3A4462669AE5BBF1040F20D1CF
:1015C00073789F077FF594ADEB68002B3FF490ADE7
:1015D000626E042A0BD80AEB0203062B07D917AB5D
:1015E0009B1A1A68C4F884204FF0FF321A60EF6823
:1015F00052462B68606E16A9B847676E57446766F7
:1016000076E5BBF10B0F7FF473AD737858077FF568
:101610006FADEF68002FEBD16AE594F8427017F0D8
:10162000200707D0D4F88C00FFF7A7FB0746002857
:101630003FF448AF4FF0010A42E04BB347B33B6978
:1016400033B320469847DDE9143294F840809B1A62
:1016500043448342FFF45DADD4E91421A2EB0108B9
:10166000B8F1400F28BF4FF04008984528BF984672
:1016700016AA43462046CDE900AA13A9FFF7A0FB0E
:1016800041F203030F900F9A9A4203D00F9B67E534
:101690000120D8E794F84230990611D5002F3FF485
:1016A00011AFD7F808B0BBF1000F3FF40BAF2B46DA
:1016B0004246204616A9D8470F900F9B002BE5D134
:1016C000D4E9142194F84230914203F02003B4D3BA
:1016D000002B3FF47EAD002F3FF47BADFB68002B69
:1016E0003FF477AD2946204698470F900F9B002B7B
:1016F0003FF46FADCAE700218A6A496B1269503A1C
:1017000091423FF6DFAE112B0FD194F81831002B28
:101710007FF45FAD41F206031093109A9A4202D112
:10172000142384F84630109B1AE594F84430002BBB
:101730007FF44FADCDE9003316AA4023204613A90C
:10174000FFF73EFB41F203031090109A9A42EAD150
:10175000E06C00F06BF994F81831A3B104F1B40314
:10176000E06C00931EAA04F1940316A900F0D8F8C7
:101770001090109B9BB10023F370142384F8463023
:1017800041F20603ECE4E76C00F054F9039000F03A
:1017900069F9039B00901EAA384616A9E6E70123C3
:1017A000F37084F8443014E5002316AACDE9003321
:1017B0002046042313A9FFF703FB41F20303119012
:1017C000119A9A4202D0119B059317E5D4F888200C
:1017D0002D4B9A4205D0142384F8463041F205037C
:1017E000F2E70123F37094F84530DA0707D5EF6884
:1017F0002FB104222B68104604F18401B84794F8F5
:1018000045309B0707D5EF682FB104222B6810469F
:1018100004F18401B847236E63B36F6857B34FF088
:10182000FF3304F18001042212A81293029109F0FF
:1018300061FB20B104222B6802991448B84704F1D7
:1018400068090422494612A809F054FB90B100230C
:101850009B6A1422D3F8108004F16C0108F108008F
:10186000D5E90037B847D5E900370422494608EBE7
:101870000200B8470123B3700E2384F846300023DA
:10188000A2E741F20700BAE4E320BBDE04800100D6
:1018900030B501240025074B01445C609D601A614E
:1018A000DC60884201D1586A30BD10F8012B1A6201
:1018B000F7E700BF00800850F7B504462030164611
:1018C0001D460F46019000F0D1FEDDE90812019897
:1018D00000F0D0FE002384F8587063643368C4F8C5
:1018E00059307368C4F85D30B368C4F861302B0CAC
:1018F0006DBA84F86530A4F8665003B0F0BD1FB52A
:101900000C46194600F14803CDE90142009300F16D
:10191000440200F15803203000F028FF04B010BD4D
:101920002DE9F04399B00E4615461C460746DDF8F2
:101930008090002861D000295FD0002A5DD0002B64
:1019400058D02F4B2F4AB9F1000F14BF984690463C
:101950001C22002111A809F004FB2B4B414610A8C2
:10196000109300F024FE202110A800F020FE012298
:10197000264B019402920393CDF8109005920693A2
:1019800054B1B9F1000F07D001A910A800F0FBFD78
:1019900004A910A800F0F7FD079701271B4C07A921
:1019A00010A80897099400F0EEFD0AA910A80A965D
:1019B0000B970C940D950E970F9400F0E4FD0DA974
:1019C00010A800F0E0FD10A800F0FAFD104B009305
:1019D0004FF098435A6CD202FCD55B6D40F2046024
:1019E00003F470230093009B002B08BF002019B064
:1019F000BDE8F083DFF80C80AAE740F20160F6E76B
:101A00001F2400801F24FC84000001062000002009
:101A10007856341210B5044600F0F4F82046BDE8BC
:101A20001040002100F0F2B800F0F5B8014600F0D7
:101A3000FFB8000000B591B00023402269464FF482
:101A4000807000F0DBFDB0F5A02F07D0B0F5302F8F
:101A5000034818BF002011B05DF804FB0048FAE706
:101A60004CE30F0000B591B00023402269464FF4CB
:101A7000807000F0C3FDB0F5A02F07D0B0F5302F77
:101A8000034818BF002011B05DF804FB0048FAE7D6
:101A90006CE30F000048704786E20F002DE9F34722
:101AA00099460A9B0C46196805463F29164642D8B6
:101AB0005A68002A41D0224A002E14BFB0469046F0
:101AC00001F03F07091928BF5A68196024BF013285
:101AD0005A60AFB1C7F1400AA24521D82946524603
:101AE00009EB070009F016FA0123414600934A4624
:101AF0003346002000F0A4F8B046403C55443C4436
:101B00003F2C0CD9A3092A460093414633460020B6
:101B100000F096F824F03F031D4404F03F04002732
:101B20002CB12246294609EB070009F0F3F9002001
:101B300002B0BDE8F0879046C2E7DFF80480BFE757
:101B400054B0000030B40546084611461A46DDE997
:101B5000023425B931B1029430BCFFF79FBF02486F
:101B600030BC70470846FBE780AFFFFF2DE9F0412E
:101B70001746146886B01E46E3008DF80F306309DF
:101B800052688DF80E30630B8DF80D30630D8DF8B3
:101B90000C30D30003EB54738DF80B3004F03F048A
:101BA0005309372C8DF80A304FEA52334FEA52521C
:101BB00005468DF80820884694BFC4F13802C4F168
:101BC0007802CDE900178DF809300D490346002051
:101BD000FFF7B8FF082143462A4600970DEB0100A6
:101BE000FFF75CFF284605F1200350F8042B9842CC
:101BF00046F8042BF9D1002006B0BDE8F08100BF03
:101C000074B000006822002109F0ABB90023C0E9DC
:101C100000331846704707B500F128030190009380
:101C200000F108030020FFF78DFF03B05DF804FB0F
:101C300002460B4600F128010830FFF797BF00006D
:101C4000F0B593B00E4617460446202200210AA89C
:101C50001D4609F086F901204FF0005201970290CD
:101C60000392049605900692079508900992002C1D
:101C70002FD1189C184BA40121460AA80A9300F002
:101C800096FC03990AA80C430394069B04A943F00D
:101C900020030693099B43F02003099300F073FC93
:101CA00001A90AA800F06FFC07A90AA800F075FCBA
:101CB0000AA800F085FC4FF098435A6CD202FCD57C
:101CC0005B6D13F4702F0CBF00206FF06F0013B02A
:101CD000F0BD6FF07100FAE70004010341F67133C3
:101CE00010B5104C104AA0428CBF4FF48014002451
:101CF000D169D363936801F4803123F44013234303
:101D000093600A4B98420A4BD3F818228CBF42F0DA
:101D1000020222F00202C3F8182211B10022024B83
:101D2000DA6310BD005A62020000035080F0FA022C
:101D300000C0075008B5FEF7CDFABDE80840002105
:101D4000FFF7CCBF38B5124B0546D3F820310C460F
:101D500003F00703013B032B17D8DFE803F0020A67
:101D60000E12FEF785FA042305B1286004B1236042
:101D700038BDFEF7B3FA0323F6E7FEF7BBFA0523F7
:101D8000F2E7FEF7B3FA0223EEE700231846EBE78B
:101D90000080005037B50C460021124A0191D2F85C
:101DA0008021054602F00302022A0ED0032A11D038
:101DB000012A14D101A8FFF7C5FF0D230DB1019A27
:101DC0002A6004B1236003B030BDFEF793FA052307
:101DD0000190F3E7FEF78AFA02230190EEE70B4643
:101DE000ECE700BF0080005038B5104B0546D3F833
:101DF00040310C4603F00303022B0BD0032B0DD014
:101E0000012B0FD1FEF7BAFA082305B1286004B1FF
:101E1000236038BDFEF7B8FA0723F6E7FEF7B1FAFC
:101E20000923F2E700231846EFE700BF00800050C7
:101E300038B5104B0546D3F860310C4603F0030368
:101E4000022B0BD0032B0DD0012B0FD1FEF796FAEE
:101E5000082305B1286004B1236038BDFEF794FA69
:101E60000723F6E7FEF78DFA0923F2E70023184669
:101E7000EFE700BF0080005038B5134B0546D3F89C
:101E800000320C4603F00703013B032B18D8DFE8B0
:101E900003F0020A0E12FEF771FA082305B128605A
:101EA00004B1236038BDFEF76FFA0723F6E7FEF7AB
:101EB00068FA0923F2E7FEF7FBF90C23800AEDE745
:101EC00000231846EAE700BF0080005038B5134BE6
:101ED0000546D3F808320C4603F00703013B032BF9
:101EE00018D8DFE803F0020A0E12FEF747FA0823BB
:101EF00005B1286004B1236038BDFEF745FA072319
:101F0000F6E7FEF73EFA0923F2E7FEF7D1F90C23D4
:101F1000800AEDE700231846EAE700BF0080005082
:101F200038B5104B0546D3F840320C4603F0030396
:101F3000022B0BD0032B0DD0012B0FD1FEF71EFA75
:101F4000082305B1286004B1236038BDFEF71CFAF0
:101F50000723F6E7FEF715FA0923F2E700231846F0
:101F6000EFE700BF0080005038B5104B0546D3F8AE
:101F700000310C4603F00303022B0BD0032B0DD0D2
:101F8000012B0FD1FEF7AAF9032305B1286004B194
:101F9000236038BDFEF7F8F90723F6E7FEF7A4F94A
:101FA0000623F2E701230020EFE700BF0080005086
:101FB000032814D005D8012805D0022809D0002014
:101FC00005E00F28FBD1084B186FC0F3013001303A
:101FD0007047054BD3F89000C0F30460F7E7024B5D
:101FE000186FC0F38020F2E7008000501FB5002377
:101FF0000193252817D8DFE800F0131A1D262B358A
:102000003A50555A5F646977161A3F1616551A26C4
:102010002B26351A5026773A3A3A3A2626265A5F20
:10202000FEF72CF90190019805B05DF804FBFEF76E
:102030003FF9F7E7FEF722F902460220FFF7B8FF63
:10204000B2FBF0F0EEE7FEF733F902460320F5E7C6
:10205000FEF72EF902460320FFF7AAFFB2FBF0F0CD
:102060004008DFE7002101A8FFF794FEDBE700212D
:1020700001A8FFF767FED6E702934FF0E0231B6944
:102080005B0705D5FEF714F90290029B0193CAE79E
:1020900003A902A8FFF7A8FEF7E7002101A8FFF7B0
:1020A000A3FEC0E7002101A8FFF7C2FEBBE70021A5
:1020B00001A8FFF7E1FEB6E7002101A8FFF706FF40
:1020C000B1E7002101A8FFF74FFFACE7094BD3F8B8
:1020D000803003F00303022BA9D0032B01D0002092
:1020E000A0E7FEF707F99DE7002101A8FFF718FF19
:1020F00099E700BF0080005008B50120FFF776FF88
:10210000BDE80840034988428CBF02210121032019
:1021100000F002B880F0FA02032810B50C4627D070
:1021200004D8012804D0022817D010BD0F28FCD1F4
:10213000FFF700FE00F028F8124B013C196F21F464
:10214000405141EA04341C67FEF7B2F80021FFF762
:10215000C5FDBDE81040FFF7CFBF0A4B013CD3F8E7
:10216000901021F0F85141EA0464C3F89040DCE794
:10217000044B013C196F21F4806141EA84241C67FF
:10218000D3E700BF0080005002210320FFF7C4BF47
:1021900070B50C46252848D8DFE810F02600470027
:1021A0004700470047005B006B009B00AB00BB0093
:1021B000CB00DB00EB00FC00470047007B00470042
:1021C0004700AB0047004700470047005B0047005F
:1021D0009B004700FC006B006B006B006B0047002E
:1021E00047004700BB00CB008B1E042B2ED8DFE836
:1021F00003F02A1D032D270000250226FFF79AFD74
:10220000FFF7C2FF6B4A136F23F0070333431367D3
:10221000FEF74EF80021FFF761FDFFF76DFF25B9CE
:10222000032C02D10122644B9A6270BD0122634BE0
:102230000E469D6A03F58053C5F340059A62DDE7BB
:1022400000250426DAE700250126D7E700252E46DB
:10225000D4E78C1E0B2C8CBF0021594B554A98BFDC
:10226000195DD2F8803123F003030B43C2F88031AB
:10227000DBE78C1E032C8CBF0021524B4D4A98BFCC
:10228000195DD2F8203123F007030B43C2F8203147
:10229000CBE70B2912D00ED8CC1F022CC5D84A4A46
:1022A000536A43F0010353624FF0E022136923F0B5
:1022B00004031361B9E70E29B7D1F0E7424A536A24
:1022C00023F0010353624FF0E022136943F004034B
:1022D000EFE7CC1F022C8CBF00213C4B354A98BF46
:1022E000195DD2F8403123F003030B43C2F84031AB
:1022F0009BE7CC1F022C8CBF0021354B2D4A98BF89
:10230000195DD2F8603123F003030B43C2F860314A
:102310008BE7CC1F052C8CBF00212E4B254A98BF84
:10232000195DD2F8003223F007030B43C2F80032E4
:102330007BE7CC1F052C8CBF0021274B1D4A98BF83
:10234000195DD2F8083223F007030B43C2F80832B4
:102350006BE7CC1E042C8CBF0021204B154A98BF84
:10236000195DD2F8003123F003030B43C2F80031AA
:102370005BE705290CD00B2914BF002102210D4A6F
:10238000D2F8803023F003030B43C2F880304CE7CF
:102390000321F4E7CC1F022C8CBF0021104B054A0F
:1023A00098BF195DD2F8403223F003030B43C2F803
:1023B00040323AE70080005000E0005000C000507A
:1023C000B4B00000C0B0000000C00750C4B00000AE
:1023D000C4B00000C7B00000C7B00000CDB000001E
:1023E000C4B00000EFF3108072B6704700B962B657
:1023F0007047EFF31180302383F31188704780F327
:1024000011887047F0B5114A114C124E00F00105C9
:10241000E3695F0713D40DB9334213D103EA000710
:102420008F4207D10B4A1A40002A14BF6FF00100F7
:102430000020F0BD013AEBD16FF00200F9E74FF058
:10244000FF30F6E76FF00100F3E700BF80969800D9
:10245000000003500200010038B541F6713301223B
:102460000C4C0021E569E3630B4B05F48035DA6021
:102470000223606121202361FFF7C4FF10B92120EE
:10248000FFF7C0FF0122054BDA600DB10023E363C3
:1024900038BD00BF0000035000100350002003505F
:1024A0002DE9F04F06464FF4502501202A4CDFF865
:1024B000B4C041F67137CCF8040044F826503025FA
:1024C0000024DFF8A4E0DFF8A49005FB06E5EC6546
:1024D0002C662C67214CDFF898A0D4F81C80E763A9
:1024E000E76800FA06F60743E7604BB9E26818F4BC
:1024F000803F22F00102E26000D0E363184628E04A
:1025000001F5005000EA0900401A984228BF184619
:102510006161D4F81CB087081BF0040F17D1013F8C
:102520003F0147F060576F66AA66C5F86CA0CCF80B
:102530002460DEF834703E42FBD0094F01447E63D4
:102540000427CCF82860024427611B1ACDE74FF01E
:10255000FF30BDE8F08F00BF004004500000035082
:1025600000200450001004500000045000E0FFFF61
:10257000180003504FF098435A6CD202FCD5586DA6
:1025800000F470207047436813B9416070475B687E
:102590005A68012AFBD159607047836813B981607A
:1025A00070475B685A68012AFBD159607047C3695C
:1025B000032B9FBF00EB83020133D160C3617047DF
:1025C000C369042B15D84FF09842116CC902FCD591
:1025D00004339B0013650168103B116041680C30A7
:1025E000116050F8041C034411604FF09842984267
:1025F00000D1704750F8041B1160F8E7F0B50746AA
:102600000F4D10488DB0002B08BF05460E461446EE
:1026100000211C2205A808F0A4FC012304A801A99C
:102620003D4344F000540196049502930394FFF750
:10263000B4FFFFF7C5FFFFF79DFF0DB0F0BD00BF72
:1026400001000AFF010008FF054B5B69C3F3851217
:10265000827003F03F021B0B42700370704700BF93
:1026600000C007500020704700207047242200213E
:1026700008F077BC70B515460E46242200210446AA
:1026800008F06FFC25F04003802B02D0B5F5807F69
:1026900008D12046314640F8045BEA0808F03AFCCD
:1026A000002070BD6FF01F00FBE700002DE9F04136
:1026B00004681E4624F04003802B054688461746D2
:1026C00092B002D0B4F5807F43D11C2200210BA828
:1026D00008F047FC224A234B0121B8F1010F18BF33
:1026E00013460A932B1D0193E4081F4B44F000543A
:1026F00002910AA8039404970591069307960891FE
:1027000001A90993FFF73FFF04A90AA8FFF73BFFC0
:1027100007A90AA8FFF741FF29680AA8C908FFF717
:1027200046FF10210AA8FFF742FFFFF79BFF98B969
:102730000AA8FFF745FF4FF098435A6CD202FCD528
:102740005C6DFFF791FF04F47024204612B0BDE8E1
:10275000F0816FF07100F9E74FF0FF30F6E700BF4E
:102760000001010400010004100000202DE9F04FD9
:102770009BB00746894698461646DDF894B072B17C
:1027800015683B6823F04002802A03D0B3F5807FB0
:1027900040F0A6800BEB0903002400930DE01546E2
:1027A000EFE795B1249A1BF80430525D0135534090
:1027B000269A05F00F05135501344C45F1D3002E30
:1027C00000F091800020356067E0A9EB040ABAF1BF
:1027D0000F0F57D91C22294613A808F0C2FB434B00
:1027E0003A6812933B1D03930123D20842F0005232
:1027F000049305923E4A2699CDF818802AF00F0AD4
:1028000007930892CDF824800A930B920BEB0402F5
:102810000C9221444AF000520D9312A80E920F918F
:1028200003A910931192FFF7AEFE06A912A8FFF7B5
:10283000AAFE0CA912A8FFF7A6FE0FA912A8FFF77F
:10284000ACFE09A912A8FFF7A8FE396812A8C908AA
:10285000FFF7ADFE514612A8FFF7A9FEFFF702FFF2
:10286000C8B912A8FFF7ACFE4FF098435A6CD202D9
:10287000FCD55B6D544403F470230193FFF7F4FE21
:10288000019B5BBB269B0BEB040A1C44009B9A45F7
:1028900006D14C4691E74FF0FF301BB0BDE8F08FFA
:1028A0008DB9424601213846249BFFF7FFFE0028E0
:1028B000F3D108F1100212F8013D0133DBB21370BD
:1028C0000BB99045F7D1249A1AF8013B525D0135B6
:1028D000534004F8013B05F00F05D7E71846DCE745
:1028E0006FF01F00D9E73046D7E700BF03030004AD
:1028F0001000002007B54368019303886846ADF8CF
:10290000003000F0AAF803B05DF804FB014800F0C5
:10291000B7B800BFA810002000F0AAB813B504464D
:10292000684600F0B7F8BDF80430A279A3809DF89E
:1029300006300098C3F3000363F300022060A27125
:1029400002B010BD08B500F0A1F808B140F4805005
:1029500008BD08B500F09CF808B140F4805008BDEF
:1029600008B500F08FF808B140F4805008BD0000B1
:10297000014800F017B800BFA8100020014800F07F
:1029800093B800BFA81000200A460146014800F095
:10299000BBB800BFA8100020014800F015B900BF67
:1029A000A810002000230360436070474FF6FE72BA
:1029B00001608280704700001FB50A79064B0292C1
:1029C0000A6808310192022200920CCB00F0BCFB95
:1029D00005B05DF804FB00BFE0B0000030B50B7936
:1029E00085B00333029301F14403019302230C46A3
:1029F0000546114A009314310CCA00F0A5FB238A46
:102A000004F12C010293E36828460193237A009392
:102A100094E80C0000F098FB0546237AA4F84500E2
:102A20002279216884F8443004F1470008F072FAF2
:102A3000284605B030BD00BFD8B000001FB50B8AD6
:102A40000293CB6801930B7A009391E80C00143148
:102A500000F07AFB05B05DF804FB08B500F08AFED3
:102A600000F074FD00F080F9BDE8084000F074B893
:102A700008B500F05FFE00B908BD00F0D1FDF8E731
:102A800000F0D8BA00F036BE00F039BE00F02EBE1D
:102A900000F02EBE10B5044600F03AF9A3796FF3AA
:102AA0000003A37110BD000038B50546124B134C4E
:102AB000D4E9020183E8030019462846FFF77CFFAA
:102AC000D4E9040110220E4B83E80300194628467E
:102AD0001A72FFF783FFD4E906010222094B203462
:102AE0001A7283E80300DC60194628461A82BDE8A2
:102AF0003840FFF7A3BF00BFAC110020F4B00000C6
:102B00000811002060110020F8B504460D4B0E4D51
:102B10000F46D5E9090183E8030019462046164609
:102B2000FFF74AFFD5E90B010222084B1A7283E82E
:102B30000300DF60194620461E82BDE8F840FFF71B
:102B40004DBF00BF8C110020F4B00000B010002079
:102B50000EB403B0704770477047000010B50C46C4
:102B600030B9FDF78BFC034B186023600423A3806E
:102B7000002010BDCC11002010B50C4630B9FDF777
:102B80007BFC034B186023600423A380002010BD4E
:102B9000D011002001280B4604D1898821B1186882
:102BA00001F07ABA002070470D20704701280B46CB
:102BB00005D18988012904D1186801F099BA00204B
:102BC00070470D20704700002DE9F74306466D461B
:102BD0004FF00809404C414B414F94E8030083E813
:102BE000030019463046FFF7E7FED4E9020187E803
:102BF000030028463B4987F80890FFF7D7FE95E881
:102C0000030007F10C0383E8030039463046FFF761
:102C1000E5FED4E904010C234FF00208324F87E8A7
:102C20000300284631493B72FFF7C0FE95E80300D8
:102C300007F10C0383E8030039463046FFF7CEFE68
:102C4000D4E906012A4B2B4A83E803001946304693
:102C500083F80880DA60A3F81090FFF7BFFED4E98C
:102C60000801254B254A264FDA60012283E803003C
:102C7000194630461A8283F80880FFF7AFFED4E980
:102C80000A0187E8030028461E4987F80880FFF7F5
:102C90008DFE95E8030007F10C0383E80300394635
:102CA000194F3046FFF79AFED4E90C0187E803007C
:102CB0002846164987F80880FFF778FE95E8030054
:102CC00007F10C0383E803003946304603B0BDE842
:102CD000F043FFF783BE00BFA0B10000E413002063
:102CE000DC120020AD2B000034130020952B0000D7
:102CF0002C120020D8B100008C130020E0B100009D
:102D000084120020792B0000D41100205D2B0000DC
:102D1000074B9A6CDB6C110A0270120C82701A0A53
:102D2000C2701A0C1B0E417002714371704700BFD4
:102D30000080E00F014801F0BDBE00BF60B7000099
:102D40007FB500230130CDE9043380B2054BCDE9D6
:102D50000101694604200093039200F0FDFB07B0D7
:102D60005DF804FB081400201B22014B1A807047F9
:102D700004140020F7B50346CDE9001207460E46BD
:102D800015464FF48040094A0949FFF7E1FE002249
:102D9000012311460420074C23706770668025715B
:102DA00003B0BDE8F040FFF7CBBF00BF81B3000028
:102DB000E1B1000008140020034610B5094A04469A
:102DC00009494FF48040FFF7C3FE0322074B02205E
:102DD0001A700022A3F801401146BDE81040FFF729
:102DE000AFBF00BF6AB3000015B200000814002096
:102DF00030B50C4685B004A901E90C000546034630
:102E00000A4A4FF480400A490094FFF7A1FE0522C8
:102E10000320084B02991A709DF80C205D705C80AD
:102E200005B0BDE83040FFF78BBF00BF4FB30000D7
:102E300021B200000814002037B5034605460C46B1
:102E400000914FF48040094A0949FFF781FE0722AB
:102E5000084B04201A7000221146A3F80150A3F871
:102E6000034003B0BDE83040FFF76ABF34B3000051
:102E700045B200000814002038B5094A05460C4642
:102E80000B464FF480400749FFF762FE0B22064BCA
:102E900029461A7000202246BDE83840FFF750BF8F
:102EA00024B300006AB200000814002008B54FF4F3
:102EB0008040074A0749FFF74BFE1322064B1A7062
:102EC0000022BDE8084011461046FFF739BF00BF99
:102ED00013B3000079B200000814002073B5034654
:102EE000144605460E4600924FF48040084A0949B0
:102EF000FFF72EFE0922084B31461A70A21C5A70A9
:102F0000032022465D8002B0BDE87040FFF718BF85
:102F1000FDB200007FB20000081400202DE9F3414B
:102F20001C469046CDE9001307460E4603460A4A62
:102F30004FF480400949FFF70BFE1123224641461A
:102F40000520074D2B70231D6B706F80AE8002B083
:102F5000BDE8F041FFF7F4BEE2B200009DB2000010
:102F60000814002070B50D4603780C4A04460C493D
:102F70004FF48040FFF7ECFD00230A4E691E204607
:102F800089B2738000F002F9024628B17188207876
:102F9000BDE87040FFF7EEBE70BD00BFDAB20000C2
:102FA000C7B2000004140020024610B500B3114B54
:102FB0001968888890421BD398880024904281BF6A
:102FC00001200968988099609868998828B904B1A7
:102FD00098604FF6FF729A8009E08A4204D001316E
:102FE0000124006889B2F1E70CB19A80986010BDA5
:102FF0000020FCE710140020036937B514460D4685
:10300000828A63B14FF6FE718A4208D10020694678
:103010000090ADF80400984728B103B030BD2B6094
:1030200000202280F9E7009B2B60BDF8043023804C
:10303000F3E700004FF6FF72014B18609A8070476B
:103040001014002010B50C46FFF7AEFF28B1D0E9F0
:10305000010184E80300002010BD0120FCE72DE9F8
:10306000FF416D46044685E80C000E460A9FBDF8F8
:103070002C80FFF799FF05460DB1B44205D94FF6F4
:10308000FF74204604B0BDE8F0812B7A9DF804203F
:103090009A4219D10099686807F02CFFA0B9002F57
:1030A000EFD028460DF10A0203A9FFF7A5FF58B992
:1030B000039949B1BDF80A30434505D14246384627
:1030C00007F018FF0028DCD001342D68A4B2D3E744
:1030D00037B515461C46FFF767FF70B1036973B13A
:1030E0004FF6FE72818A914209D16946012000950E
:1030F000ADF80440984703B030BD0120FBE70E2037
:10310000F9E710B50C46FFF74FFF40B1037B1C42B7
:1031100007D114F00C0F14BF0320022010BD0120B2
:10312000FCE70020FAE738B515461C46FFF73CFFE0
:1031300040B122462946FFF75FFF10B92B6803B95B
:10314000208038BD0120FCE713B5044602A800E941
:103150000C00081D80E80C009DF810300B73059BD7
:103160000B61BDF818308B8200230B60236853B1CC
:103170001A461B68002BFBD11160A388013398B25B
:10318000A08002B010BD2160F7E700002DE9F047F4
:1031900004780546122C0E4688B017D8012C18D991
:1031A000A31E102B15D8DFE813F0160014002F0013
:1031B00014005A0014000E0114009F0014001400A3
:1031C00014001400140051011400CC00522C00F023
:1031D000DE8006243FE0022940F0B681B0F80130DD
:1031E000B34A4FF48040B349FFF7B2FCB5F8014051
:1031F000B4F5007F28BF4FF400742046FFF7DCFDD4
:10320000AD4B1C80002426E0042924D1B0F8033003
:10321000AA4A0093B0F80130A9494FF48040FFF763
:1032200097FCB5F8017006ADBEB229463046FFF7EF
:1032300009FF044618B1A04B5F800A240BE09DF8FB
:103240001C303146022B08BF012095E80C0018BF46
:103250000220FFF7CDFD204608B0BDE8F087022729
:103260008E1FB6B20196B0F80330964A0093B0F8BC
:10327000013095494FF48040FFF76AFC05F10508DD
:10328000EB1D019600938DF81470CDF81080424626
:10329000059BB5F80310B5F80100FFF7E0FE4FF607
:1032A000FF76B042044606D1AA786B7843EA02233F
:1032B000814A5380C1E70023CDE90033CDF818805F
:1032C0008DF81C7008AB0130314613E90C0080B258
:1032D000FFF7C5FE0146B0421CBF00F1FF3189B2C5
:1032E0002046FFF7A9FD8DE7022940F02D81B0F8B7
:1032F0000130764A4FF480407549FFF729FC31468A
:10330000B5F80100FFF7FDFE6B4E044628B16B785F
:10331000AA7843EA022373809DE733880146013B84
:10332000ADF81030B5F8010004AB06AAFFF7FBFEBC
:1033300004460028EBD1BDF810100698FFF79CFD5D
:1033400089E78E1EB6B20096B0F80130614A4FF49C
:1033500080406149FFF7FCFB0821B5F80100FFF749
:10336000D0FE044630B1AA786B7843EA0223524A71
:10337000538070E701463346B5F80100EA1CFFF7B9
:10338000A7FE04460028EED1FFF790FD63E78E1EEE
:10339000B6B20096B0F80130504A4FF480404E4922
:1033A000FFF7D6FB0421B5F80100FFF7AAFE04469B
:1033B00000287FF427AF01463346B5F80100EA1C28
:1033C000FFF786FE47E70E1FB6B2022E02D0102E80
:1033D00040F0BA800024B5F803304FF480400093E9
:1033E000B5F801303E4A3649FFF7B2FBCDE900445B
:1033F0006B1D06938DF81C6008AB13E90C00B5F843
:103400000310B5F80100FFF72AFE4FF6FF7398424C
:103410000646294F05D16B78AA7843EA02237B80C0
:103420000BE73B882146043BADF80E3004AA0DF1B2
:103430000E03FFF778FE044608B17E800BE73046A6
:10344000BDF80E200499FFF749FD04E70E1FB6B240
:10345000022E01D0102E77D10024B5F803304FF49E
:1034600080400093B5F801301E4A1549FFF770FB04
:10347000CDE9004405F1050AF6B28DF81460CDF8E7
:1034800010A05246059BB5F80310B5F80100FFF7F0
:10349000E6FD4FF6FF7948450746DFF81C8023D14B
:1034A0006B78AA7843EA0223A8F80230C5E600BF89
:1034B0004DB4000015B20000041400203AB400001E
:1034C00092B3000027B40000B0B300001FB40000A6
:1034D000D9B3000016B400007FB200000DB40000A4
:1034E000FFB30000ECB30000CDE90044CDF818A014
:1034F00006AC8DF81C60013094E80C00494680B29F
:10350000FFF7ADFD0546B8F800304845A3F10603C6
:1035100018BF00F1FF352246ADF80E304FF0000124
:1035200038460DF10E0318BFADB2FFF7FCFD04469F
:1035300010B1A8F802708EE629463846BDF80E3064
:10354000069AFFF7EBFC86E6042484E60022014B92
:103550001A607047201600200023F7B501F1080417
:1035600021461A46ADF80430ADF8060051F8080CB3
:10357000083198B90BB1ADF80420042501270DEBF3
:1035800005062A463146384600F0DEF80028F8D015
:103590002D1AADB206445DB10027F2E751F80C3C9C
:1035A0001A4492B20123E1E734F8045C35B90834D7
:1035B00054F8086C002EF7D103B0F0BD2A4631460E
:1035C000002000F0C1F80028F0D02D1AADB206445A
:1035D000ECE7000003291FB51CD90288131D99428E
:1035E00018D304D84388042B03D0062B06D001201F
:1035F00011E011460430FFF7B5FCF8E70022CDE9F1
:103600000222064A69460092022218460192FFF7FA
:10361000A3FFECE7002005B05DF804FB10100020CC
:1036200037B500220DF10700114600F06DF89DF846
:1036300007300C4C0BB10023236021680A4DC1F503
:10364000017292B229440DF1070000F05DF8216883
:10365000014428462160FFF7BDFF08B10023236025
:1036600003B030BD201600201C14002010B5044605
:103670004FF4807300210E4A0E4800F09DFD4FF478
:10368000807300210C4A0D4800F096FD204600F0A2
:103690005BFB00F031F900F019FF00F081FE8307B9
:1036A00005D500F099FCBDE8104000F063BA10BDEC
:1036B000541700203C1700203C1600202416002040
:1036C00008B513460A460146024800F034FEC0B26F
:1036D00008BD00BF3C17002008B5034800F075FD89
:1036E000003818BF012008BD3C17002000F056BF6D
:1036F00000F066BF08B500F003FF002008BD08B564
:1037000001F02AF8002008BD73B50E460446019268
:10371000FEF768FE214605463246019B044800F04C
:103720000AFE04462846FEF761FE204602B070BD40
:103730002416002008B5034800F047FD003818BFE4
:10374000012008BD2416002073B50E4604460192E0
:10375000FEF748FE214605463246019B044800F02C
:10376000B5FD04462846FEF741FE204602B070BD76
:103770003C170020FFF77ABF10B50C4601460448FD
:1037800000F003FEA04234BF0020012010BD00BFA6
:103790002416002073B50E46114605460192FFF728
:1037A000EBFF044628B132462946019B024800F04F
:1037B0008DFD204602B070BD2416002000F0F8BC3C
:1037C00000F0F8BC10B5034CA07900F0D7FF00233F
:1037D000236010BD541800201FB50B4C0B4AA37A70
:1037E0000B490393637A4FF480500293237A019339
:1037F000E3790093A379FFF7ABF9A01D00F042FF36
:103800000023236004B010BD5418002011B600003E
:103810005CB400001FB5104C104AB4F80D304FF4E2
:1038200080500293B4F809300D490193A3790093B5
:10383000B4F80730FFF78CF9B4F80710A07900F05E
:1038400053FFB4F80D10B4F8090000F061FF002335
:10385000236004B010BD00BF54180020E3B5000081
:1038600085B40000014B99801860704754180020FF
:103870000022014B1A60704754180020034A136855
:103880001BB19288824200D118477047541800201B
:10389000014B18701846704768180020013100F07D
:1038A0004FBF0000162838B503464FF0020514BF7D
:1038B000034613230B4C0C4A4FF480500B496370A2
:1038C0002570FFF745F92946204600F039FF01F041
:1038D00095F8074B074A05301A60627898809A710C
:1038E00038BD00BF68180020ABB50000BCB40000B4
:1038F00054180020C53700007047000030B504465A
:1039000003787B4A4FF480507A4985B0FFF720F95D
:1039100023780C2B0AD80C2B0BD8DFE803F05A3F86
:10392000790A0A0A0A0A890A0A0A1600142B00F000
:10393000A880204600F024F9002867D107222378C8
:103940006D4802210270437023E0A3884FF4805039
:1039500001936388694A009363786949FFF7F8F82F
:103960004FF0FF32644C0C23A2700222E27000225E
:1039700023706271012340F2FF226370237160495A
:1039800000924FF480505F4A0193FFF7E1F806215F
:10399000204605B0BDE8304000F0D2BEE3885A4A68
:1039A0005A494FF48050FFF7D3F8E179A379584A88
:1039B00043EA012393801346564943F8061BD4F883
:1039C0000110C2F80610B4F805209A80E2799A71C5
:1039D0001CE06389504A4D494FF48050FFF7B8F816
:1039E000E27AA37A4A4943EA02238B800B464B4A88
:1039F00043F8062BD4F80120C1F80620D4F805209E
:103A00005A60B4F809201A81E27A9A7205B030BD82
:103A10006378434A4FF480504249FFF799F800F029
:103A2000EDFF3B4B404A05301A6098806278CEE744
:103A3000D4F80530D4F801203C49CDE900234FF4F7
:103A400080503B4AFFF784F800F092FAD4F8013036
:103A5000294C034003F0FF0320F0FF001843092521
:103A60002346002203F8015BC4F801002F495A6085
:103A7000CDE900024FF480502E4AFFF769F829463D
:103A800086E7B4F807302C4A0293B4F805304FF4B7
:103A900080500193B4F8033028490093B4F8013002
:103AA000FFF756F8B4F80310B4F8010000F03EFE3A
:103AB0001523114C6FF0270223700723E270237146
:103AC000E271237200216FF004004FF4FB62FB23CC
:103AD0006070A1706071A1714FF48050CDE9013226
:103AE00016490092164AFFF733F8092150E700BF44
:103AF000A2B50000D2B400006818002097B50000FD
:103B0000E3B4000039B600002BB6000014B5000085
:103B100054180020D9370000FDB50000153800000A
:103B2000D6B50000BCB40000C537000024B50000C5
:103B3000CBB50000BCB500008DB500003DB5000060
:103B40007FB5000010B5084B4FF480509C79074AB0
:103B500023460749FEF7FCFF204600F0E1FDBDE8E3
:103B60001040FFF785BE00BF54180020A6B6000025
:103B700048B600000122014B1A70704774180020EB
:103B8000244B73B51E7804462EB10378162B05D04E
:103B9000182B27D00026304602B070BD83781E4A0D
:103BA000009343781D494FF48050FEF7D1FF6378AE
:103BB000A47817201C4004F00304022C18BF012431
:103BC000FFF766FE05464470847023464FF480502C
:103BD000134A12490094FEF7BBFF02212846FFF763
:103BE0005DFED8E7B0F803300E4A019383780E49A2
:103BF000009343784FF48050FEF7AAFFB4F8031007
:103C00000A48FFF72FFED4F80120094BC3F806201D
:103C1000C1E700BF74180020D1B6000058B60000FC
:103C2000C6B60000B9B6000078B60000453B0000FB
:103C30005418002013B50D4B01281B880C4CADF80F
:103C40000030ADF8043002BF02238DF800300423A9
:103C50006946206808BF8DF8043001F0C1FA206879
:103C600001A901F0D3FA02B010BD00BFD8B6000020
:103C70007818002070B5334C11464FF4867086B02A
:103C80001E461546FEF767FF236933B929464FF4F0
:103C90008370FEF760FF06B070BDA5F108023243E5
:103CA00021D101AA0321206801F020FB6368606133
:103CB0005B7A04F1180123769DF804300220DA1FA4
:103CC00053425341627E63F30002039B6276E361D9
:103CD000BDF80630638323699847012200212068DC
:103CE00001F00AFBD7E705F17F42324305D10021FD
:103CF000012006B0BDE87040184715F4A04209D075
:103D00004FF480714FF48170FEF725FF00210320EE
:103D10002369EEE705F4A0631A4308D001214FF4AC
:103D20008170FEF718FF0021FF202369E1E705F00D
:103D3000A042134319BF012140F2011029464FF45C
:103D40008370EEE778180020F0B58BB00646FEF7DA
:103D5000F1FF3548354B00210360354B354C43604E
:103D600000F028FF2EA3D3E90023CDE900234FF074
:103D7000FF334FF0FF32206001F04AFA02224FF089
:103D8000FF31206801F046FA3C2394220025CDE95A
:103D9000033205939623206803A9CDE907550995B9
:103DA000069300F0FFFF244F234920683D7001F087
:103DB00059FA10B10135032DF6D1206801F0D9FA76
:103DC000B6F900203978206800F084FE01462068AA
:103DD00001F035FA7568194BD5B91846FEF798FF0A
:103DE000A37B65F30003A373202310222384144BC9
:103DF00083F8212383F8222383F8262383F82523BD
:103E000083F8232383F8202383F824230BB0F0BD09
:103E10002868A060A988AA7999809A71E4E700BF10
:103E20000855005100000000A8180020753C000053
:103E30009C18002078180020121000208018002004
:103E400000E100E00A46014602484FF400730068B2
:103E500001F02EBA78180020F0B50446164D174A26
:103E60006B68807A5B7A85B0D75C0E46FFF7E2FE1E
:103E7000237AB9B2022B0CD1002328681A4600F02D
:103E8000C3FEA8B10021FF20334605B0BDE8F040D5
:103E90001847002220688DF80C30029000922868A4
:103EA00002ABADF80D208DF80F2000F0BBFEE8E767
:103EB0002E6105B0F0BD00BF78180020DAB6000012
:103EC0002DE9F04104461D4D1D4A6B680E465B7A94
:103ED00086B0D15C807A0191FFF7ACFE237A4FF077
:103EE0000108022B02BF0023029301238DF80C303E
:103EF000636818BF226803F164030493637A4FF088
:103F0000000418BF029201998DF8143002AA2346CA
:103F100028688DF815808DF8164000F0A9FE074638
:103F200042462146286801F0E7F92FB12146FF20DB
:103F3000B04706B0BDE8F0812E61FAE7781800209E
:103F4000DAB6000008B500214FF48570FEF703FED5
:103F50000022044B03211A6118680122BDE80840C1
:103F600000F04EBE781800200048704780180020EE
:103F7000014B188C704700BF781800207FB50223D2
:103F80008DF80A30064B5A8B59690332ADF8082078
:103F9000186801AA01F0AEF9019807B05DF804FBBA
:103FA0007818002008B5014640F20510FEF7D3FD51
:103FB00008BD0000002313B5064C0093437AD0E9F6
:103FC00000216060206801F002FA00F00DF802B0F4
:103FD00010BD00BF78180020024A138C43F4807390
:103FE000138470477818002038B50D4C238CDB05FE
:103FF0000CD563680B4D1B7A2A789A4206D0012BA8
:1040000005D0022B07D063681B7A2B7038BD20685F
:1040100001F0B2F9F7E7206801F0B4F9F3E700BF67
:1040200078180020B818002038B50C4611462568CD
:104030000144AD1A2A4606F07AFF256038BD00001B
:1040400010B50024064B1C60064B1C7000F09AF85B
:10405000B0FA80F3044A5B091370044B1C7010BD66
:10406000BC1C0020C11C0020C21C0020C01C002061
:1040700010B5074B1C782CB9064B1B7833B100F0F8
:1040800089F8044600F08EF8204610BD8124F9E737
:10409000C11C0020C21C002038B50A460F49034647
:1040A0000978C1B10E49087850B90E4C24783CB952
:1040B0000D4C20681518B5F5806F02D98220087064
:1040C00038BD1946094B184406F024FF2560BDE8A9
:1040D000384000F025B88120F2E700BFC21C002064
:1040E000C11C0020C01C0020BC1C0020BC180020EB
:1040F000012908B512D103781BB9BDE80840FFF7C4
:104100009FBF032B03D1BDE80840FFF7B1BF042BCD
:1041100004D11320FEF7B8FC002008BD0620FCE700
:1041200038B5134B134D1A782968022A0ED003298B
:1041300001D8002038BD104A1068104A904203D0C0
:1041400084200F4B1870F5E702221A700A48FCF71A
:10415000ABF904462A6807490748FFF765FF002CBA
:10416000E7D041F207039C42E3D08520E9E700BF96
:10417000C21C0020BC1C0020BC180020EB17A603AA
:10418000C11C002008B5FCF7A9F9002814BF852040
:10419000002008BD08B5FCF7B1F9002814BF802045
:1041A000002008BD0022014B1A707047C21C00207D
:1041B000FCF722B9FCF730B983820023C0E9002262
:1041C000826081750382C3757047837DDB0701D5EB
:1041D000808A7047D0E901239B1A44BF828A9B18CA
:1041E00098B27047014608B5FFF7EFFF8B8A181A9F
:1041F00080B208BD2DE9F04116460546FFF7E5FF00
:10420000B04228BF304686B20F46B046B8F1000F24
:1042100009D12EB1AB7DDA0744BF23F00103AB75A2
:104220003046BDE8F0812B68AC8A69681C44641A8A
:10423000A4B2444528BF44463846224606F06AFEEA
:104240006A682B68A98A224419448A4238BF1346F7
:104250002744A8EB04041FFA84F86B60D6E72DE925
:10426000F041164605460F46FFF7BCFFB04228BF97
:10427000304686B2B046B8F1000F0BD13EB1D5E959
:1042800001329A4202BFAB7D43F00103AB75304669
:10429000BDE8F0812B68AC8AA8681C44241AA4B23B
:1042A000444528BF44463946224606F033FEAA68F4
:1042B0002B68A98A224419448A4238BF13462744EE
:1042C000A8EB04041FFA84F8AB60D4E7F8B5044601
:1042D00016461F46F9B1FFF785FF012829D9E37D6E
:1042E00063B1E068658A05702D0A07D02268A38A49
:1042F00001301344984228BF1046F4E7002363823C
:10430000A3680222E360204604F11201FFF7A7FF31
:10431000E37D0133E3753A4631462046FFF79FFFC0
:10432000638A03446382E37D13B9238A03442382AF
:10433000F8BD0020FCE7F8B51F46038A0446164680
:10434000EBB9C57DDDB10123013D0B700222C575BE
:1043500000F11001FFF74EFFE37D9BB1228A314649
:10436000BA4228BF3A462046FFF744FF238A1B1A69
:104370002382E37D13B9638A1B1A6382F8BD00238D
:104380000B70EBE7638A2382E8E710B50C46FFF772
:1043900029FF24B1022892BF0020023880B210BD4C
:1043A000032070471FB5124C1148637A0133DBB20A
:1043B000272B88BF25236372FFF7FCFD0023CDE97F
:1043C0000233E368627C01930123617DD2070948CF
:1043D00001F102018DF80C3048BF8DF80E30FFF767
:1043E00031FD054901A8FFF737FD04B010BD00BF3E
:1043F000C41C0020D81C00202944000038B50D46FC
:104400000446FFF7B1FD8379014603F00103AB4297
:1044100007D10622204606F06DFDB0FA80F0400973
:1044200038BD0020FCE70000022810B51BD002D8E0
:10443000012805D0FEE7032843D0FF2841D0F9E743
:10444000214C637C990707D5FFF77CFDFFF7AAFF96
:10445000637C6FF341036374637CDA0730D4BDE897
:104460001040FFF79FBF4B78DB072AD54C682178B7
:1044700001F00F03032B11D0052B22D1C90904F140
:104480000800FFF7BBFFD8B1FFF75CFDFFF776FD33
:1044900001462046BDE8104000F0B6BAC90904F153
:1044A0000800FFF7ABFF58B1074C94F83D1004F13A
:1044B0003C000231FFF7C6FC637C43F002036374E7
:1044C00010BDFFF73FFDCAE7C41C002010B5094C22
:1044D00000215C2204F1080006F043FD42F2107353
:1044E0000549E360054BC4E9001342F201532381FF
:1044F00010BD00BFC41C0020D6BE898E5555550086
:1045000038B50446FFF71EFD002C3FD0204C257C1B
:10451000627CB5FA85F35B0963F300026274FFF70E
:1045200023FD837905F00F05C3F3000345EA8315E6
:10453000237D23F04F031D43637D25750BB90623AF
:1045400063750368C4F816308288124B9A80FFF7AF
:104550000BFD837994F83C20C3F300039B0143F0E7
:10456000040322F04F02134384F83C3094F83D30AA
:1045700013B9062384F83D300368C4F83E308288BE
:10458000054B9A80BDE83840FFF70CBF38BD00BF2F
:10459000C41C0020DA1C0020021D002020290A462D
:1045A00008B509D8054B06315975014603F11C00C1
:1045B00006F0B0FC002008BD1220FCE7C41C00205F
:1045C00020290A4608B50AD8064B063183F83D1063
:1045D000014603F1440006F09DFC002008BD1220B6
:1045E000FCE700BFC41C00200A20D0B50B4CE38CB4
:1045F000584306F053F80646A08C0F4606F04EF8D6
:104600000022074B06F0B4F802460B463046394606
:1046100006F0D8F906F0BEFA2083D0BD281D002090
:104620000000F43F1FB5154C40F601002189FEF74C
:1046300092FAA37E5A061FD423F0070343F0010326
:104640002089A376FFF71AF9A37A04F10C0023441A
:1046500093F82A306375FFF7ADFCD4E90032A3EB81
:10466000520103EB520302934FF48033019101A8EE
:1046700003490393FFF724FC04B010BD281D00205C
:10468000094800000022134630B58BB0D910415CB8
:1046900003F007042141CC0742BF02F1280169441D
:1046A00001F8283C03F1010348BF0132252BEDD16D
:1046B00000230C4CD910415C03F007052941C907C0
:1046C0005FBFB3FBF2F102FB1131283169444CBFEB
:1046D000D9B211F8281C0133252B04F8011BE9D1AC
:1046E0000BB030BD521D002010B540F2E244074A25
:1046F0006043136800F5807004FB0131536801EBDF
:10470000500118441160506010BD00BF281D0020EA
:10471000024B9884D984FFF767BF00BF281D002093
:10472000014B1875704700BF281D0020C90888423A
:1047300028BF0846014B1885704700BF281D002080
:10474000044B5A6D22B95865A3F8581001207047E0
:1047500000207047281D002010B504460346054A76
:104760004FF400600449FEF7F3F92046BDE810401D
:10477000FFF798B84EB7000002B7000010B5044626
:104780000346084A4FF400600749FEF7E1F9074A7B
:104790002046BDE81040937E43F040039376FFF738
:1047A0000FB800BF3FB7000002B70000281D00206F
:1047B00010B5144CA37E5B0623D4FFF7C3FB40F275
:1047C000E243A18C226803FB0122A37A226094F8C1
:1047D0004F2013442522B3FBF2F002FB1033228951
:1047E000A372013222810A22636802FB01336360F3
:1047F000238B5A1E228323B9BDE810400820FFF7FF
:10480000BDBF10BD281D002002282DE9F7438046BA
:104810000E460BD003D8012800F0DC80FEE7032809
:1048200000F0DE80FF2800F0DB80F7E74F78714C66
:1048300017F0010763D14FF0FF3140F60300FEF798
:104840008AF93D46A37E6C4F13F0200F12D0616DA4
:104850006FF34513A376002900F09E803B7894F80F
:10486000582043F003033B707A70B81C06F052FBEB
:1048700000236365FEF730FFA37E60F34103C3F3BB
:104880000012C3F3C001920042EAC102A37642EAD9
:1048900000133A7803F01C0322F01C0213433B7010
:1048A00040F602003988FEF756F97978524802310D
:1048B000C9B2FFF7C7FAA37E7668D90709D56FF3A7
:1048C0000003A37600236360FFF758FB2060FFF727
:1048D0008BFE002D00F08B80337803F00303022B56
:1048E00005D0032B6FD0012B40F081800025284696
:1048F0007278B11C03B0BDE8F043FEF74BBFD1F8AE
:10490000049040F60300B9F80010FEF724F999F876
:104910000030A27EC3F3001363F3820299F80030E3
:10492000A276C3F3C001C2F3001291422FD103F06B
:104930000303022B29D0032B08D0012B27D1002001
:1049400099F8011031B3FEF717FF07463D46A27EE6
:1049500099F80010C2F3C003C1F38001994208D056
:1049600083F00103DB0043F0200322F0280213430D
:10497000A376002F3FF466AFA37EC3F3001282F04C
:10498000010262F30413A3765CE73846D8E70025FA
:104990002F46DCE70D46DAE794F82820B91C0DF124
:1049A0000700FEF78DFE58B19DF80730002B08BFB9
:1049B0004FF001083B78787068F301033B7059E7CA
:1049C0004FF00108F6E77178B01C03B0BDE8F04382
:1049D000FEF794BF074B9B7E9A0708D45B0706D46B
:1049E000FFF7E6FE03B0BDE8F043FFF71BBE03B0E0
:1049F000BDE8F083281D0020841D0020014B18898C
:104A0000704700BF281D0020F7B5274D04460E460D
:104A10005C220021284606F0A4FA2023AB76052369
:104A20002B83627E237E012743EA0223AB84627FCD
:104A3000237F04F11E0043EA0223EB8494F8233021
:104A4000C3F3040385F84F3094F82330C3F34213C3
:104A500085F850301B232B85FFF714FED4F80E3059
:104A6000E27CEB60A37C2E6043EA0223227D2F755B
:104A700043EA02432B6195F84F30607DAB72E18AC7
:104A80003944FFF731FEFFF7CDFDEB8C074A0849AB
:104A900000934FF40060AB8CFEF75AF82046FEF707
:104AA0008DFE384603B0F0BD281D002032B700004F
:104AB00015B7000038B50446054D00F0E4FB0FCCF7
:104AC0000FC594E80F0085E80F00002038BD00BF37
:104AD000841E002047F6FF739A42F0B563D0032985
:104AE00063D8334BCF0003EBC10013F83110847847
:104AF000012913D10025C3781B1B9D4202D3E01866
:104B0000C0B2F0BD591B4668A3EB510136F91160E4
:104B10009642D4BF0D4601F1FF33EEE7406800280E
:104B2000EFD0B0F90010914204DBB0F902109142CD
:104B3000B8BF114682883B44FF2A19BFC8222826E5
:104B4000B0F90620B0F90860A2EB01020CBF012504
:104B5000002592FBF6F25F782A447B1E934228BF21
:104B600013464FF47A7E00EBC305AE68EA88AC4684
:104B700011FB02621E4622EAE272013302F5FA726A
:104B80009F42B2FBFEF204D9BCF80CC00835944534
:104B9000EBD200EBC6008088904228BF1046A042AE
:104BA00038BF2046ACE7FF20ABE70020A9E700BFF5
:104BB000841E0020F8B50D4610B900242046F8BD2B
:104BC0000E4F3E68002EF8D100F090F80446002801
:104BD000F3D0386000F0BEF8204600F0B0F838B1ED
:104BE00030463E6000F0B6F8204600F0A3F8E4E757
:104BF000002DE3D02046A847E0E700BFA41E002018
:104C00000846114600F0B8B810B501F067FE04463A
:104C100018B9034B01215B689847204610BD00BFBF
:104C200024100020F7B5114D04460F466E6801218F
:104C30000020CDE90032B047DDE9003206463946B2
:104C4000204601F054FE044618B901202B6898470D
:104C500004463EB100F0CEFB00B91CB100216B68E8
:104C600008469847204603B0F0BD00BF241000203E
:104C7000F7B5104D04460F466B68012100200192E4
:104C8000984739460646019A204600F0C5FA044680
:104C900018B901202B68984704463EB100F0AAFBE2
:104CA00000B91CB100216B6808469847204603B044
:104CB000F0BD00BF2410002070470000431E0333E6
:104CC00006D8044B984228BF1846642838BF642091
:104CD000704700BF40420F00431E012B03D9031F42
:104CE000584258417047012070470000F8B505460A
:104CF000FDF778FB07460E4B1E6826B93846FDF7D0
:104D000075FB344610E0B46884B1237C9C46DB0715
:104D10000CD44CF0010C95E80F0084F810C084E826
:104D20000F003846FDF762FB2046F8BD3668E4E721
:104D3000181000204FF4C072002106F012B910B50F
:104D40000446002100F079FA2046BDE8104001F049
:104D500005BC000010B5044618B9054B054A1360A0
:104D600010BD00F0F7FCD4F8C430002BF6D1F4E706
:104D7000B94C00001C10002010B50C4600F000FDDE
:104D80001CB100F05FFD0128FBD1BDE81040024BD3
:104D9000002103205B6818472410002000F060BE4B
:104DA00000F074BE08B502460868FFF787FF086088
:104DB0004868FFF783FF48608868FFF77FFF8860D7
:104DC000C868FFF77BFF0B69C860581C03D00B480D
:104DD000834228BF03460B614B69581C03D0074828
:104DE000834228BF034688694B61FFF767FFBDE830
:104DF00008408861104601F0F9BB00BF40420F0037
:104E00002DE9F84FD0F8BC3007460E4613B1038B9E
:104E10008B4271D0D7F8B8B0BBF1000F3FD0DBF8B0
:104E20000830002B3BD0DBF80C20C2B3D7F8CCA065
:104E3000BAF1000F36D04FF000094D46C84601E0E8
:104E4000DBF8083003EB4514E3890135B34214D88D
:104E5000238AB34211D3B4F91220B7F92430934214
:104E600051DD384697F80811FFF734FE7B7D814607
:104E70008342A04606D9DBF80C209542E0D3B8F176
:104E8000000F25D00023424638461946D04700205F
:104E90003E83C7F8BC8087F81191BDE8F88F0320E6
:104EA000BDE8F88FD14647F6FF745546514603EBEF
:104EB0004518B8F80E30B34218D8B8F81030B342DD
:104EC00014D3B8F91220A24204D14FF0FF09DEE753
:104ED0000120E2E7384697F80811FFF7FBFD7B7DDC
:104EE00081468342D3D94146DBF80C200135AA42E2
:104EF00005D9DBF80830DAE70020BDE8F88F002993
:104F0000E6D08846C3E7A046BCE700BF2DE9F041E4
:104F100082B09DF820C0D0F8CC8004460D461646DD
:104F20001F468DF807C0B8F1000F2ED000220DF1FA
:104F300007031146C047D4F8B820194B20461A6021
:104F4000184BD4F8BC201A60174B1D6000F030FFDE
:104F500005461EB9284602B0BDE8F081B0FA80F0DF
:104F60004FF44A723321400900F0DEF939462046F9
:104F700001F060FA05460D4B20461B68D4F8BC10C2
:104F80009847284602B0BDE8F081417D90F8113184
:104F90006246994228BF194600F07EFECBE700BF6B
:104FA000AC1E0020B01E0020A81E00201C100020F7
:104FB0002DE9F04385B005460F4614461E4601F024
:104FC000A3FC01F0C5FC00283BD1DFF82481D8F810
:104FD00000301BB1D5F8B82093421FD000F032FC4E
:104FE000012838D1D8F800308BB31A687AB3D5F8D5
:104FF000B81009688A4246D0D5F8BC301A682846ED
:1050000001F00CFA38B901243346224639462846C5
:105010000096FFF77BFF05B0BDE8F083304B1B68BF
:10502000002BDBD0D5F8BC209342D7D12D4B1B6889
:105030009F4222D000F006FC0128E5D04FF0010984
:105040000BE00022264B1A6001F07AFCBDE7D5F890
:10505000B8301968D0E74FF00009012000F090FB4C
:1050600000F0F0FB0128FBD11F4B002103205B68FF
:105070009847B9F1000FB5D0C6E706B174B9002062
:1050800005B0BDE8F083164A1268D2B11168D5F8B0
:10509000BC2012689142B6D05968B0E70122D5F819
:1050A000CC408DF80F2084B10022284611460DF126
:1050B0000F03A0470D4B28461B68D5F8BC10984736
:1050C000DDE7D5F8BC201268E6E7697D95F8113177
:1050D0002846994228BF194600F0DEFDEAE700BFE6
:1050E000B01E0020A81E0020241000201C1000204C
:1050F000AC1E0020F8B50E460546FDF773F93146A3
:1051000007462846FFF77CFE044620B13846FDF7E7
:105110006DF92046F8BD0346024631462846FFF7A2
:1051200047FF04463846FDF761F92046F8BD00BF49
:10513000F8B506460C4649B30B6843B11B6801330A
:1051400024D0CB681BB18B68003B18BF01231846E5
:10515000CF22412100F0E8F8204602F021F9002397
:105160004FF6FF7286F81431C6E92E43E768D8B2CD
:1051700087420DD8154600230B4A294613600B4A77
:1051800030461360FFF7B6FF2846F8BD0023DEE780
:10519000A16801EB4011CD89954202D2002DEAD0E1
:1051A0002A460133E3E700BFAC1E0020B01E0020FA
:1051B000008B70470A7838B505461046FFF78CFD1E
:1051C00060B14C782046FFF787FD38B12243530782
:1051D00004D42846BDE8384000F08EBC012038BD1C
:1051E000FFF7E8BF10B504460878FFF775FD58B122
:1051F0004A781046FFF770FD30B1042A04D02046EB
:10520000BDE8104000F0AEBC012010BDFFF7EABFC2
:1052100000F05EBA00F0B2BB37B504460D4601920D
:10522000FFF768FF38B929462046019A03B0BDE868
:10523000304004F0A3B903B030BD01F091BB13B509
:1052400004460020019102F0A9F8D4F8CC3033B91B
:105250002046019902B0BDE8104000F061BD022077
:1052600002B010BD38B5044648880D4602F096F8E5
:10527000D4F8CC302BB929462046BDE8384000F0A0
:10528000B9BC022038BD02F08AB838B505460C46D4
:10529000FDF7A8F8296BEB6A0C402343EB62FDF79E
:1052A000A5F800200CB9002138BD4FF40071FBE7D0
:1052B00001F046B801F068B84FF4007307B50A4929
:1052C0000DF10602ADF80630FFF7F4FFBDF8063029
:1052D000B3F5007F05D1022808BF002003B05DF8B8
:1052E00004FB0120FAE700BF3820002008461146E1
:1052F00001F098BF01F010B838B50446154609B161
:1053000001F061F825B12046BDE8384001F05EB8F3
:1053100038BD0000024B1960024B1860FEE700BF69
:10532000201000203C22002008B550B90548064B4B
:1053300001601A60054B1A68054B1A601868FFF780
:10534000E9FF08BD2010002038220020A41E002004
:105350003C220020437C03B108470220704710B56F
:10536000044601F0D5FB2046BDE81040032100F0C3
:105370007DBAFFF7F4BF00000149FFF7EBBF00BFA4
:10538000E56A00000149FFF7E5BF00BFB96A000008
:1053900013B5427C0C46C2B1053A012A8CBF0022EB
:1053A00001224968019201F0EDFB206890FAA0F01B
:1053B000000A03F07DF9A17A2089019A81F00101A8
:1053C00001F002FC002002B010BD0220FBE71FB577
:1053D000ADF80C309DF81830CDE9011201A98DF817
:1053E0000E30FFF7D5FF05B05DF804FB00207047D5
:1053F00000207047014B1878704700BF4022002002
:10540000024BD868C0F30360704700BF000002B8C9
:10541000034B5B6913F0060F14BF01200020704797
:1054200000C001B870470000431C07D06FF0FF02B6
:10543000034B10401A62A3F580531862704700BFF7
:1054400000E000B8426B0E4B02F06002402A11D01F
:10545000602A03D0202A10D1012206E069B10A682F
:10546000012A0AD94A6942F001029A648022054B56
:105470001A61704740F20112F7E70022F5E700BF1A
:10548000001F00B0000002B808B5094AFFF7B8FFD6
:105490000B2806D00C2809D0092814BF00200220B0
:1054A00008BD106F10F48030F0D1F9E70220F7E763
:1054B000000002B80121094BD3F8EC201963520710
:1054C0004FF4005148BF042203F50053D96244BF92
:1054D000A3F58053C3F8EC20704700BF0040005490
:1054E00037B50C46204D41B90A46072104F04EFF5E
:1054F0001E4B6C625C6003B030BD0722114604F0A5
:1055000045FF07221A4B0121DA60237901A885F8AB
:1055100024306379019304F05AFF019BC2B2D34057
:1055200000F00F0040EA031085F82500A27985F805
:105530002620E27985F827202268AA6201932BB100
:1055400002EB430132F8023B8A4207D12279013A49
:105550001344084A136204F039FFCCE732F8020B17
:10556000834228BF0346EFE7001F00B0241F00B0AE
:10557000006000B8004000B800F01803182B074B7B
:1055800002D10022DA647047010701D50122F9E750
:10559000C206F6D540F20112F4E700BF001F00B0CA
:1055A0003F4B2DE9F3411D6840F2022317460B40A3
:1055B00000F00102134306460C4645D0880709D582
:1055C000384BD3F8D83E03F0C003402B02BF022172
:1055D000354B99604FF0000862B300230022002190
:1055E0000120CDE9008803F087FD042002F0D0FB04
:1055F0004FF0FF31284603F007F841466883012049
:10560000FFF7BAFB294B1B6F590208D46B6B13F0E1
:10561000800F4FF4001314BF254A264A136226490F
:105620000868FFF701FF4FF0FF330B602B7C43F05E
:1056300008032B74A20507D501212846FFF725FE94
:1056400024F4007406430C43D5E94C233240234034
:1056500052EA030103D01949284609688847FB0725
:105660000FD51749174A08680021136811600121F6
:10567000154A117003B19847144B002102205B6852
:10568000984717F00E0F08D040F27D123B21002002
:1056900002B0BDE8F041FFF747BE02B0BDE8F081BF
:1056A000A41E0020001000B0001002B8000002B8D4
:1056B000005001B8006001B8301000202C1000200C
:1056C000602200205C2200205822002024100020AC
:1056D000F7B5D0E94CC70446DDE908658CEA060059
:1056E00087EA05011040194080EA0C007940C4E9BE
:1056F0004C0123F4004105EA0103002522F00100DA
:1057000043F4007306EA000243F00203CDE90055BA
:1057100003F0F2FC237C9A0717D5D4F834319B05AB
:1057200013D54FF480312046FFF7AFFD237C65F39E
:1057300041032374D4E94C2302400B4052EA030195
:1057400003D00349204609688847002003B0F0BD14
:105750002C10002038B10368044A002B08BF134600
:10576000034A13607047014BFAE700BF255400005D
:105770002C100020014B0020D9637047001F00B09F
:1057800003282DE9F34149D8264B1E5C264B1F5CAC
:10579000264B13F80080FCF725FE054603F07AFE41
:1057A000044640B100230022CDE90033012000234C
:1057B000002103F0A1FC03F075FE48B10023002294
:1057C000CDE90033002000234FF4004103F094FCA6
:1057D0003946304604F08AF842463946304604F0ED
:1057E000EFF8ACB1124B1B6F5B020AD4114B1B6874
:1057F0005B6B13F0800F4FF4001314BF0E4A0F4A77
:1058000013620F490868FFF70FFE4FF0FF330B607C
:10581000284602B0BDE8F041FCF7E8BD02B0BDE8A3
:10582000F08100BF68B800006CB8000070B80000DC
:10583000000002B8A41E0020005001B8006001B8AA
:105840003010002008B5FFF7DBFD0138C0B20B288F
:1058500002D8054B185C08BDFFF7DAFD00280CBF25
:1058600001200420F7E700BF74B8000031F00F02F8
:1058700010B50BD1FFF7E6FF012809D1054CA36B4A
:1058800023F00F0001431046A16310BD0120FCE787
:105890000220FAE7001F00B008B50D4B1A6F12F096
:1058A000A00F13D15B6F5B0701D5012008BD094B29
:1058B000D3F8D83E23F07F4323F0FF03002BF4D02E
:1058C000FFF79EFD092801D00C28EED10020EDE75E
:1058D000000002B8001000B0024638B588B9194B74
:1058E0001B684BBB0125C1F11C04C4F11C03002B38
:1058F000B8BF5B42232B23DC7DB1134B1970002012
:1059000038BDFFF79FFF012818D10F4B002593F9F1
:105910000040C4F11C04641AE7E79174FCF762FDCF
:105920000A4AE402D36904F4FF2423F4FF231C434E
:10593000D461FCF75BFDE2E70320E1E70220DFE74B
:105940000120DDE7A41E00205022002000C000B886
:10595000094B08465A6A91020BD4D3F80021D207AA
:1059600008D4D3F8803013F4706F14BF01200020E6
:1059700070470120704700BF004001B870B5154660
:105980000C46426B064682EA05030B4053404363D4
:105990002D4A01F00B0323EA0501D1642B40A2F547
:1059A0008052D364630710D50121FFF7D1FF60B1A6
:1059B00003F03EFF4FF4007315F0040F14BF234AA9
:1059C000234A53620422234B1A67E00606D515F0DA
:1059D000100F14BF00221B221F4B5A65210618D539
:1059E0002A0620D54FF40012184B1A62012203F543
:1059F0008053C3F80021FCF7F5FC0E210546032077
:105A000002F0A2FD40F20122134B2846DA62FCF7B5
:105A1000EDFC14F0600F04D03046D6F8C010FFF74C
:105A200011FD002070BD0D4B1B6F5B02F1D44FF4D4
:105A3000001196F8FA30064A1162002BE9D00122D3
:105A4000024BC3F80021E4E7006000B8005001B841
:105A5000006001B8002002B8004000B8000002B8A1
:105A6000014B186A02F082BD004001B8D0F8C03086
:105A70004BB11A68022A06D993F8250028B11B6A8F
:105A8000B3FBF0F07047FFF789B97047014B186A14
:105A900002F094BD004001B8D0F8C02072B1136884
:105AA000022B0BD9536A13F47F4FC3F3072007D09F
:105AB000126ADBB25343B3FBF0F07047FFF770B9E3
:105AC00070470000437C5A1F012A01D9082B05D1D9
:105AD0004B7B2BB1012B05D0022B05D0FFF7DCBF90
