S02B0000626F6F746C6F616465722D73746F726167652D696E7465726E616C2D73696E676C652D3531326B5FBF
S1130000001000208501000081010000BD040000F3
S113001081010000810100008101000081010000D4
S113002081010000810100006C31000081010000A9
S113003081010000AC310000810100008101000059
S113004081010000810100008101000081010000A4
S11300508101000081010000810100008101000094
S11300608101000081010000810100008101000084
S11300708101000081010000810100008101000074
S11300808101000081010000810100008101000064
S11300908101000081010000810100008101000054
S11300A08101000081010000810100008101000044
S11300B08101000081010000810100008101000034
S11300C08101000081010000810100008101000024
S11300D08101000081010000810100008101000014
S11300E08101000081010000810100008101000004
S11300F081010000810100008101000081010000F4
S113010081010000810100008101000081010000E3
S113011081010000810100008101000081010000D3
S113012081010000810100008101000081010000C3
S113013081010000810100008101000081010000B3
S113014010B5054C237833B9044B13B1044800E0CF
S113015000BF0123237010BD081000200000000020
S1130160E833000008B5034B1BB10349034800E022
S113017000BF08BD000000000C100020E8330000A0
S1130180FEE7000008B500F021F800F0FFF90A4B83
S11301900A4A0B498B4206D300210A4B0A4A93426E
S11301A006D300F08FF952F8040B43F8040BF1E77F
S11301B043F8041BF3E700BF00100020E8330000FD
S11301C0081000200810002028100020044B054AC5
S11301D09A60D3F8882042F47002C3F888207047EC
S11301E000ED00E000000000C0F30C032DE9F04135
S11301F005460F4616460BB900F0FAFA05F5005409
S113020024F4FF5424F01F0405EB0608A04507D886
S1130210324639462846BDE8F041022300F0F6BADA
S1130220204600F0E5FA04F50054EFE770B4002529
S1130230AD6A03462E69864206D86C6913449C4213
S113024002D370BCFFF7D0BF70BC704737B500F560
S11302500045AB18B3F5002F144611D848B9836A8A
S11302605A69B2F5004F04D91869019100F0C0FA37
S113027001992246284603B0BDE83040FFF7B4BFD9
S113028003B030BD7FB50346D0B16D460D4A02F1CF
S113029010062C4610685168083203C4B242254641
S11302A0F7D15A1E0DF10F010F3311F8010912F89D
S11302B0014F844204D19A42F7D1012004B070BDA9
S11302C00020FBE758310000036913F0FE0F0CBF58
S11302D001200020704738B504460D46FFF7D2FFD1
S11302E048B16369012B09D12046FFF7EDFF08B13E
S11302F0A3692B6038BD01202C60FBE70020F9E7DF
S11303002DE9F0410368044603F16043B3F5004F5F
S11303104FF00000A0B029D8826A636816699E4233
S113032024D8B3F5002F21D8656B06F14003AB4206
S113033068D8B5F5002F65D82846FFF7A3FF002835
S113034060D02846FFF7C0FF80B16B6973B1022B00
S11303500FD1AB69C4F1040119444FF0FF322046B8
S113036001F012F8284BC31A5842584120B0BDE896
S1130370F08140F2046328460493FFF783FF08B931
S11303800020F3E72846FFF79FFF0028F8D0002756
S1130390D7F834804046FFF775FF0028F0D0403E80
S11303A0B045EDD8284605A9FFF795FF0028E7D00A
S11303B0BA6A059B12699A42E2D89C42E0D8B3F526
S11303C0002FDDD806A801F09BF8059A2146121BE0
S11303D006A801F0A9F806A801F0A8F8059C01F008
S11303E0A9F8039001F0AAF821460090039B04F1B8
S11303F0200206A801F018F804900498B0FA80F0DE
S11304004009B3E70120B1E7E320BBDE30B54FF08C
S1130410FF3289B005460C4600F0B6FF0D4B9842FA
S113042015D140F2022000F093F91C22002101A80A
S113043002F07DFE084B29466846009301F0A0FEB9
S11304406846214601F09CFE684601F0A3FE0020A8
S113045009B030BDE320BBDE010006434FF0FF339B
S113046013B5044601A8019301F04CFF30B9019B78
S1130470A3422CBF0020012002B010BD0020FBE7E6
S113048010B5044688B040F2022000F061F91C2245
S1130490002101A802F04BFE054B2146684600935B
S11304A001F06EFE684601F075FE002008B010BD34
S11304B00000034301F0A6BC01F010BD4FF401702D
S11304C000F06CB92C4B13B51B68C3F30743012B25
S11304D00DD12A4B04205A6E4FF4802328494B66D1
S11304E001F51041086250035CBF264A53664FF081
S11304F04023D3F88420110606D44FF400621A670F
S1130500D3F88420D206FBD4FFF7D4FF00F014F90B
S113051008B900F0FFF801F0B8FA044658B900F041
S11305200BF908B100F002F940F2012000F036F9AD
S11305304FF4017018E000F0FFF808B900F0F0F88B
S113054000F011F9012802D900F0E4F8FEE700F008
S113055014F90D4B0193019B002B0ADC40F2054377
S11305609C42E5D140F2032000F018F9002002B0CB
S113057010BD019B013BEDE70080E00F00800040CF
S11305800090004000A0004000350C0013B5012489
S11305904FF040238DF806408DF80740D3F894308F
S11305A05B0610D500F00EF9A0F2022080B20728F5
S11305B009D804FA00F010F0C90F1EBF00238DF80B
S11305C006308DF807304FF4C0435B68013308D11F
S11305D04FF4027000F0BCF800238DF806308DF85B
S11305E007309DF8073063B14FF4C040FFF788FE31
S11305F08DF806009DF806301BB94FF4027000F028
S1130600A7F89DF806308BB100F096F808B100F019
S11306108DF84FF4C043064A93601846016881F38D
S1130620088881F3098840688746FEE702B010BD58
S113063000ED00E0B1F5027F10B5044610D34FF48D
S11306400272002102F073FD002304F5C872637086
S113065004F5A47104F12C00BDE8104000F044BA84
S113066040F2052010BD13B50446009101462C301C
S113067000F072FAC4F8040218B141F20703984278
S113068009D1A3784BB140F2032040F20223E2786F
S1130690002A08BF184602B010BD40F20120FAE754
S11306A02DE9F04387B00DF1080904460E461746BC
S11306B00021102248461D46DDF8388002F037FD3F
S11306C000211C22C8F80010284602F030FD3246F2
S11306D03B462146CDF8009004F12C0000F03CFA92
S11306E023789A0744BF6268C8F80020DB0705D561
S11306F01C22284604F1080102F00CFD237840F284
S11307000640002B18BF002007B0BDE8F0834FF46B
S1130710027070474FF000534CF23C325A807047DD
S11307204FF000534AF6C0325A8070474FF00053DE
S11307304FF20F025A8070474FF000534AF6C03010
S11307405B8823F00F039BB21B1A58425841704731
S11307504FF0005208B51080FFF7EEFF10B94FF2CA
S11307600F03538008BD08B5FFF7E6FF20B14FF033
S11307700053588800F00F0008BD08B5FFF7DCFFF0
S113078050B14FF00052538803F00F010F2914BFEA
S1130790013323F00F03538008BD000008B5FFF7B1
S11307A0D7FFBFF34F8F0549054BCA6802F4E062D7
S11307B01343CB60BFF34F8F00BFFDE700ED00E0B4
S11307C00400FA054FF000534FF20F015A888A4291
S11307D001D1188870473AB91B8840F20220012BD6
S11307E018BF4FF4007070474FF40070704700005A
S11307F04FF4003208B5044B9A6601F0EDFBB0FAF1
S113080080F0400908BD00BF00900040072BF8B5F8
S113081006460F4614461D4601D90020F8BD0121A5
S1130820202001F063FB0121212001F05FFB8CB14A
S113083044EA06039B07F0D14FF40032064B3146DD
S11308409A66284623463A4601F02CFCB0FA80F01A
S11308504009E3E70120E1E700900040134610B5AA
S113086062B103439B070BD14FF40034054B9C66E4
S113087001F0DCFBB0FA80F0400910BD0120FCE778
S11308800020FAE7009000400020704700207047E5
S113089070B5D1E90152AA4205D290F840302B44F8
S11308A09B1A402B10D9002012E00A6890F84040AF
S11308B0D65C90F841200133224402F03F02013417
S11308C086548B6080F840408B689D42EDD80120AF
S11308D070BD2DE9F8431D461746D1E901329B1A34
S11308E090F84020044613449D420E469DF8209003
S11308F09DF8248056D9FFF7CBFF00285CD1142340
S113090041F2020084F84630BDE8F88394F84120AF
S1130910A25CFA5494F841200133013202F03F0200
S113092084F8412094F84020013A84F8402094F857
S113093040200AB19D42E9D1D6E90121914201D278
S11309409D4231D89D42DAD129463846D4F88820D0
S113095000F01AFDC4F88800B9F1000F04D02A464B
S11309603946E06C00F0E0FDB8F1000F08D094F8CF
S113097043308BB12B463A463946A06C00F042FD19
S113098094F8433043B1E36DA26D2B449342E36585
S113099024BF002384F84330636D41F203002B44E9
S11309A06365B1E70023C2E73268525CFA54B26867
S11309B001330132B260BFE70020A5E77FB5002311
S11309C0CDE90033082315460DEB03020446FFF777
S11309D080FF41F203039842064626D194F843303F
S11309E063B10822E06C0DEB020100F09DFD0823C9
S11309F00DEB03021146A06C00F004FD039A029B68
S1130A006A6094F843202B605AB9094A934208D08B
S1130A10084A934205D00822E06C0DEB020100F075
S1130A2083FD6B68236500236365304604B070BDA5
S1130A30F70A0AF7FC0404FC2DE9F7430446586856
S1130A400D4617469846002848D011F0030348D1B4
S1130A509B6A216E1B6902EB010C1E1D66451CD8A6
S1130A601C33994219D28E42304638BF08469C4501
S1130A7094BFC0EB0C02C0EB0302411AC6F1680636
S1130A8005EB0109304449462044019202F042FB3F
S1130A90FF214846019A02F04AFB48F20406236EFD
S1130AA0B34211D848F20702F91891420CD9F61A48
S1130AB02E440422314604F1800002F02BFB042270
S1130AC0FF21304602F033FBD8E900363A46206E67
S1130AD02946B0470020226E3A44226603B0BDE89E
S1130AE0F08341F20200F9E7F8B503F02003002592
S1130AF080F842304FF0FF3304460F461646C0F8E4
S1130B0088301822FF21C0E91855A0F8405080F819
S1130B104350A0F8445080F84650683002F007FB78
S1130B200422FF2104F1800002F001FB0422FF21D2
S1130B3004F1840002F0FBFA88222946C4E9127603
S1130B4004F1900002F0F3FA84F8185116B1E06C45
S1130B5000F0D6FC0020F8BD2DE9F04FA7B0CDE998
S1130B6013230293002304460E46309DDFF8A0931E
S1130B701593159A029B9A4201D30020C7E094F87A
S1130B804630142BF6D8DFE813F06700AE00A80057
S1130B90520039002E004A02390042023900FC0199
S1130BA0390042029603F90315008C013D033D030D
S1130BB0CF02F9034FF00008636D0F2B00F2918010
S1130BC00127102316AA2046CDF80480009713A904
S1130BD0FFF77FFE41F203030990099A9A4200F05D
S1130BE05281099B44E00127D4E91432934200F274
S1130BF05E8184F8467041F2030339E04FF0FF0B45
S1130C00D4E91437BB426CD9DB1BDDE91472BF1A7B
S1130C1094F84020032B174440F20582032F00F27E
S1130C200582204613A9FFF733FE002320E00127A5
S1130C30636D072BDFD8082316AA2046CDE9007779
S1130C4013A9FFF746FE41F203030C900C9A9A4253
S1130C5000F0AC810C9B0BE016AA204613A9FFF709
S1130C60ADFE41F203020690069B934202D0069B1E
S1130C70059345E0179A1699226500226265994A00
S1130C80914240F09E81022284F84620F0E701233D
S1130C9016AA009320460823019713A9FFF719FE0B
S1130CA041F203030790079A9A4201D0079BDFE7BA
S1130CB0169B03F07F43B3F1407F05D0142384F8DF
S1130CC0463041F20903D3E7179BD90706D594F8B8
S1130CD0423043F0010384F842300027636D072B50
S1130CE0D5D9012398E1204616AA13A9FFF766FE79
S1130CF041F203030890089F9F420BD0089F059779
S1130D0041F20303059A9A423FF433AF059827B0A2
S1130D10BDE8F08F94F84420169B2AB1724A93429E
S1130D2040F087800D2336E094F84220D20741D565
S1130D3094F84320002A3DD16C498B4233D022D809
S1130D406B4A934275D014D86A4A934200F0888063
S1130D5004D8644A93426CD04B456AD0142316A835
S1130D6084F84630FFF790FD002865D141F208076A
S1130D70C5E7614A934279D0F0D8604A934258D08B
S1130D805F4A9342E9E7584A9342CBD006D85D4A7A
S1130D909342E3D10F2384F84630B0E75A4A934292
S1130DA047D05A4AEDE7102384F84630236DC4E94E
S1130DB01632A4E7524A93424AD02BD84C4A934263
S1130DC044D022D84B453FD04A4A934244D016A837
S1130DD0FFF75AFD00284BD01323169884F84630A9
S1130DE0C4F88C00FFF752FD94F842309B0686D578
S1130DF0002884D04368002B81D02046984708906F
S1130E00089B002B3FF47BAF16E03C4A9342DED1B3
S1130E100323C0E73C4A93421CD010D8364A93427D
S1130E2020D0314A9342D2D194F84330002B3FF47E
S1130E3079AF142384F8463041F201075FE7334A5F
S1130E409342C4D10823A6E70A23A4E70523A2E713
S1130E500623A0E70C239EE794F84330002BE8D147
S1130E60112398E794F84330002BE2D1122392E740
S1130E70142384F8463094F84330002B3FF476AFC3
S1130E8041F204073BE7D4F848A000F05BFB802361
S1130E900221CDE9000317AA3B46504600F08CFA24
S1130EA08AE6012384F8433084F8463061E616AAC2
S1130EB02046CDE9007713A9FFF70BFD41F20303A8
S1130EC00A900A9A9A4201D00A9BD1E61C2216A9DA
S1130ED006F1080002F01EF9337843F00103337081
S1130EE082E600BFEB17A603FC0404FCF90707F92C
S1130EF0F40A0AF4F30B0BF3F70A0AF7F50909F5F8
S1130F00F60808F6FA0606FAFD0303FDFE0101FEE3
S1130F10EB17A65E337843F004033370199BB36276
S1130F2073785F072AD5EB238DF8583017238DF893
S1130F305930A6238DF85A305E23042204F150015F
S1130F4004F184008DF85B3002F0E4F8002094F89A
S1130F504530606643F0020384F84530EF686FB1B2
S1130F6004222B6816A9B8470822606E2B68EF6824
S1130F7018A91044B847636E103363660B2384F8D2
S1130F804630636D072B3FF636AE012318AACDE930
S1130F9000332046082313A9FFF79BFC41F2030307
S1130FA00B900B9A9A42B5D00B9B61E63378179A53
S1130FB043F002033370169B7360236D083B736226
S1130FC02AB1142384F8463041F2010350E6042385
S1130FD084F8463094F84530626643F0010384F89F
S1130FE0453025E6042316AA2046CDE9007713A947
S1130FF0FFF76FFC41F203030D900D9A9A4201D062
S11310000D9B35E6236D042B02D9169B236601271D
S1131010636D032BE6D9092384F84630EBE50023FE
S11310206366072340E79F42FFF4FBAD402B28BFD4
S113103040239F4228BF1F460123032F88BF27F068
S113104003070DF158084246CDE9003320463B46DC
S113105013A9FFF73EFC41F203030E900E9A9A4245
S113106001D00E9B04E694F84620072A27D1D5F830
S113107008A0BAF1000F22D02B683A464146606EB0
S1131080D047636E3B446366BAE508F803B00133A6
S1131090032BFAD9042FC7F1040A88BF4FF0000AC2
S11310A0092ABA440DD12B46524641462046FFF741
S11310B0C3FC0E900E9B002B3FF4A2ADD1E73B4640
S11310C0E6E7042A25D1737898077FF599ADEB6894
S11310D0002B3FF495AD636E042B10D80AEB03018B
S11310E006290CD917AFFF1A394604F1840003927C
S11310F002F010F8FF213846039A02F018F8EF685E
S1131100524641462B68606EB847676E574467661F
S113111076E50B2A7FF474AD737859077FF570ADCB
S1131120EF68002FECD16BE594F8427017F02007BC
S113113007D0D4F88C00FFF7A9FB074600283FF43A
S113114043AF4FF0010A42E04BB347B33B6933B3BB
S113115020469847DDE9143294F840809B1A4344B2
S11311608342FFF45EADD4E91421A2EB0108B8F187
S1131170400F28BF4FF04008984528BF984616AA4C
S113118043462046CDE900AA13A9FFF7A2FB41F28A
S113119003030F900F9A9A4203D00F9B68E5012036
S11311A0D8E794F842309A0611D5002F3FF40CAFDB
S11311B0D7F808B0BBF1000F3FF406AF2B46424608
S11311C0204616A9D8470F900F9B002BE5D1D4E9F0
S11311D0142194F84230914203F02003B4D3002B3D
S11311E03FF47FAD002F3FF47CADFB68002B3FF450
S11311F078AD2946204698470F900F9B002B3FF46B
S113120070ADCAE700218A6A496B1269403A91427B
S11312103FF6DAAE112B0FD194F81831002B7FF47E
S113122060AD41F206031093109A9A4202D114233E
S113123084F84630109B1BE594F84430002B7FF46F
S113124050ADCDE9003316AA4023204613A9FFF779
S113125040FB41F203031090109A9A42EAD1E06CE9
S113126000F064F994F81831A3B104F1B403E06C0C
S113127000931EAA04F1940316A900F0D5F8109067
S1131280109B9BB10023F370142384F8463041F281
S11312900603EDE4E76C00F04DF9039000F04EF91D
S11312A0039B00901EAA384616A9E6E70123F370B3
S11312B084F8443015E5002316AACDE9003320460E
S11312C0042313A9FFF705FB41F203031190119ABC
S11312D09A4202D0119B059318E5D4F88820294B33
S11312E09A4205D0142384F8463041F20503F2E70C
S11312F00123F37094F845309B0707D0EF682FB1B2
S113130004222B68104604F18401B847236E73B39A
S11313106B6863B34FF0FF3304F18001042212A819
S11313201293029101F0E6FE30B1D5E900370422B0
S113133048F204000299B84704F1680904224946B6
S113134012A801F0D7FE90B100239B6A1422D3F8AF
S1131350108004F16C0108F10800D5E90037B847A2
S1131360D5E900370422494608EB0200B8470123B7
S1131370B3700E2384F846300023ACE741F2070033
S1131380C5E400BFE320BBDE30B50824094B0025CB
S11313905C66012403F5FE235C6001449D601A61D0
S11313A0DC60884201D1586A30BD10F8012B1A6202
S11313B0F7E700BF00900040F8B516464FF400521E
S11313C01D460F4B04469A660222C3F860220F465C
S11313D001F082FDDDE90612204601F081FD0023C3
S11313E00C226362314684F8387004F1390001F04C
S11313F091FE2B0C6DBA84F84530A4F84650F8BD24
S11314000090004030B50D4685B0194600F1280320
S1131410CDE90152009300F1240200F1380301F0F8
S1131420AFFD05B030BD00002DE9F04FB1B08846E6
S113143017461E460446DDF8E8B0002858D00029B7
S113144056D0002A54D0002B52D0BBF1000F4FD0FD
S1131450402506230DF1400A0DF180092A4600219A
S11314605046069301F063FE2A460021484601F0E7
S11314705EFE4FF40052204B41469A660322C3F8A5
S1131480602200232022484609930C930F9301F015
S113149041FE2022394628A801F03CFE2022314694
S11314A0504601F037FE2022594618A801F032FEBA
S11314B02023CDE90A950E930AAA03AB07CACDE906
S11314C007A50D9483E8070007AB93E807008DE8B0
S11314D007000DAB0ECB094801F026FB0690069BD6
S11314E040F20460002B08BF002031B0BDE8F08F4B
S11314F040F20160F9E700BF00900040BC330000F7
S11315004FF40052074B10B59A6602220446C3F802
S1131510602200F0C9F82046BDE81040002100F028
S1131520C7B800BF0090004000F0C7B8014600F003
S1131530D1B80000004870474CE3070000487047EA
S11315406CE307000048704786E207002DE9F34783
S113155099460A9B0C46196805463F29164642D807
S11315605A68002A41D0224A002E14BFB046904641
S113157001F03F07091928BF5A68196024BF0132D6
S11315805A60AFB1C7F1400AA24521D82946524654
S113159009EB070001F0BEFD0123414600934A46D2
S11315A03346002000F09DF8B046403C55443C448E
S11315B03F2C0CD9A3092A46009341463346002008
S11315C000F08FF824F03F031D4404F03F0400278B
S11315D02CB12246294609EB070001F09BFD0020AF
S11315E002B0BDE8F0879046C2E7DFF80480BFE7A9
S11315F0EC31000030B40546084611461A46DDE9D0
S1131600023425B931B1029430BCFFF79FBF0248C0
S113161030BC70470846FBE780AFFFFF2DE9F0437D
S11316201546146887B09946E3008DF80F306309B6
S113163056688DF80E30630B8DF80D30630D8DF800
S11316400C30F30003EB54738DF80B3004F03F04BB
S11316507309372C8DF80A304FEA563394BFC4F11E
S11316603802C4F1780207468846CDE900158DF8A2
S113167009300C490346760D00208DF80860FFF709
S1131680B9FF082143463A460DEB01000095FFF7E8
S11316905DFF20223946484601F03CFD002007B09A
S11316A0BDE8F0830C3200006822002101F03FBD48
S11316B00023C0E900331846704707B500F128033A
S11316C00190009300F108030020FFF793FF03B09B
S11316D05DF804FB02460B4600F128010830FFF7D1
S11316E09DBF2DE9F0411D46044692B050BB189BA6
S11316F00AAE9B01CDE9042306902022304601F076
S113170009FD0994079601F0C9FC0446B0B94FF0ED
S1131710200804AB93E807008DE80700CDF820808B
S113172007AB04200ECB01F06FFB074601F0CCFCA5
S11317305FB942463146284601F0ECFC204612B01F
S1131740BDE8F0816FF07104F8E76FF06F04F5E71E
S11317502DE9F041A0B0502204460D460CA800210A
S113176001F0E5FC30220021684601F0E0FC684607
S113177000F088FA039B012B0ED800234FF0FF32B0
S113178023600123AB4203D3002020B0BDE8F081E5
S113179044F823200133F5E7AB426AD300F072F931
S11317A0049B0C220CA90646DF6800F03BFB0028D2
S11317B0EBD1DFF8C8800C9B434516D10E9A0CA9D7
S11317C0304600F02FFB4FF0FF320E990CA8FFF7C4
S11317D0DBFD294B984233D04FF0FF3304EB8505F2
S11317E0A54213D044F8043BFAE737440C223846A8
S11317F00CA900F017FB0028C7D10C9B43450BD064
S11318004FF0FF3304EB8505AC4202D140F20550A2
S1131810BBE744F8043BF7E70CA938460E9A00F0FE
S113182001FB049B3046D96800F034FB0028ACD19E
S113183030460E9A0CA900F00BFB0028BED0A4E79A
S11318400E9B2246103B9B08AB4228BF2B460FA998
S113185004EB8300824207D14FF0FF32AB4293D2B4
S113186044F823200133F9E751F8046B42F8046B80
S1131870F0E740F2045088E7E320BBDE39528FE101
S1131880F0B5A1B00C464422002106460FA801F091
S11318904EFC01232F4A0021CDE90C235023302292
S11318A068460E9301F043FC684600F0EBF9039B95
S11318B0A3424CD3012B08D8336840F204500133BF
S11318C0012B98BF002021B0F0BD00F0DBF8049B91
S11318D0102C214628BF1021DF68334605460744F3
S11318E00FAA06EB8100984226D14FF0FF3310294E
S11318F027D14C214FF0FF320CA8FFF745FDC04320
S1131900049B1F90D968384600F0C4FA0028DAD145
S1131910502238460CA900F09BFA0028D3D1049B2E
S11319202846D96800F0B6FA0028CCD150222846BF
S11319300CA900F08DFAC6E753F8044B42F8044BA7
S1131940D1E70CAA02EB8102D3600131CFE740F268
S11319500450B8E739528FE130B59DB030220021F0
S11319600546684601F0E3FB684600F08BF9039CEA
S1131970012C1ED921460CA8FFF7EAFE18B140F24B
S1131980055398420ED100230CAA52F8041B481C9C
S11319900AD11CAA02EB8303214643F8405C0CA83D
S11319A0FFF76EFF1DB030BDA94205D001339C4244
S11319B0EBD140F20250F5E740F20350F2E70000A9
S11319C010B5ADF50A7D4FF40272002008A900F0AD
S11319D07BF940F20124002108A800F0B0F8A042ED
S11319E0F9D040F20323984227D19DF820305907BB
S11319F00CD49DF820309A0730D4DB071DD50B9901
S1131A00869800F0D3F9C0B1002018E01298FEF7D0
S1131A1025FD0028EDD000F0B9FC194B044698428E
S1131A2010D11C22002101A801F081FB684600941A
S1131A3000F0CAFCB0F5403F04D140F205400DF57A
S1131A400A7D10BD869800F06FF90028D1D04FF4BC
S1131A500040FEF715FD0028CBD1EEE70022926A84
S1131A60099992689142C8D9869800F07BF90028B8
S1131A70E3D011994FF40040FEF7C8FCDDE700BF46
S1131A80000003434FF488207047FFF799BF00001C
S1131A9031B10A4B5A68824205D80023C1E90033A8
S1131AA040F201407047013053F8302003EBC0008E
S1131AB043680A6000204B60704700BFB4320000E6
S1131AC001221A707047000070B40C4611460C4A8B
S1131AD0556885420DD9013002EBC0067668E518D9
S1131AE0B5420AD852F830001A46204470BC00F0BF
S1131AF099B940F2014070BC704740F20240FAE7E5
S1131B00B432000030B504460D46A3B0D0F800123C
S1131B1002AA8023D0F8F801FFF7D6FF80232146DC
S1131B20009502AA04F12C00FFF716F8D4F800324D
S1131B30C4F804028033C4F8003223B030BD1FB5AA
S1131B400023CDE90033CDE90213D0F80432044672
S1131B5093B9D0E97F329A420ED26946FFF7D2FF99
S1131B60D4F8040298B141F2070240F201239042F2
S1131B7008BF184604B010BDA3785BB140F2022040
S1131B8040F20323E278002A18BF1846F2E740F235
S1131B900120EFE740F20220ECE7000070B50D46AB
S1131BA0002186B00DF1070302931D4B044616462F
S1131BB0116028461C22CDE903338DF807100593E4
S1131BC001F0B5FA9DF8073053B994F87230132B2D
S1131BD006D0D4F804321BB9D4E97F329A4217D321
S1131BE023789A0744BF62683260DB0705D51C225C
S1131BF0284604F1080101F08DFA9DF8073063B915
S1131C00237840F20640002B18BF002006B070BDB8
S1131C10204602A9FFF776FFD4E70020F6E700BFCD
S1131C20C11A000070B40C4611460C4A556885422E
S1131C300DD9013002EBC0067668E518B5420AD822
S1131C4052F830001A46204470BC00F001B940F24A
S1131C50014070BC704740F20240FAE7B432000021
S1131C60074B5A68824207D9013003EBC00251681E
S1131C7053F8300000F00EB940F20140704700BF45
S1131C80B432000070B5054688B0C0B14FF40032DC
S1131C9000236C46C0E900230A4B05F114061A78A8
S1131CA05B680272C360684600F09EF80FCC0FC6F2
S1131CB005F1140394E8070086E807002B6108B0D7
S1131CC070BD00BFB432000037B50C46054611465E
S1131CD02046FEF7AFFC48B969462846FFF7D8FE10
S1131CE020B9019BC4F8F851C4F8FC3103B030BDED
S1131CF038B500F5C87204460D46202300F5A471DA
S1131D002C30FEF7F1FED4F804321BB9D4E97F324B
S1131D109A4203D3A07800B1E07838BD2946204622
S1131D20FFF7F0FEEFE7000000B5ADF5077D4FF4D7
S1131D30027204A9FFF7C8FF78B904238DF81130A3
S1131D40074BCDE900000290694604A80393FFF70E
S1131D50CFFF0DF5077D5DF804FB0020F9E700BF18
S1131D604D020000002300B59B6AADF5077D9B681A
S1131D708B4204D300200DF5077D5DF804FB4FF47E
S1131D80027204A9FFF7A0FF0028F3D102238DF803
S1131D901130054BCDE900000290694604A8039375
S1131DA0FFF7A6FFE7E700BF4D02000000B5ADF561
S1131DB0077D4FF4027204A9FFF786FF78B9012367
S1131DC08DF81130074B0090CDE90130039069463E
S1131DD004A8FFF78DFF0DF5077D5DF804FB0020D7
S1131DE0F9E700BF2D02000070B504460646044D15
S1131DF00FCD0FC495E8070084E80700304670BD96
S1131E00983200004FF40032014B00209A6670476C
S1131E1000900040024BD86900F00100704700BFF9
S1131E2000000340B2F5002F10B5134604460846DF
S1131E300BD8B4F5002F08D82344B3F5002F04D8E9
S1131E40214601F067F9002010BD40F20240FBE793
S1131E50B2F5002F10B506D8B0F5002F03D88318BB
S1131E60B3F5002F0ED940F2024010BDC45801341E
S1131E700AD104339A42F9D8FEF7F0FC0028F2D0D4
S1131E800020F2E70023F5E740F20340EDE74FF0CE
S1131E90FF30704738B541EA0003C3F30C0304462E
S1131EA0CBB9B1F5002F0FD8B0F5002F0CD80D1811
S1131EB0B5F5002F08D8204604F50054FEF798FC29
S1131EC0AC4204D00028F6D140F2024038BD0028CC
S1131ED0FAD00020FAE740F20440F7E74FF400326A
S1131EE0014B00209A66704700A00040420910B5DB
S1131EF010D0012A10D00B4B0B4C022A18BF2346DA
S1131F0000F01F0051B103F58053012202FA00F0E2
S1131F10186010BD1346F3E7044BF1E703F50053D3
S1131F20F3E700BF688000406082004064800040A6
S1131F30F0B5114A114C124E00F00105E3695F0738
S1131F4013D40DB9334213D103EA00078F4207D1EA
S1131F500B4A1A40002A14BF6FF001000020F0BDA4
S1131F60013AEBD16FF00200F9E74FF0FF30F6E7EA
S1131F706FF00100F3E700BF809698000000034073
S1131F800200010070B5134C6061E3695B071ED465
S1131F900E4656F8043B8D18A361AE420BD10423C0
S1131FA0002121202361FFF7C3FF58B9BDE8704029
S1131FB02120FFF7BDBF08210846FFF7B9FF10B184
S1131FC00423236170BD56F8043BA361E5E74FF099
S1131FD0FF30F7E7000003404FF4003238B50F4BF1
S1131FE00F4C9A6641F671330122E569E3630D4BA8
S1131FF00021DA60022360612120236105F4803529
S1132000FFF796FF10B92120FFF792FF0122064B3C
S1132010DA600DB10023E36338BD00BF00900040D7
S11320200000034000100340002003402DE9F84362
S113203015464FF40032184B89469A6641F67132C0
S113204003F51C33DF69DA630122064603F5805386
S1132050DFF84C8007F48037DA6055B9284601224E
S11320600E4BDA601FB10022A3F50053DA63BDE81A
S1132070F88306F5005404EA0804A41BAC4228BF04
S11320802C46494622463046FFF77CFF0028E6D11D
S11320902644A1442D1BE0E70090004000200340AB
S11320A000E0FFFF2DE9F04F06464FF440250120E4
S11320B02C4CDFF8BCC04FF40037CCF8040044F8D3
S11320C0265030250024DFF8ACE0DFF8AC9005FBA7
S11320D006E5EC652C662C67234CDFF8A0A0A76608
S11320E041F6713704F51C34D4F81C80E763E768C3
S11320F000FA06F60743E7604BB9E26818F4803F3C
S113210022F00102E26000D0E363184628E001F502
S1132110005000EA0900401A984228BF184661613D
S1132120D4F81CB087081BF0040F17D1013F3F01FE
S113213047F060576F66AA66C5F86CA0CCF82460B7
S1132140DEF834703E42FBD0084F01447E6304271E
S1132150CCF82860024427611B1ACDE74FF0FF300A
S1132160BDE8F08F0040044000900040002004408F
S1132170001004400000044000E0FFFF180003408A
S1132180C369032B9FBF00EB83020133D160C3619A
S1132190704700002DE9F043C469042C6BD8374B19
S11321A0374A5D6E4FF4803336495366364E374AAC
S11321B0ED03C1F80026C1F804665CBFA1F5E42173
S11321C04B66334B334D1360034653F80C1B51607D
S11321D0C0F1204203EB840102F598428B4202EBEA
S11321E0030620D126460027436803BB3946304600
S11321F0264A41EA046191601368516892684B4031
S113220053400022904231D145F82030BFF34F8F24
S11322102149224BCA6802F4E0621343CB60BFF346
S11322204F8F00BFFDE753F8047B3760D6E70022E9
S1132230D3F8009005EB860ED3F808C0F046CCF333
S1132240990C944507EB020106EB02000EF1040E13
S113225006D85A68012ACBD00F4606465B68C4E705
S113226059F822100132C8F80010E5E755F8221099
S113227001324B40C6E7BDE8F08300BF0080004058
S11322800090004000C00740004E00A0004C00A099
S1132290DEC0ECE50C4C00A000ED00E00400FA0503
S11322A0144B15495A6E4FF48033D20358BF134A66
S11322B010B54B6601F5E621D1F8041658BF5366F4
S11322C00A680F4B9A4213D10B690533B3F5007FAB
S11322D00ED2002214469A4205D351F82300031B60
S11322E05842584110BD51F8220001324440F2E7EF
S11322F00020F7E7008000400090004000A000406C
S1132300DEC0ECE538B50F4B0F495A6E4FF48033FD
S1132310D20358BF0D4A4B6601F5E621D1F80456A5
S1132320044658BF536630B1FFF7BAFF30B10020FE
S11323306B68236038BD4FF4E020FBE74FF47E0068
S1132340F8E700BF008000400090004000A000407B
S11323500B4B0C495A6E4FF48033D20358BF0A4AD0
S113236010B54B6601F5E621D1F8044658BF536613
S1132370FFF796FF10B1A068C0F3C05010BD00BFB6
S1132380008000400090004000A000400B4B0C492E
S11323905A6E4FF48033D20358BF0A4A10B54B66C5
S11323A001F5E621D1F8044658BF5366FFF7D0FF84
S11323B008B1E06810BD4FF47E00FBE700800040E8
S11323C00090004000A00040F8B5234B23495A6E0A
S11323D04FF48033D2034B6658BF214A01F5E621FE
S11323E0D1F8045658BF5366846805F11406FFF704
S11323F0AFFF48B32A6956F82230DB4346F822304F
S1132400A86810F470201DD0A86800F47020F8BDEE
S11324100021D4F800C0A668C6F39906B1420DD0D5
S1132420934203D19CB19342F2D3F0E7013305EB1D
S113243083073F694CF821700131EFE7646824F0A9
S11324400104EFE70346EDE74FF47E00DFE7934234
S113245038BF4FF4E020DAE70080004000900040ED
S113246000A0004013B51AB10024009400F046F90E
S113247002B010BD30B501B10139084CE568ED0377
S1132480FCD443EA0121120741EA000302F080521E
S1132490134343F00043636030BD00BF0020024C8F
S11324A0F0B58DB005AC84E807001C46A1420D468A
S11324B028BF2546129B0DB304B3114628460026B7
S11324C003F51813CDE90A468DE8030003F241131E
S11324D05F02C5EB4323099302950CAA059B12E9FD
S11324E00700069500F0AAFCA54207D23146621BFC
S11324F0381B0DB0BDE8F04000F09EBC0DB0F0BD3F
S113250030B591B001AC84E807000A461C46039B31
S11325100146D8004ABF0332620022F0030204A835
S1132520FFF7A0FF04A800F0FFF81499224601F574
S1132530181101F241114D0208A8C4EB41210023F6
S1132540FFF790FF05F5007100232246091B0CA834
S1132550FFF788FF0CA800F0E7F808A904A800F02A
S1132560BDF811B030BD10B58CB005AC84E80700DF
S11325700E9ADDE9060102F5181202F5A072520264
S1132580CDE9092300228DE803000B9202930CAAE3
S1132590059B12E9070000F051FC0CB010BD0000CF
S11325A00122054B9A60DA68D203FCD4D86820F083
S11325B00F000004000C70470020024C2DE9F04B82
S11325C04FF0000899460746164645468AB003ACC4
S11325D084E8070002F0805B07AC049A424502D805
S11325E00AB0BDE8F08B139B13B9AA1E012A0AD9BD
S11325F0129BCDE90779099600955BB194E8070031
S11326004B46FFF74DFFBBF1000F00D14F4401359E
S1132610C844E2E74B4694E80700FFF7A4FFF2E75B
S113262082B01FB507930A9B04AC8B4228BF0B46AC
S113263004E907001048D100079948BF033301603B
S1132640099948BF23F0030323F0704301F0E041EC
S1132650194341F000518160002102F0E042019CE5
S1132660134343F00053C16004618361416304B0C8
S1132670BDE8104002B070470000024C3F22034BFB
S11326801A631022DA6103229A6370470000024C35
S1132690024AD36B9B07FCD4704700BF0000024C76
S11326A0034B986A10F0240018BF0420704700BF41
S11326B00000024C08B5FFF7F3FF064BDB6B23F475
S11326C07F4323F0EF0303431EBF0122024BC3F8F1
S11326D0FC2F08BD0000024C00F0FF3F032208B5A8
S11326E0054B186019615A63FFF7C8FFFFF7D0FF65
S11326F0BDE80840FFF7DEBF0000024C10B522F031
S1132700704200F11004C0E90014826041B1826893
S113271003F0704313438360029BC360204610BDE3
S1132720836843F08043F6E701234360C36843F0C2
S11327302003C360836843F0005383607047C36819
S1132740DB0658BFC368C36803F00F03012B02D034
S1132750033B012B08D8C36801F01F0143EA01239E
S1132760C36083681944816070470000426803466F
S1132770182A10B50AD0202A1DD0102A2BD1174AA6
S1132780D2F80424D4010AD4012013E0134AD2F865
S113279004249001F8D50A6842F008020A6010483F
S11327A01A6882424FF000000ED10A6842F04002DB
S11327B00A60586010BD094AD2F804245201E3D5D6
S11327C00A6842F00402E9E7064CA242F2D10A6820
S11327D042F08002ECE70720ECE700BF0000024C67
S11327E024100020251000200B4607B50749D1F816
S11327F00414C90708D5002100920246084600F0D7
S113280025F903B05DF804FB0120FAE70000024C4F
S11328100B4607B50749D1F80414C90708D5009237
S113282001210246002000F011F903B05DF804FB19
S11328300120FAE70000024C1FB50A4CD4F8044406
S113284064070CD5CDE900120021069C0222CDE9D3
S113285002340346084600F025F904B010BD0120F7
S1132860FBE700BF0000024C37B54D68044645B194
S11328708C680093096842EA04032A46FFF73EFF86
S11328800446204603B030BD2DE9F04F2DED028BF8
S1132890D1B008EE103ADDE95E7ADDE960980023F4
S11328A0019104210546CDE9031307CA01AC05AB28
S11328B083E80700629E0294002D40F0C480214604
S11328C01846FFF753FF0546002840F0B6805D9A8E
S11328D008AB07CADAF8044083E80700D9F80430E3
S11328E049421C44D8F8043064425B420093BB68FC
S11328F004F00F04DA0048BF7B6801F00F0B42BFFD
S1132900033323F003037B60B368DB0041BF7368C8
S1132910033323F0030373600023DAF80400D9F8C7
S11329200420CDE9133381182144CDE90C137968CF
S11329300B93494201F00F01CDE90E3171681093F8
S1132940494201F00F01CDE91131CDE91533179357
S11329505D9B5B6853B9D8F804301343034305D136
S113296010218B46CDE9091314AA089211234FF0C4
S1132970005202A930A8FFF777FF40F611034FF089
S1132980005205A9FFF770FF42F611034FF0005201
S11329905C99FFF769FF44F611034FF0005218EEFB
S11329A0101AFFF761FF412300225146FFF75CFF35
S11329B023024FF00052494643F04103FFF754FF0E
S11329C04FEA0B234FF0005243F0010308A9FFF72D
S11329D04BFF009B4FF000521B0203F4706341460F
S11329E043F00103FFF740FF1038FFF79DFE00237B
S11329F00BA91A4618A8FFF737FF002339461A46D1
S1132A00FFF732FF00230EA91A46FFF72DFF00231C
S1132A1031461A46FFF728FF002311A91A46FFF78B
S1132A2023FF002363991A46FFF71EFF1038FFF7B0
S1132A307BFE18A930A8FFF751FE284651B0BDEC23
S1132A40028BBDE8F08F0725F7E70000F0B51C46C0
S1132A505B6816468DB01A070546129F1BD1D3B189
S1132A607A68934217D10D4B0D4A53F821C009AB34
S1132A7007CA83E8070032462846CDE90633CDE984
S1132A800433CDE90273CDE900344CF48071FFF7CF
S1132A90FBFE0DB0F0BD0720FBE700BFF4320000E1
S1132AA0C43200002DE9F0438DB00446DDE914CEB4
S1132AB0DDE91678DCF804001E46030729D140B38B
S1132AC0DEF80430984224D17B68102B21D1D8F849
S1132AD00430102B1DD1104B53F821500F4B53F8D9
S1132AE022900F4A09AB07CA83E8070045EA0901A7
S1132AF032462046CDE90638CDE90433CDE902E378
S1132B00CDE9007C41F03001FFF7BEFE0DB0BDE819
S1132B10F0830720FAE700BFF4320000D03200004F
S1132B20C43200000069704770B586B003AE054634
S1132B3086E80E00FFF7F6FF4428044639D86A6891
S1132B4000EB80039A4203D0062343439A4232D1D6
S1132B500B9BB3EB440F2ED10E9A93422BD101223F
S1132B6021463120EB68FFF785FC95E80700012337
S1132B70CDE900332346FFF721FD08230AAA009379
S1132B8007CA2346FFF7BCFC0C23009396E8070012
S1132B902346FFF785FC0A230DAA009307CA2346A0
S1132BA0FFF7AEFCFFF7FCFC002818BF032006B0BB
S1132BB070BD0120FBE70720F9E700000138C0B22F
S1132BC006289ABF014B185C00207047D0330000E0
S1132BD00138C0B206289ABF014B185C0020704728
S1132BE0D73300000138C0B206289ABF014B185CE5
S1132BF000207047DE3300002DE9F04F8046BBB063
S1132C0003A81E4680E80E0008F1FF3317468A46E3
S1132C109DF81091062B00F2F280DFE803F0041F08
S1132C20262D343B4200774BD3F80C34D80703D419
S1132C3001203BB0BDE8F08F012307930023B9F1D5
S1132C40010FCDE9083333D0B9F1020F00F09880B9
S1132C504046FFF7C7FF6324054637E0694BD3F8C6
S1132C600C349907E4D50223E7E7664BD3F80C3418
S1132C705A07DDD50423E0E7624BD3F80C341B0775
S1132C80D6D50823D9E75F4BD3F80C34DD06CFD56E
S1132C901023D2E75B4BD3F80C349C06C8D5202311
S1132CA0CBE7584BD3F80C345806C1D54023C4E7BE
S1132CB0544BD3F80C34D903BAD5079B404643F49C
S1132CC0C0630793FFF77AFF032405461323042206
S1132CD0009307A94FF0005312A8FFF70FFD5146C8
S1132CE0009446F000533A46FFF708FD4FF0000BFE
S1132CF004465E46DDF814A1469B9B4564D1B9F1B8
S1132D00030F0AD14046FFF76DFF874277D1404653
S1132D10FFF75EFF0138304271D1002E67D10323E3
S1132D2032462046009308A93346FFF7E7FC042601
S1132D300446A4F110000290FFF7F6FC3146029815
S1132D40FFF7FDFC489AAA4228BF2A461446002AE7
S1132D5053D00023479900930AA8499BFFF7CEFC60
S1132D602A1B04D0002319460093FFF7C7FC103830
S1132D70FFF7DAFC12A80AA9FFF7B0FC002058E715
S1132D80204BD3F80C2492037FF552AFD3F80C34C4
S1132D90DB037FF54DAF97B17C423946374604F0EB
S1132DA00304079B404643F4E0630793FFF706FFE1
S1132DB024023E4605460F4644F0A30486E7042158
S1132DC00DF1200A0C46ECE7DAF8042016444AB167
S1132DD0032300932046DAF80830DAF80010FFF7EE
S1132DE08DFC04460BF1010B0AF10C0A84E716F082
S1132DF0030618BFC6F104069BE70AA8B0E707203C
S1132E0017E700BF0000024C70B58AB007AC84E835
S1132E100E0003AD064694E8070085E80B00012385
S1132E2002930EAB019303230093304694E80E0003
S1132E30FFF7E2FE0AB070BD00F079B982B02DE967
S1132E40F0418AB005AE12F0804586E80700149C74
S1132E50119333D1139B8C4228BF0C4613F080533B
S1132E608846129A02D1944228BF144634B30F2CD8
S1132E7013D9DDE912018DE803000294119B96E851
S1132E800700FFF7CDFBFFF7F9FBFFF701FC0AB0E2
S1132E90BDE8F04102B0FFF70DBC059E119F93B150
S1132EA0A8EB0502042A3B6828BF0422701909A96B
S1132EB00435099300F02EF9AC42F1D80AB0BDE80C
S1132EC0F04102B070472246394630460AB0BDE8A8
S1132ED0F04102B000F01EB92422002100F027B90D
S1132EE070B515460E4624220021044600F01FF951
S1132EF025F04003802B02D0B5F5807F08D1204611
S1132F00314640F8045BEA0800F004F9002070BD83
S1132F106FF01F00FBE730B50129016808BF0124E9
S1132F2021F0400518BF0224802D8BB002D0B1F5EA
S1132F30807F22D1C90802910021CDE90312102219
S1132F400430CDE90521CDE907320190099100F063
S1132F50A5F868B9012C07AA04A901A80AD1FFF7AA
S1132F6043FC044600F0B0F8204318BF6FF06F0034
S1132F700BB030BDFFF74CFCF3E76FF07100F7E7DF
S1132F802DE9F04F82460F469846164691B012B38B
S1132F901568DAF8003023F04002802A02D0B3F535
S1132FA0807F73D1DB08002405931023CDE9083416
S1132FB01B9BCDE906480AF104023B4404920293A8
S1132FC00DF11C0BBC4208D3002E65D000203560E7
S1132FD011B0BDE8F08F1546DBE75DB11B9B1A9A73
S1132FE01B5D525D013553401C9A05F00F051355C6
S1132FF00134E7E7A7EB0409B9F10F0F1ED91B9BB6
S113300029F00F092344CDE90A391C9B0C9523446C
S1133010CDE90D390F9500F041F80028D8D15B4671
S11330200DAA0AA9CDF800B004A8FFF705FC039087
S113303000F04AF8039B03432BD14C441B9B03EB46
S113304004091C9B1C44029B4B4501D13C46B9E737
S11330508DB94246012150461A9BFFF75CFF0028B8
S1133060B6D108F1100212F8013D0133DBB213703E
S11330700BB99045F7D11A9A19F8013B525D013505
S1133080534004F8013B05F00F05DCE76FF07100D5
S11330909EE76FF06F009BE7304699E7094B0020ED
S11330A09A6E42F400529A66D3F8602242F001020A
S11330B0C3F86022D3F8602242F00202C3F860220F
S11330C0704700BF00800040094B00209A6E22F434
S11330D000529A66D3F8602222F00102C3F86022FB
S11330E0D3F8602222F00202C3F86022704700BFC6
S11330F0008000400139024410B5904201D1002003
S113310005E0037811F8014FA34201D0181B10BD4C
S11331100130F2E70A44431E914200D1704710B5D2
S113312011F8014B914203F8014FF9D110BD02444B
S11331300346934200D1704703F8011BF9E70000EE
S1133140F8B500BFF8BC08BC9E467047F8B500BF90
S1133150F8BC08BC9E467047B814B6F1E0CFF3AD96
S1133160B7DD25C9FA79B7130000000007B0CD5EBA
S11331700100000001000002F433000000600000C0
S113318000000800F0000100B5040000B9040000CC
S11331900103000035060000670600004C32000001
S11331A0A10600000F0700000000000013B779FA21
S11331B0C925DDB7ADF3CFE0F1B614B801010000C5
S11331C000000000F0330000400000000100000295
S11331D000000000000000000000000000000000EB
S11331E00000000000000000000000006A09E6671B
S11331F0BB67AE853C6EF372A54FF53A510E527F14
S11332009B05688C1F83D9AB5BE0CD19800000005F
S113321000000000000000000000000000000000AA
S1133220000000000000000000000000000000009A
S1133230000000000000000000000000000000008A
S11332400000000000000000000000000001000079
S1133250851C0000911A0000C91A0000251C0000FA
S1133260611C00008118000051170000591900006A
S1133270C91C00003F1B00009D1B0000151E000020
S1133280251E0000511E0000951E00008F1E000028
S113329045465233320000000102030028000000BA
S11332A02800000000200000000008009032000008
S11332B004000000010000000100000000400400C0
S11332C000000300000000000000000000000040B7
S11332D000010000000200000004000000080000DB
S11332E000100000002000000040000000800000EA
S11332F0000001000000000001000000FFFFFFFFCC
S113330000000001000000000000000000000000B8
S1133310FFFFFFFFFFFFFFFFFFFFFFFFFFFFFFFFB9
S113332000000000FFFFFFFFFFFFFFFFBCE6FAAD58
S1133330A7179E84F3B9CAC2FC6325516B17D1F257
S1133340E12C4247F8BCE6E563A440F277037D81B3
S11333502DEB33A0F4A13945D898C2964FE342E24D
S1133360FE1A7F9B8EE7EB4A7C0F9E162BCE3357BB
S11333706B315ECECBB6406837BF51F5FFFFFFFF20
S11333800000000100000000000000000000000038
S1133390FFFFFFFFFFFFFFFFFFFFFFFC5AC635D80B
S11333A0AA3A93E7B3EBBD55769886BC651D06B083
S11333B0CC53B0F63BCE3C3E27D2604BFC320000EF
S11333C0C000000000000000000010002000000009
S11333D010141C2030402040404040808040101495
S10B33E0202040402000000001
S10B33E8650100004101000031
S903018576
