:1000000000800020A10000009D000000FB00000017
:100010009D0000009D0000009D0000009D0000006C
:100020009D0000009D000000143200009D000000B3
:100030009D000000543200009D0000009D00000063
:1000400010B5054C237833B9044B13B1044800E0D4
:1000500000BF0123237010BD080100200000000034
:10006000A034000008B5034B1BB10349034800E06E
:1000700000BF08BD000000000C010020A0340000FB
:10008000044B054A9A60D3F8882042F47002C3F802
:100090008820704700ED00E000000000FEE700004F
:1000A00008B5FFF7EDFF00F08FF80A4A0A4B0B493D
:1000B0008B4206D300210A4B0A4A934206D300F032
:1000C00021F852F8040F43F8040BF1E743F8041B3E
:1000D000F3E700BFA0340000000100200801002069
:1000E00008010020280100200020704770470120EF
:1000F000704700F081BD00F0EDBD4FF4017001F0DC
:1001000087BF00002C4B13B51B68C3F30743012BBB
:1001100010D12A4B4FF48022596E41F264004903FA
:100120004FF0040458BF42F264011A50244804609E
:1001300058BF5A504FF040234FF400621A67D3F86B
:100140008420D206FBD4FFF7D4FF01F030FF08B9BA
:1001500001F01BFF01F099FC044658B901F027FF9C
:1001600008B101F01EFF40F2012001F051FF4FF4F1
:10017000017018E001F01BFF08B901F00CFF01F05D
:100180002DFF012802D901F00CFFFEE701F030FF3E
:100190000C4B0193019B002B0ADC40F205439C426F
:1001A000E5D140F2032001F033FF002002B010BD82
:1001B000019B013BEDE700BF0080E00F00800040A5
:1001C0002020014000350C0013B501244FF04023DE
:1001D0008DF806408DF80740D3F894305B060FD5B4
:1001E00001F02AFFA0F2022080B2072808D884403C
:1001F00014F0C90F1EBF00238DF806308DF80730AC
:1002000046F204031B68013308D14FF4027001F079
:10021000DAFE00238DF806308DF807309DF80730A0
:1002200063B14FF4C04001F09FFD8DF806009DF8CA
:1002300006301BB94FF4027001F0C5FE9DF8063080
:100240008BB101F0B4FE08B101F0ABFE4FF4C04336
:10025000064A93601846016881F3088881F309888B
:1002600040688746FEE702B010BD00BF00ED00E029
:100270000020704730B541F264030825094C014461
:10028000E55001240025084B5C609D601A611A4608
:10029000DC60884201D1586A30BD10F8014B14620D
:1002A000F7E700BF0080004000800840F8B51D4619
:1002B0000F4641F268034FF400511646114A0446B6
:1002C000D150022302F59352136001F048FADDE9A0
:1002D0000612204601F047FA002384F83870636262
:1002E00032682B0CC4F839207268C4F83D20B2681B
:1002F00084F845302B0AC4F8412084F8463084F84D
:100300004750F8BD0080004030B51D4685B000F173
:100310002803CDE90112009300F1240200F1380313
:10032000294601F076FA05B030BD00002DE9F04114
:10033000B0B0369C064600286BD0002969D0002A50
:1003400067D0002B65D0002C63D006204FF40057F7
:10035000069041F26800304D01F120082F5003252E
:100360002E4820AF056000200D46BE4609900C9037
:100370000F90F446286869680835ACE803004545E5
:10038000E646F6D10DF1A00C02F1200E654610688C
:100390005168083203C57245AC46F7D10DF1400CE7
:1003A000654603F1200E2A4618685968083303C2CF
:1003B00073451546F7D1234618AC03F120052246B4
:1003C00018685968083303C2AB421446F7D140237A
:1003D0000893CDE90A7320230AAA0E9303AB07CA38
:1003E000CDF81CC00D9683E8070007AB93E8070023
:1003F0008DE807000DAB0ECB094800F0E3FF069037
:10040000069B40F20460002B08BF002030B0BDE81E
:10041000F08140F20160F9E7008000406092004006
:10042000203400004FF4005141F26802074B10B530
:1004300099500222044603F593531A6000F0B0F875
:100440002046BDE81040002100F0AEB8008000401A
:1004500000F0AFB8014600F0B9B800002DE9F7434D
:100460001446DDE90A820E461F46002845D11CB914
:10047000002003B0BDE8F08313683F2B3BD85168E0
:10048000204D11B1002F18BF3D4603F03F00E31887
:10049000136022BF53680133536080B3C0F1400939
:1004A0004C4522D331464A46404402F094FE012393
:1004B0004246009329463B460020A4EB090400F085
:1004C00093F83F2C4E440DD93D46A3090093324684
:1004D0003B462946002000F087F824F03F031E44E5
:1004E00004F03F04002CC3D0002022463146404493
:1004F00002F071FEBCE73D46C7E70348B9E73F2C71
:10050000F3D9E2E79432000080AFFFFFF0B51D465B
:100510000C4617461A6887B0D3008DF80F30530980
:100520008DF80E30530B8DF80D30530D8DF80C30C7
:100530006B68CDE90075D90001EB52718DF80B1095
:1005400002F03F025909372A8DF80A104FEA533159
:100550004FEA535394BFC2F13802C2F178028DF8CA
:1005600009108DF808300D4923460646FFF776FF3F
:10057000082223460DEB0201CDE900753046FFF756
:100580006DFF23460C9A04F1200153F8040B8B42B3
:1005900042F8040BF9D1002007B0F0BDB4320000DE
:1005A0006822002102F022BE0023C0E90033184671
:1005B000704707B500F128030190009300F108038C
:1005C0000020FFF74BFF03B05DF804FB07B50346BF
:1005D000009100F1280200F108010020FFF796FFCA
:1005E00003B05DF804FB0000F0B51C4693B0002892
:1005F00037D1189B06909B01CDE904230AAA0B462C
:10060000154601F12007164618685968083303C6D5
:10061000BB423246F7D100230795099301F086F9D2
:100620000646D8B92023089304AB93E807008DE869
:10063000070007AB0ECB042001F026F8074601F0B7
:100640008BF987B923462A4612AD144603CCAC4237
:1006500018605960224603F10803F6D1304613B002
:10066000F0BD024EFAE7024EF8E700BF80AFFFFF91
:1006700080ADFFFF430910B507D0012B0FD00A4C06
:100680000A4A022B14BF2346134600F01F0041B153
:1006900003F58053012202FA00F0186010BD044BEC
:1006A000F3E703F50053F5E76082004068800040FF
:1006B00064800040F0B5114A114C124E00F0010563
:1006C000E3695F0713D40DB9334213D103EA00077E
:1006D0008F4207D10B4A1A40002A14BF6FF0010065
:1006E0000020F0BD013AEBD16FF00200F9E74FF0C6
:1006F000FF30F6E76FF00100F3E700BF8096980047
:10070000000003400200010070B5134C6061E06915
:1007100043071DD40E1D0968151FA1615DB904238F
:10072000294623612120FFF7C5FF58B9BDE8704075
:100730002120FFF7BFBF08210846FFF7BBFF10B11C
:100740000423236170BD56F8043B043DA361E5E733
:100750004FF0FF30F6E700BF0000034038B54FF41C
:10076000003141F26803104A104CD15041F6713308
:10077000E5690122E36341F20C03E2500223606168
:1007800000212361212005F48035FFF793FF18B97C
:1007900001462120FFF78EFF42F20C030122E250B6
:1007A0000DB10023E36338BD00800040000003402A
:1007B0002DE9F84341F2680388464FF400311546AD
:1007C000174A0646D15041F67132164B0121DF69B6
:1007D000DA6341F20C02DFF8509007F48037995049
:1007E00055B9284642F20C0201210E4B99500FB127
:1007F0000022DA63BDE8F88306F5005404EA090430
:10080000A41BAC4228BF2C46414622463046FFF787
:100810007BFF0028E6D12644A0442D1BE0E700BF63
:10082000008000400000034000E0FFFF2DE9F04F92
:100830004FF0010C41F204044FF440262F4D4FF4C9
:10084000003E45F804C02E4C2E4F44F82060302660
:10085000002406FB0056F4653466346741F26804F0
:1008600047F804E041F67137274C0CFA00F0D4F851
:100870001CE0E763E768DFF8988047EA0C07AC46BE
:10088000DFF89090DFF890A0E7604BB9E2681EF4C3
:10089000803F22F00102E26000D0E36318462AE0C4
:1008A00001F5005525F4FF5525F01F056D1A9D42F1
:1008B00028BF1D466161D4F81CB0AF081BF0040FBF
:1008C00017D1013F3F0147F0605777660F4FB2667F
:1008D000F766C8F80000DCF834703842FBD0042713
:1008E000C9F800002944CAF800002A4427615B1BAC
:1008F000CBE74FF0FF30BDE8F08F00BF00000440B1
:100900000040044000800040000003401800034005
:10091000241004403420044028100440C369032BF1
:100920009FBF00EB83020133D160C36170470000B9
:10093000C1692DE9F043042967D84FF4803441F2AE
:100940006403334A334D566E334FD450334BC5F89E
:100950000036C5F80476F5035CBF42F264055451D5
:100960002F4A304E1A60024652F80C4B5C6000244D
:10097000A14222D1214600226FF00308456815BB31
:100980001346264A43EA04639360136850689268EA
:10099000434053408900234A8819824231D1735021
:1009A000BFF34F8F2049214BCA6802F4E062134322
:1009B000CB60BFF34F8F00BFFDE752F8043B46F812
:1009C00024300134D4E72B68A1EB020E08FB023C73
:1009D000134606EB8E0E881AAF68A3EB0209C7F325
:1009E00099074F4500EB030105D86A68012AC8D072
:1009F0006D681A46C3E75CF823104EF823100133E4
:100A0000EAE752F8044B6340C7E7BDE8F08300BF54
:100A10000080004000C00740004E00A0004C00A035
:100A2000DEC0ECE50C4C00A000ED00E00400FA058F
:100A3000154B4FF48032586E41F26401C00358BF29
:100A400042F2640010B55A501049D1F8041658BF4C
:100A50001A500A680E4B9A4213D10B690533B3F54D
:100A6000007F0ED2002214469A4205D351F823008B
:100A7000031B5842584110BD51F822000132444036
:100A8000F2E70020F7E700BF0080004000C0074009
:100A9000DEC0ECE538B50F4B4FF48032596E04469A
:100AA00041F26400C90358BF42F264011A500A4877
:100AB000D0F8045658BF5A5034B1FFF7B9FF30B1DF
:100AC00000206B68236038BD4FF4E020FBE74FF453
:100AD0007E00F8E70080004000C007400B4B4FF459
:100AE0008032596E41F26400C90358BF42F264017A
:100AF00010B51A500648D0F8044658BF5A50FFF7B0
:100B000097FF10B1A068C0F3C05010BD0080004036
:100B100000C007400C4B4FF48032596E41F2640024
:100B2000C90358BF42F2640110B51A500748D0F803
:100B3000044658BF5A50FFF7D1FF08B1E06810BD16
:100B40004FF47E00FBE700BF0080004000C007407C
:100B5000F8B5254B4FF48032596E41F26404C90355
:100B600058BF42F264011A51204CD4F8045658BFC1
:100B70005A508468FFF7B2FF60B32A6905F1140187
:100B800051F82230DB4341F82230A86810F470207D
:100B900011D0A86800F47020F8BD00232768A5686C
:100BA00001EB800CC5F39905AB4200EB03060DD0B9
:100BB000964205D3304684B19042EED30020EBE755
:100BC0005CF8236047F823600133EDE7646824F0A4
:100BD0000104EFE74FF47E00DEE7904234BF4FF4AC
:100BE000E0200020D8E700BF0080004000C00740A0
:100BF00000487047F432000041F268034FF40031BE
:100C0000014A0020D150704700800040024BD86953
:100C100000F00100704700BF00000340B2F5002F54
:100C200010B513460C460CD8B0F5002F09D8034474
:100C3000B3F5002F05D80146204602F0CCFA00207B
:100C400010BD40F20240FBE7B2F5002F10B511D8FD
:100C5000B0F5002F0ED88318B3F5002F0AD8002363
:100C600003E0C458013408D104339A42F9D800F0A3
:100C700051FF28B940F2024010BD40F20340FBE7AB
:100C80000020F9E74FF0FF30704738B541EA000324
:100C9000C3F30C030446CBB9B1F5002F0FD8B0F560
:100CA000002F0CD80D18B5F5002F08D8204604F5F4
:100CB000005400F0F9FEAC4204D00028F6D140F216
:100CC000024038BD0028FAD00020FAE740F2044084
:100CD000F7E7000042F268034FF40031014A0020B8
:100CE000D15070470080004013B5044622B1002463
:100CF000009400F057F90446204602B010BD0000F1
:100D000030B501B10139074CE568ED03FCD4120799
:100D100043F0004302F080521843024342EA0121AB
:100D2000616030BD0020024CF0B58DB005AC84E8A8
:100D30000700069D1E469D4228BF1D46129815B30A
:100D40000BB3002700F5181000F241104402CDE962
:100D50000A37631B09930CAB43F8185D029593E8BF
:100D600003008DE803000CAA059B12E9070000F0C0
:100D7000A5FCAE4207D93946721BA01B0DB0BDE8D9
:100D8000F04000F099BC0DB0F0BD30B51D4691B0FB
:100D900001AC84E807000146DDE90223D8004ABF20
:100DA00003326A0022F0030204A8FFF79DFF04A8A3
:100DB00000F00EF914992A4601F5181101F24111BB
:100DC0004C02611B002308A8FFF78EFF04F5007199
:100DD00000232A46491B0CA8FFF786FF0CA800F049
:100DE000F7F808A904A800F0CDF811B030BD10B58F
:100DF0008CB005AC84E807000E9A029302F5181235
:100E000002F5A0725202CDE90923002206AB93E855
:100E100003008DE803000B920CAA059B12E9070062
:100E200000F04CFC0CB010BD0122054B9A60DA6852
:100E3000D203FCD4D86820F00F000004000C7047E7
:100E40000020024C2DE9F04B4FF000088AB003ACB3
:100E500084E8070081461C464646059F07AD07F01B
:100E6000805B049B434502D80AB0BDE8F08B139B1E
:100E700013B9B31E012B0AD9129BCDE90794099728
:100E800000965BB195E807002346FFF74DFFBBF1E5
:100E9000000F00D1A1440136A044E2E7234695E8C3
:100EA0000700FFF7A4FFF2E782B01FB504AC04E926
:100EB00007000A9A029907938A4228BF0A46039BB1
:100EC0000798D90044BF033222F0030222F0704198
:100ED0000D4A03F0E0431060099A0C4802F0E0422A
:100EE00042F000520A430260002243F00053019C8A
:100EF0000B430749426084600B60064B1A6004B0E4
:100F0000BDE8104002B070470000024C0800024CDF
:100F10001800024C3400024C3F22044B1A6010228D
:100F200043F8142C03229A60704700BF3000024C33
:100F3000024A13689B07FCD4704700BF3C00024C78
:100F4000034B1B6813F0240F14BF042000207047CC
:100F50002800024C08B5FFF7F3FF084B1B6823F489
:100F60007F4323F0EF03002B14BF0423002303432C
:100F70001EBF0122024B1A6008BD00BF3C00024C9C
:100F8000FCFFFF3F032208B5054B186019615A6347
:100F9000FFF7C2FFFFF7CCFFBDE80840FFF7DABF5D
:100FA0000000024C10B522F0704200F11004C0E9BC
:100FB0000014826041B1826803F070431343836080
:100FC000029BC360204610BD836843F08043F6E770
:100FD00001234360C36843F02003C360836843F088
:100FE000005383607047C368DB0658BFC368C3689B
:100FF00003F00F03042B0ED8012202FA03F313F0BF
:101000001A0F08D0C36801F01F0143EA0123C3602F
:101010008368194481607047426810B5182A0346F6
:1010200009D0202A1BD0102A28D1154A1268D401D1
:1010300009D4012012E0124A12689001F9D50A6819
:1010400042F008020A600F481A6882424FF000001E
:101050000DD10A6842F040020A60586010BD084A8B
:1010600012685201E5D50A6842F00402EAE7064C2C
:10107000A242F3D10A6842F08002EDE70720EDE7D3
:101080000404024C250100202401002007B50B4672
:1010900007490968C90708D5002100920246084699
:1010A00000F024F903B05DF804FB0120FAE700BF6B
:1010B0000404024C07B50B4607490968C90708D55F
:1010C000009201210246002000F010F903B05DF803
:1010D00004FB0120FAE700BF0404024C1FB5094CD1
:1010E000246864070CD5CDE900120021069C022279
:1010F000CDE902340346084600F024F904B010BDDF
:101100000120FBE70404024C37B515464A68044643
:101110003AB18C680093096845EA0403FFF742FF7F
:101120000446204603B030BD2DE9F04FD3B0CDE9E1
:101130000231042100238446CDE9051307CA03AE1A
:1011400007AB5E9D619F629C049683E80700BCF13B
:10115000000F40F0C88031461846FFF75DFF064695
:10116000002840F0BC805D9A0AAB07CA83E80700FC
:101170005F9B609A494201F00F08002152685B684A
:101180004FF0100A13445B4203F00F097B680D9186
:101190005B420193AB681291DA0048BF6B6852461C
:1011A00042BF033323F003036B60A368DB0041BF3E
:1011B0006368033323F0030363605F9B5B68009302
:1011C000609BD3F804B0009B5B444B44CDE90E31E7
:1011D0006B685B4203F00F03CDE910136368159150
:1011E0005B4203F00F03CDE9131316AB184601F071
:1011F000FDFF5D9A52685AB97A684AB9009A3AB9BD
:10120000BBF1000F04D1D046CDE90A0ACDF830B0C9
:1012100011234FF0005204A932A8FFF775FF40F6E2
:1012200011034FF0005207A9FFF76EFF42F61103BA
:101230004FF000525C99FFF767FF44F611034FF03F
:1012400000520299FFF760FF412300225F99FFF7E8
:101250005BFF4FEA092343F041034FF000526099CE
:10126000FFF752FF4FEA082343F001034FF000520B
:101270000AA9FFF749FF019B4FF000521B0203F43C
:10128000706343F001033946FFF73EFF1038FFF764
:101290009FFE00230DA91A461AA8FFF735FF002369
:1012A00029461A46FFF730FF002310A91A46FFF718
:1012B0002BFF002321461A46FFF726FF002313A920
:1012C0001A46FFF721FF002363991A46FFF71CFF18
:1012D0001038FFF77DFE1AA932A8FFF753FE3046FB
:1012E00053B0BDE8F08F0726F9E70000F0B594464B
:1012F0005A688DB01C4613070646129D1BD1D2B109
:101300006B689A4217D10D4B0D4A53F8217009AB07
:1013100007CA83E80700CDE90633CDE90433CDE9F8
:101320000253CDE90034624647F480713046FFF73E
:10133000FBFE0DB0F0BD0720FBE700BF58330000F7
:10134000283300002DE9F0438DB09846DDE914679D
:10135000DDE9165973688446180728D13BB37868CD
:10136000834224D16B68102B21D1D9F80430102B83
:101370001DD1104B53F821E00F4B53F822400F4A78
:1013800009AB07CA83E8070044F03001CDE906390C
:10139000CDE90433CDE90273CDE90056424641EA76
:1013A0000E016046FFF7C0FE0DB0BDE8F0830720D8
:1013B000FAE700BF58330000343300002833000040
:1013C0000069704770B586B003AD064685E80E002B
:1013D000FFF7F6FF442804463AD8726800EB800312
:1013E0009A4203D0062343439A4233D10B9BB3EB7B
:1013F000440F2FD10E9A93422CD1F368012221463B
:101400003120FFF77DFC96E807000123CDE900338A
:101410002346FFF717FD08230AAA009307CA2346AD
:10142000FFF7B3FC0C23009395E807002346FFF772
:101430007BFC0A230DAA009307CA2346FFF7A5FCED
:10144000FFF7F2FC002814BF0320002006B070BD97
:101450000120FBE70720F9E70138C0B206289ABF50
:10146000014B185C00207047343400000138C0B2D2
:1014700006289ABF014B185C002070473B340000DF
:101480000138C0B206289ABF014B185C0020704793
:10149000423400002DE9F04F8146BBB003A880E83C
:1014A0000E0009F1FF339DF810A1049F0D46DDF8F1
:1014B0001480062B00F2E480DFE803F0041E242AE7
:1014C00030363C006F4B1B68D80703D401203BB07B
:1014D000BDE8F08F012307930023BAF1010FCDE996
:1014E00008332DD0BAF1020F00F093804846FFF781
:1014F000C7FF6324064630E0624B1B689907E5D5B9
:101500000223E8E75F4B1B685A07DFD50423E2E7B5
:101510005C4B1B681B07D9D50823DCE7594B1B68BC
:10152000DE06D3D51023D6E7564B1B689C06CDD5D7
:101530002023D0E7534B1B685806C7D54023CAE782
:10154000504B1B68D903C1D5079B484643F4C06381
:101550000793FFF781FF0324064613230422009319
:1015600007A94FF0005312A8FFF71CFD48F00053E5
:10157000009429463A46FFF715FD4FF00C0B05463F
:101580000024DDF81481469B0BFB038BD8455ED10C
:10159000BAF1030F0BD14846FFF772FF02464846E7
:1015A000FFF764FFBA426BD10138204268D1002CAA
:1015B0005ED10323224600932846234608A9FFF75D
:1015C000F1FC04240546103D2846FFF701FD2146A5
:1015D0002846FFF708FD489AB24228BF3246144613
:1015E000002A4BD00023479900930AA8499BFFF794
:1015F000D9FC321B04D0002300931946FFF7D2FC1C
:101600001038FFF7E5FC12A80AA9FFF7BBFC002081
:101610005DE71C4B1A6892037FF558AF1B68DB032C
:101620007FF554AF77B17C4204F00304079B484632
:1016300043F4E0630793FFF70FFF240244F0A30491
:1016400006468AE7B846042708AD3C46EEE7D8F8D8
:10165000042014444AB1032300932846D8F80830E4
:10166000D8F80010FFF79EFC054608F10C088DE73E
:1016700014F0030418BFC4F10404A4E70AA8B8E7EF
:10168000072024E70C04024C70B58AB007AC84E84C
:101690000E0003AD064694E8070085E80B00012321
:1016A00002930EAB01930323009394E80E0030469F
:1016B000FFF7F0FE0AB070BD01F098BD82B02DE9D1
:1016C000F0418AB005AD85E807001193079B149C93
:1016D0005B0036D4DDF81880139B444528BF444690
:1016E00013F08053129A02D1944228BF144644B397
:1016F0000F2C14D9029412AB93E803008DE8030079
:10170000119B95E80700FFF7CFFBFFF705FCFFF7FC
:101710000FFC0AB0BDE8F04102B0FFF71BBC059E0C
:10172000119F9BB10025A8EB0502042A3B6828BF46
:101730000422701909A90435099301F04CFDAC424B
:10174000F1D80AB0BDE8F04102B0704722463946F0
:1017500030460AB0BDE8F04102B001F03CBD2422A1
:10176000002101F043BD38B514460D462422002166
:1017700001F03CFD24F04002802A034602D0B4F57B
:10178000807F08D11846E20840F8044B294601F052
:1017900022FD002038BD6FF01F00FBE730B50129A6
:1017A000016808BF012521F0400418BF0225802CE4
:1017B0008BB002D0B1F5807F25D1C90802910021FC
:1017C000CDE90312102204300190CDE90521CDE9C5
:1017D0000732099100F0AAF8044670B9012D07AA52
:1017E00004A901A80CD1FFF751FC054600F0B4F89C
:1017F00060B9002D18BF6FF0240420460BB030BD37
:10180000FFF758FCF1E76FF07104F6E76FF024047E
:10181000F3E72DE9F04F824691B088469946164687
:1018200012B31568DAF8003023F04002802A02D0A3
:10183000B3F5807F71D1DB08002405931023CDE937
:1018400008341B9BCDE906490AF104024344049283
:1018500002930DF11C0B444508D3002E63D00020E9
:10186000356011B0BDE8F08F1546DBE75DB11B9B1D
:101870001A9A1B5D525D013553401C9A05F00F0505
:1018800013550134E7E7A8EB04070F2F1ED91B9B64
:1018900027F00F072344CDE90A371C9B0C952344FE
:1018A000CDE90D370F9500F041F80028D9D1CDF8DA
:1018B00000B05B460DAA0AA904A8FFF70FFC03902D
:1018C00000F04AF860BB039B53BB3C441B9B1F19B1
:1018D0001C9B1C44029BBB4201D14446BBE78DB913
:1018E0001A9B4A4601215046FFF758FF0028B8D1FD
:1018F00009F1100212F8013D0133DBB213700BB98C
:101900009145F7D11A9A17F8013B525D01355340C2
:1019100004F8013B05F00F05DCE76FF07100A0E76C
:101920006FF024009DE730469BE70000094B002044
:101930009A6E42F400529A66D3F8602242F0010295
:10194000C3F86022D3F8602242F00202C3F860229A
:10195000704700BF00800040094B00209A6E22F4BF
:1019600000529A66D3F8602222F00102C3F8602286
:10197000D3F8602222F00202C3F86022704700BF51
:101980000080004000207047002070470020704712
:1019900000207047002070470020704701207047EA
:1019A00028231B68186970472823186870474FF46C
:1019B000004070470120704741F206007047000068
:1019C00010B5ADF50A7D4FF4027208A9002000F0B1
:1019D00061FC40F20124002108A800F0A0FBA04215
:1019E000F9D040F20323984204D040F205400DF5AF
:1019F0000A7D10BD9DF8203059070DD49DF8203088
:101A00009A072CD4DB07F0D50B99869800F0B6FC2A
:101A10000028EAD00020EAE7129800F017FA002820
:101A2000ECD0FFF777F8164B044698420BD11C22F6
:101A3000002101A801F0DAFB68460094FFF788F85E
:101A4000B0F5403FD1D0869800F054FC0028D5D0A6
:101A5000FFF7ADFF00F00CFA0028CFD1C5E7282230
:101A60001268099992689142CCD9869800F060FC7E
:101A70000028BAD0FFF79BFF119900F0BDF9B4E739
:101A8000000003434FF488207047FFF799BF000020
:101A9000004870474CE30700004870476CE30700BC
:101AA0000048704786E207004FF4003208B5044B47
:101AB0009A66FEF753FEB0FA80F0400908BD00BFF9
:101AC00000900040072BF8B506460F4614461D4609
:101AD00001D90020F8BD01212020FEF7CBFD012116
:101AE0002120FEF7C7FD8CB144EA06039B07F0D125
:101AF0004FF40032064B31469A66284623463A4652
:101B0000FEF794FEB0FA80F04009E3E70120E1E738
:101B100000900040134610B562B103439B070BD100
:101B20004FF40034054B9C66FEF742FEB0FA80F09D
:101B3000400910BD0120FCE70020FAE700900040BA
:101B4000C0F30C032DE9F04105460F4616460BB9CC
:101B5000FFF7AAFF05F5005424F4FF5424F01F04F6
:101B600005EB0608A04507D8324639462846BDE8A9
:101B7000F0410223FFF7A6BF2046FFF795FF04F5CB
:101B80000054EFE737B5044615460191FFF70CFF07
:101B90000369A3420BD8426963199A4207D32A46C4
:101BA0002046019903B0BDE83040FFF7C9BF03B03C
:101BB00030BD2DE9F041154607468846FFF7F4FE93
:101BC0000646FFF7F4FEC4196319B3F5002F0FD8CA
:101BD0003FB9FFF7ECFE7369834202D93069FFF722
:101BE00063FF2A4641462046BDE8F041FFF7A8BF03
:101BF000BDE8F0817FB50346D0B16D460D4A02F1D4
:101C000010062C4610685168083203C4B2422546BB
:101C1000F7D15A1E0DF10F010F3311F8010912F817
:101C2000014F844204D19A42F7D1012004B070BD23
:101C30000020FBE749340000036913F0FE0F0CBFDE
:101C400001200020704738B504460D46FFF7D2FF4B
:101C500048B16369012B09D12046FFF7EDFF08B1B8
:101C6000A3692B6038BD01202C60FBE70020F9E759
:101C700040F204632DE9F041A4B0446B054608939B
:101C8000FFF792FE06462046FFF7B4FF18B9002082
:101C900024B0BDE8F0812046FFF7CEFF0028F6D043
:101CA000FFF77AFE002849D14FF00008D8F83470C9
:101CB0003846FFF79FFF0028E9D03369403B9F4239
:101CC000E5D820460DF11F018DF81F80FEF70FFAB1
:101CD0000028DCD0204609A9FFF7B5FF0028D6D0A0
:101CE000099B32699A42D2D8AB42D0D3B3F5002FC8
:101CF000CDD80AA8FEF796FB099A2946521B0AA8D6
:101D0000FEF7A6FB0AA8FEF7A5FB099A203203926C
:101D1000FFF740FE0999039AC8B19DF81F30A3B19F
:101D2000A36B03F12400009004330AA8FEF7FEFA27
:101D300008900898B0FA80F04009A9E70121206ACC
:101D4000FEF7D2F90028AFD1A1E7BB6BE9E7CDE9F7
:101D50000421FFF79DFE0390FFF79EFEDDE90332AD
:101D600005990090E1E70000F8B5D0E9006706F1B9
:101D700060460446456BFFF717FEB6F5004F01D9E4
:101D80000020F8BD0369BB42FAD8B7F5002FF7D899
:101D90004033AB4202D8B5F5002F05D9FEF768FAFB
:101DA00080F00100C0B2ECE7FEF762FA20B12046F5
:101DB000BDE8F840FFF75CBF2846FFF71BFFB8B14E
:101DC0002846FFF739FF0028DAD06B69002BD8D0FE
:101DD000022BECD1AB69C4F1040119444FF0FF327E
:101DE0002046FEF747FA034BC31A58425841C8E74A
:101DF0000120C6E7E320BBDE30B54FF0FF3289B0EB
:101E000005460C46FEF736FA0E4B984217D1FEF700
:101E10006DF940F2022000F0D6F81C22002101A842
:101E200001F0E4F9084B294668460093FEF776FD79
:101E300068462146FEF772FD6846FEF779FD0020F0
:101E400009B030BDE320BBDE010006434FF0FF3395
:101E500013B5044601A80193FEF71CFE30B9019B9F
:101E6000A3422CBF0020012002B010BD0020FBE7E0
:101E700010B5044688B040F2022000F0A4F81C22FD
:101E8000002101A801F0B2F9054B214668460093F4
:101E9000FEF744FD6846FEF74BFD002008B010BD7C
:101EA00000000343B1F5027F10B504460FD34FF491
:101EB0000272002101F09AF904F5C87204F5A471C8
:101EC00004F12C000023BDE8104000F0C4BC40F237
:101ED000052010BD13B50446009101462C3000F0DA
:101EE000FBFCC4F8040218B141F20703984209D17F
:101EF000A3784BB140F2032040F20223E278002A9B
:101F000008BF184602B010BD40F20120FAE72DE9E3
:101F1000F04387B00DF1080904460E46174600212C
:101F2000102248461D46DDF8388001F05FF9002197
:101F30001C22C8F80010284601F058F932463B46EA
:101F40002146CDF8009004F12C0000F0C5FC237868
:101F50009A0744BF6268C8F80020DB0709D504F17E
:101F6000080304F1240253F8041B934245F8041BB0
:101F7000F9D1237840F20640002B18BF002007B0AB
:101F8000BDE8F0834FF4027070474FF000534CF2FD
:101F90003C325A8070474FF000534AF6C0325A80A4
:101FA00070474FF000534FF20F025A8070474FF0C6
:101FB00000534AF6C0305B8823F00F039BB21B1A14
:101FC0005842584170474FF0005208B51080FFF753
:101FD000EEFF10B94FF20F03538008BD08B5FFF7AD
:101FE000E6FF20B14FF00053588800F00F0008BD05
:101FF00008B5FFF7DCFF50B14FF00052538803F0F3
:102000000F010F2914BF013323F00F03538008BDC4
:1020100008B5FFF7D8FFBFF34F8F0549054BCA68D6
:1020200002F4E0621343CB60BFF34F8F00BFFDE7C4
:1020300000ED00E00400FA0508B5FFF7B8FF30B97D
:102040004FF000534FF20F015A888A4203D14FF0EC
:102050000053188808BD3AB91B8840F20220012BB2
:1020600018BF4FF40070F5E74FF40070F2E700007E
:1020700031B10A4B5A68824205D80023C1E90033C6
:1020800040F201407047013053F8302003EBC000AC
:1020900043680A6000204B60704700BF10330000A7
:1020A00001221A707047000070B40C4611460C4AA9
:1020B000556885420DD9013002EBC0067668E518F7
:1020C000B5420AD852F830001A46204470BCFEF7D8
:1020D000A5BD40F2014070BC704740F20240FAE7F3
:1020E0001033000030B504460D46A3B0D0F80012FE
:1020F00002AA8023D0F8F801FFF7D6FF80232146FB
:10210000009502AA04F12C0000F0E6FBD4F800329E
:10211000C4F804028033C4F8003223B030BD1FB5C8
:102120000023CDE90033CDE90213D0F80432044690
:1021300093B9D0E97F329A420ED26946FFF7D2FFB7
:10214000D4F8040298B141F2070240F20123904210
:1021500008BF184604B010BDA3785BB140F202205E
:1021600040F20323E278002A18BF1846F2E740F253
:102170000120EFE740F20220ECE7000070B50D46C9
:10218000002186B00DF1070302931F4B044616464B
:10219000116028461C22CDE903338DF80710059302
:1021A00001F024F894F87230142B28D0D4F80432BB
:1021B0002BBBD4E97F21914207D2204602A9FFF729
:1021C00091FF9DF80730002BECD02278910744BF97
:1021D00061683160D20709D504F1080204F12401D5
:1021E00052F8040B8A4245F8040BF9D14BB9237815
:1021F00040F20640002B18BF002006B070BD00233F
:10220000E3E70020F9E700BFA120000070B40C460E
:1022100011460C4A556885420DD9013002EBC006C3
:102220007668E518B5420AD852F830001A462044BC
:1022300070BCFEF709BD40F2014070BC704740F22F
:102240000240FAE710330000074B5A68824207D970
:10225000013003EBC002516853F83000FEF715BDA2
:1022600040F20140704700BF1033000010B5044633
:1022700060B14FF480320023C0E90023044B1A7888
:102280005B680272C360FEF7B3FC206110BD00BF43
:102290001033000037B50C46054611462046FFF7BF
:1022A00001FE48B969462846FFF7E2FE20B9019BC6
:1022B000C4F8F851C4F8FC3103B030BD38B500F5AE
:1022C000C87204460D46202300F5A4712C3000F09E
:1022D000C2FAD4F804321BB9D4E97F329A4203D34C
:1022E000A07800B1E07838BD29462046FFF7FAFE15
:1022F000EFE7000000B5ADF5077D4FF4027204A9C9
:10230000FFF7C8FF78B904238DF81130074BCDE9EA
:1023100000000290694604A80393FFF7CFFF0DF574
:10232000077D5DF804FB0020F9E700BFB31B000048
:1023300030B5ADF5077D0D460446FFF735FB8368E4
:10234000AB4203D300200DF5077D30BD4FF4027280
:10235000204604A9FFF79EFF0028F3D102238DF841
:102360001130054BCDE900000290694604A80393A3
:10237000FFF7A4FFE7E700BFB31B000000B5ADF512
:10238000077D4FF4027204A9FFF784FF78B9012397
:102390008DF81130074B0090CDE90130039069466C
:1023A00004A8FFF78BFF0DF5077D5DF804FB002007
:1023B000F9E700BF851B00002DE9F0419AB05022DB
:1023C00004460D4606A8002100F010FF142200214B
:1023D00001A800F00BFF01A8FFF748FF049B012BA9
:1023E00011D8002320466A1E9D424FEA82024FF018
:1023F000FF0108BF1A4640F8043B00F0F7FE00203A
:102400001AB0BDE8F081AB4258D3FFF73BFB059B08
:102410000C2206A90646DF68FEF700FC0028EFD173
:10242000DFF8A480069B434515D1089A06A93046DB
:10243000FEF7F4FB4FF0FF32089906A8FDF71AFFEC
:10244000204B984226D0FF212046AA0000F0CEFE65
:1024500040F20550D4E737440C22384606A9FEF76F
:10246000DDFB0028CCD1069B4345ECD106A93846BC
:10247000089AFEF7D3FB059B3046D968FEF705FCAA
:102480000028BDD13046089A06A9FEF7DDFB0028DA
:10249000CBD0B5E7089E09A9103EB608AE4228BFCA
:1024A0002E46B7003A46204600F095FEAA1B920041
:1024B000B54238BF0022FF21E0199EE740F20450E8
:1024C0009EE700BFE320BBDE39528FE12DE9F043E8
:1024D0009BB00C4644220021814609A800F086FEEC
:1024E000012350262D4A0021CDE9062301A81422FC
:1024F000089600F07BFE01A8FFF7B8FE049BA342FC
:1025000049D3012B0AD8D9F8003040F204500133E6
:10251000012B98BF00201BB0BDE8F083FFF7B2FA93
:10252000102C28BF1024059B4FEA8408DF68424620
:1025300049460744054609A800F04DFEC4F11004C1
:1025400006AB08F10C001844FF21A20000F04EFE7B
:102550004C214FF0FF3206A8FDF78CFEC043059BCF
:102560001990D9683846FEF790FB0028D3D132463F
:10257000384606A9FEF768FB0028CCD1059B284603
:10258000D968FEF782FB0028C5D13246284606A945
:10259000FEF75AFBBFE740F20450BCE739528FE127
:1025A00030B597B014220021054601A800F01EFEA8
:1025B00001A8FFF75BFE049C012C1ED9214606A84A
:1025C000FFF7FAFE18B140F2055398420ED10023EE
:1025D00006AA52F8041B481C0AD116AA02EB830370
:1025E000214643F8405C06A8FFF770FF17B030BDE6
:1025F000A94205D001339C42EBD140F20250F5E7ED
:1026000040F20350F2E770B5D1E90152AA4205D277
:1026100090F840302B449B1A402B10D9002012E038
:102620000A6890F84040D65C90F84120013322447B
:1026300002F03F02013486548B6080F840408B6882
:102640009D42EDD8012070BD2DE9F8431D46174687
:10265000D1E901329B1A90F84020044613449D4270
:102660000E469DF820909DF8248056D9FFF7CBFFA9
:1026700000285CD1152341F2020084F84630BDE801
:10268000F88394F84120A25CFA5494F84120013375
:10269000013202F03F0284F8412094F84020013AD0
:1026A00084F8402094F840200AB19D42E9D1D6E94F
:1026B0000121914201D29D4231D89D42DAD1294671
:1026C0003846D4F88820FDF7D5FDC4F88800B9F164
:1026D000000F04D02A463946E06CFDF7B9FEB8F188
:1026E000000F08D094F843308BB12B463A46394658
:1026F000A06CFDF709FE94F8433043B1E36DA26D81
:102700002B449342E36524BF002384F84330636D78
:1027100041F203002B446365B1E70023C2E732684E
:10272000525CFA54B26801330132B260BFE7002054
:10273000A5E700007FB50023CDE900330823154647
:102740000DEB03020446FFF77FFF41F203039842BB
:10275000064626D194F8433063B10822E06C0DEBB5
:102760000201FDF775FE08230DEB03021146A06C74
:10277000FDF7CAFD039A029B6A6094F843202B6020
:102780005AB9094A934208D0084A934205D0082210
:10279000E06C0DEB0201FDF75BFE6B682365002327
:1027A0006365304604B070BDF70A0AF7FC0404FC08
:1027B0002DE9F347044658680D469046994600288F
:1027C00043D08B0744D1FFF7EBF8216E031D08EBD4
:1027D000010C63451DD800F11C07B94219D28B4288
:1027E0001E4638BF0E46BC4594BFC6EB0C02C6EB76
:1027F0000702711AF61A05EB010A06F16800514644
:102800002044019200F0E7FCFF215046019A00F0BD
:10281000EDFCFFF7CCF8226E031D93420BD308EBBF
:1028200002010830814206D39B1AEA58C4F880207E
:102830004FF0FF32EA504246D9E90036206E294671
:10284000B0470020226E4244226602B0BDE8F08705
:1028500041F20200F9E72DE9F04100264FF0FF3880
:1028600004460F46154603F0200380F84230182234
:10287000FF21C0E91866A0F8406080F84360A0F826
:10288000446080F84660C0F88880683000F0AEFC94
:1028900088223146C4E91275C4F88080C4F8848067
:1028A00004F1900000F0A2FC84F81861FFF770F8C2
:1028B00020B11FB941F20B00BDE8F081FFF766F8C7
:1028C00030B1002DF6D0E06CFDF7ACFD0020F3E751
:1028D000002DF8D12846EFE72DE9F04F0027B7B0DB
:1028E000CDE90923D7F83490029304460E46409D63
:1028F0000B97FFF759F80369403B994500F2E480D4
:10290000B8460B9A029B9A425ED294F84630152B39
:10291000F8D8DFE813F08C00A5008500D6005B0036
:102920004200390077024200710242005802420020
:10293000710276034B041600E103E5030104FA0279
:102940004B044FF0000A636D0F2B6ED80127102344
:102950000CAA2046CDF804A0009709A9FFF774FE41
:1029600041F203030690069A9A426BD1D4F848B01C
:10297000FFF796F880230221CDE900030DAA3B461C
:102980005846FDF793FCDEE70127D4E914329A425A
:10299000C0F0A08184F84670B3E74FF0010AD4E993
:1029A0001473BB420B9940D20A9AFF1A94F8403034
:1029B000521A032F1A4440F22982032A00F2298274
:1029C000204609A9FFF71FFE0020B4E00127636D30
:1029D000072B96D808230CAA2046CDE9007709A931
:1029E000FFF732FE41F203030690069A9A4229D17C
:1029F000337843F0020333700C9B7360236D083B04
:102A000073620D9B0593002B5BD1052284F8462051
:102A100094F84520636642F0010284F84520D6E729
:102A20000027636D072B40F20481012315E007AAFC
:102A3000204609A9FFF77EFE41F203030690069A9D
:102A40009A4201D0069876E0089B079A23650023F6
:102A50006365944B9A4234D1022384F8463050E7A0
:102A600007AA204609A9FFF765FE41F20303069075
:102A7000069A9A42E6D194F84420079B22B18A4AEA
:102A800093421ED10E23E8E794F84220D7075AD587
:102A900094F84320002A56D184498B4200F0BD802F
:102AA00020D8834A93420CD011D8824A934200F036
:102AB000AD801ED87B4A934203D002F1B6429342C6
:102AC00017D1152384F8463041F2010033E07A4AE9
:102AD00093422BD00DD802F17E42023A9342F0D0BD
:102AE000764AECE776498B4217D00BD875498B4272
:102AF00015D0152307A884F84630FEF743FF0028B9
:102B0000E2D116E0684A934218D0013A9342F0D9D4
:102B10006D4A9342D5D06D4AD1E710239DE711232A
:102B200084F84630236DC4E91632EAE6152384F8AA
:102B3000463041F2080037B0BDE8F08FFEF726FFBF
:102B400000289FD0BDE75D4A934256D037D8584AF7
:102B5000934250D02ED802F1D54202F5E01202F68F
:102B6000F742934245D0534A93424AD007A8FEF712
:102B700009FF002853D01423079884F84630C4F87E
:102B80008C00FEF701FF94F84230804698067FF5EE
:102B9000B8AEB8F1000F3FF4B4AED8F80430002B53
:102BA0003FF4AFAE204698470690069B002B3FF4BB
:102BB000A8AE89E7464A9342D8D104234DE7424A5A
:102BC00093421CD010D8394A934221D0364A9342BE
:102BD000CCD1FEF7DBFE00287FF473AF94F84330CE
:102BE000002B3FF44FAF6CE7384A9342BED1092324
:102BF00033E70B2331E706232FE707232DE70D23C8
:102C00002BE794F84330002B7FF45BAF122324E7CB
:102C100094F84330002B7FF454AF13231DE71523A2
:102C200084F8463094F84330002B82D041F20400FF
:102C300081E701230CAA009320460823019709A9E4
:102C4000FFF702FD41F203030690069A9A427FF4D1
:102C5000F9AE0C9B03F07F43B3F1407F05D0152301
:102C600041F2090084F8463065E70D9BD9070593CA
:102C70000ED594F8423043F0010384F84230FEF759
:102C800085FE00283FF4CDAE059BDA0504D5C8E6E5
:102C9000FEF77EFE0028F2D0152341F20A0084F8E8
:102CA000463048E7EB17A603FC0404FCF70A0AF7D2
:102CB000F40A0AF4F30B0BF3F70909F7F60808F620
:102CC000FA0606FAF90707F9FD0303FDFE0101FE06
:102CD000F50909F50CAA2046CDE9007709A9FFF707
:102CE000B3FC41F203030690069A9A427FF4AAAE1F
:102CF00006F1080A53460DF1300C0DF1480E6246FC
:102D000003CA724518605960944603F10803F6D16E
:102D1000106818603378504643F001033370FEF7B3
:102D200049FE28B9152341F20C0084F8463002E729
:102D300000215046FEF732FE00287FF426AEF1E770
:102D400001230EAACDE900332046082309A9FFF785
:102D50007BFC41F203030690069A9A427FF472AE1E
:102D6000337843F0040333700F9BB36273785B07CF
:102D700026D5EB238DF8303017238DF83130A6237C
:102D80008DF832305E2300208DF83330236D60667D
:102D9000C4F8843094F8453043F0020384F8453099
:102DA000EF686FB104222B680CA9B8470822606E47
:102DB0002B68EF680EA91044B847636E1033636642
:102DC0000C2384F84630636D072BB9D999E50423A9
:102DD0000CAA2046CDE9007709A9FFF735FC41F29E
:102DE00003030690069A9A427FF42CAE226D0C9B48
:102DF000042A059301D923660127636D032BE6D9C5
:102E00000A232AE600236366082326E697423FF654
:102E1000D7AD402F28BF4027974228BF1746032F22
:102E200088BF27F003073B460CAA2046CDE900AA3D
:102E300009A9FFF709FC41F203030690069A9A429A
:102E40007FF400AE94F84630082B04D1D5F808B0D2
:102E5000BBF1000F22D1042FC7F1040B88BF4FF044
:102E6000000B03930CAB5A46D819FF2100F0BEF9B2
:102E7000039BBB440A2B1AD16B683BB1012106F1BD
:102E80000800FEF78BFD00283FF44CAF2B465A4656
:102E900020460CA9FFF78CFC069080E53A462B688B
:102EA000606E0CA9D847626E3A44626677E5052BDE
:102EB00020D173789F077FF572ADEB68002B3FF44C
:102EC0006EAD626E042A0BD80BEB0203062B07D9FA
:102ED0000DAB9B1A1A68C4F884204FF0FF321A60B9
:102EE000EF685A462B68606E0CA9B847676E5F445E
:102EF000676654E50C2B7FF452AD737858077FF565
:102F00004EADEF68002FECD149E594F842309906B8
:102F100007D5D4F88C00FEF737FD804600283FF433
:102F2000D3AD6B683BB1012106F10800FEF736FD19
:102F300000283FF4F7AE4FF0010A43E0002B5ED0CB
:102F4000B8F1000F5BD0D8F81030002B57D02046D6
:102F50009847DDE90A73FF1A94F840303B449842E1
:102F60003FF62EADD4E91472BF1A402F28BF402778
:102F70009F4228BF1F460CAA3B462046CDE900AA27
:102F800009A9FFF761FB41F203030690069A9A42F2
:102F90007FF458AD94F842309A0613D5B8F1000F7B
:102FA0003FF492ADD8F808B0BBF1000F3FF48CAD00
:102FB0002B463A4620460CA9D8470690069B002B84
:102FC0007FF440ADD4E9142194F84230914203F0EB
:102FD0002003B3D3002B3FF428ADB8F1000F3FF42A
:102FE00024ADD8F80C30002B3FF41FAD2946204605
:102FF00098470690069B002B3FF417AD22E5012071
:10300000A7E700230CAACDE900332046042309A931
:10301000FFF71AFB41F203030690069A9A427FF4E7
:1030200011ADD4F88820634B9A4205D0152341F2A4
:10303000050084F846307EE5FEF7A8FC002842D162
:103040000123F37094F845309B0707D0EF682FB148
:1030500004222B68104604F18401B847236E002B2C
:1030600034D06B6893B34FF0FF3304F18001042236
:1030700005A80593029100F09FF840B1FEF797FC78
:1030800028B1D5E90037042202991044B84704F169
:1030900068070422394605A800F08EF8B0B1D5F8CB
:1030A0000480FEF77DFC2B6804F16C0114220830CB
:1030B000C047D5F80480FEF773FC042239462B681C
:1030C0001044C04702E0F378002BBBD10123B3705A
:1030D0000F2384F8463077E4012384F84330BCE4BE
:1030E00094F81831002B7FF40CAC4A461CAB2046F8
:1030F00009A9FEF761FC41F206030690069A9A427E
:1031000003D1152384F846309CE441F20303069A68
:103110009A423FF4F6AB95E494F84430002B7FF4E8
:1031200084ACCDE900330CAA4023204609A9FFF75F
:103130008BFA41F203030690069A9A427FF482AC1E
:10314000E06CFDF787F994F81831A3B104F1B403EA
:10315000009304F19403E06C14AA0CA9FDF7E6F8BF
:103160000690069BEBB10023F370152341F2060095
:1031700084F84630DFE4FEF70DFC30B1D9F8383082
:1031800003F1240200920433E5E7E76CFEF780FCCC
:103190000390FEF781FC039B009014AA38460CA90B
:1031A000DCE70123F37084F844303EE441F2070089
:1031B000C1E400BFE320BBDE30B50024A24201D150
:1031C000002007E0035D01340D1915F8015CAB42E6
:1031D000F4D0581B30BD431E0A4410B5914200D1B3
:1031E00010BD11F8014B03F8014FF7E70244034605
:1031F000934200D1704703F8011BF9E7F8B500BF0F
:10320000F8BC08BC9E467047F8B500BFF8BC08BCC7
:103210009E46704707B0CD5E0100000000000C0123
:10322000B03400000060000000000800F000010061
:10323000F3000000F7000000691D0000A51E00005B
:10324000D51E00005C3400000F1F0000851F000029
:103250000000000013B779FAC925DDB7ADF3CFE060
:10326000F1B614B80101000000000000AC34000009
:103270004000000000000C01000000000000000001
:10328000000000000000000000000000000000003E
:10329000000000006A09E667BB67AE853C6EF3720A
:1032A000A54FF53A510E527F9B05688C1F83D9AB11
:1032B0005BE0CD198000000000000000000000006D
:1032C00000000000000000000000000000000000FE
:1032D00000000000000000000000000000000000EE
:1032E00000000000000000000000000000000000DE
:1032F0000000000001020300280000002800000078
:10330000002000000000080020330000040000003E
:103310000100000001000000004004000000030064
:10332000454652333200000000000000000000005B
:103330000000004000010000000200000004000046
:103340000008000000100000002000000040000005
:1033500000800000000001000000000001000000EB
:10336000FFFFFFFF00000001000000000000000060
:1033700000000000FFFFFFFFFFFFFFFFFFFFFFFF59
:10338000FFFFFFFF00000000FFFFFFFFFFFFFFFF49
:10339000BCE6FAADA7179E84F3B9CAC2FC632551F7
:1033A0006B17D1F2E12C4247F8BCE6E563A440F28A
:1033B00077037D812DEB33A0F4A13945D898C296CF
:1033C0004FE342E2FE1A7F9B8EE7EB4A7C0F9E168C
:1033D0002BCE33576B315ECECBB6406837BF51F53D
:1033E000FFFFFFFF000000010000000000000000E0
:1033F00000000000FFFFFFFFFFFFFFFFFFFFFFFCDC
:103400005AC635D8AA3A93E7B3EBBD55769886BC31
:10341000651D06B0CC53B0F63BCE3C3E27D2604B88
:1034200060330000C0000000000000000000100039
:103430002000000010141C203040204040404080FC
:10344000804010142020404020B814B6F1E0CFF3A3
:10345000ADB7DD25C9FA79B71300000000010000FF
:103460006D22000071200000A92000000D22000044
:1034700049220000CD240000B9230000A12500004E
:10348000952200001F2100007D2100000D0C00008E
:103490001D0C0000490C00008B0C0000850C000086
:0434A0000000000028
:0834A40065000000410000007A
:04000003000000A158
:00000001FF
