:1000000000800020A10000009D000000FB00000017
:100010009D0000009D0000009D0000009D0000006C
:100020009D0000009D000000DC3100009D000000EC
:100030009D0000001C3200009D0000009D0000009B
:1000400010B5054C237833B9044B13B1044800E0D4
:1000500000BF0123237010BD080100200000000034
:10006000A834000008B5034B1BB10349034800E066
:1000700000BF08BD000000000C010020A8340000F3
:10008000044B054A9A60D3F8882042F47002C3F802
:100090008820704700ED00E000000000FEE700004F
:1000A00008B5FFF7EDFF00F077F80A4A0A4B0B4955
:1000B0008B4206D300210A4B0A4A934206D300F032
:1000C00021F852F8040F43F8040BF1E743F8041B3E
:1000D000F3E700BFA8340000000100200801002061
:1000E00008010020280100200020704770470120EF
:1000F000704700F051BC00F0ABBC4FF4017001F050
:1001000043BF0000204B13B51B68C3F30743012B0B
:1001100010D11E4B4FF48022596E41F26400490306
:100120004FF0040458BF42F264011A5018480460AA
:1001300058BF5A504FF040234FF400621A67D3F86B
:100140008420D206FBD4FFF7D4FF01F016FF01F0A4
:1001500090FC30B940F2012001F016FF4FF401701D
:100160000AE00C4B0193019B002B0ADC40F2054393
:100170009842F3D140F2032001F006FF002002B0C4
:1001800010BD019B013BEDE70080E00F00800040C7
:100190002020014000350C0013B501244FF040230E
:1001A0008DF806408DF80740D3F894305B060FD5E4
:1001B00001F002FFA0F2022080B2072808D8844094
:1001C00014F0C90F1EBF00238DF806308DF80730DC
:1001D00046F204031B68013308D14FF4027001F0AA
:1001E000C5FE00238DF806308DF807309DF80730E6
:1001F00063B14FF4C04001F0A5FD8DF806009DF8F5
:1002000006301BB94FF4027001F0B0FE9DF80630C5
:1002100063B14FF4C043064A93601846016881F306
:10022000088881F3098840688746FEE702B010BD60
:1002300000ED00E00020704730B541F2640308256E
:10024000094C0144E55001240025084B5C609D6089
:100250001A611A46DC60884201D1586A30BD10F834
:10026000014B1462F7E700BF0080004000800840A7
:10027000F8B51D460F4641F268034FF4005116468B
:10028000114A0446D150022302F59352136001F043
:1002900024F9DDE90612204601F023F9002384F851
:1002A0003870636232682B0CC4F839207268C4F865
:1002B0003D20B26884F845302B0AC4F8412084F808
:1002C000463084F84750F8BD0080004030B51D46E8
:1002D00085B000F12803CDE90112009300F124025A
:1002E00000F13803294601F04EF905B030BD000099
:1002F0002DE9F041B0B0369C064600286BD00029AD
:1003000069D0002A67D0002B65D0002C63D006206E
:100310004FF40057069041F26800304D01F120087B
:100320002F5003252E4820AF056000200D46BE4605
:1003300009900C900F90F446286869680835ACE87D
:1003400003004545E646F6D10DF1A00C02F1200E62
:10035000654610685168083203C57245AC46F7D14E
:100360000DF1400C654603F1200E2A4618685968C5
:10037000083303C273451546F7D1234618AC03F181
:100380002005224618685968083303C2AB42144658
:10039000F7D140230893CDE90A7320230AAA0E93CC
:1003A00003AB07CACDF81CC00D9683E8070007AB66
:1003B00093E807008DE807000DAB0ECB094800F06D
:1003C000BFFE0690069B40F20460002B08BF002091
:1003D00030B0BDE8F08140F20160F9E700800040F4
:1003E00060920040883300004FF4005141F26802EF
:1003F000074B10B599500222044603F593531A6037
:1004000001F07EFA2046BDE81040002101F0A0BABC
:100410000080004001F0A6BA014601F0A5BA000034
:10042000430910B507D0012B0FD00A4C0A4A022B02
:1004300014BF2346134600F01F0041B103F580535B
:10044000012202FA00F0186010BD044BF3E703F537
:100450000053F5E7608200406880004064800040FF
:1004600070B50D4C0D4E0E4DF36913EA050208D020
:100470000C4A1A40002A14BF6FF001004FF0FF3001
:1004800070BD03408B4204D0013CEDD16FF00200FF
:10049000F6E71046F4E700BF80969800000003409E
:1004A000060001000200010070B5134C6061E069B4
:1004B00043071DD40E1D0968151FA1615DB90423F2
:1004C000294623612120FFF7CBFF58B9BDE87040D2
:1004D0002120FFF7C5BF08210846FFF7C1FF10B173
:1004E0000423236170BD56F8043B043DA361E5E796
:1004F0004FF0FF30F6E700BF0000034038B54FF47F
:10050000003141F26803104A104CD15041F671336A
:10051000E5690122E36341F20C03E25002236061CA
:1005200000212361212005F48035FFF799FF18B9D8
:1005300001462120FFF794FF42F20C030122E25012
:100540000DB10023E36338BD00800040000003408C
:100550002DE9F84341F2680388464FF4003115460F
:10056000174A0646D15041F67132164B0121DF6918
:10057000DA6341F20C02DFF8509007F480379950AB
:1005800055B9284642F20C0201210E4B99500FB189
:100590000022DA63BDE8F88306F5005404EA090492
:1005A000A41BAC4228BF2C46414622463046FFF7EA
:1005B0007BFF0028E6D12644A0442D1BE0E700BFC6
:1005C000008000400000034000E0FFFF2DE9F04FF5
:1005D0004FF0010C41F204044FF440262F4D4FF42C
:1005E000003E45F804C02E4C2E4F44F820603026C3
:1005F000002406FB0056F4653466346741F2680453
:1006000047F804E041F67137274C0CFA00F0D4F8B3
:100610001CE0E763E768DFF8988047EA0C07AC4620
:10062000DFF89090DFF890A0E7604BB9E2681EF425
:10063000803F22F00102E26000D0E36318462AE026
:1006400001F5005525F4FF5525F01F056D1A9D4253
:1006500028BF1D466161D4F81CB0AF081BF0040F21
:1006600017D1013F3F0147F0605777660F4FB266E1
:10067000F766C8F80000DCF834703842FBD0042775
:10068000C9F800002944CAF800002A4427615B1B0E
:10069000CBE74FF0FF30BDE8F08F00BF0000044013
:1006A0000040044000800040000003401800034068
:1006B000241004403420044028100440C369032B54
:1006C0009FBF00EB83020133D160C361704700001C
:1006D000C1692DE9F043042967D84FF4803441F211
:1006E0006403334A334D566E334FD450334BC5F801
:1006F0000036C5F80476F5035CBF42F26405545138
:100700002F4A304E1A60024652F80C4B5C600024AF
:10071000A14222D1214600226FF00308456815BB93
:100720001346264A43EA046393601368506892684C
:10073000434053408900234A8819824231D1735083
:10074000BFF34F8F2049214BCA6802F4E062134384
:10075000CB60BFF34F8F00BFFDE752F8043B46F874
:1007600024300134D4E72B68A1EB020E08FB023CD5
:10077000134606EB8E0E881AAF68A3EB0209C7F387
:1007800099074F4500EB030105D86A68012AC8D0D4
:100790006D681A46C3E75CF823104EF82310013346
:1007A000EAE752F8044B6340C7E7BDE8F08300BFB7
:1007B0000080004000C00740004E00A0004C00A098
:1007C000DEC0ECE50C4C00A000ED00E00400FA05F2
:1007D000154B4FF48032586E41F26401C00358BF8C
:1007E00042F2640010B55A501049D1F8041658BFAF
:1007F0001A500A680E4B9A4213D10B690533B3F5B0
:10080000007F0ED2002214469A4205D351F82300ED
:10081000031B5842584110BD51F822000132444098
:10082000F2E70020F7E700BF0080004000C007406B
:10083000DEC0ECE538B50F4B4FF48032596E0446FC
:1008400041F26400C90358BF42F264011A500A48D9
:10085000D0F8045658BF5A5034B1FFF7B9FF30B141
:1008600000206B68236038BD4FF4E020FBE74FF4B5
:100870007E00F8E70080004000C007400B4B4FF4BB
:100880008032596E41F26400C90358BF42F26401DC
:1008900010B51A500648D0F8044658BF5A50FFF712
:1008A00097FF10B1A068C0F3C05010BD0080004099
:1008B00000C007400C4B4FF48032596E41F2640087
:1008C000C90358BF42F2640110B51A500748D0F866
:1008D000044658BF5A50FFF7D1FF08B1E06810BD79
:1008E0004FF47E00FBE700BF0080004000C00740DF
:1008F000F8B5254B4FF48032596E41F26404C903B8
:1009000058BF42F264011A51204CD4F8045658BF23
:100910005A508468FFF7B2FF60B32A6905F11401E9
:1009200051F82230DB4341F82230A86810F47020DF
:1009300011D0A86800F47020F8BD00232768A568CE
:1009400001EB800CC5F39905AB4200EB03060DD01B
:10095000964205D3304684B19042EED30020EBE7B7
:100960005CF8236047F823600133EDE7646824F006
:100970000104EFE74FF47E00DEE7904234BF4FF40E
:10098000E0200020D8E700BF0080004000C0074002
:10099000004870475C32000041F268034FF40031B8
:1009A000014A0020D150704700800040024BD869B6
:1009B00000F00100704700BF0000034008B5034687
:1009C00008469918B1F5002F04D8194602F0E6FB45
:1009D000002008BD40F20240FBE78318B3F5002F6A
:1009E00010B50ED940F2024010BDC45801340AD1EE
:1009F00004339A42F9D801F085F80028F2D000209B
:100A0000F2E70023F5E740F20340EDE74FF0FF3057
:100A1000704738B541EA0003C3F30C0304469BB9A1
:100A20000D18B5F5002F08D8204604F5005401F044
:100A30002FF8A54204D00028F6D140F2024038BD7C
:100A40000028FAD00020FAE740F20440F7E700005F
:100A500042F268034FF40031014A0020D150704740
:100A60000080004013B5044622B10024009400F039
:100A700057F90446204602B010BD000030B501B160
:100A80000139074CE568ED03FCD4120743F000433D
:100A900002F080521843024342EA0121616030BDF6
:100AA0000020024CF0B58DB005AC84E80700069D2F
:100AB0001E469D4228BF1D46129815B30BB3002752
:100AC00000F5181000F241104402CDE90A37631B0B
:100AD00009930CAB43F8185D029593E803008DE889
:100AE00003000CAA059B12E9070000F0A5FCAE422A
:100AF00007D93946721BA01B0DB0BDE8F04000F0CD
:100B000099BC0DB0F0BD30B51D4691B001AC84E884
:100B100007000146DDE90223D8004ABF03326A001C
:100B200022F0030204A8FFF79DFF04A800F00EF9CD
:100B300014992A4601F5181101F241114C02611B6A
:100B4000002308A8FFF78EFF04F5007100232A4652
:100B5000491B0CA8FFF786FF0CA800F0F7F808A9BE
:100B600004A800F0CDF811B030BD10B58CB005ACC4
:100B700084E807000E9A029302F5181202F5A0729B
:100B80005202CDE90923002206AB93E803008DE869
:100B900003000B920CAA059B12E9070000F04CFC25
:100BA0000CB010BD0122054B9A60DA68D203FCD468
:100BB000D86820F00F000004000C70470020024CA1
:100BC0002DE9F04B4FF000088AB003AC84E8070031
:100BD00081461C464646059F07AD07F0805B049B97
:100BE000434502D80AB0BDE8F08B139B13B9B31E7E
:100BF000012B0AD9129BCDE90794099700965BB1A6
:100C000095E807002346FFF74DFFBBF1000F00D129
:100C1000A1440136A044E2E7234695E80700FFF728
:100C2000A4FFF2E782B01FB504AC04E907000A9AFA
:100C3000029907938A4228BF0A46039B0798D90066
:100C400044BF033222F0030222F070410D4A03F048
:100C5000E0431060099A0C4802F0E04242F0005272
:100C60000A430260002243F00053019C0B430749F2
:100C7000426084600B60064B1A6004B0BDE810400F
:100C800002B070470000024C0800024C1800024CF1
:100C90003400024C3F22044B1A60102243F8142CFB
:100CA00003229A60704700BF3000024C024A13686A
:100CB0009B07FCD4704700BF3C00024C034B1B68F1
:100CC00013F0240F14BF0420002070472800024CAA
:100CD00008B5FFF7F3FF084B1B6823F47F4323F0AD
:100CE000EF03002B14BF0423002303431EBF012284
:100CF000024B1A6008BD00BF3C00024CFCFFFF3FE6
:100D0000032208B5054B186019615A63FFF7C2FF4B
:100D1000FFF7CCFFBDE80840FFF7DABF0000024C48
:100D200010B522F0704200F11004C0E90014826096
:100D300041B1826803F0704313438360029BC36038
:100D4000204610BD836843F08043F6E701234360EB
:100D5000C36843F02003C360836843F0005383609B
:100D60007047C368DB0658BFC368C36803F00F034E
:100D7000042B0ED8012202FA03F313F01A0F08D045
:100D8000C36801F01F0143EA0123C360836819446B
:100D900081607047426810B5182A034609D0202A9E
:100DA0001BD0102A28D1154A1268D40109D4012079
:100DB00012E0124A12689001F9D50A6842F008025E
:100DC0000A600F481A6882424FF000000DD10A688D
:100DD00042F040020A60586010BD084A1268520191
:100DE000E5D50A6842F00402EAE7064CA242F3D1D4
:100DF0000A6842F08002EDE70720EDE70404024CA8
:100E0000250100202401002007B50B460749096889
:100E1000C90708D5002100920246084600F024F9CF
:100E200003B05DF804FB0120FAE700BF0404024CA4
:100E300007B50B4607490968C90708D50092012183
:100E40000246002000F010F903B05DF804FB012019
:100E5000FAE700BF0404024C1FB5094C246864077C
:100E60000CD5CDE900120021069C0222CDE9023406
:100E70000346084600F024F904B010BD0120FBE74A
:100E80000404024C37B515464A6804463AB18C68EA
:100E90000093096845EA0403FFF742FF0446204631
:100EA00003B030BD2DE9F04FD3B0CDE902310421BC
:100EB00000238446CDE9051307CA03AE07AB5E9D48
:100EC000619F629C049683E80700BCF1000F40F02C
:100ED000C88031461846FFF75DFF0646002840F0FF
:100EE000BC805D9A0AAB07CA83E807005F9B609AE3
:100EF000494201F00F08002152685B684FF0100A68
:100F000013445B4203F00F097B680D915B42019330
:100F1000AB681291DA0048BF6B68524642BF033398
:100F200023F003036B60A368DB0041BF63680333F6
:100F300023F0030363605F9B5B680093609BD3F8BF
:100F400004B0009B5B444B44CDE90E316B685B42BF
:100F500003F00F03CDE91013636815915B4203F0B2
:100F60000F03CDE9131316AB184602F022F95D9A70
:100F700052685AB97A684AB9009A3AB9BBF1000F77
:100F800004D1D046CDE90A0ACDF830B011234FF094
:100F9000005204A932A8FFF775FF40F611034FF085
:100FA000005207A9FFF76EFF42F611034FF00052FF
:100FB0005C99FFF767FF44F611034FF00052029966
:100FC000FFF760FF412300225F99FFF75BFF4FEAC5
:100FD000092343F041034FF000526099FFF752FF9D
:100FE0004FEA082343F001034FF000520AA9FFF72C
:100FF00049FF019B4FF000521B0203F4706343F062
:1010000001033946FFF73EFF1038FFF79FFE00232C
:101010000DA91A461AA8FFF735FF002329461A46DC
:10102000FFF730FF002310A91A46FFF72BFF00231C
:1010300021461A46FFF726FF002313A91A46FFF799
:1010400021FF002363991A46FFF71CFF1038FFF7B2
:101050007DFE1AA932A8FFF753FE304653B0BDE813
:10106000F08F0726F9E70000F0B594465A688DB076
:101070001C4613070646129D1BD1D2B16B689A42DB
:1010800017D10D4B0D4A53F8217009AB07CA83E8FD
:101090000700CDE90633CDE90433CDE90253CDE9AC
:1010A0000034624647F480713046FFF7FBFE0DB016
:1010B000F0BD0720FBE700BFC03200009032000007
:1010C0002DE9F0438DB09846DDE91467DDE9165946
:1010D00073688446180728D13BB37868834224D1CB
:1010E0006B68102B21D1D9F80430102B1DD1104B77
:1010F00053F821E00F4B53F822400F4A09AB07CABF
:1011000083E8070044F03001CDE90639CDE9043326
:10111000CDE90273CDE90056424641EA0E01604630
:10112000FFF7C0FE0DB0BDE8F0830720FAE700BF6F
:10113000C03200009C32000090320000006970470D
:1011400070B586B003AD064685E80E00FFF7F6FFE2
:10115000442804463AD8726800EB80039A4203D0D0
:10116000062343439A4233D10B9BB3EB440F2FD159
:101170000E9A93422CD1F368012221463120FFF7C9
:101180007DFC96E807000123CDE900332346FFF7F5
:1011900017FD08230AAA009307CA2346FFF7B3FCEA
:1011A0000C23009395E807002346FFF77BFC0A23F6
:1011B0000DAA009307CA2346FFF7A5FCFFF7F2FC30
:1011C000002814BF0320002006B070BD0120FBE7FB
:1011D0000720F9E70138C0B206289ABF014B185C16
:1011E000002070479C3300000138C0B206289ABF27
:1011F000014B185C00207047A33300000138C0B2D7
:1012000006289ABF014B185C00207047AA330000E3
:101210002DE9F04F8146BBB003A880E80E0009F12C
:10122000FF339DF810A1049F0D46DDF81480062BB6
:1012300000F2E480DFE803F0041E242A30363C008C
:101240006F4B1B68D80703D401203BB0BDE8F08F7B
:10125000012307930023BAF1010FCDE908332DD004
:10126000BAF1020F00F093804846FFF7C7FF6324EE
:10127000064630E0624B1B689907E5D50223E8E794
:101280005F4B1B685A07DFD50423E2E75C4B1B6802
:101290001B07D9D50823DCE7594B1B68DE06D3D5DD
:1012A0001023D6E7564B1B689C06CDD52023D0E7EC
:1012B000534B1B685806C7D54023CAE7504B1B68E1
:1012C000D903C1D5079B484643F4C0630793FFF792
:1012D00081FF0324064613230422009307A94FF03D
:1012E000005312A8FFF71CFD48F000530094294654
:1012F0003A46FFF715FD4FF00C0B05460024DDF8CC
:101300001481469B0BFB038BD8455ED1BAF1030FCA
:101310000BD14846FFF772FF02464846FFF764FFCD
:10132000BA426BD10138204268D1002C5ED1032330
:10133000224600932846234608A9FFF7F1FC04241F
:101340000546103D2846FFF701FD21462846FFF7D8
:1013500008FD489AB24228BF32461446002A4BD0B4
:101360000023479900930AA8499BFFF7D9FC321B39
:1013700004D0002300931946FFF7D2FC1038FFF782
:10138000E5FC12A80AA9FFF7BBFC00205DE71C4B97
:101390001A6892037FF558AF1B68DB037FF554AFE3
:1013A00077B17C4204F00304079B484643F4E063B2
:1013B0000793FFF70FFF240244F0A30406468AE7D1
:1013C000B846042708AD3C46EEE7D8F8042014449C
:1013D0004AB1032300932846D8F80830D8F8001003
:1013E000FFF79EFC054608F10C088DE714F0030496
:1013F00018BFC4F10404A4E70AA8B8E7072024E74B
:101400000C04024C70B58AB007AC84E80E0003AD42
:10141000064694E8070085E80B00012302930EAB13
:1014200001930323009394E80E003046FFF7F0FE8B
:101430000AB070BD01F0BDBE82B02DE9F0418AB0A6
:1014400005AD85E807001193079B149C5B0036D41B
:10145000DDF81880139B444528BF444613F08053A1
:10146000129A02D1944228BF144644B30F2C14D9C7
:10147000029412AB93E803008DE80300119B95E8FA
:101480000700FFF7CFFBFFF705FCFFF70FFC0AB0E3
:10149000BDE8F04102B0FFF71BBC059E119F9BB158
:1014A0000025A8EB0502042A3B6828BF0422701916
:1014B00009A90435099301F071FEAC42F1D80AB0D4
:1014C000BDE8F04102B070472246394630460AB0C6
:1014D000BDE8F04102B001F061BE2422002101F01C
:1014E00068BE38B514460D462422002101F061FE85
:1014F00024F04002802A034602D0B4F5807F08D150
:101500001846E20840F8044B294601F047FE002047
:1015100038BD6FF07100FBE730B50129016808BFE5
:10152000012521F0400418BF0225802C8BB002D089
:10153000B1F5807F24D1C90802910021CDE90312C1
:10154000102204300190CDE90521CDE9073209913F
:1015500000F0A2F8044668B9012D07AA04A901A861
:101560000BD1FFF751FC054600F0ACF8002D18BF79
:101570006FF0240420460BB030BDFFF759FCF2E7B2
:101580006FF07104F6E72DE9F04F824691B088467E
:101590009946164612B31568DAF8003023F0400277
:1015A000802A02D0B3F5807F6ED1DB08002405933A
:1015B0001023CDE908341B9BCDE906490AF104024A
:1015C0004344049202930DF11C0B444508D3002EB2
:1015D00060D00020356011B0BDE8F08F1546DBE724
:1015E0005DB11B9B1A9A1B5D525D013553401C9ADD
:1015F00005F00F0513550134E7E7A8EB04070F2F9B
:101600001DD91B9B27F00F072344CDE90A371C9BEC
:101610000C952344CDE90D370F9500F03DF80028D7
:10162000D9D15B460DAA0AA9CDF800B004A8FFF7EE
:1016300013FC039000F046F8039B43BB3C441B9B08
:101640001F191C9B1C44029BBB4201D14446BCE7B2
:101650007DB94A461A9B01215046FFF75DFF09F10B
:10166000100212F8013D0133DBB213700BB9914542
:10167000F7D11A9A17F8013B525D0135534004F82F
:10168000013B05F00F05DEE76FF07100A3E76FF097
:101690002400A0E730469EE7094B00209A6E42F4F2
:1016A00000529A66D3F8602242F00102C3F8602229
:1016B000D3F8602242F00202C3F86022704700BFF4
:1016C00000800040094B00209A6E22F400529A6676
:1016D000D3F8602222F00102C3F86022D3F860221E
:1016E00022F00202C3F86022704700BF0080004071
:1016F0002DE9F04101289AB01F46209B31D003D339
:10170000022834D01E4D28E014244FF002089B011B
:10171000059300250AAE049230462246069501F054
:101720003DFD09950796FFF7B7FF0546A8B904AB3D
:1017300093E807008DE80700089407AB40460ECBFE
:10174000FFF760FE8046FFF7BDFFB8F1000F14D130
:1017500022463146384601F021FD28461AB0BDE840
:10176000F0819B01059320244FF00308D1E79B01F2
:10177000059320244FF00408CBE7024DEDE700BFAE
:1017800080AFFFFF80ADFFFF2DE9F347022814462D
:10179000DDE90A9280460E461F464ED81CB900204D
:1017A00002B0BDE8F08713683F2B42D8516809B1F9
:1017B000002F3ED1B8F1010F3DD0224D2249B8F1A2
:1017C000020F18BF0D4603F03F00E318136022BF5D
:1017D00053680133536090B3C0F1400A544522D39B
:1017E00031465246484401F0D9FC01234A46009351
:1017F00029463B464046A4EB0A04FFF779FF3F2CFD
:1018000056440DD93D46A309009332463B4629462E
:101810004046FFF76DFF24F03F031E4404F03F04F1
:10182000002CBCD0002022463146484401F0B6FCD2
:10183000B5E73D46C7E7054DC5E70548B0E73F2C8E
:10184000F1D9E0E7F1330000B1330000D1330000FB
:1018500080AFFFFF2DE9F041012886B004460E4617
:1018600090461D4604D045D3022841D022483CE092
:101870001C272A68CDE90085D3008DF80F30530965
:101880008DF80E30530B8DF80D30530D8DF80C3054
:101890006B682046D90001EB52718DF80B1002F0F5
:1018A0003F025909372A8DF80A104FEA53314FEA9F
:1018B000535394BFC2F13802C2F178028DF8091077
:1018C0008DF808300D493346FFF75EFF0822334696
:1018D0000DEB0201CDE900852046FFF755FF3A46A2
:1018E00031460C9801F05AFC002006B0BDE8F081AA
:1018F0002027BEE71427BCE780AFFFFF11340000AC
:101900006C22002101F055BC07B590F868300190B9
:10191000002B00F12803009300F1080314BF0120FD
:101920000220FFF731FF03B05DF804FB07B590F824
:1019300068200346002A009100F1280200F1080106
:1019400014BF01200220FFF785FF03B05DF804FB00
:1019500000239942D4BF00210121C0E9003380F85F
:1019600068107047FFF7D0BFFFF7E0BF0020704757
:10197000002070470020704700207047002070470B
:10198000002070470120704728231B6818697047A2
:101990002823186870474FF40040704701207047B3
:1019A00041F206007047000010B5ADF50C7D4FF414
:1019B000037209A9002001F015FA40F20124002168
:1019C00009A801F052F9A042F9D040F2032398424D
:1019D00004D040F205400DF50C7D10BD9DF824307B
:1019E00059070DD49DF824309A072CD4DB07F0D585
:1019F0000C99889801F06CFA0028EAD00020EAE7F8
:101A0000139800F013FA0028ECD0FEF753FF164BA2
:101A1000044698420BD11C22002102A801F0C9FB08
:101A200001A80194FEF764FFB0F5403FD1D088983B
:101A300001F00AFA0028D5D0FFF7ADFF00F00AFA4E
:101A40000028CFD1C5E7282212680A9992689142EE
:101A5000CCD9889801F016FA0028BAD0FFF79BFF7E
:101A6000129900F0B7F9B4E7000003434FF488205F
:101A70007047FFF799BF0000004870474CE307002C
:101A8000004870476CE307000048704786E2070093
:101A900008B54FF4003141F26803044AD150FEF713
:101AA0002DFDB0FA80F0400908BD00BF0080004065
:101AB000072BF8B506460F4614461D4601D90020EF
:101AC000F8BD01212020FEF7ABFC01212120FEF70B
:101AD000A7FC9CB144EA06039B07F0D141F26803DE
:101AE0004FF40031064A2846D15023463A46314643
:101AF000FEF76CFDB0FA80F04009E1E70120DFE776
:101B00000080004038B5134672B103439B070DD1E6
:101B100041F268034FF40035054CE550FEF718FD1F
:101B2000B0FA80F0400938BD0120FCE70020FAE758
:101B300000800040C0F30C032DE9F04105460F463C
:101B400016460BB9FFF7A4FF05F5005424F4FF5423
:101B500024F01F0405EB0608A04507D83246394695
:101B60002846BDE8F0410223FFF7A2BF2046FFF759
:101B70008FFF04F50054EFE770B504460E46154696
:101B8000FFF706FF0369A3420AD8426963199A4224
:101B900006D32A4631462046BDE87040FFF7CABF4B
:101BA00070BD2DE9F041154607468846FFF7F0FE67
:101BB0000646FFF7F0FEC4196319B3F5002F0FD8DE
:101BC0003FB9FFF7E8FE7369834202D93069FFF736
:101BD0005FFF2A4641462046BDE8F041FFF7AABF15
:101BE000BDE8F081F0B585B06C46024626460D4B47
:101BF00003F11007254618685968083303C5BB422E
:101C00002C46F7D104AB501E13F8011D10F8012F1C
:101C1000914204D1B342F7D1012005B0F0BD0020BC
:101C2000FBE700BF51340000007C01288CBF00207E
:101C30000120704738B504460D46FFF7D3FF48B181
:101C40006369012B09D12046FFF7EEFF08B1A369B4
:101C50002B6038BD2C600120FBE70020F9E740F243
:101C60000463F0B5A1B0446B05460393FFF790FE03
:101C700006462046FFF7B6FF10B9002021B0F0BDA0
:101C80002046FFF7D1FF0028F7D0FFF779FE0028A4
:101C900047D134231F683846FFF7A4FF0028ECD053
:101CA00045F6C0739F42E8D8002320A901F8753D8E
:101CB0002046FEF71CFA0028DFD004A92046FFF7D3
:101CC000B9FF0028D9D0049B32699A42D5D8AB42DB
:101CD000D3D3B3F5002FD0D805A8FEF785FB049A1F
:101CE0002946521B05A8FEF795FB05A8FEF794FBB5
:101CF000049DFFF743FE2035049ED8B19DF80B30BC
:101D0000B3B1A36B03F12402009204332A46314697
:101D100005A8FEF7EDFA03900398B0FA80F04009A9
:101D2000ACE70121206AFEF7DFF90028B1D1A4E772
:101D3000BB6BE7E7FFF7A0FE0446FFF7A1FE2346D3
:101D40000090E3E7F8B5D0E9006706F16046044685
:101D5000456BFFF71DFEB6F5004F01D90020F8BD19
:101D60000369BB42FAD8B7F5002FF7D84033AB422E
:101D700002D8B5F5002F05D9FEF75CFA80F0010016
:101D8000C0B2ECE7FEF756FA20B12046BDE8F840B5
:101D9000FFF765BF2846FFF725FFB8B12846FFF7D4
:101DA00043FF0028DAD06B69002BD8D0022BECD18E
:101DB000AB69C4F1040119444FF0FF322046FEF72D
:101DC0003BFA034BC31A58425841C8E70120C6E703
:101DD000E320BBDE70B54FF0FF3288B006460D46FB
:101DE000FEF72AFA0F4B984219D1FEF77FF940F21D
:101DF000022000F0BBF81C22002101A801F0D9F953
:101E0000094B08AC44F8203D31462046FEF756FC0D
:101E100020462946FEF752FC2046FEF759FC0020DA
:101E200008B070BDE320BBDE010006434FF0FF3376
:101E300013B5044602A840F8043DFEF7FBFC30B998
:101E40000198A0422CBF0020012002B010BD00204C
:101E5000FBE7000030B5054689B040F2022000F0F3
:101E600085F81C22002101A801F0A3F9064B08AC5B
:101E700044F8203D29462046FEF720FC2046FEF788
:101E800027FC002009B030BD00000343B1F5037FFB
:101E900010B5044610D34FF40372002101F089F904
:101EA000002304F5C872637004F5A47104F12C00DA
:101EB000BDE8104000F0BCB940F2052010BD13B5DC
:101EC0000446009101462C3000F0F8F9C4F80802ED
:101ED00018B141F20703984209D1A3784BB140F2FF
:101EE000032040F20223E278002A08BF184602B01D
:101EF00010BD40F20120FAE72DE9F04387B002AFB0
:101F00000446884691460021102238461D460E9E02
:101F100001F04FF900211C223160284601F049F9F7
:101F20004B4642460097214604F12C0000F0C6F9CA
:101F300023789A0744BF636833602378DB0709D5A9
:101F400004F1080304F1240253F8041B934245F8FA
:101F5000041BF9D1237840F20640002B18BF002063
:101F600007B0BDE8F0834FF4037070474FF00053A3
:101F70004FF20F0218805A8070474FF000534CF216
:101F80003C325A80704700004FF000534FF20F026E
:101F900018805A80BFF34F8F0549064BCA6802F478
:101FA000E0621343CB60BFF34F8F00BFFDE700BF7C
:101FB00000ED00E00400FA054FF000534FF20F016E
:101FC0005A888A4201D1188870473AB91B8840F272
:101FD0000220012B18BF4FF4007070474FF40070BF
:101FE000704770B5D1E90152AA4205D290F840304D
:101FF0002B449B1A402B10D9002012E00A6890F85D
:102000004040D65C90F841200133224402F03F0268
:10201000013486548B6080F840408B689D42EDD837
:10202000012070BD2DE9F8431746D1E90125521B67
:1020300090F8405004462A4493420E469DF8209062
:102040009DF8248057D9FFF7CCFF00285DD11523D8
:1020500041F2020084F84630BDE8F88394F841204C
:10206000A25C7A5594F841200135013202F03F021A
:1020700084F8412094F84020013A84F8402094F8F4
:10208000402012B1AB42E9D11D46D6E901128A4285
:1020900001D2AB4231D8AB42D9D1D4F888202946FD
:1020A0003846FEF7C9F8C4F88800B9F1000F04D02B
:1020B0002A463946E06CFEF7ADF9B8F1000F08D0BA
:1020C00094F843302BB12B463A463946A06CFEF7C4
:1020D000FDF894F8433043B1E36DA26D2B44934275
:1020E000E36524BF002384F84330636D41F20300AD
:1020F0001D446565B0E70025C1E731688A5C7A5503
:10210000B26801350132B260BFE70020A4E70000E9
:102110007FB50023CDE90033082315460DEB0302FC
:102120000446FFF77FFF41F203039842064626D19B
:1021300094F8433063B10822E06C0DEB0201FEF726
:1021400069F908230DEB03021146A06CFEF7BEF8F7
:10215000039A029B6A6094F843202B605AB9094A9B
:10216000934208D0084A934205D00822E06C0DEB58
:102170000201FEF74FF96B68236500236365304663
:1021800004B070BDF70A0AF7FC0404FC2DE9F8431B
:10219000044658680D4616461F46002843D08B0754
:1021A00043D1FFF7F1FB216E00F1040C06EB0109AE
:1021B000CC451DD800F11C02914219D28C456346D2
:1021C00038BF0B46914594BFC3EB0909C3EB020925
:1021D000591AA3EB0C0005EB010868304A4641464A
:1021E000204400F0DBFF4A46FF21404600F0E1FFBB
:1021F000FFF7D1FB226E031D93420AD3B1180830BA
:10220000814206D39B1AEA58C4F880204FF0FF326F
:10221000EA50D7E900383246206E2946C0470020F0
:10222000236E1E442666BDE8F88341F20200FAE7F9
:102230002DE9F04100254FF0FF3704468846164649
:1022400003F0200380F8423080F84650A0F8405058
:1022500080F8435080F8455080F84450C0F88870AA
:10226000C0E918551822FF21683000F0A2FFC4F819
:102270008070C4F88470C4E912868822294604F16B
:10228000900000F096FF84F81851FFF775FB30B10D
:10229000B8F1000F03D141F20B00BDE8F081FFF768
:1022A00069FB30B1002EF6D0E06CFEF79DF80020FF
:1022B000F3E7002EF8D13046EFE700002DE9F04FAC
:1022C000B7B0CDE908233422D2F800A045F6C07299
:1022D00003930023924504468846409D0A9300F2EA
:1022E000E28099460A9A039B9A425CD294F846305F
:1022F000152BF8D8DFE813F08E00A7008700D40074
:10230000590040003700560240005002400037029A
:1023100040005002440320041600B403B803D40361
:10232000C90220040027636D0F2B71D801261023EA
:102330000BAA0197009608A92046FFF773FE41F209
:1023400003030590059A9A426FD1D4F848B0FFF77D
:102350009BFB80230CAACDE900030221334658469B
:10236000FDF786FFDFE70126D4E914329A42C0F078
:102370006C8184F84660B5E70DF12C0BD4E914624A
:10238000B2420A9944D2099BB61A94F840205B1ACB
:10239000032E134440F20A82032B00F2308208A974
:1023A0002046FFF71EFE00207FE00126636D072B0D
:1023B00098D808230BAACDE9006608A92046FFF7A4
:1023C00031FE41F203030590059A9A422DD198F807
:1023D000003043F0020388F800300B9BC8F804304B
:1023E000236D083BC8F824300C9B0493002B57D175
:1023F000052284F8462094F84520636642F00102E5
:1024000084F84520D2E70026636D072B40F2E48074
:10241000012315E006AA08A92046FFF779FE41F23C
:1024200003030590059A9A4201D005983DE0079B69
:10243000069A236500236365A04B9A4230D102239C
:1024400084F846304EE706AA08A92046FFF760FE4A
:1024500041F203030590059A9A42E6D194F844208C
:10246000069B22B1964A93421AD10E23E8E794F8CC
:102470004220D60756D594F84320002A40F05F83C7
:10248000904A934248D01BD88F4A934200F09880DC
:102490000ED88A4A934203D002F1B64293421AD12F
:1024A000152384F8463041F2010037B0BDE8F08FC3
:1024B000864A9342F4D0864A9342F1D0854AEDE7AA
:1024C000854A93421ED00FD8844A934200F0598324
:1024D000834A934218D0152306A884F84630FFF7A4
:1024E00045FA0028DFD11AE07E4A9342D8D07E4ACE
:1024F0009342D5D0724A9342EDD1FFF73BFA0028C0
:10250000B3D0CDE710239BE7112384F84630236D29
:10251000A3650023E365E5E6152384F8463041F220
:102520000800C2E76A4A934236D000F21C83664A2A
:10253000934240D000F20D8302F1D74202F5D81247
:1025400002F6F832934223D006A8FFF70FFA0028CC
:1025500038D01423069884F84630C4F88C00FFF76E
:1025600007FA94F84230814698067FF5BBAEB9F180
:10257000000F3FF4B7AED9F80430002B3FF4B2AEF1
:10258000204698470590059B002B3FF4ABAE8AE7A9
:102590000B2355E7062353E7072351E70D234FE7A6
:1025A000FFF7E8F900287FF47BAF94F84330002B65
:1025B0003FF45BAF74E794F84330002B7FF470AFC7
:1025C00012233DE7152384F8463094F84330002B5E
:1025D000A5D041F2040068E701230BAA00930196FD
:1025E000082308A92046FFF71DFD41F203030590CB
:1025F000059A9A427FF419AF0B9B03F07F43B3F126
:10260000407F05D0152341F2090084F846304CE79D
:102610000C9BD90704930ED594F8423043F0010384
:1026200084F84230FFF7A6F900283FF4EDAE049B92
:10263000DA0504D5E8E6FFF79FF90028F2D0152364
:1026400041F20A0084F846302FE70BAACDE9006674
:1026500008A92046FFF7E6FC41F203030590059A1E
:102660009A427FF4E2AE08F108073B460DF12C0CCC
:102670000DF1440E624603CA7245186059609446D3
:1026800003F10803F6D11068186098F80030384656
:1026900043F0010388F80030FFF780F928B91523CB
:1026A00041F20C0084F84630FFE600213846FFF77F
:1026B00069F900287FF458AEF1E700BFEB17A603D5
:1026C000FC0404FCF70909F7F30B0BF3F50909F512
:1026D000F60808F6F40A0AF4FA0606FAF70A0AF700
:1026E000F90707F9FD0303FDFE0101FE01230DAA11
:1026F000CDE9003308A908232046FFF793FC41F2F7
:1027000003030590059A9A427FF48FAE98F8003043
:1027100043F0040388F800300E9BC8F8283098F87E
:1027200001305B071CD50020A34B60660B93236D23
:10273000C4F8843094F8453043F0020384F84530FF
:10274000EE686EB12B6804220BA9B0470822606EB8
:102750002B68EE680DA91044B047636E10336366B2
:102760000C2384F84630636D072BBFD9BAE50423E8
:102770000BAACDE9006608A92046FFF753FC41F2F9
:1027800003030590059A9A427FF44FAE226D0B9B8E
:10279000042A049301D923660126636D032BE6D92D
:1027A0000A234DE600236366082349E69E423FF66E
:1027B000F6AD9E4228BF1E460123032E88BF26F099
:1027C0000306CDE900335A46334608A92046FFF7F1
:1027D00029FC41F203030590059A9A427FF425AE45
:1027E00094F84630082B13D1AF688FB12B6832466E
:1027F0005946606EB847636E1E446666BEE5402E5D
:1028000028BF4026D5E74FF0FF320BF806200136EF
:10281000032EF8D90A2B11D16B683BB1012108F1C5
:102820000800FFF7AFF800283FF439AF2B463246D7
:1028300059462046FFF7AAFC05909FE5052B18D1C5
:1028400098F801309F077FF599ADEB68002B3FF4B6
:1028500095AD626E042A0AD89319062B07D90CABE2
:102860009B1A1A68C4F884204FF0FF321A60EF6890
:10287000BCE70C2B7FF482AD98F8013058077FF548
:102880007DADEF68002FB1D178E594F8423099061C
:1028900007D5D4F88C00FFF76BF8814600283FF489
:1028A00002AE6B683BB1012108F10800FFF76AF83E
:1028B00000283FF4F4AE012743E0002B5ED0B9F1CD
:1028C000000F5BD0D9F81030002B57D02046984726
:1028D000DDE90963F61A94F84030334498423FF634
:1028E0005EADD4E91462B61A402E28BF40269E423F
:1028F00028BF1E460BAA3346CDE9007708A920461B
:10290000FFF790FB41F203030590059A9A427FF48A
:102910008CAD94F842309A0613D5B9F1000F3FF40C
:10292000C2ADD9F808B0BBF1000F3FF4BCAD2B46E7
:1029300032460BA92046D8470590059B002B7FF413
:1029400074ADD4E9142194F84230914203F020038D
:10295000B3D3002B3FF45CADB9F1000F3FF458AD99
:10296000D9F80C30002B3FF453AD29462046984748
:102970000590059B002B3FF44BAD56E50120A7E7E2
:1029800000230BAACDE9003308A904232046FFF752
:1029900049FB41F203030590059A9A427FF445AD45
:1029A000D4F88820054B9A420AD0152341F205003D
:1029B00084F8463079E500BFEB17A65EE320BBDE66
:1029C000FEF7D8FF10B9012388F8033098F80330D8
:1029D000002B3ED094F845309B0707D0EE682EB10F
:1029E00004222B6804F184011046B047236E83B3A0
:1029F0006B6873B34FF0FF3336AF47F8C83D04F14F
:102A0000800904224946384600F0B9FB40B1FEF780
:102A1000C2FF28B1D5E90036042249461044B04728
:102A200004F1680604223146384600F0A8FB80B164
:102A30006F68FEF7A9FF2B68142204F16C010830BF
:102A4000B8476F68FEF7A0FF04222B683146104498
:102A5000B847012388F802300F2384F84630A2E4F7
:102A6000012384F84330EBE494F81831002B7FF411
:102A700039AC1BAB524608A92046FEF791FF41F244
:102A800006030590059A9A4203D1152384F846302F
:102A9000CBE441F20303059A9A423FF423ACC4E429
:102AA00094F84430002B7FF4B3ACCDE900330BAA8B
:102AB000402308A92046FFF7B5FA41F20303059029
:102AC000059A9A427FF4B1ACE06CFDF7A5FC94F84E
:102AD0001831ABB104F1B403009304F19403E06C3A
:102AE00013AA0BA9FDF704FC0590059BF3B1002385
:102AF00088F80330152341F2060084F84630D4E408
:102B0000FEF73CFF30B1DAF8383003F124020092CE
:102B10000433E4E7E66CFEF7AFFF0746FEF7B0FFCD
:102B20003B46009013AA0BA93046DBE7012388F847
:102B3000033084F844306BE441F20700B5E4174AEF
:102B400093423FF429AD0ED8154A93427FF4F2AC7C
:102B5000A6E4144A93423FF41DAD134A93427FF416
:102B6000F3AC04236CE4114A93423FF419AD0AD844
:102B70000F4A93427FF4E8AC94F84330002B7FF483
:102B80008FAC13235CE40B4A93423FF407AD0A4A2F
:102B900093427FF4D9AC092352E400BFF60808F64B
:102BA000F30B0BF3F40A0AF4F50909F5FC0404FC31
:102BB000F70A0AF7FD0303FDFE0101FE31B10A4BDE
:102BC0005A68824205D80023C1E9003340F201402F
:102BD0007047013053F8302003EBC0035B680A6094
:102BE0004B600020704700BF7832000001221A704D
:102BF0007047000070B40D4C0E4611466268824268
:102C00000DD9013004EBC0025268F51895420AD87C
:102C100054F830001A46304470BCFDF7CFBE40F285
:102C2000014070BC704740F20240FAE77832000081
:102C300030B504460D46A3B002AAD0F80412802392
:102C4000D0F8FC01FFF7D6FF0095802302AA2146A9
:102C500004F12C00FFF732FBD4F80432C4F8080268
:102C60008033C4F8043223B030BD1FB50023CDE952
:102C70000033CDE90213D0F808320446A3B9D0F8E6
:102C80000422D0F800329A420ED26946FFF7D0FFF4
:102C9000D4F8080298B141F2070240F201239042B1
:102CA00008BF184604B010BDA3785BB140F2022003
:102CB00040F20323E278002A18BF1846F2E740F2F8
:102CC0000120EFE740F20220ECE7000070B50D466E
:102CD000002186B006AB03F8111D02931E4B04467B
:102CE0001646116028461C22CDE90333059300F0F7
:102CF00060FA9DF8072062B994F87230142B08D05E
:102D0000D4F808322BB9D4F80412D4F8003299421E
:102D10001AD32378990744BF636833602378DB07AD
:102D200009D504F1080304F1240153F8040B8B4284
:102D300045F8040BF9D162B9237840F20640002B24
:102D400018BF002006B070BD02A92046FFF770FF33
:102D5000CFE70020F6E700BFED2B000070B40D4C6C
:102D60000E461146626882420DD9013004EBC00262
:102D70005268F51895420AD854F830001A46304483
:102D800070BCFDF72ABE40F2014070BC704740F2B3
:102D90000240FAE778320000074B5A68824207D9AE
:102DA000013003EBC002516853F83000FDF731BE2B
:102DB00040F20140704700BF7832000010B5044671
:102DC00060B14FF480320023C0E90023044B1A782D
:102DD0005B680272C360FDF7DBFD206110BD00BFC0
:102DE0007832000037B50C46054611462046FFF7FD
:102DF0004DF848B969462846FFF7E0FE20B9019B27
:102E0000C4F8FC51C4F8003203B030BD38B500F549
:102E1000C87204460D46202300F5A4712C30FFF73C
:102E200007FAD4F808322BB9D4F80422D4F80032C7
:102E30009A4203D3A07800B1E07838BD29462046F5
:102E4000FFF7F6FEEDE7000000B5ADF5097D4FF4A4
:102E5000037205A9FFF7C6FF78B904238DF8153072
:102E6000074BCDE90100039001A905A80493FFF7E2
:102E7000CDFF0DF5097D5DF804FB0020F9E700BFEB
:102E8000A31B000030B5ADF5097D0D460446FEF7E5
:102E90007FFD8368AB4203D300200DF5097D30BD73
:102EA0004FF4037205A92046FFF79CFF0028F3D1D9
:102EB00002238DF81530054BCDE90100039001A9DF
:102EC00005A80493FFF7A2FFE7E700BFA31B0000DC
:102ED00000B5ADF5097D4FF4037205A9FFF782FF38
:102EE00078B901238DF81530074B0190CDE90230F8
:102EF000049001A905A8FFF789FF0DF5097D5DF88C
:102F000004FB0020F9E700BF791B00002DE9F04128
:102F10009AB0502204460D4606A8002100F049F957
:102F20001422002101A800F044F901A8FFF746FF90
:102F3000049B012B0ED800234FF0FF3223600123A6
:102F4000AB4203D300201AB0BDE8F08144F823203F
:102F50000133F5E7AB426BD3FEF788FD059B0C22EE
:102F600006A90646DF68FDF729FD0028EBD1DFF84A
:102F7000CC80069B434516D1089A06A93046FDF73A
:102F80001DFD4FF0FF32089906A8FDF755F92A4BB1
:102F9000984233D04FF0FF3304EB8505A54213D0A0
:102FA00044F8043BFAE737440C2206A93846FDF7FB
:102FB00005FD0028C7D1069B43450BD04FF0FF33DA
:102FC00004EB8505A54202D140F20550BBE744F869
:102FD000043BF7E706A9089A3846FDF7EFFC059B86
:102FE0003046D968FDF715FD0028ACD1089A06A92E
:102FF0003046FDF7F2FC0028BED0A4E7089BA3F101
:1030000010029208AA4228BF2A460023934207D101
:103010004FF0FF32AB4295D244F823200133F9E759
:1030200006A901EB8301C96844F823100133EDE7D9
:1030300040F2045087E700BFE320BBDE39528FE146
:10304000F0B59BB00D4644220021074609A800F0C8
:10305000B0F801232F4A0021CDE906235023142282
:1030600001A8089300F0A5F801A8FFF7A7FE049BAC
:10307000AB424BD3012B08D83B6840F204500133DC
:10308000012B98BF00201BB0F0BDFEF7EFFC059BA5
:10309000102DDC68064628BF102500230444AB42EF
:1030A00026D14FF0FF32102B2AD14C214FF0FF32A6
:1030B00006A8FDF7C1F8C043059B1990D9682046C2
:1030C000FDF7A7FC0028DED1502206A92046FDF717
:1030D00084FC0028D7D1059B3046D968FDF799FCC0
:1030E0000028D0D1502206A93046FDF776FCCAE769
:1030F00057F8231006AA02EB8302D1600133CEE712
:1031000006A901EB8301CA600133CCE740F2045009
:10311000B9E700BF39528FE170B596B01422002193
:10312000064601A800F045F801A8FFF747FE049CF9
:10313000012C1ED906AD21462846FFF7E7FE20B137
:1031400040F2055398420DD1002055F820305A1C0A
:103150000AD116AB03EB800040F8406C21462846AC
:10316000FFF76EFF16B070BDB34205D00130844248
:10317000EBD140F20250F5E740F20350F2E730B5F0
:103180000024A24201D1002007E0035D01340D19A3
:1031900015F8015CAB42F4D0581B30BD431E0A4405
:1031A00010B5914200D110BD11F8014B03F8014F49
:1031B000F7E702440346934200D1704703F8011B2E
:1031C000F9E70000F8B500BFF8BC08BC9E467047A0
:1031D000F8B500BFF8BC08BC9E46704707B0CD5E8E
:1031E0000100000002000B01B83400000060000084
:1031F00000000800F0000100F3000000F7000000EC
:10320000451D00008D1E0000BF1E0000643400003C
:10321000F91E0000671F00000000000013B779FAD4
:10322000C925DDB7ADF3CFE0F1B614B80101000058
:1032300000000000B43400004000000002000B0158
:10324000000000000000000000000000000000007E
:103250000000000000000000000000000102030068
:1032600028000000280000000020000000000800E6
:10327000883200000400000001000000010000008E
:1032800000400400000003004546523332000000B5
:1032900000000000000000000000004000010000ED
:1032A0000002000000040000000800000010000000
:1032B000002000000040000000800000000001002D
:1032C0000000000001000000FFFFFFFF0000000100
:1032D000000000000000000000000000FFFFFFFFF2
:1032E000FFFFFFFFFFFFFFFFFFFFFFFF00000000EA
:1032F000FFFFFFFFFFFFFFFFBCE6FAADA7179E84AD
:10330000F3B9CAC2FC6325516B17D1F2E12C4247D5
:10331000F8BCE6E563A440F277037D812DEB33A092
:10332000F4A13945D898C2964FE342E2FE1A7F9B3A
:103330008EE7EB4A7C0F9E162BCE33576B315ECE59
:10334000CBB6406837BF51F5FFFFFFFF000000011B
:10335000000000000000000000000000FFFFFFFF71
:10336000FFFFFFFFFFFFFFFC5AC635D8AA3A93E7DD
:10337000B3EBBD55769886BC651D06B0CC53B0F650
:103380003BCE3C3E27D2604BC8320000C00000005C
:1033900000000000000010002000000010141C209D
:1033A0003040204040404080804010142020404069
:1033B0002067452301EFCDAB8998BADCFE1032546B
:1033C00076C3D2E1F0000000000000000000000021
:1033D00000C1059ED8367CD5073070DD17F70E5931
:1033E00039FFC00B316858151164F98FA7BEFA4F29
:1033F000A46A09E667BB67AE853C6EF372A54FF51C
:103400003A510E527F9B05688C1F83D9AB5BE0CD90
:103410001980000000000000000000000000000013
:10342000000000000000000000000000000000009C
:10343000000000000000000000000000000000008C
:10344000000000000000000000000000000000007C
:1034500000B814B6F1E0CFF3ADB7DD25C9FA79B7FE
:103460001300000000010000BD2D0000BD2B000076
:10347000F52B00005D2D0000992D0000413000006B
:103480000D2F000019310000E52D00006B2C00000D
:10349000CD2C0000AD090000BD090000DB090000D3
:0C34A000130A00000D0A000000000000EC
:0834AC00650000004100000072
:04000003000000A158
:00000001FF
