S01800007369676E65642D626F6F746C6F616465722E7333370A
S3150000000000800020A10000009D0000000B01000000
S315000000109D0000009D0000009D0000009D00000066
S315000000209D0000009D000000583200009D00000069
S315000000309D000000983200009D0000009D00000019
S3150000004010B5054C237833B9044B13B1044800E0CE
S3150000005000BF0123237010BD08010020000000002E
S31500000060E434000008B5034B1BB10349034800E024
S3150000007000BF08BD000000000C010020E4340000B1
S31500000080044B054A9A60D3F8882042F47002C3F8FC
S315000000908820704700ED00E000000000FEE7000049
S315000000A008B5FFF7EDFF00F095F80E4B0E48DA1C89
S315000000B0121AC11E22F00302994288BF00220B4980
S315000000C003F0A9F80A4B0B48DA1C121AC11E22F0DB
S315000000D00302994288BF0022002103F0A9F800F02C
S315000000E019F800BF0801002000010020E8340000D4
S315000000F028010020080100200020704770470120D9
S31500000100704700F07DBD00F0E7BD4FF4017001F0CF
S3150000011075BF00002A4B13B51B68C3F30743012BB9
S315000001200DD1284B04205A6E4FF4802326494B6686
S3150000013001F51041086251035CBF244A53664FF033
S3150000014040234FF400621A67D3F88420D206FBD40A
S31500000150FFF7D7FF01F022FF08B901F00DFF01F00C
S315000001608EFC044658B901F019FF08B101F010FFE2
S3150000017040F2012001F042FF4FF4017018E001F057
S315000001800DFF08B901F0FEFE01F01EFF012802D99D
S3150000019001F0FEFEFEE701F021FF0D4B0193019BEE
S315000001A0002B0ADC40F205439C42E5D140F20320D5
S315000001B001F024FF002002B010BD019B013BEDE7DA
S315000001C00080E00F008000400090004000A000404A
S315000001D000350C0013B501244FF040238DF806407E
S315000001E08DF80740D3F894305B0610D501F01AFF5E
S315000001F0A0F2022080B2072809D804FA00F010F015
S31500000200C90F1EBF00238DF806308DF807304FF456
S3150000021080435B68013308D14FF4027001F0C9FED8
S3150000022000238DF806308DF807309DF8073063B14E
S315000002304FF4804001F08CFD8DF806009DF80630E5
S315000002401BB94FF4027001F0B4FE9DF806308BB175
S3150000025001F0A4FE08B101F09BFE4FF48043064A6C
S3150000026093601846016881F3088881F3098840681D
S315000002708746FEE702B010BD00ED00E001207047A2
S3150000028030B50824094B00255C66012403F5FE23DE
S315000002905C6001449D601A61DC60884201D1586A45
S315000002A030BD10F8012B1A62F7E700BF009000403E
S315000002B0F8B516464FF400521D46114B04469A6691
S315000002C00222C3F860220F4601F048FADDE9061261
S315000002D0204601F047FA002384F8387063623368D9
S315000002E0C4F839307368C4F83D30B368C4F8413097
S315000002F02B0C6DBA84F84530A4F84650F8BD00BF03
S315000003000090004030B50D4685B0194600F128032F
S31500000310CDE90152009300F1240200F1380301F007
S3150000032073FA05B030BD00002DE9F041B0B01446B7
S315000003300646369D00286AD0002968D0002A66D075
S31500000340002B64D0002D62D006224FF40050069296
S31500000350304A20AF90660320C2F860020022BE46F3
S3150000036009920C920F920A4601F12008F446106891
S3150000037051680832ACE803004245E646F6D122460B
S315000003800DF1A00C04F1200E644610685168083285
S3150000039003C47245A446F7D10DF1400C1A466446D3
S315000003A003F1200E234610685168083203C37245D4
S315000003B01C46F7D12B4618AC2035224618685968DA
S315000003C0083303C2AB421446F7D14023CDE90A7382
S315000003D0089320230AAA0E9303AB07CACDF81CC0C4
S315000003E00D9683E8070007AB93E807008DE8070042
S315000003F00DAB0ECB084800F0D9FF0690069B40F2E5
S315000004000460002B08BF002030B0BDE8F08140F248
S315000004100160F9E700900040643400004FF4005298
S31500000420074B10B59A6602220446C3F8602200F014
S31500000430C3F82046BDE81040002100F0C1B800BF57
S315000004400090004000F0C1B8014600F0CBB80000B3
S315000004502DE9F34799460A9B0C46196805463F293C
S31500000460164642D85A68002A41D0224A002E14BFA6
S31500000470B046904601F03F07091928BF5A6819602F
S3150000048024BF01325A60AFB1C7F1400AA24521D854
S315000004902946524609EB070002F0BDFE01234146FC
S315000004A000934A463346002000F0A4F8B046403C8C
S315000004B055443C443F2C0CD9A3092A460093414697
S315000004C03346002000F096F824F03F031D4404F064
S315000004D03F0400272CB12246294609EB070002F00B
S315000004E09AFE002002B0BDE8F0879046C2E7DFF82A
S315000004F00480BFE7D832000030B4054608461146EE
S315000005001A46DDE9023425B931B1029430BCFFF751
S315000005109FBF024830BC70470846FBE780AFFFFF2D
S315000005202DE9F0411746146886B01E46E3008DF8A3
S315000005300F30630952688DF80E30630B8DF80D305D
S31500000540630D8DF80C30D30003EB54738DF80B302C
S3150000055004F03F045309372C8DF80A304FEA523322
S315000005604FEA525205468DF80820884694BFC4F1DA
S315000005703802C4F17802CDE900178DF809300D492B
S3150000058003460020FFF7B8FF082143462A46009796
S315000005900DEB0100FFF75CFF284605F1200350F83C
S315000005A0042B984246F8042BF9D1002006B0BDE88A
S315000005B0F08100BFF83200006822002102F038BE48
S315000005C00023C0E900331846704707B500F1280339
S315000005D00190009300F108030020FFF78DFF03B0A0
S315000005E05DF804FB02460B4600F128010830FFF7D0
S315000005F097BF0000F0B51D4693B0002837D1189B71
S3150000060006909B01CDE904230AAB0A461E4601F17A
S3150000061020071C4610685168083203C4BA422346B4
S31500000620F7D100230796099301F07AF90446D8B961
S315000006302023089304AB93E807008DE8070007AB77
S3150000064004200ECB01F022F8074601F07FF987B9A6
S315000006502B46324612AE154603CDB5421860596098
S315000006602A4603F10803F6D1204613B0F0BD024C2A
S31500000670FAE7024CF8E700BF80AFFFFF80ADFFFF4F
S31500000680420910B510D0012A10D00B4B0B4C022A90
S3150000069018BF234600F01F0051B103F58053012215
S315000006A002FA00F0186010BD1346F3E7044BF1E7B9
S315000006B003F50053F3E700BF688000406082004006
S315000006C064800040F0B5114A114C124E00F001054D
S315000006D0E3695F0713D40DB9334213D103EA000768
S315000006E08F4207D10B4A1A40002A14BF6FF001004F
S315000006F00020F0BD013AEBD16FF00200F9E74FF0B0
S31500000700FF30F6E76FF00100F3E700BF8096980030
S31500000710000003400200010070B5134C6061E369FC
S315000007205B071ED40E4656F8043B8D18A361AE42F5
S315000007300BD10423002121202361FFF7C3FF58B901
S31500000740BDE870402120FFF7BDBF08210846FFF72E
S31500000750B9FF10B10423236170BD56F8043BA361B1
S31500000760E5E74FF0FF30F7E7000003404FF40032B3
S3150000077038B50F4B0F4C9A6641F671330122E56985
S31500000780E3630D4B0021DA600223606121202361BF
S3150000079005F48035FFF796FF10B92120FFF792FF89
S315000007A00122064BDA600DB10023E36338BD00BFBA
S315000007B0009000400000034000100340002003406A
S315000007C02DE9F84315464FF40032184B89469A66D0
S315000007D041F6713203F51C33DF69DA6301220646FE
S315000007E003F58053DFF84C8007F48037DA6055B99B
S315000007F0284601220E4BDA601FB10022A3F50053F2
S31500000800DA63BDE8F88306F5005404EA0804A41B7D
S31500000810AC4228BF2C46494622463046FFF77CFFAD
S315000008200028E6D12644A1442D1BE0E700900040B5
S315000008300020034000E0FFFF2DE9F04F06464FF48D
S31500000840402501202C4CDFF8BCC04FF40037CCF813
S31500000850040044F8265030250024DFF8ACE0DFF829
S31500000860AC9005FB06E5EC652C662C67234CDFF89F
S31500000870A0A0A76641F6713704F51C34D4F81C8095
S31500000880E763E76800FA06F60743E7604BB9E268F4
S3150000089018F4803F22F00102E26000D0E3631846BC
S315000008A028E001F5005000EA0900401A984228BFE6
S315000008B018466161D4F81CB087081BF0040F17D1E5
S315000008C0013F3F0147F060576F66AA66C5F86CA006
S315000008D0CCF82460DEF834703E42FBD0084F014469
S315000008E07E630427CCF82860024427611B1ACDE7F3
S315000008F04FF0FF30BDE8F08F00400440009000400C
S3150000090000200440001004400000044000E0FFFF07
S3150000091018000340C369032B9FBF00EB830201331A
S31500000920D160C361704700002DE9F043C469042C0F
S315000009306BD8374B374A5D6E4FF480333649536672
S31500000940364E374AED03C1F80026C1F804665CBF8F
S31500000950A1F5E4214B66334B334D1360034653F840
S315000009600C1B5160C0F1204203EB840102F5984252
S315000009708B4202EB030620D126460027436803BBC1
S3150000098039463046264A41EA046191601368516847
S3150000099092684B4053400022904231D145F82030B6
S315000009A0BFF34F8F2149224BCA6802F4E06213431A
S315000009B0CB60BFF34F8F00BFFDE753F8047B376072
S315000009C0D6E70022D3F8009005EB860ED3F808C0D0
S315000009D0F046CCF3990C944507EB020106EB0200B6
S315000009E00EF1040E06D85A68012ACBD00F460646E9
S315000009F05B68C4E759F822100132C8F80010E5E731
S31500000A0055F8221001324B40C6E7BDE8F08300BF1F
S31500000A10008000400090004000C00740004E00A04B
S31500000A20004C00A0DEC0ECE50C4C00A000ED00E0A0
S31500000A300400FA05144B15495A6E4FF48033D2035D
S31500000A4058BF134A10B54B6601F5E621D1F80416D6
S31500000A5058BF53660A680F4B9A4213D10B69053388
S31500000A60B3F5007F0ED2002214469A4205D351F800
S31500000A702300031B5842584110BD51F82200013291
S31500000A804440F2E70020F7E7008000400090004075
S31500000A9000A00040DEC0ECE538B50F4B0F495A6E9A
S31500000AA04FF48033D20358BF0D4A4B6601F5E62159
S31500000AB0D1F80456044658BF536630B1FFF7BAFF63
S31500000AC030B100206B68236038BD4FF4E020FBE7AF
S31500000AD04FF47E00F8E700BF008000400090004021
S31500000AE000A000400B4B0C495A6E4FF48033D203E2
S31500000AF058BF0A4A10B54B6601F5E621D1F80446FF
S31500000B0058BF5366FFF796FF10B1A068C0F3C050F8
S31500000B1010BD00BF008000400090004000A00040D3
S31500000B200B4B0C495A6E4FF48033D20358BF0A4A16
S31500000B3010B54B6601F5E621D1F8044658BF536659
S31500000B40FFF7D0FF08B1E06810BD4FF47E00FBE769
S31500000B50008000400090004000A00040F8B5234B04
S31500000B6023495A6E4FF48033D2034B6658BF214A4D
S31500000B7001F5E621D1F8045658BF5366846805F19D
S31500000B801406FFF7AFFF48B32A6956F82230DB4355
S31500000B9046F82230A86810F470201DD0A86800F42A
S31500000BA07020F8BD0021D4F800C0A668C6F39906E7
S31500000BB0B1420DD0934203D19CB19342F2D3F0E7F8
S31500000BC0013305EB83073F694CF821700131EFE7EC
S31500000BD0646824F00104EFE70346EDE74FF47E0076
S31500000BE0DFE7934238BF4FF4E020DAE700800040A9
S31500000BF00090004000A000400048704740330000CD
S31500000C004FF40032014B00209A6670470090004076
S31500000C10024BD86900F00100704700BF0000034096
S31500000C20B2F5002F10B51346044608460BD8B4F5A6
S31500000C30002F08D82344B3F5002F04D8214602F02C
S31500000C40EAFA002010BD40F20240FBE7B2F5002FA1
S31500000C5010B506D8B0F5002F03D88318B3F5002FCA
S31500000C600ED940F2024010BDC45801340AD10433F3
S31500000C709A42F9D800F04CFF0028F2D00020F2E7A3
S31500000C800023F5E740F20340EDE74FF0FF307047F1
S31500000C9038B541EA0003C3F30C030446CBB9B1F5FA
S31500000CA0002F0FD8B0F5002F0CD80D18B5F5002F72
S31500000CB008D8204604F5005400F0F0FEAC4204D0FB
S31500000CC00028F6D140F2024038BD0028FAD00020B4
S31500000CD0FAE740F20440F7E74FF40032014B0020F8
S31500000CE09A66704700A0004013B51AB1002400941C
S31500000CF000F046F902B010BD30B501B10139084C1B
S31500000D00E568ED03FCD443EA0121120741EA00033A
S31500000D1002F08052134343F00043636030BD00BFCE
S31500000D200020024CF0B58DB005AC84E807001C46E7
S31500000D30A1420D4628BF2546129B0DB304B31146AA
S31500000D402846002603F51813CDE90A468DE8030068
S31500000D5003F241135F02C5EB4323099302950CAAE4
S31500000D60059B12E90700069500F0AAFCA54207D2EA
S31500000D703146621B381B0DB0BDE8F04000F09EBC4A
S31500000D800DB0F0BD30B591B001AC84E807000A465D
S31500000D901C46039B0146D8004ABF0332620022F07C
S31500000DA0030204A8FFF7A0FF04A800F0FFF81499B7
S31500000DB0224601F5181101F241114D0208A8C4EBB3
S31500000DC041210023FFF790FF05F50071002322461D
S31500000DD0091B0CA8FFF788FF0CA800F0E7F808A984
S31500000DE004A800F0BDF811B030BD10B58CB005AC4C
S31500000DF084E807000E9ADDE9060102F5181202F5ED
S31500000E00A0725202CDE9092300228DE803000B925D
S31500000E1002930CAA059B12E9070000F051FC0CB0E6
S31500000E2010BD00000122054B9A60DA68D203FCD49B
S31500000E30D86820F00F000004000C70470020024C18
S31500000E402DE9F04B4FF000089946074616464546F1
S31500000E508AB003AC84E8070002F0805B07AC049A12
S31500000E60424502D80AB0BDE8F08B139B13B9AA1EFF
S31500000E70012A0AD9129BCDE90779099600955BB13B
S31500000E8094E807004B46FFF74DFFBBF1000F00D17A
S31500000E904F440135C844E2E74B4694E80700FFF7A4
S31500000EA0A4FFF2E782B01FB507930A9B04AC8B42FE
S31500000EB028BF0B4604E907001048D100079948BF30
S31500000EC003330160099948BF23F0030323F07043FD
S31500000ED001F0E041194341F000518160002102F028
S31500000EE0E042019C134343F00053C16004618361F7
S31500000EF0416304B0BDE8104002B070470000024CE8
S31500000F003F22034B1A631022DA6103229A63704769
S31500000F100000024C024AD36B9B07FCD4704700BF0B
S31500000F200000024C034B986A10F0240018BF0420FE
S31500000F30704700BF0000024C08B5FFF7F3FF064BF1
S31500000F40DB6B23F47F4323F0EF0303431EBF012231
S31500000F50024BC3F8FC2F08BD0000024C00F0FF3F17
S31500000F60032208B5054B186019615A63FFF7C8FFDD
S31500000F70FFF7D0FFBDE80840FFF7DEBF0000024CD8
S31500000F8010B522F0704200F11004C0E9001482602E
S31500000F9041B1826803F0704313438360029BC360D0
S31500000FA0204610BD836843F08043F6E70123436083
S31500000FB0C36843F02003C360836843F00053836033
S31500000FC07047C368DB0658BFC368C36803F00F03E6
S31500000FD0012B02D0033B012B08D8C36801F01F0187
S31500000FE043EA0123C36083681944816070470000A7
S31500000FF042680346182A10B50AD0202A1DD0102AA6
S315000010002BD1174AD2F80424D4010AD4012013E0C4
S31500001010134AD2F804249001F8D50A6842F008026F
S315000010200A6010481A6882424FF000000ED10A6822
S3150000103042F040020A60586010BD094AD2F8042402
S315000010405201E3D50A6842F00402E9E7064CA242DF
S31500001050F2D10A6842F08002ECE70720ECE700BF15
S315000010600000024C24010020250100200B4607B594
S315000010700749D1F80414C90708D500210092024691
S31500001080084600F025F903B05DF804FB0120FAE7F5
S315000010900000024C0B4607B50749D1F80414C907EE
S315000010A008D5009201210246002000F011F903B094
S315000010B05DF804FB0120FAE70000024C1FB50A4C5C
S315000010C0D4F8044464070CD5CDE900120021069C2F
S315000010D00222CDE902340346084600F025F904B0A1
S315000010E010BD0120FBE700BF0000024C37B54D687C
S315000010F0044645B18C680093096842EA04032A460F
S31500001100FFF73EFF0446204603B030BD2DE9F04F01
S315000011102DED028BD1B008EE103ADDE95E7ADDE9FD
S3150000112060980023019104210546CDE9031307CAFF
S3150000113001AC05AB83E80700629E0294002D40F0E7
S31500001140C48021461846FFF753FF0546002840F0A5
S31500001150B6805D9A08AB07CADAF8044083E8070050
S31500001160D9F8043049421C44D8F8043064425B4242
S315000011700093BB6804F00F04DA0048BF7B6801F0F7
S315000011800F0B42BF033323F003037B60B368DB001E
S3150000119041BF7368033323F0030373600023DAF857
S315000011A00400D9F80420CDE9133381182144CDE990
S315000011B00C1379680B93494201F00F01CDE90E310A
S315000011C071681093494201F00F01CDE91131CDE963
S315000011D0153317935D9B5B6853B9D8F804301343F6
S315000011E0034305D110218B46CDE9091314AA0892B1
S315000011F011234FF0005202A930A8FFF777FF40F6FF
S3150000120011034FF0005205A9FFF770FF42F61103D4
S315000012104FF000525C99FFF769FF44F611034FF057
S31500001220005218EE101AFFF761FF412300225146C3
S31500001230FFF75CFF23024FF00052494643F041039B
S31500001240FFF754FF4FEA0B234FF0005243F0010320
S3150000125008A9FFF74BFF009B4FF000521B0203F457
S315000012607063414643F00103FFF740FF1038FFF774
S315000012709DFE00230BA91A4618A8FFF737FF002387
S3150000128039461A46FFF732FF00230EA91A46FFF722
S315000012902DFF002331461A46FFF728FF002311A928
S315000012A01A46FFF723FF002363991A46FFF71EFF2E
S315000012B01038FFF77BFE18A930A8FFF751FE284625
S315000012C051B0BDEC028BBDE8F08F0725F7E70000B3
S315000012D0F0B51C465B6816468DB01A070546129F88
S315000012E01BD1D3B17A68934217D10D4B0D4A53F8EF
S315000012F021C009AB07CA83E8070032462846CDE974
S315000013000633CDE90433CDE90273CDE900344CF45C
S315000013108071FFF7FBFE0DB0F0BD0720FBE700BFB5
S315000013209C3300006C3300002DE9F0438DB0044679
S31500001330DDE914CEDDE91678DCF804001E46030765
S3150000134029D140B3DEF80430984224D17B68102BB3
S3150000135021D1D8F80430102B1DD1104B53F8215051
S315000013600F4B53F822900F4A09AB07CA83E80700D0
S3150000137045EA090132462046CDE90638CDE904336F
S31500001380CDE902E3CDE9007C41F03001FFF7BEFE76
S315000013900DB0BDE8F0830720FAE700BF9C330000DC
S315000013A0783300006C3300000069704770B586B072
S315000013B003AE054686E80E00FFF7F6FF442804460E
S315000013C039D86A6800EB80039A4203D00623434368
S315000013D09A4232D10B9BB3EB440F2ED10E9A934215
S315000013E02BD1012221463120EB68FFF785FC95E8D9
S315000013F007000123CDE900332346FFF721FD08232B
S315000014000AAA009307CA2346FFF7BCFC0C230093E5
S3150000141096E807002346FFF785FC0A230DAA0093EA
S3150000142007CA2346FFF7AEFCFFF7FCFC002818BFEF
S31500001430032006B070BD0120FBE70720F9E7000096
S315000014400138C0B206289ABF014B185C00207047CD
S31500001450783400000138C0B206289ABF014B185CE8
S31500001460002070477F3400000138C0B206289ABFBA
S31500001470014B185C00207047863400002DE9F04FC0
S315000014808046BBB003A81E4680E80E0008F1FF3375
S3150000149017468A469DF81091062B00F2F280DFE887
S315000014A003F0041F262D343B4200774BD3F80C344F
S315000014B0D80703D401203BB0BDE8F08F0123079382
S315000014C00023B9F1010FCDE9083333D0B9F1020F8A
S315000014D000F098804046FFF7C7FF6324054637E0D3
S315000014E0694BD3F80C349907E4D50223E7E7664B3A
S315000014F0D3F80C345A07DDD50423E0E7624BD3F862
S315000015000C341B07D6D50823D9E75F4BD3F80C3428
S31500001510DD06CFD51023D2E75B4BD3F80C349C06FF
S31500001520C8D52023CBE7584BD3F80C345806C1D581
S315000015304023C4E7544BD3F80C34D903BAD5079BE0
S31500001540404643F4C0630793FFF77AFF032405463A
S3150000155013230422009307A94FF0005312A8FFF7A4
S315000015600FFD5146009446F000533A46FFF708FD3A
S315000015704FF0000B04465E46DDF814A1469B9B45E2
S3150000158064D1B9F1030F0AD14046FFF76DFF8742D8
S3150000159077D14046FFF75EFF0138304271D1002E09
S315000015A067D1032332462046009308A93346FFF746
S315000015B0E7FC04260446A4F110000290FFF7F6FCAF
S315000015C031460298FFF7FDFC489AAA4228BF2A46F0
S315000015D01446002A53D00023479900930AA8499B32
S315000015E0FFF7CEFC2A1B04D0002319460093FFF711
S315000015F0C7FC1038FFF7DAFC12A80AA9FFF7B0FCFF
S31500001600002058E7204BD3F80C2492037FF552AF05
S31500001610D3F80C34DB037FF54DAF97B17C423946E6
S31500001620374604F00304079B404643F4E063079300
S31500001630FFF706FF24023E4605460F4644F0A30484
S3150000164086E704210DF1200A0C46ECE7DAF80420BF
S3150000165016444AB1032300932046DAF80830DAF834
S315000016600010FFF78DFC04460BF1010B0AF10C0A82
S3150000167084E716F0030618BFC6F104069BE70AA81E
S31500001680B0E7072017E700BF0000024C70B58AB02C
S3150000169007AC84E80E0003AD064694E8070085E82B
S315000016A00B00012302930EAB0193032300933046F4
S315000016B094E80E00FFF7E2FE0AB070BD01F0B8BD77
S315000016C082B02DE9F0418AB005AE12F0804586E879
S315000016D00700149C119333D1139B8C4228BF0C46F0
S315000016E013F080538846129A02D1944228BF1446BA
S315000016F034B30F2C13D9DDE912018DE803000294EF
S31500001700119B96E80700FFF7CDFBFFF7F9FBFFF704
S3150000171001FC0AB0BDE8F04102B0FFF70DBC059E22
S31500001720119F93B1A8EB0502042A3B6828BF042247
S31500001730701909A90435099301F06DFDAC42F1D881
S315000017400AB0BDE8F04102B070472246394630463D
S315000017500AB0BDE8F04102B001F05DBD24220021CF
S3150000176001F066BD70B515460E46242200210446DA
S3150000177001F05EFD25F04003802B02D0B5F5807F99
S3150000178008D12046314640F8045BEA0801F043FDE3
S31500001790002070BD6FF07100FBE730B501290168CC
S315000017A008BF012521F0400418BF0225802C8BB00C
S315000017B002D0B1F5807F24D1C90802910021CDE97C
S315000017C0031210220430CDE90521CDE9073201903C
S315000017D0099100F0A5F8044668B9012D07AA04A9E5
S315000017E001A80BD1FFF742FC054600F0AFF8002D2B
S315000017F018BF6FF0240420460BB030BDFFF74AFC3B
S31500001800F2E76FF07104F6E72DE9F04F82460F46D6
S315000018109846164691B012B31568DAF8003023F0F0
S315000018204002802A02D0B3F5807F70D1DB08002405
S3150000183005931023CDE908341B9BCDE906480AF130
S3150000184004023B44049202930DF11C0BBC4208D3E4
S31500001850002E62D00020356011B0BDE8F08F15462D
S31500001860DBE75DB11B9B1A9A1B5D525D0135534048
S315000018701C9A05F00F0513550134E7E7A7EB040999
S31500001880B9F10F0F1DD91B9B29F00F092344CDE990
S315000018900A391C9B0C952344CDE90D390F9500F0B0
S315000018A03FF80028D8D15B460DAA0AA9CDF800B0AA
S315000018B004A8FFF703FC039000F048F8039B4BBB1A
S315000018C04C441B9B03EB04091C9B1C44029B4B458D
S315000018D001D13C46BAE77DB94246012150461A9BE2
S315000018E0FFF75BFF08F1100212F8013D0133DBB28E
S315000018F013700BB99045F7D11A9A19F8013B525D4E
S315000019000135534004F8013B05F00F05DEE76FF0A3
S315000019107100A1E76FF024009EE730469CE70000C7
S31500001920094B00209A6E42F400529A66D3F8602260
S3150000193042F00102C3F86022D3F8602242F00202AC
S31500001940C3F86022704700BF00800040094B0020AA
S315000019509A6E22F400529A66D3F8602222F00102AF
S31500001960C3F86022D3F8602222F00202C3F8602294
S31500001970704700BF0080004000207047002070477D
S3150000198000207047002070470020704700207047F5
S315000019900120704700239B6A186970470023986AE4
S315000019A070474FF4004070470120704741F206002F
S315000019B07047000010B5ADF50A7D4FF402720020A5
S315000019C008A901F04BFA40F20124002108A801F011
S315000019D088F9A042F9D040F20323984227D19DF816
S315000019E0203059070CD49DF820309A0730D4DB07F5
S315000019F01DD50B99869801F0A7FAC0B1002018E012
S31500001A00129800F019FA0028EDD0FFF789F8194B63
S31500001A100446984210D11C22002101A801F008FCBE
S31500001A2068460094FFF79AF8B0F5403F04D140F2BB
S31500001A3005400DF50A7D10BD869801F041FA002893
S31500001A40D1D0FFF7AEFF00F00BFA0028CBD1EEE7BE
S31500001A500022926A099992689142C8D9869801F043
S31500001A604DFA0028E3D0FFF79CFF119900F0B8F972
S31500001A70DDE700BF000003434FF488207047FFF7FF
S31500001A8099BF0000004870474CE3070000487047C4
S31500001A906CE307000048704786E2070008B54FF47C
S31500001AA0003141F26803044AD150FEF75FFEB0FAF6
S31500001AB080F0400908BD00BF00800040072BF8B544
S31500001AC006460F4614461D4601D90020F8BD0121E1
S31500001AD02020FEF7D5FD01212120FEF7D1FD9CB186
S31500001AE044EA06039B07F0D141F268034FF4003144
S31500001AF0064A2846D15023463A463146FEF79CFE12
S31500001B00B0FA80F04009E1E70120DFE700800040FD
S31500001B1038B5134672B103439B070DD141F26803F2
S31500001B204FF40035054CE550FEF74AFEB0FA80F05A
S31500001B30400938BD0120FCE70020FAE7008000409C
S31500001B40C0F30C032DE9F04105460F4616460BB9C6
S31500001B50FFF7A4FF05F5005424F4FF5424F01F04F6
S31500001B6005EB0608A04507D8324639462846BDE8A3
S31500001B70F0410223FFF7A2BF2046FFF78FFF04F5CF
S31500001B800054EFE770B504460E461546FFF706FF0C
S31500001B900369A3420AD8426963199A4206D32A46C0
S31500001BA031462046BDE87040FFF7CABF70BD2DE93B
S31500001BB0F041154607468846FFF7F0FE0646FFF752
S31500001BC0F0FEC4196319B3F5002F0FD83FB9FFF71C
S31500001BD0E8FE7369834202D93069FFF75FFF2A4640
S31500001BE041462046BDE8F041FFF7AABFBDE8F081B7
S31500001BF0F0B585B06C46024626460D4B03F110073C
S31500001C00254618685968083303C5BB422C46F7D1E8
S31500001C1004AB501E13F8011D10F8012F914204D198
S31500001C20B342F7D1012005B0F0BD0020FBE700BFAD
S31500001C308D340000007C01288CBF002001207047F5
S31500001C4038B504460D46FFF7D3FF48B16369012B4B
S31500001C5009D12046FFF7EEFF08B1A3692B6038BD16
S31500001C602C600120FBE70020F9E740F20463F0B5A1
S31500001C70A1B0446B05460493FFF790FE0646204646
S31500001C80FFF7B6FF10B9002021B0F0BD2046FFF7E0
S31500001C90D1FF0028F7D0FFF779FE002847D134237B
S31500001CA01F683846FFF7A4FF0028ECD045F6C0733E
S31500001CB09F42E8D8002320A901F8713D2046FEF78F
S31500001CC01EFA0028DFD005A92046FFF7B9FF002835
S31500001CD0D9D0059B32699A42D5D8AB42D3D3B3F556
S31500001CE0002FD0D806A8FEF799FB059A2946521B65
S31500001CF006A8FEF7A7FB06A8FEF7A6FB059DFFF7BD
S31500001D0043FE2035059ED8B19DF80F30B3B1A36BC5
S31500001D1003F12402009204332A46314606A8FEF750
S31500001D2003FB04900498B0FA80F04009ACE7012167
S31500001D30206AFEF7E1F90028B1D1A4E7BB6BE7E71B
S31500001D40FFF7A0FE0446FFF7A1FE23460090E3E757
S31500001D50F8B5D0E9006706F160460446456BFFF723
S31500001D601DFEB6F5004F01D90020F8BD0369BB4240
S31500001D70FAD8B7F5002FF7D84033AB4202D8B5F5FD
S31500001D80002F05D9FEF77AFA80F00100C0B2ECE721
S31500001D90FEF774FA20B12046BDE8F840FFF765BFAC
S31500001DA02846FFF725FFB8B12846FFF743FF00286E
S31500001DB0DAD06B69002BD8D0022BECD1AB69C4F119
S31500001DC0040119444FF0FF322046FEF759FA034B3F
S31500001DD0C31A58425841C8E70120C6E7E320BBDED4
S31500001DE070B54FF0FF3288B006460D46FEF748FA4A
S31500001DF00F4B984219D1FEF781F940F2022000F00C
S31500001E00D8F81C22002101A801F012FA094B08ACEF
S31500001E1044F8203D31462046FEF77CFD2046294603
S31500001E20FEF778FD2046FEF77FFD002008B070BD66
S31500001E30E320BBDE010006434FF0FF3313B5044633
S31500001E4002A840F8043DFEF727FE30B90198A042EB
S31500001E502CBF0020012002B010BD0020FBE70000CF
S31500001E6030B5054689B040F2022000F0A2F81C22E7
S31500001E70002101A801F0DCF9064B08AC44F8203D2E
S31500001E8029462046FEF746FD2046FEF74DFD00207A
S31500001E9009B030BD00000343B1F5027F10B504461A
S31500001EA010D34FF40272002101F0C2F9002304F5A9
S31500001EB0C872637004F5A47104F12C00BDE81040EB
S31500001EC000F0F2B940F2052010BD13B504460091AA
S31500001ED001462C3000F02EFAC4F8040218B141F283
S31500001EE00703984209D1A3784BB140F2032040F290
S31500001EF00223E278002A08BF184602B010BD40F25D
S31500001F000120FAE72DE9F04387B002AF0446884680
S31500001F1091460021102238461D460E9E01F088F992
S31500001F2000211C223160284601F082F94B464246C8
S31500001F300097214604F12C0000F0FCF923789A075B
S31500001F4044BF636833602378DB0709D504F10803CF
S31500001F5004F1240253F8041B934245F8041BF9D1FB
S31500001F60237840F20640002B18BF002007B0BDE8DA
S31500001F70F0834FF4027070474FF000534CF23C323E
S31500001F805A8070474FF000534AF6C0325A80704765
S31500001F904FF000534FF20F025A8070474FF0005334
S31500001FA04AF6C0305B8823F00F031B1A584258418B
S31500001FB070474FF0005208B51080FFF7EFFF10B9D9
S31500001FC04FF20F03538008BD08B5FFF7E7FF20B1B6
S31500001FD04FF00053987800F00F0008BD08B5FFF7E2
S31500001FE0DDFF50B14FF00052538803F00F010F2967
S31500001FF014BF013323F00F03538008BD08B5FFF764
S31500002000D8FFBFF34F8F0549054BCA6802F4E0625B
S315000020101343CB60BFF34F8F00BFFDE700ED00E039
S315000020200400FA0508B5FFF7B9FF30B94FF00053C1
S315000020304FF20F015A888A4203D14FF00053188895
S3150000204008BD3AB91B8840F20220012B18BF4FF495
S315000020500070F5E74FF40070F2E770B5D1E9015270
S31500002060AA4205D290F840302B449B1A402B10D937
S31500002070002012E00A6890F84040D65C90F84120B3
S315000020800133224402F03F02013486548B6080F80B
S3150000209040408B689D42EDD8012070BD2DE9F84384
S315000020A01746D1E90125521B90F8405004462A44B0
S315000020B093420E469DF820909DF8248057D9FFF74D
S315000020C0CCFF00285DD1152341F2020084F846308A
S315000020D0BDE8F88394F84120A25C7A5594F8412033
S315000020E00135013202F03F0284F8412094F8402085
S315000020F0013A84F8402094F8402012B1AB42E9D16D
S315000021001D46D6E901128A4201D2AB4231D8AB4212
S31500002110D9D1D4F8882029463846FEF7B1F8C4F854
S315000021208800B9F1000F04D02A463946E06CFEF764
S3150000213089F9B8F1000F08D094F843302BB12B463B
S315000021403A463946A06CFEF7DDF894F8433043B1C1
S31500002150E36DA26D2B449342E36524BF002384F80C
S315000021604330636D41F203001D446565B0E7002509
S31500002170C1E731688A5C7A55B26801350132B260CE
S31500002180BFE70020A4E700007FB50023CDE90033B8
S31500002190082315460DEB03020446FFF77FFF41F2C5
S315000021A003039842064626D194F8433063B10822C9
S315000021B0E06C0DEB0201FEF745F908230DEB030277
S315000021C01146A06CFEF79EF8039A029B6A6094F88B
S315000021D043202B605AB9094A934208D0084A9342D1
S315000021E005D00822E06C0DEB0201FEF72BF96B68B7
S315000021F0236500236365304604B070BDF70A0AF70D
S31500002200FC0404FC2DE9F843044658680D461646BE
S315000022101F46002843D08B0743D1FFF7BBFB216E37
S3150000222000F1040C06EB0109CC451DD800F11C0297
S31500002230914219D28C45634638BF0B46914594BFEF
S31500002240C3EB0909C3EB0209591AA3EB0C0005EB12
S31500002250010868304A464146204400F0DCFF4A4601
S31500002260FF21404600F0E4FFFFF79BFB226E031DB3
S3150000227093420AD3B1180830814206D39B1AEA5812
S31500002280C4F880204FF0FF32EA50D7E900383246D2
S31500002290206E2946C0470020236E1E442666BDE8F0
S315000022A0F88341F20200FAE72DE9F04100254FF0EC
S315000022B0FF3704468846164603F0200380F842306E
S315000022C080F84650A0F8405080F8435080F84550BA
S315000022D080F84450C0F88870C0E918551822FF21CC
S315000022E0683000F0A5FFC4F88070C4F88470C4E9B3
S315000022F012868822294604F1900000F099FF84F89E
S315000023001851FFF73FFB30B1B8F1000F03D141F28E
S315000023100B00BDE8F081FFF733FB30B1002EF6D09D
S31500002320E06CFEF77BF80020F3E7002EF8D130468C
S31500002330EFE700002DE9F04FB7B0CDE909233422CD
S31500002340D2F800A045F6C0720393002392450446D6
S315000023508846409D0B9300F2E28099460B9A039BB8
S315000023609A425CD294F84630152BF8D8DFE813F081
S315000023708E00A7008700D40059004000370056029F
S31500002380400050024000370240005002440320043F
S315000023901600B403B803D403C90220040027636DF2
S315000023A00F2B71D8012610230CAA0197009609A9B4
S315000023B02046FFF773FE41F203030690069A9A42FF
S315000023C06FD1D4F848B0FFF765FB80230DAACDE99D
S315000023D00003022133465846FDF76AFFDFE7012670
S315000023E0D4E914329A42C0F06C8184F84660B5E7AD
S315000023F00DF1300BD4E91462B2420B9944D20A9B18
S31500002400B61A94F840205B1A032E134440F20A824F
S31500002410032B00F2308209A92046FFF71EFE00209A
S315000024207FE00126636D072B98D808230CAACDE917
S31500002430006609A92046FFF731FE41F20303069024
S31500002440069A9A422DD198F8003043F0020388F894
S3150000245000300C9BC8F80430236D083BC8F82430C4
S315000024600D9B0593002B57D1052284F8462094F83E
S315000024704520636642F0010284F84520D2E7002633
S31500002480636D072B40F2E480012315E007AA09A932
S315000024902046FFF779FE41F203030690069A9A4218
S315000024A001D006983DE0089B079A236500236365E3
S315000024B0A04B9A4230D1022384F846304EE707AA51
S315000024C009A92046FFF760FE41F203030690069A2B
S315000024D09A42E6D194F84420079B22B1964A934249
S315000024E01AD10E23E8E794F84220D60756D594F879
S315000024F04320002A40F05F83904A934248D01BD87D
S315000025008F4A934200F098800ED88A4A934203D0AD
S3150000251002F1B64293421AD1152384F8463041F2AD
S31500002520010037B0BDE8F08F864A9342F4D0864A60
S315000025309342F1D0854AEDE7854A93421ED00FD8E3
S31500002540844A934200F05983834A934218D0152354
S3150000255007A884F84630FFF70FFA0028DFD11AE003
S315000025607E4A9342D8D07E4A9342D5D0724A93424D
S31500002570EDD1FFF705FA0028B3D0CDE710239BE78E
S31500002580112384F84630236DA3650023E365E5E651
S31500002590152384F8463041F20800C2E76A4A93429E
S315000025A036D000F21C83664A934240D000F20D8377
S315000025B002F1D74202F5D81202F6F832934223D03E
S315000025C007A8FFF7D9F9002838D01423079884F80C
S315000025D04630C4F88C00FFF7D1F994F842308146B2
S315000025E098067FF5BBAEB9F1000F3FF4B7AED9F848
S315000025F00430002B3FF4B2AE204698470690069B67
S31500002600002B3FF4ABAE8AE70B2355E7062353E7CF
S31500002610072351E70D234FE7FFF7B2F900287FF4B0
S315000026207BAF94F84330002B3FF45BAF74E794F82C
S315000026304330002B7FF470AF12233DE7152384F857
S31500002640463094F84330002BA5D041F2040068E7E9
S3150000265001230CAA00930196082309A92046FFF737
S315000026601DFD41F203030690069A9A427FF419AFC4
S315000026700C9B03F07F43B3F1407F05D0152341F255
S31500002680090084F846304CE70D9BD90705930ED513
S3150000269094F8423043F0010384F84230FFF770F9B2
S315000026A000283FF4EDAE059BDA0504D5E8E6FFF712
S315000026B069F90028F2D0152341F20A0084F8463061
S315000026C02FE70CAACDE9006609A92046FFF7E6FC2C
S315000026D041F203030690069A9A427FF4E2AE08F1AD
S315000026E008073B460DF1300C0DF1480E624603CA51
S315000026F0724518605960944603F10803F6D11068D4
S31500002700186098F80030384643F0010388F8003026
S31500002710FFF74AF928B9152341F20C0084F8463030
S31500002720FFE600213846FFF733F900287FF458AE5C
S31500002730F1E700BFEB17A603FC0404FCF70909F751
S31500002740F30B0BF3F50909F5F60808F6F40A0AF493
S31500002750FA0606FAF70A0AF7F90707F9FD0303FD71
S31500002760FE0101FE01230EAACDE9003309A90823C3
S315000027702046FFF793FC41F203030690069A9A421D
S315000027807FF48FAE98F8003043F0040388F80030E9
S315000027900F9BC8F8283098F801305B071CD500203D
S315000027A0A34B60660C93236DC4F8843094F84530CF
S315000027B043F0020384F84530EE686EB12B680422BC
S315000027C00CA9B0470822606E2B68EE680EA910446B
S315000027D0B047636E103363660C2384F84630636D2E
S315000027E0072BBFD9BAE504230CAACDE9006609A9CF
S315000027F02046FFF753FC41F203030690069A9A42DD
S315000028007FF44FAE226D0C9B042A059301D92366F3
S315000028100126636D032BE6D90A234DE60023636682
S31500002820082349E69E423FF6F6AD9E4228BF1E4665
S315000028300123032E88BF26F00306CDE900335A464E
S31500002840334609A92046FFF729FC41F20303069007
S31500002850069A9A427FF425AE94F84630082B13D197
S31500002860AF688FB12B6832465946606EB847636EC3
S315000028701E446666BEE5402E28BF4026D5E74FF0CB
S31500002880FF320BF806200136032EF8D90A2B11D198
S315000028906B683BB1012108F10800FFF779F80028C1
S315000028A03FF439AF2B46324659462046FFF7AAFC7D
S315000028B006909FE5052B18D198F801309F077FF504
S315000028C099ADEB68002B3FF495AD626E042A0AD8E9
S315000028D09319062B07D90DAB9B1A1A68C4F88420E6
S315000028E04FF0FF321A60EF68BCE70C2B7FF482AD25
S315000028F098F8013058077FF57DADEF68002FB1D10C
S3150000290078E594F84230990607D5D4F88C00FFF79D
S3150000291035F8814600283FF402AE6B683BB10121D1
S3150000292008F10800FFF734F800283FF4F4AE012759
S3150000293043E0002B5ED0B9F1000F5BD0D9F8103020
S31500002940002B57D020469847DDE90A63F61A94F81B
S315000029504030334498423FF65EADD4E91462B61A6D
S31500002960402E28BF40269E4228BF1E460CAA33464C
S31500002970CDE9007709A92046FFF790FB41F2030352
S315000029800690069A9A427FF48CAD94F842309A06E5
S3150000299013D5B9F1000F3FF4C2ADD9F808B0BBF1B9
S315000029A0000F3FF4BCAD2B4632460CA92046D84753
S315000029B00690069B002B7FF474ADD4E9142194F89D
S315000029C04230914203F02003B3D3002B3FF45CADB9
S315000029D0B9F1000F3FF458ADD9F80C30002B3FF495
S315000029E053AD2946204698470690069B002B3FF498
S315000029F04BAD56E50120A7E700230CAACDE900332D
S31500002A0009A904232046FFF749FB41F20303069078
S31500002A10069A9A427FF445ADD4F88820054B9A422F
S31500002A200AD0152341F2050084F8463079E500BF47
S31500002A30EB17A65EE320BBDEFEF7A2FF10B901236B
S31500002A4088F8033098F80330002B3ED094F84530D0
S31500002A509B0707D0EE682EB104222B6804F184018F
S31500002A601046B047236E83B36B6873B34FF0FF33E2
S31500002A7036AF47F8C43D04F180090422494638467A
S31500002A8000F0B9FB40B1FEF78CFF28B1D5E900365E
S31500002A90042249461044B04704F168060422314630
S31500002AA0384600F0A8FB80B16F68FEF773FF2B680D
S31500002AB0142204F16C010830B8476F68FEF76AFF0C
S31500002AC004222B6831461044B847012388F80230A7
S31500002AD00F2384F84630A2E4012384F84330EBE464
S31500002AE094F81831002B7FF439AC1CAB524609A977
S31500002AF02046FEF75BFF41F206030690069A9A42CD
S31500002B0003D1152384F84630CBE441F20303069A39
S31500002B109A423FF423ACC4E494F84430002B7FF48B
S31500002B20B3ACCDE900330CAA402309A92046FFF730
S31500002B30B5FA41F203030690069A9A427FF4B1ACC5
S31500002B40E06CFDF781FC94F81831ABB104F1B403E5
S31500002B50009304F19403E06C14AA0CA9FDF7E4FBBE
S31500002B600690069BF3B1002388F80330152341F243
S31500002B70060084F84630D4E4FEF706FF30B1DAF8F2
S31500002B80383003F1240200920433E4E7E66CFEF7E2
S31500002B9079FF0746FEF77AFF3B46009014AA0CA978
S31500002BA03046DBE7012388F8033084F844306BE4D1
S31500002BB041F20700B5E4174A93423FF429AD0ED817
S31500002BC0154A93427FF4F2ACA6E4144A93423FF4CA
S31500002BD01DAD134A93427FF4F3AC04236CE4114A0F
S31500002BE093423FF419AD0AD80F4A93427FF4E8ACFA
S31500002BF094F84330002B7FF48FAC13235CE40B4A2C
S31500002C0093423FF407AD0A4A93427FF4D9AC0923B5
S31500002C1052E400BFF60808F6F30B0BF3F40A0AF4C5
S31500002C20F50909F5FC0404FCF70A0AF7FD0303FDA0
S31500002C30FE0101FE31B10A4B5A68824205D80023D3
S31500002C40C1E9003340F201407047013053F83020AB
S31500002C5003EBC0035B680A604B600020704700BF4F
S31500002C605C33000001221A707047000070B40D4CEE
S31500002C700E461146626882420DD9013004EBC0024D
S31500002C805268F51895420AD854F830001A4630446E
S31500002C9070BCFDF7C5BF40F2014070BC704740F202
S31500002CA00240FAE75C33000030B504460D46A3B097
S31500002CB002AAD0F800128023D0F8F801FFF7D6FF59
S31500002CC00095802302AA214604F12C00FFF732FB6F
S31500002CD0D4F80032C4F804028033C4F8003223B0BA
S31500002CE030BD1FB50023CDE90033CDE90213D0F87E
S31500002CF004320446A3B9D0F80022D0F8FC319A4237
S31500002D000ED26946FFF7D0FFD4F8040298B141F21B
S31500002D10070240F20123904208BF184604B010BDD6
S31500002D20A3785BB140F2022040F20323E278002A46
S31500002D3018BF1846F2E740F20120EFE740F2022002
S31500002D40ECE7000070B50D46002186B006AB03F82F
S31500002D50111D02931E4B04461646116028461C227E
S31500002D60CDE90333059300F063FA9DF8072062B9B5
S31500002D7094F87230142B08D0D4F804322BB9D4F856
S31500002D800012D4F8FC3199421AD32378990744BF2C
S31500002D90636833602378DB0709D504F1080304F17F
S31500002DA0240153F8040B8B4245F8040BF9D162B9A0
S31500002DB0237840F20640002B18BF002006B070BDF5
S31500002DC002A92046FFF770FFCFE70020F6E700BF15
S31500002DD0652C000070B40D4C0E46114662688242A6
S31500002DE00DD9013004EBC0025268F51895420AD895
S31500002DF054F830001A46304470BCFDF727BF40F245
S31500002E00014070BC704740F20240FAE75C330000B4
S31500002E10074B5A68824207D9013003EBC00251685A
S31500002E2053F83000FDF734BF40F20140704700BF51
S31500002E305C33000010B5044660B14FF480320023C5
S31500002E40C0E90023044B1A785B680272C360FDF781
S31500002E50D3FE206110BD00BF5C33000037B50C46C1
S31500002E60054611462046FFF717F848B96946284631
S31500002E70FFF7E0FE20B9019BC4F8F851C4F8FC3115
S31500002E8003B030BD38B500F5C87204460D462023A0
S31500002E9000F5A4712C30FFF707FAD4F804322BB9E9
S31500002EA0D4F80022D4F8FC319A4203D3A07800B1BA
S31500002EB0E07838BD29462046FFF7F6FEEDE700002C
S31500002EC000B5ADF5077D4FF4027204A9FFF7C6FF02
S31500002ED078B904238DF81130074BCDE90000029034
S31500002EE0694604A80393FFF7CDFF0DF5077D5DF84E
S31500002EF004FB0020F9E700BFAF1B000030B5ADF5BD
S31500002F00077D0D460446FEF749FD8368AB4203D3B1
S31500002F1000200DF5077D30BD4FF4027204A920464E
S31500002F20FFF79CFF0028F3D102238DF81130054BE3
S31500002F30CDE900000290694604A80393FFF7A2FFBB
S31500002F40E7E700BFAF1B000000B5ADF5077D4FF406
S31500002F50027204A9FFF782FF78B901238DF81130B8
S31500002F60074B0090CDE901300390694604A8FFF7AE
S31500002F7089FF0DF5077D5DF804FB0020F9E700BF2A
S31500002F80851B00002DE9F0419AB0502204460D46FB
S31500002F9006A8002100F04CF91422002101A800F037
S31500002FA047F901A8FFF746FF049B012B0ED8002323
S31500002FB04FF0FF3223600123AB4203D300201AB047
S31500002FC0BDE8F08144F823200133F5E7AB426BD32B
S31500002FD0FEF752FD059B0C2206A90646DF68FDF7A3
S31500002FE01FFE0028EBD1DFF8CC80069B434516D1A7
S31500002FF0089A06A93046FDF713FE4FF0FF320899EE
S3150000300006A8FDF73DF92A4B984233D04FF0FF331F
S3150000301004EB8505A54213D044F8043BFAE7374490
S315000030200C2206A93846FDF7FBFD0028C7D1069BF2
S3150000303043450BD04FF0FF3304EB8505A54202D183
S3150000304040F20550BBE744F8043BF7E706A9089AA7
S315000030503846FDF7E5FD059B3046D968FDF718FEB5
S315000030600028ACD1089A06A93046FDF7EFFD0028E6
S31500003070BED0A4E7089BA3F110029208AA4228BF7B
S315000030802A460023934207D14FF0FF32AB4295D236
S3150000309044F823200133F9E706A901EB8301C96847
S315000030A044F823100133EDE740F2045087E700BFF0
S315000030B0E320BBDE39528FE1F0B59BB00D464422CA
S315000030C00021074609A800F0B3F801232F4A002182
S315000030D0CDE906235023142201A8089300F0A8F88E
S315000030E001A8FFF7A7FE049BAB424BD3012B08D8E0
S315000030F03B6840F204500133012B98BF00201BB0FF
S31500003100F0BDFEF7B9FC059B102DDC68064628BF0E
S31500003110102500230444AB4226D14FF0FF32102B7A
S315000031202AD14C214FF0FF3206A8FDF7A9F8C0437B
S31500003130059B1990D9682046FDF7AAFD0028DED127
S31500003140502206A92046FDF781FD0028D7D1059B10
S315000031503046D968FDF79CFD0028D0D1502206A93B
S315000031603046FDF773FDCAE757F8231006AA02EBAF
S315000031708302D1600133CEE706A901EB8301CA6061
S315000031800133CCE740F20450B9E700BF39528FE172
S3150000319070B596B014220021064601A800F048F842
S315000031A001A8FFF747FE049C012C1ED906AD214657
S315000031B02846FFF7E7FE20B140F2055398420DD1AD
S315000031C0002055F820305A1C0AD116AB03EB8000BC
S315000031D040F8406C21462846FFF76EFF16B070BDDA
S315000031E0B34205D001308442EBD140F20250F5E7FC
S315000031F040F20350F2E70139024410B5904201D182
S31500003200002005E0037811F8014FA34201D0181BF6
S3150000321010BD0130F2E70A44431E914200D17047C7
S3150000322010B511F8014B914203F8014FF9D110BDC9
S3150000323002440346934200D1704703F8011BF9E7A5
S31500003240F8B500BFF8BC08BC9E467047F8B500BF8D
S31500003250F8BC08BC9E46704707B0CD5E0100000072
S3150000326000000C01F43400000040000000000800DB
S31500003270F40001000301000007010000511D0000D9
S31500003280991E0000CB1E0000A0340000051F0000A0
S31500003290731F00000000000013B779FAC925DDB7D7
S315000032A0ADF3CFE0F1B614B8010100000100000053
S315000032B0783500004000000000000C01000000000E
S315000032C000000000000000000000000000000000F8
S315000032D0F0340000000000006A09E667BB67AE85AF
S315000032E03C6EF372A54FF53A510E527F9B05688CE2
S315000032F01F83D9AB5BE0CD19800000000000000001
S3150000330000000000000000000000000000000000B7
S3150000331000000000000000000000000000000000A7
S315000033200000000000000000000000000000000097
S315000033300000000000000000454652333200000045
S315000033400102030028000000280000000020000001
S3150000335000000800383300000400000001000000EF
S31500003360010000000040040000000300000000000F
S315000033700000000000000040000100000002000004
S3150000338000040000000800000010000000200000FB
S315000033900040000000800000000001000000000066
S315000033A001000000FFFFFFFF000000010000000019
S315000033B00000000000000000FFFFFFFFFFFFFFFF0F
S315000033C0FFFFFFFFFFFFFFFF00000000FFFFFFFF03
S315000033D0FFFFFFFFBCE6FAADA7179E84F3B9CAC28A
S315000033E0FC6325516B17D1F2E12C4247F8BCE6E5A8
S315000033F063A440F277037D812DEB33A0F4A1394518
S31500003400D898C2964FE342E2FE1A7F9B8EE7EB4ABC
S315000034107C0F9E162BCE33576B315ECECBB64068F3
S3150000342037BF51F5FFFFFFFF00000001000000005D
S315000034300000000000000000FFFFFFFFFFFFFFFF8E
S31500003440FFFFFFFC5AC635D8AA3A93E7B3EBBD5542
S31500003450769886BC651D06B0CC53B0F63BCE3C3E96
S3150000346027D2604BA4330000C0000000000000001B
S31500003470000010002000000010141C2030402040E6
S3150000348040404080804010142020404020B814B6B0
S31500003490F1E0CFF3ADB7DD25C9FA79B71300000027
S315000034A000010000352E0000352C00006D2C0000B8
S315000034B0D52D0000112E0000B9300000852F000028
S315000034C0913100005D2E0000E32C0000452D000028
S315000034D0110C0000210C00004D0C0000910C0000A6
S315000034E08B0C000000000000650000004100000099
S315000034F001000000F81B3402A5545B14811DF62957
S315000035004E87D6F1FA02A3FC5A6900D9A414E6B68E
S315000035103AA850AAD8C37D6A737241C978283B5429
S31500003520A3B2880BFACA5A89C33029D5C70F03E05C
S31500003530BFD46451010000000D1C2CF622F3430F8A
S3150000354099B701EF43FD1807FAFF73B96168FBF4F9
S31500003550B096E0B8BA09E2E2115793E605BCAC149E
S31500003560561F54509085B104258765C7542B776E36
S3150000357030582973FCE33A8A788C8D31BC288459FB
S3150000358029B749D144740992A1B522174CAFF54B1E
S3150000359066FBF1FB4D5046A0C7EDBC1276AC9E62B1
S315000035A062CAD6E7D7EF9867D9245A7223A980D67C
S30D000035B0D69257895BE7F7D8B4
S503035C9D
S70500000000FA
